{
	"Project.sol": {
		"Inheritance": {
			"abi": [
				{
					"inputs": [],
					"stateMutability": "nonpayable",
					"type": "constructor"
				},
				{
					"inputs": [],
					"name": "addFunds",
					"outputs": [],
					"stateMutability": "payable",
					"type": "function"
				},
				{
					"inputs": [
						{
							"internalType": "address payable",
							"name": "walletAddress",
							"type": "address"
						},
						{
							"internalType": "string",
							"name": "name",
							"type": "string"
						}
					],
					"name": "addHeir",
					"outputs": [],
					"stateMutability": "nonpayable",
					"type": "function"
				},
				{
					"inputs": [],
					"name": "distributeInheritance",
					"outputs": [],
					"stateMutability": "nonpayable",
					"type": "function"
				},
				{
					"inputs": [
						{
							"internalType": "address payable",
							"name": "walletAddress",
							"type": "address"
						}
					],
					"name": "removeHeir",
					"outputs": [],
					"stateMutability": "nonpayable",
					"type": "function"
				},
				{
					"inputs": [],
					"name": "viewFunds",
					"outputs": [
						{
							"internalType": "uint256",
							"name": "",
							"type": "uint256"
						}
					],
					"stateMutability": "view",
					"type": "function"
				},
				{
					"inputs": [],
					"name": "viewHeirs",
					"outputs": [
						{
							"components": [
								{
									"internalType": "address payable",
									"name": "walletAddress",
									"type": "address"
								},
								{
									"internalType": "string",
									"name": "name",
									"type": "string"
								}
							],
							"internalType": "struct Inheritance.Heir[]",
							"name": "",
							"type": "tuple[]"
						}
					],
					"stateMutability": "view",
					"type": "function"
				}
			],
			"devdoc": {
				"kind": "dev",
				"methods": {},
				"version": 1
			},
			"evm": {
				"assembly": "    /* \"Project.sol\":60:2609  contract Inheritance {... */\n  mstore(0x40, 0x80)\n    /* \"Project.sol\":129:179  constructor(){... */\n  callvalue\n  dup1\n  iszero\n  tag_1\n  jumpi\n  0x00\n  dup1\n  revert\ntag_1:\n  pop\n    /* \"Project.sol\":161:171  msg.sender */\n  caller\n    /* \"Project.sol\":153:158  owner */\n  0x00\n  dup1\n    /* \"Project.sol\":153:171  owner = msg.sender */\n  0x0100\n  exp\n  dup2\n  sload\n  dup2\n  0xffffffffffffffffffffffffffffffffffffffff\n  mul\n  not\n  and\n  swap1\n  dup4\n  0xffffffffffffffffffffffffffffffffffffffff\n  and\n  mul\n  or\n  swap1\n  sstore\n  pop\n    /* \"Project.sol\":60:2609  contract Inheritance {... */\n  dataSize(sub_0)\n  dup1\n  dataOffset(sub_0)\n  0x00\n  codecopy\n  0x00\n  return\nstop\n\nsub_0: assembly {\n        /* \"Project.sol\":60:2609  contract Inheritance {... */\n      mstore(0x40, 0x80)\n      jumpi(tag_1, lt(calldatasize, 0x04))\n      shr(0xe0, calldataload(0x00))\n      dup1\n      0x1d93ebdc\n      eq\n      tag_2\n      jumpi\n      dup1\n      0x379b2495\n      eq\n      tag_3\n      jumpi\n      dup1\n      0x53a41b50\n      eq\n      tag_4\n      jumpi\n      dup1\n      0xa26759cb\n      eq\n      tag_5\n      jumpi\n      dup1\n      0xe1a731c3\n      eq\n      tag_6\n      jumpi\n      dup1\n      0xebb9d2e3\n      eq\n      tag_7\n      jumpi\n    tag_1:\n      0x00\n      dup1\n      revert\n        /* \"Project.sol\":730:1253  function addHeir(address payable walletAddress, string memory name) public {... */\n    tag_2:\n      callvalue\n      dup1\n      iszero\n      tag_8\n      jumpi\n      0x00\n      dup1\n      revert\n    tag_8:\n      pop\n      tag_9\n      0x04\n      dup1\n      calldatasize\n      sub\n      dup2\n      add\n      swap1\n      tag_10\n      swap2\n      swap1\n      tag_11\n      jump\t// in\n    tag_10:\n      tag_12\n      jump\t// in\n    tag_9:\n      stop\n        /* \"Project.sol\":399:492  function viewFunds() public view returns(uint){... */\n    tag_3:\n      callvalue\n      dup1\n      iszero\n      tag_13\n      jumpi\n      0x00\n      dup1\n      revert\n    tag_13:\n      pop\n      tag_14\n      tag_15\n      jump\t// in\n    tag_14:\n      mload(0x40)\n      tag_16\n      swap2\n      swap1\n      tag_17\n      jump\t// in\n    tag_16:\n      mload(0x40)\n      dup1\n      swap2\n      sub\n      swap1\n      return\n        /* \"Project.sol\":2063:2433  function distributeInheritance() public {... */\n    tag_4:\n      callvalue\n      dup1\n      iszero\n      tag_18\n      jumpi\n      0x00\n      dup1\n      revert\n    tag_18:\n      pop\n      tag_19\n      tag_20\n      jump\t// in\n    tag_19:\n      stop\n        /* \"Project.sol\":297:340  function addFunds() payable public {... */\n    tag_5:\n      tag_21\n      tag_22\n      jump\t// in\n    tag_21:\n      stop\n        /* \"Project.sol\":1900:1988  function viewHeirs() public view returns (Heir[] memory) {... */\n    tag_6:\n      callvalue\n      dup1\n      iszero\n      tag_23\n      jumpi\n      0x00\n      dup1\n      revert\n    tag_23:\n      pop\n      tag_24\n      tag_25\n      jump\t// in\n    tag_24:\n      mload(0x40)\n      tag_26\n      swap2\n      swap1\n      tag_27\n      jump\t// in\n    tag_26:\n      mload(0x40)\n      dup1\n      swap2\n      sub\n      swap1\n      return\n        /* \"Project.sol\":1308:1849  function removeHeir(address payable walletAddress) public {... */\n    tag_7:\n      callvalue\n      dup1\n      iszero\n      tag_28\n      jumpi\n      0x00\n      dup1\n      revert\n    tag_28:\n      pop\n      tag_29\n      0x04\n      dup1\n      calldatasize\n      sub\n      dup2\n      add\n      swap1\n      tag_30\n      swap2\n      swap1\n      tag_31\n      jump\t// in\n    tag_30:\n      tag_32\n      jump\t// in\n    tag_29:\n      stop\n        /* \"Project.sol\":730:1253  function addHeir(address payable walletAddress, string memory name) public {... */\n    tag_12:\n        /* \"Project.sol\":838:843  owner */\n      0x00\n      dup1\n      sload\n      swap1\n      0x0100\n      exp\n      swap1\n      div\n      0xffffffffffffffffffffffffffffffffffffffff\n      and\n        /* \"Project.sol\":824:843  msg.sender == owner */\n      0xffffffffffffffffffffffffffffffffffffffff\n      and\n        /* \"Project.sol\":824:834  msg.sender */\n      caller\n        /* \"Project.sol\":824:843  msg.sender == owner */\n      0xffffffffffffffffffffffffffffffffffffffff\n      and\n      eq\n        /* \"Project.sol\":816:885  require(msg.sender == owner, \"Only the owner can call this function\") */\n      tag_34\n      jumpi\n      mload(0x40)\n      0x08c379a000000000000000000000000000000000000000000000000000000000\n      dup2\n      mstore\n      0x04\n      add\n      tag_35\n      swap1\n      tag_36\n      jump\t// in\n    tag_35:\n      mload(0x40)\n      dup1\n      swap2\n      sub\n      swap1\n      revert\n    tag_34:\n        /* \"Project.sol\":896:911  bool heirExists */\n      0x00\n        /* \"Project.sol\":951:952  1 */\n      0x01\n        /* \"Project.sol\":935:940  heirs */\n      dup1\n        /* \"Project.sol\":935:947  heirs.length */\n      dup1\n      sload\n      swap1\n      pop\n        /* \"Project.sol\":935:952  heirs.length >= 1 */\n      lt\n        /* \"Project.sol\":932:1156  if(heirs.length >= 1){... */\n      tag_37\n      jumpi\n        /* \"Project.sol\":972:978  uint i */\n      0x00\n        /* \"Project.sol\":968:1145  for(uint i = 0; i < heirs.length; i++) {... */\n    tag_38:\n        /* \"Project.sol\":988:993  heirs */\n      0x01\n        /* \"Project.sol\":988:1000  heirs.length */\n      dup1\n      sload\n      swap1\n      pop\n        /* \"Project.sol\":984:985  i */\n      dup2\n        /* \"Project.sol\":984:1000  i < heirs.length */\n      lt\n        /* \"Project.sol\":968:1145  for(uint i = 0; i < heirs.length; i++) {... */\n      iszero\n      tag_39\n      jumpi\n        /* \"Project.sol\":1055:1068  walletAddress */\n      dup4\n        /* \"Project.sol\":1029:1068  heirs[i].walletAddress == walletAddress */\n      0xffffffffffffffffffffffffffffffffffffffff\n      and\n        /* \"Project.sol\":1029:1034  heirs */\n      0x01\n        /* \"Project.sol\":1035:1036  i */\n      dup3\n        /* \"Project.sol\":1029:1037  heirs[i] */\n      dup2\n      sload\n      dup2\n      lt\n      tag_41\n      jumpi\n      tag_42\n      tag_43\n      jump\t// in\n    tag_42:\n    tag_41:\n      swap1\n      0x00\n      mstore\n      keccak256(0x00, 0x20)\n      swap1\n      0x02\n      mul\n      add\n        /* \"Project.sol\":1029:1051  heirs[i].walletAddress */\n      0x00\n      add\n      0x00\n      swap1\n      sload\n      swap1\n      0x0100\n      exp\n      swap1\n      div\n      0xffffffffffffffffffffffffffffffffffffffff\n      and\n        /* \"Project.sol\":1029:1068  heirs[i].walletAddress == walletAddress */\n      0xffffffffffffffffffffffffffffffffffffffff\n      and\n      sub\n        /* \"Project.sol\":1026:1130  if(heirs[i].walletAddress == walletAddress) {... */\n      tag_45\n      jumpi\n        /* \"Project.sol\":1106:1110  true */\n      0x01\n        /* \"Project.sol\":1093:1110  heirExists = true */\n      swap2\n      pop\n        /* \"Project.sol\":1026:1130  if(heirs[i].walletAddress == walletAddress) {... */\n    tag_45:\n        /* \"Project.sol\":1002:1005  i++ */\n      dup1\n      dup1\n      0x01\n      add\n      swap2\n      pop\n      pop\n        /* \"Project.sol\":968:1145  for(uint i = 0; i < heirs.length; i++) {... */\n      jump(tag_38)\n    tag_39:\n      pop\n        /* \"Project.sol\":932:1156  if(heirs.length >= 1){... */\n    tag_37:\n        /* \"Project.sol\":1170:1180  heirExists */\n      dup1\n        /* \"Project.sol\":1166:1246  if(!heirExists) {... */\n      tag_46\n      jumpi\n        /* \"Project.sol\":1197:1202  heirs */\n      0x01\n        /* \"Project.sol\":1208:1233  Heir(walletAddress, name) */\n      mload(0x40)\n      dup1\n      0x40\n      add\n      0x40\n      mstore\n      dup1\n        /* \"Project.sol\":1213:1226  walletAddress */\n      dup6\n        /* \"Project.sol\":1208:1233  Heir(walletAddress, name) */\n      0xffffffffffffffffffffffffffffffffffffffff\n      and\n      dup2\n      mstore\n      0x20\n      add\n        /* \"Project.sol\":1228:1232  name */\n      dup5\n        /* \"Project.sol\":1208:1233  Heir(walletAddress, name) */\n      dup2\n      mstore\n      pop\n        /* \"Project.sol\":1197:1234  heirs.push(Heir(walletAddress, name)) */\n      swap1\n      dup1\n      0x01\n      dup2\n      sload\n      add\n      dup1\n      dup3\n      sstore\n      dup1\n      swap2\n      pop\n      pop\n      0x01\n      swap1\n      sub\n      swap1\n      0x00\n      mstore\n      keccak256(0x00, 0x20)\n      swap1\n      0x02\n      mul\n      add\n      0x00\n      swap1\n      swap2\n      swap1\n      swap2\n      swap1\n      swap2\n      pop\n      0x00\n      dup3\n      add\n      mload\n      dup2\n      0x00\n      add\n      exp(0x0100, 0x00)\n      dup2\n      sload\n      dup2\n      0xffffffffffffffffffffffffffffffffffffffff\n      mul\n      not\n      and\n      swap1\n      dup4\n      0xffffffffffffffffffffffffffffffffffffffff\n      and\n      mul\n      or\n      swap1\n      sstore\n      pop\n      0x20\n      dup3\n      add\n      mload\n      dup2\n      0x01\n      add\n      swap1\n      dup2\n      tag_48\n      swap2\n      swap1\n      tag_49\n      jump\t// in\n    tag_48:\n      pop\n      pop\n      pop\n        /* \"Project.sol\":1166:1246  if(!heirExists) {... */\n    tag_46:\n        /* \"Project.sol\":805:1253  {... */\n      pop\n        /* \"Project.sol\":730:1253  function addHeir(address payable walletAddress, string memory name) public {... */\n      pop\n      pop\n      jump\t// out\n        /* \"Project.sol\":399:492  function viewFunds() public view returns(uint){... */\n    tag_15:\n        /* \"Project.sol\":440:444  uint */\n      0x00\n        /* \"Project.sol\":463:484  address(this).balance */\n      selfbalance\n        /* \"Project.sol\":456:484  return address(this).balance */\n      swap1\n      pop\n        /* \"Project.sol\":399:492  function viewFunds() public view returns(uint){... */\n      swap1\n      jump\t// out\n        /* \"Project.sol\":2063:2433  function distributeInheritance() public {... */\n    tag_20:\n        /* \"Project.sol\":2146:2147  0 */\n      0x00\n        /* \"Project.sol\":2122:2143  address(this).balance */\n      selfbalance\n        /* \"Project.sol\":2122:2147  address(this).balance > 0 */\n      gt\n        /* \"Project.sol\":2114:2188  require(address(this).balance > 0, \"Insufficient balance in the contract\") */\n      tag_52\n      jumpi\n      mload(0x40)\n      0x08c379a000000000000000000000000000000000000000000000000000000000\n      dup2\n      mstore\n      0x04\n      add\n      tag_53\n      swap1\n      tag_54\n      jump\t// in\n    tag_53:\n      mload(0x40)\n      dup1\n      swap2\n      sub\n      swap1\n      revert\n    tag_52:\n        /* \"Project.sol\":2218:2219  1 */\n      0x01\n        /* \"Project.sol\":2202:2207  heirs */\n      dup1\n        /* \"Project.sol\":2202:2214  heirs.length */\n      dup1\n      sload\n      swap1\n      pop\n        /* \"Project.sol\":2202:2219  heirs.length >= 1 */\n      lt\n        /* \"Project.sol\":2199:2426  if(heirs.length >= 1) {... */\n      tag_55\n      jumpi\n        /* \"Project.sol\":2236:2247  uint amount */\n      0x00\n        /* \"Project.sol\":2274:2279  heirs */\n      0x01\n        /* \"Project.sol\":2274:2286  heirs.length */\n      dup1\n      sload\n      swap1\n      pop\n        /* \"Project.sol\":2250:2271  address(this).balance */\n      selfbalance\n        /* \"Project.sol\":2250:2286  address(this).balance / heirs.length */\n      tag_56\n      swap2\n      swap1\n      tag_57\n      jump\t// in\n    tag_56:\n        /* \"Project.sol\":2236:2286  uint amount = address(this).balance / heirs.length */\n      swap1\n      pop\n        /* \"Project.sol\":2305:2311  uint i */\n      0x00\n        /* \"Project.sol\":2301:2415  for(uint i = 0; i < heirs.length; i++) {... */\n    tag_58:\n        /* \"Project.sol\":2321:2326  heirs */\n      0x01\n        /* \"Project.sol\":2321:2333  heirs.length */\n      dup1\n      sload\n      swap1\n      pop\n        /* \"Project.sol\":2317:2318  i */\n      dup2\n        /* \"Project.sol\":2317:2333  i < heirs.length */\n      lt\n        /* \"Project.sol\":2301:2415  for(uint i = 0; i < heirs.length; i++) {... */\n      iszero\n      tag_59\n      jumpi\n        /* \"Project.sol\":2359:2399  transfer(heirs[i].walletAddress, amount) */\n      tag_61\n        /* \"Project.sol\":2368:2373  heirs */\n      0x01\n        /* \"Project.sol\":2374:2375  i */\n      dup3\n        /* \"Project.sol\":2368:2376  heirs[i] */\n      dup2\n      sload\n      dup2\n      lt\n      tag_62\n      jumpi\n      tag_63\n      tag_43\n      jump\t// in\n    tag_63:\n    tag_62:\n      swap1\n      0x00\n      mstore\n      keccak256(0x00, 0x20)\n      swap1\n      0x02\n      mul\n      add\n        /* \"Project.sol\":2368:2390  heirs[i].walletAddress */\n      0x00\n      add\n      0x00\n      swap1\n      sload\n      swap1\n      0x0100\n      exp\n      swap1\n      div\n      0xffffffffffffffffffffffffffffffffffffffff\n      and\n        /* \"Project.sol\":2392:2398  amount */\n      dup4\n        /* \"Project.sol\":2359:2367  transfer */\n      tag_65\n        /* \"Project.sol\":2359:2399  transfer(heirs[i].walletAddress, amount) */\n      jump\t// in\n    tag_61:\n        /* \"Project.sol\":2335:2338  i++ */\n      dup1\n      dup1\n      0x01\n      add\n      swap2\n      pop\n      pop\n        /* \"Project.sol\":2301:2415  for(uint i = 0; i < heirs.length; i++) {... */\n      jump(tag_58)\n    tag_59:\n      pop\n        /* \"Project.sol\":2221:2426  {... */\n      pop\n        /* \"Project.sol\":2199:2426  if(heirs.length >= 1) {... */\n    tag_55:\n        /* \"Project.sol\":2063:2433  function distributeInheritance() public {... */\n      jump\t// out\n        /* \"Project.sol\":297:340  function addFunds() payable public {... */\n    tag_22:\n      jump\t// out\n        /* \"Project.sol\":1900:1988  function viewHeirs() public view returns (Heir[] memory) {... */\n    tag_25:\n        /* \"Project.sol\":1942:1955  Heir[] memory */\n      0x60\n        /* \"Project.sol\":1975:1980  heirs */\n      0x01\n        /* \"Project.sol\":1968:1980  return heirs */\n      dup1\n      sload\n      dup1\n      0x20\n      mul\n      0x20\n      add\n      mload(0x40)\n      swap1\n      dup2\n      add\n      0x40\n      mstore\n      dup1\n      swap3\n      swap2\n      swap1\n      dup2\n      dup2\n      mstore\n      0x20\n      add\n      0x00\n      swap1\n    tag_68:\n      dup3\n      dup3\n      lt\n      iszero\n      tag_69\n      jumpi\n      dup4\n      dup3\n      swap1\n      0x00\n      mstore\n      keccak256(0x00, 0x20)\n      swap1\n      0x02\n      mul\n      add\n      mload(0x40)\n      dup1\n      0x40\n      add\n      0x40\n      mstore\n      swap1\n      dup2\n      0x00\n      dup3\n      add\n      0x00\n      swap1\n      sload\n      swap1\n      0x0100\n      exp\n      swap1\n      div\n      0xffffffffffffffffffffffffffffffffffffffff\n      and\n      0xffffffffffffffffffffffffffffffffffffffff\n      and\n      0xffffffffffffffffffffffffffffffffffffffff\n      and\n      dup2\n      mstore\n      0x20\n      add\n      0x01\n      dup3\n      add\n      dup1\n      sload\n      tag_71\n      swap1\n      tag_72\n      jump\t// in\n    tag_71:\n      dup1\n      0x1f\n      add\n      0x20\n      dup1\n      swap2\n      div\n      mul\n      0x20\n      add\n      mload(0x40)\n      swap1\n      dup2\n      add\n      0x40\n      mstore\n      dup1\n      swap3\n      swap2\n      swap1\n      dup2\n      dup2\n      mstore\n      0x20\n      add\n      dup3\n      dup1\n      sload\n      tag_73\n      swap1\n      tag_72\n      jump\t// in\n    tag_73:\n      dup1\n      iszero\n      tag_74\n      jumpi\n      dup1\n      0x1f\n      lt\n      tag_75\n      jumpi\n      0x0100\n      dup1\n      dup4\n      sload\n      div\n      mul\n      dup4\n      mstore\n      swap2\n      0x20\n      add\n      swap2\n      jump(tag_74)\n    tag_75:\n      dup3\n      add\n      swap2\n      swap1\n      0x00\n      mstore\n      keccak256(0x00, 0x20)\n      swap1\n    tag_76:\n      dup2\n      sload\n      dup2\n      mstore\n      swap1\n      0x01\n      add\n      swap1\n      0x20\n      add\n      dup1\n      dup4\n      gt\n      tag_76\n      jumpi\n      dup3\n      swap1\n      sub\n      0x1f\n      and\n      dup3\n      add\n      swap2\n    tag_74:\n      pop\n      pop\n      pop\n      pop\n      pop\n      dup2\n      mstore\n      pop\n      pop\n      dup2\n      mstore\n      0x20\n      add\n      swap1\n      0x01\n      add\n      swap1\n      jump(tag_68)\n    tag_69:\n      pop\n      pop\n      pop\n      pop\n      swap1\n      pop\n        /* \"Project.sol\":1900:1988  function viewHeirs() public view returns (Heir[] memory) {... */\n      swap1\n      jump\t// out\n        /* \"Project.sol\":1308:1849  function removeHeir(address payable walletAddress) public {... */\n    tag_32:\n        /* \"Project.sol\":1399:1404  owner */\n      0x00\n      dup1\n      sload\n      swap1\n      0x0100\n      exp\n      swap1\n      div\n      0xffffffffffffffffffffffffffffffffffffffff\n      and\n        /* \"Project.sol\":1385:1404  msg.sender == owner */\n      0xffffffffffffffffffffffffffffffffffffffff\n      and\n        /* \"Project.sol\":1385:1395  msg.sender */\n      caller\n        /* \"Project.sol\":1385:1404  msg.sender == owner */\n      0xffffffffffffffffffffffffffffffffffffffff\n      and\n      eq\n        /* \"Project.sol\":1377:1446  require(msg.sender == owner, \"Only the owner can call this function\") */\n      tag_78\n      jumpi\n      mload(0x40)\n      0x08c379a000000000000000000000000000000000000000000000000000000000\n      dup2\n      mstore\n      0x04\n      add\n      tag_79\n      swap1\n      tag_36\n      jump\t// in\n    tag_79:\n      mload(0x40)\n      dup1\n      swap2\n      sub\n      swap1\n      revert\n    tag_78:\n        /* \"Project.sol\":1475:1476  0 */\n      0x00\n        /* \"Project.sol\":1460:1465  heirs */\n      0x01\n        /* \"Project.sol\":1460:1472  heirs.length */\n      dup1\n      sload\n      swap1\n      pop\n        /* \"Project.sol\":1460:1476  heirs.length > 0 */\n      gt\n        /* \"Project.sol\":1457:1842  if(heirs.length > 0) {... */\n      iszero\n      tag_80\n      jumpi\n        /* \"Project.sol\":1497:1503  uint i */\n      0x00\n        /* \"Project.sol\":1493:1831  for(uint i = 0; i < heirs.length; i++) {... */\n    tag_81:\n        /* \"Project.sol\":1513:1518  heirs */\n      0x01\n        /* \"Project.sol\":1513:1525  heirs.length */\n      dup1\n      sload\n      swap1\n      pop\n        /* \"Project.sol\":1509:1510  i */\n      dup2\n        /* \"Project.sol\":1509:1525  i < heirs.length */\n      lt\n        /* \"Project.sol\":1493:1831  for(uint i = 0; i < heirs.length; i++) {... */\n      iszero\n      tag_82\n      jumpi\n        /* \"Project.sol\":1580:1593  walletAddress */\n      dup2\n        /* \"Project.sol\":1554:1593  heirs[i].walletAddress == walletAddress */\n      0xffffffffffffffffffffffffffffffffffffffff\n      and\n        /* \"Project.sol\":1554:1559  heirs */\n      0x01\n        /* \"Project.sol\":1560:1561  i */\n      dup3\n        /* \"Project.sol\":1554:1562  heirs[i] */\n      dup2\n      sload\n      dup2\n      lt\n      tag_84\n      jumpi\n      tag_85\n      tag_43\n      jump\t// in\n    tag_85:\n    tag_84:\n      swap1\n      0x00\n      mstore\n      keccak256(0x00, 0x20)\n      swap1\n      0x02\n      mul\n      add\n        /* \"Project.sol\":1554:1576  heirs[i].walletAddress */\n      0x00\n      add\n      0x00\n      swap1\n      sload\n      swap1\n      0x0100\n      exp\n      swap1\n      div\n      0xffffffffffffffffffffffffffffffffffffffff\n      and\n        /* \"Project.sol\":1554:1593  heirs[i].walletAddress == walletAddress */\n      0xffffffffffffffffffffffffffffffffffffffff\n      and\n      sub\n        /* \"Project.sol\":1551:1816  if(heirs[i].walletAddress == walletAddress) {... */\n      tag_87\n      jumpi\n        /* \"Project.sol\":1622:1628  uint j */\n      0x00\n        /* \"Project.sol\":1631:1632  i */\n      dup2\n        /* \"Project.sol\":1622:1632  uint j = i */\n      swap1\n      pop\n        /* \"Project.sol\":1618:1735  for(uint j = i; j < heirs.length - 1; j++) {... */\n    tag_88:\n        /* \"Project.sol\":1653:1654  1 */\n      0x01\n        /* \"Project.sol\":1638:1643  heirs */\n      dup1\n        /* \"Project.sol\":1638:1650  heirs.length */\n      dup1\n      sload\n      swap1\n      pop\n        /* \"Project.sol\":1638:1654  heirs.length - 1 */\n      tag_91\n      swap2\n      swap1\n      tag_92\n      jump\t// in\n    tag_91:\n        /* \"Project.sol\":1634:1635  j */\n      dup2\n        /* \"Project.sol\":1634:1654  j < heirs.length - 1 */\n      lt\n        /* \"Project.sol\":1618:1735  for(uint j = i; j < heirs.length - 1; j++) {... */\n      iszero\n      tag_89\n      jumpi\n        /* \"Project.sol\":1699:1704  heirs */\n      0x01\n        /* \"Project.sol\":1709:1710  1 */\n      dup1\n        /* \"Project.sol\":1705:1706  j */\n      dup3\n        /* \"Project.sol\":1705:1710  j + 1 */\n      tag_93\n      swap2\n      swap1\n      tag_94\n      jump\t// in\n    tag_93:\n        /* \"Project.sol\":1699:1711  heirs[j + 1] */\n      dup2\n      sload\n      dup2\n      lt\n      tag_95\n      jumpi\n      tag_96\n      tag_43\n      jump\t// in\n    tag_96:\n    tag_95:\n      swap1\n      0x00\n      mstore\n      keccak256(0x00, 0x20)\n      swap1\n      0x02\n      mul\n      add\n        /* \"Project.sol\":1688:1693  heirs */\n      0x01\n        /* \"Project.sol\":1694:1695  j */\n      dup3\n        /* \"Project.sol\":1688:1696  heirs[j] */\n      dup2\n      sload\n      dup2\n      lt\n      tag_98\n      jumpi\n      tag_99\n      tag_43\n      jump\t// in\n    tag_99:\n    tag_98:\n      swap1\n      0x00\n      mstore\n      keccak256(0x00, 0x20)\n      swap1\n      0x02\n      mul\n      add\n        /* \"Project.sol\":1688:1711  heirs[j] = heirs[j + 1] */\n      0x00\n      dup3\n      add\n      0x00\n      swap1\n      sload\n      swap1\n      0x0100\n      exp\n      swap1\n      div\n      0xffffffffffffffffffffffffffffffffffffffff\n      and\n      dup2\n      0x00\n      add\n      exp(0x0100, 0x00)\n      dup2\n      sload\n      dup2\n      0xffffffffffffffffffffffffffffffffffffffff\n      mul\n      not\n      and\n      swap1\n      dup4\n      0xffffffffffffffffffffffffffffffffffffffff\n      and\n      mul\n      or\n      swap1\n      sstore\n      pop\n      0x01\n      dup3\n      add\n      dup2\n      0x01\n      add\n      swap1\n      dup2\n      tag_101\n      swap2\n      swap1\n      tag_102\n      jump\t// in\n    tag_101:\n      pop\n      swap1\n      pop\n      pop\n        /* \"Project.sol\":1656:1659  j++ */\n      dup1\n      dup1\n      0x01\n      add\n      swap2\n      pop\n      pop\n        /* \"Project.sol\":1618:1735  for(uint j = i; j < heirs.length - 1; j++) {... */\n      jump(tag_88)\n    tag_89:\n      pop\n        /* \"Project.sol\":1757:1762  heirs */\n      0x01\n        /* \"Project.sol\":1757:1768  heirs.pop() */\n      dup1\n      sload\n      dup1\n      tag_103\n      jumpi\n      tag_104\n      tag_105\n      jump\t// in\n    tag_104:\n    tag_103:\n      0x01\n      swap1\n      sub\n      dup2\n      dup2\n      swap1\n      0x00\n      mstore\n      keccak256(0x00, 0x20)\n      swap1\n      0x02\n      mul\n      add\n      0x00\n      dup1\n      dup3\n      add\n      exp(0x0100, 0x00)\n      dup2\n      sload\n      swap1\n      0xffffffffffffffffffffffffffffffffffffffff\n      mul\n      not\n      and\n      swap1\n      sstore\n      0x01\n      dup3\n      add\n      0x00\n      tag_107\n      swap2\n      swap1\n      tag_108\n      jump\t// in\n    tag_107:\n      pop\n      pop\n      swap1\n      sstore\n        /* \"Project.sol\":1791:1796  break */\n      jump(tag_82)\n        /* \"Project.sol\":1551:1816  if(heirs[i].walletAddress == walletAddress) {... */\n    tag_87:\n        /* \"Project.sol\":1527:1530  i++ */\n      dup1\n      dup1\n      0x01\n      add\n      swap2\n      pop\n      pop\n        /* \"Project.sol\":1493:1831  for(uint i = 0; i < heirs.length; i++) {... */\n      jump(tag_81)\n    tag_82:\n      pop\n        /* \"Project.sol\":1457:1842  if(heirs.length > 0) {... */\n    tag_80:\n        /* \"Project.sol\":1308:1849  function removeHeir(address payable walletAddress) public {... */\n      pop\n      jump\t// out\n        /* \"Project.sol\":2486:2606  function transfer(address payable walletAddress, uint amount) internal {... */\n    tag_65:\n        /* \"Project.sol\":2568:2581  walletAddress */\n      dup2\n        /* \"Project.sol\":2568:2590  walletAddress.transfer */\n      0xffffffffffffffffffffffffffffffffffffffff\n      and\n        /* \"Project.sol\":2568:2598  walletAddress.transfer(amount) */\n      0x08fc\n        /* \"Project.sol\":2591:2597  amount */\n      dup3\n        /* \"Project.sol\":2568:2598  walletAddress.transfer(amount) */\n      swap1\n      dup2\n      iszero\n      mul\n      swap1\n      mload(0x40)\n      0x00\n      mload(0x40)\n      dup1\n      dup4\n      sub\n      dup2\n      dup6\n      dup9\n      dup9\n      call\n      swap4\n      pop\n      pop\n      pop\n      pop\n      iszero\n      dup1\n      iszero\n      tag_111\n      jumpi\n      returndatasize\n      0x00\n      dup1\n      returndatacopy\n      revert(0x00, returndatasize)\n    tag_111:\n      pop\n        /* \"Project.sol\":2486:2606  function transfer(address payable walletAddress, uint amount) internal {... */\n      pop\n      pop\n      jump\t// out\n    tag_108:\n      pop\n      dup1\n      sload\n      tag_112\n      swap1\n      tag_72\n      jump\t// in\n    tag_112:\n      0x00\n      dup3\n      sstore\n      dup1\n      0x1f\n      lt\n      tag_114\n      jumpi\n      pop\n      jump(tag_113)\n    tag_114:\n      0x1f\n      add\n      0x20\n      swap1\n      div\n      swap1\n      0x00\n      mstore\n      keccak256(0x00, 0x20)\n      swap1\n      dup2\n      add\n      swap1\n      tag_115\n      swap2\n      swap1\n      tag_116\n      jump\t// in\n    tag_115:\n    tag_113:\n      pop\n      jump\t// out\n    tag_116:\n    tag_117:\n      dup1\n      dup3\n      gt\n      iszero\n      tag_118\n      jumpi\n      0x00\n      dup2\n      0x00\n      swap1\n      sstore\n      pop\n      0x01\n      add\n      jump(tag_117)\n    tag_118:\n      pop\n      swap1\n      jump\t// out\n        /* \"#utility.yul\":7:82   */\n    tag_119:\n        /* \"#utility.yul\":40:46   */\n      0x00\n        /* \"#utility.yul\":73:75   */\n      0x40\n        /* \"#utility.yul\":67:76   */\n      mload\n        /* \"#utility.yul\":57:76   */\n      swap1\n      pop\n        /* \"#utility.yul\":7:82   */\n      swap1\n      jump\t// out\n        /* \"#utility.yul\":88:205   */\n    tag_120:\n        /* \"#utility.yul\":197:198   */\n      0x00\n        /* \"#utility.yul\":194:195   */\n      dup1\n        /* \"#utility.yul\":187:199   */\n      revert\n        /* \"#utility.yul\":211:328   */\n    tag_121:\n        /* \"#utility.yul\":320:321   */\n      0x00\n        /* \"#utility.yul\":317:318   */\n      dup1\n        /* \"#utility.yul\":310:322   */\n      revert\n        /* \"#utility.yul\":334:460   */\n    tag_122:\n        /* \"#utility.yul\":371:378   */\n      0x00\n        /* \"#utility.yul\":411:453   */\n      0xffffffffffffffffffffffffffffffffffffffff\n        /* \"#utility.yul\":404:409   */\n      dup3\n        /* \"#utility.yul\":400:454   */\n      and\n        /* \"#utility.yul\":389:454   */\n      swap1\n      pop\n        /* \"#utility.yul\":334:460   */\n      swap2\n      swap1\n      pop\n      jump\t// out\n        /* \"#utility.yul\":466:570   */\n    tag_123:\n        /* \"#utility.yul\":511:518   */\n      0x00\n        /* \"#utility.yul\":540:564   */\n      tag_180\n        /* \"#utility.yul\":558:563   */\n      dup3\n        /* \"#utility.yul\":540:564   */\n      tag_122\n      jump\t// in\n    tag_180:\n        /* \"#utility.yul\":529:564   */\n      swap1\n      pop\n        /* \"#utility.yul\":466:570   */\n      swap2\n      swap1\n      pop\n      jump\t// out\n        /* \"#utility.yul\":576:714   */\n    tag_124:\n        /* \"#utility.yul\":657:689   */\n      tag_182\n        /* \"#utility.yul\":683:688   */\n      dup2\n        /* \"#utility.yul\":657:689   */\n      tag_123\n      jump\t// in\n    tag_182:\n        /* \"#utility.yul\":650:655   */\n      dup2\n        /* \"#utility.yul\":647:690   */\n      eq\n        /* \"#utility.yul\":637:708   */\n      tag_183\n      jumpi\n        /* \"#utility.yul\":704:705   */\n      0x00\n        /* \"#utility.yul\":701:702   */\n      dup1\n        /* \"#utility.yul\":694:706   */\n      revert\n        /* \"#utility.yul\":637:708   */\n    tag_183:\n        /* \"#utility.yul\":576:714   */\n      pop\n      jump\t// out\n        /* \"#utility.yul\":720:875   */\n    tag_125:\n        /* \"#utility.yul\":774:779   */\n      0x00\n        /* \"#utility.yul\":812:818   */\n      dup2\n        /* \"#utility.yul\":799:819   */\n      calldataload\n        /* \"#utility.yul\":790:819   */\n      swap1\n      pop\n        /* \"#utility.yul\":828:869   */\n      tag_185\n        /* \"#utility.yul\":863:868   */\n      dup2\n        /* \"#utility.yul\":828:869   */\n      tag_124\n      jump\t// in\n    tag_185:\n        /* \"#utility.yul\":720:875   */\n      swap3\n      swap2\n      pop\n      pop\n      jump\t// out\n        /* \"#utility.yul\":881:998   */\n    tag_126:\n        /* \"#utility.yul\":990:991   */\n      0x00\n        /* \"#utility.yul\":987:988   */\n      dup1\n        /* \"#utility.yul\":980:992   */\n      revert\n        /* \"#utility.yul\":1004:1121   */\n    tag_127:\n        /* \"#utility.yul\":1113:1114   */\n      0x00\n        /* \"#utility.yul\":1110:1111   */\n      dup1\n        /* \"#utility.yul\":1103:1115   */\n      revert\n        /* \"#utility.yul\":1127:1229   */\n    tag_128:\n        /* \"#utility.yul\":1168:1174   */\n      0x00\n        /* \"#utility.yul\":1219:1221   */\n      0x1f\n        /* \"#utility.yul\":1215:1222   */\n      not\n        /* \"#utility.yul\":1210:1212   */\n      0x1f\n        /* \"#utility.yul\":1203:1208   */\n      dup4\n        /* \"#utility.yul\":1199:1213   */\n      add\n        /* \"#utility.yul\":1195:1223   */\n      and\n        /* \"#utility.yul\":1185:1223   */\n      swap1\n      pop\n        /* \"#utility.yul\":1127:1229   */\n      swap2\n      swap1\n      pop\n      jump\t// out\n        /* \"#utility.yul\":1235:1415   */\n    tag_129:\n        /* \"#utility.yul\":1283:1360   */\n      0x4e487b7100000000000000000000000000000000000000000000000000000000\n        /* \"#utility.yul\":1280:1281   */\n      0x00\n        /* \"#utility.yul\":1273:1361   */\n      mstore\n        /* \"#utility.yul\":1380:1384   */\n      0x41\n        /* \"#utility.yul\":1377:1378   */\n      0x04\n        /* \"#utility.yul\":1370:1385   */\n      mstore\n        /* \"#utility.yul\":1404:1408   */\n      0x24\n        /* \"#utility.yul\":1401:1402   */\n      0x00\n        /* \"#utility.yul\":1394:1409   */\n      revert\n        /* \"#utility.yul\":1421:1702   */\n    tag_130:\n        /* \"#utility.yul\":1504:1531   */\n      tag_191\n        /* \"#utility.yul\":1526:1530   */\n      dup3\n        /* \"#utility.yul\":1504:1531   */\n      tag_128\n      jump\t// in\n    tag_191:\n        /* \"#utility.yul\":1496:1502   */\n      dup2\n        /* \"#utility.yul\":1492:1532   */\n      add\n        /* \"#utility.yul\":1634:1640   */\n      dup2\n        /* \"#utility.yul\":1622:1632   */\n      dup2\n        /* \"#utility.yul\":1619:1641   */\n      lt\n        /* \"#utility.yul\":1598:1616   */\n      0xffffffffffffffff\n        /* \"#utility.yul\":1586:1596   */\n      dup3\n        /* \"#utility.yul\":1583:1617   */\n      gt\n        /* \"#utility.yul\":1580:1642   */\n      or\n        /* \"#utility.yul\":1577:1665   */\n      iszero\n      tag_192\n      jumpi\n        /* \"#utility.yul\":1645:1663   */\n      tag_193\n      tag_129\n      jump\t// in\n    tag_193:\n        /* \"#utility.yul\":1577:1665   */\n    tag_192:\n        /* \"#utility.yul\":1685:1695   */\n      dup1\n        /* \"#utility.yul\":1681:1683   */\n      0x40\n        /* \"#utility.yul\":1674:1696   */\n      mstore\n        /* \"#utility.yul\":1464:1702   */\n      pop\n        /* \"#utility.yul\":1421:1702   */\n      pop\n      pop\n      jump\t// out\n        /* \"#utility.yul\":1708:1837   */\n    tag_131:\n        /* \"#utility.yul\":1742:1748   */\n      0x00\n        /* \"#utility.yul\":1769:1789   */\n      tag_195\n      tag_119\n      jump\t// in\n    tag_195:\n        /* \"#utility.yul\":1759:1789   */\n      swap1\n      pop\n        /* \"#utility.yul\":1798:1831   */\n      tag_196\n        /* \"#utility.yul\":1826:1830   */\n      dup3\n        /* \"#utility.yul\":1818:1824   */\n      dup3\n        /* \"#utility.yul\":1798:1831   */\n      tag_130\n      jump\t// in\n    tag_196:\n        /* \"#utility.yul\":1708:1837   */\n      swap2\n      swap1\n      pop\n      jump\t// out\n        /* \"#utility.yul\":1843:2151   */\n    tag_132:\n        /* \"#utility.yul\":1905:1909   */\n      0x00\n        /* \"#utility.yul\":1995:2013   */\n      0xffffffffffffffff\n        /* \"#utility.yul\":1987:1993   */\n      dup3\n        /* \"#utility.yul\":1984:2014   */\n      gt\n        /* \"#utility.yul\":1981:2037   */\n      iszero\n      tag_198\n      jumpi\n        /* \"#utility.yul\":2017:2035   */\n      tag_199\n      tag_129\n      jump\t// in\n    tag_199:\n        /* \"#utility.yul\":1981:2037   */\n    tag_198:\n        /* \"#utility.yul\":2055:2084   */\n      tag_200\n        /* \"#utility.yul\":2077:2083   */\n      dup3\n        /* \"#utility.yul\":2055:2084   */\n      tag_128\n      jump\t// in\n    tag_200:\n        /* \"#utility.yul\":2047:2084   */\n      swap1\n      pop\n        /* \"#utility.yul\":2139:2143   */\n      0x20\n        /* \"#utility.yul\":2133:2137   */\n      dup2\n        /* \"#utility.yul\":2129:2144   */\n      add\n        /* \"#utility.yul\":2121:2144   */\n      swap1\n      pop\n        /* \"#utility.yul\":1843:2151   */\n      swap2\n      swap1\n      pop\n      jump\t// out\n        /* \"#utility.yul\":2157:2305   */\n    tag_133:\n        /* \"#utility.yul\":2255:2261   */\n      dup3\n        /* \"#utility.yul\":2250:2253   */\n      dup2\n        /* \"#utility.yul\":2245:2248   */\n      dup4\n        /* \"#utility.yul\":2232:2262   */\n      calldatacopy\n        /* \"#utility.yul\":2296:2297   */\n      0x00\n        /* \"#utility.yul\":2287:2293   */\n      dup4\n        /* \"#utility.yul\":2282:2285   */\n      dup4\n        /* \"#utility.yul\":2278:2294   */\n      add\n        /* \"#utility.yul\":2271:2298   */\n      mstore\n        /* \"#utility.yul\":2157:2305   */\n      pop\n      pop\n      pop\n      jump\t// out\n        /* \"#utility.yul\":2311:2736   */\n    tag_134:\n        /* \"#utility.yul\":2389:2394   */\n      0x00\n        /* \"#utility.yul\":2414:2480   */\n      tag_203\n        /* \"#utility.yul\":2430:2479   */\n      tag_204\n        /* \"#utility.yul\":2472:2478   */\n      dup5\n        /* \"#utility.yul\":2430:2479   */\n      tag_132\n      jump\t// in\n    tag_204:\n        /* \"#utility.yul\":2414:2480   */\n      tag_131\n      jump\t// in\n    tag_203:\n        /* \"#utility.yul\":2405:2480   */\n      swap1\n      pop\n        /* \"#utility.yul\":2503:2509   */\n      dup3\n        /* \"#utility.yul\":2496:2501   */\n      dup2\n        /* \"#utility.yul\":2489:2510   */\n      mstore\n        /* \"#utility.yul\":2541:2545   */\n      0x20\n        /* \"#utility.yul\":2534:2539   */\n      dup2\n        /* \"#utility.yul\":2530:2546   */\n      add\n        /* \"#utility.yul\":2579:2582   */\n      dup5\n        /* \"#utility.yul\":2570:2576   */\n      dup5\n        /* \"#utility.yul\":2565:2568   */\n      dup5\n        /* \"#utility.yul\":2561:2577   */\n      add\n        /* \"#utility.yul\":2558:2583   */\n      gt\n        /* \"#utility.yul\":2555:2667   */\n      iszero\n      tag_205\n      jumpi\n        /* \"#utility.yul\":2586:2665   */\n      tag_206\n      tag_127\n      jump\t// in\n    tag_206:\n        /* \"#utility.yul\":2555:2667   */\n    tag_205:\n        /* \"#utility.yul\":2676:2730   */\n      tag_207\n        /* \"#utility.yul\":2723:2729   */\n      dup5\n        /* \"#utility.yul\":2718:2721   */\n      dup3\n        /* \"#utility.yul\":2713:2716   */\n      dup6\n        /* \"#utility.yul\":2676:2730   */\n      tag_133\n      jump\t// in\n    tag_207:\n        /* \"#utility.yul\":2395:2736   */\n      pop\n        /* \"#utility.yul\":2311:2736   */\n      swap4\n      swap3\n      pop\n      pop\n      pop\n      jump\t// out\n        /* \"#utility.yul\":2756:3096   */\n    tag_135:\n        /* \"#utility.yul\":2812:2817   */\n      0x00\n        /* \"#utility.yul\":2861:2864   */\n      dup3\n        /* \"#utility.yul\":2854:2858   */\n      0x1f\n        /* \"#utility.yul\":2846:2852   */\n      dup4\n        /* \"#utility.yul\":2842:2859   */\n      add\n        /* \"#utility.yul\":2838:2865   */\n      slt\n        /* \"#utility.yul\":2828:2950   */\n      tag_209\n      jumpi\n        /* \"#utility.yul\":2869:2948   */\n      tag_210\n      tag_126\n      jump\t// in\n    tag_210:\n        /* \"#utility.yul\":2828:2950   */\n    tag_209:\n        /* \"#utility.yul\":2986:2992   */\n      dup2\n        /* \"#utility.yul\":2973:2993   */\n      calldataload\n        /* \"#utility.yul\":3011:3090   */\n      tag_211\n        /* \"#utility.yul\":3086:3089   */\n      dup5\n        /* \"#utility.yul\":3078:3084   */\n      dup3\n        /* \"#utility.yul\":3071:3075   */\n      0x20\n        /* \"#utility.yul\":3063:3069   */\n      dup7\n        /* \"#utility.yul\":3059:3076   */\n      add\n        /* \"#utility.yul\":3011:3090   */\n      tag_134\n      jump\t// in\n    tag_211:\n        /* \"#utility.yul\":3002:3090   */\n      swap2\n      pop\n        /* \"#utility.yul\":2818:3096   */\n      pop\n        /* \"#utility.yul\":2756:3096   */\n      swap3\n      swap2\n      pop\n      pop\n      jump\t// out\n        /* \"#utility.yul\":3102:3772   */\n    tag_11:\n        /* \"#utility.yul\":3188:3194   */\n      0x00\n        /* \"#utility.yul\":3196:3202   */\n      dup1\n        /* \"#utility.yul\":3245:3247   */\n      0x40\n        /* \"#utility.yul\":3233:3242   */\n      dup4\n        /* \"#utility.yul\":3224:3231   */\n      dup6\n        /* \"#utility.yul\":3220:3243   */\n      sub\n        /* \"#utility.yul\":3216:3248   */\n      slt\n        /* \"#utility.yul\":3213:3332   */\n      iszero\n      tag_213\n      jumpi\n        /* \"#utility.yul\":3251:3330   */\n      tag_214\n      tag_120\n      jump\t// in\n    tag_214:\n        /* \"#utility.yul\":3213:3332   */\n    tag_213:\n        /* \"#utility.yul\":3371:3372   */\n      0x00\n        /* \"#utility.yul\":3396:3457   */\n      tag_215\n        /* \"#utility.yul\":3449:3456   */\n      dup6\n        /* \"#utility.yul\":3440:3446   */\n      dup3\n        /* \"#utility.yul\":3429:3438   */\n      dup7\n        /* \"#utility.yul\":3425:3447   */\n      add\n        /* \"#utility.yul\":3396:3457   */\n      tag_125\n      jump\t// in\n    tag_215:\n        /* \"#utility.yul\":3386:3457   */\n      swap3\n      pop\n        /* \"#utility.yul\":3342:3467   */\n      pop\n        /* \"#utility.yul\":3534:3536   */\n      0x20\n        /* \"#utility.yul\":3523:3532   */\n      dup4\n        /* \"#utility.yul\":3519:3537   */\n      add\n        /* \"#utility.yul\":3506:3538   */\n      calldataload\n        /* \"#utility.yul\":3565:3583   */\n      0xffffffffffffffff\n        /* \"#utility.yul\":3557:3563   */\n      dup2\n        /* \"#utility.yul\":3554:3584   */\n      gt\n        /* \"#utility.yul\":3551:3668   */\n      iszero\n      tag_216\n      jumpi\n        /* \"#utility.yul\":3587:3666   */\n      tag_217\n      tag_121\n      jump\t// in\n    tag_217:\n        /* \"#utility.yul\":3551:3668   */\n    tag_216:\n        /* \"#utility.yul\":3692:3755   */\n      tag_218\n        /* \"#utility.yul\":3747:3754   */\n      dup6\n        /* \"#utility.yul\":3738:3744   */\n      dup3\n        /* \"#utility.yul\":3727:3736   */\n      dup7\n        /* \"#utility.yul\":3723:3745   */\n      add\n        /* \"#utility.yul\":3692:3755   */\n      tag_135\n      jump\t// in\n    tag_218:\n        /* \"#utility.yul\":3682:3755   */\n      swap2\n      pop\n        /* \"#utility.yul\":3477:3765   */\n      pop\n        /* \"#utility.yul\":3102:3772   */\n      swap3\n      pop\n      swap3\n      swap1\n      pop\n      jump\t// out\n        /* \"#utility.yul\":3778:3855   */\n    tag_136:\n        /* \"#utility.yul\":3815:3822   */\n      0x00\n        /* \"#utility.yul\":3844:3849   */\n      dup2\n        /* \"#utility.yul\":3833:3849   */\n      swap1\n      pop\n        /* \"#utility.yul\":3778:3855   */\n      swap2\n      swap1\n      pop\n      jump\t// out\n        /* \"#utility.yul\":3861:3979   */\n    tag_137:\n        /* \"#utility.yul\":3948:3972   */\n      tag_221\n        /* \"#utility.yul\":3966:3971   */\n      dup2\n        /* \"#utility.yul\":3948:3972   */\n      tag_136\n      jump\t// in\n    tag_221:\n        /* \"#utility.yul\":3943:3946   */\n      dup3\n        /* \"#utility.yul\":3936:3973   */\n      mstore\n        /* \"#utility.yul\":3861:3979   */\n      pop\n      pop\n      jump\t// out\n        /* \"#utility.yul\":3985:4207   */\n    tag_17:\n        /* \"#utility.yul\":4078:4082   */\n      0x00\n        /* \"#utility.yul\":4116:4118   */\n      0x20\n        /* \"#utility.yul\":4105:4114   */\n      dup3\n        /* \"#utility.yul\":4101:4119   */\n      add\n        /* \"#utility.yul\":4093:4119   */\n      swap1\n      pop\n        /* \"#utility.yul\":4129:4200   */\n      tag_223\n        /* \"#utility.yul\":4197:4198   */\n      0x00\n        /* \"#utility.yul\":4186:4195   */\n      dup4\n        /* \"#utility.yul\":4182:4199   */\n      add\n        /* \"#utility.yul\":4173:4179   */\n      dup5\n        /* \"#utility.yul\":4129:4200   */\n      tag_137\n      jump\t// in\n    tag_223:\n        /* \"#utility.yul\":3985:4207   */\n      swap3\n      swap2\n      pop\n      pop\n      jump\t// out\n        /* \"#utility.yul\":4213:4347   */\n    tag_138:\n        /* \"#utility.yul\":4300:4306   */\n      0x00\n        /* \"#utility.yul\":4334:4339   */\n      dup2\n        /* \"#utility.yul\":4328:4340   */\n      mload\n        /* \"#utility.yul\":4318:4340   */\n      swap1\n      pop\n        /* \"#utility.yul\":4213:4347   */\n      swap2\n      swap1\n      pop\n      jump\t// out\n        /* \"#utility.yul\":4353:4557   */\n    tag_139:\n        /* \"#utility.yul\":4472:4483   */\n      0x00\n        /* \"#utility.yul\":4506:4512   */\n      dup3\n        /* \"#utility.yul\":4501:4504   */\n      dup3\n        /* \"#utility.yul\":4494:4513   */\n      mstore\n        /* \"#utility.yul\":4546:4550   */\n      0x20\n        /* \"#utility.yul\":4541:4544   */\n      dup3\n        /* \"#utility.yul\":4537:4551   */\n      add\n        /* \"#utility.yul\":4522:4551   */\n      swap1\n      pop\n        /* \"#utility.yul\":4353:4557   */\n      swap3\n      swap2\n      pop\n      pop\n      jump\t// out\n        /* \"#utility.yul\":4563:4715   */\n    tag_140:\n        /* \"#utility.yul\":4650:4654   */\n      0x00\n        /* \"#utility.yul\":4673:4676   */\n      dup2\n        /* \"#utility.yul\":4665:4676   */\n      swap1\n      pop\n        /* \"#utility.yul\":4703:4707   */\n      0x20\n        /* \"#utility.yul\":4698:4701   */\n      dup3\n        /* \"#utility.yul\":4694:4708   */\n      add\n        /* \"#utility.yul\":4686:4708   */\n      swap1\n      pop\n        /* \"#utility.yul\":4563:4715   */\n      swap2\n      swap1\n      pop\n      jump\t// out\n        /* \"#utility.yul\":4721:4853   */\n    tag_141:\n        /* \"#utility.yul\":4814:4846   */\n      tag_228\n        /* \"#utility.yul\":4840:4845   */\n      dup2\n        /* \"#utility.yul\":4814:4846   */\n      tag_123\n      jump\t// in\n    tag_228:\n        /* \"#utility.yul\":4809:4812   */\n      dup3\n        /* \"#utility.yul\":4802:4847   */\n      mstore\n        /* \"#utility.yul\":4721:4853   */\n      pop\n      pop\n      jump\t// out\n        /* \"#utility.yul\":4859:4958   */\n    tag_142:\n        /* \"#utility.yul\":4911:4917   */\n      0x00\n        /* \"#utility.yul\":4945:4950   */\n      dup2\n        /* \"#utility.yul\":4939:4951   */\n      mload\n        /* \"#utility.yul\":4929:4951   */\n      swap1\n      pop\n        /* \"#utility.yul\":4859:4958   */\n      swap2\n      swap1\n      pop\n      jump\t// out\n        /* \"#utility.yul\":4964:5123   */\n    tag_143:\n        /* \"#utility.yul\":5038:5049   */\n      0x00\n        /* \"#utility.yul\":5072:5078   */\n      dup3\n        /* \"#utility.yul\":5067:5070   */\n      dup3\n        /* \"#utility.yul\":5060:5079   */\n      mstore\n        /* \"#utility.yul\":5112:5116   */\n      0x20\n        /* \"#utility.yul\":5107:5110   */\n      dup3\n        /* \"#utility.yul\":5103:5117   */\n      add\n        /* \"#utility.yul\":5088:5117   */\n      swap1\n      pop\n        /* \"#utility.yul\":4964:5123   */\n      swap3\n      swap2\n      pop\n      pop\n      jump\t// out\n        /* \"#utility.yul\":5129:5268   */\n    tag_144:\n        /* \"#utility.yul\":5218:5224   */\n      dup3\n        /* \"#utility.yul\":5213:5216   */\n      dup2\n        /* \"#utility.yul\":5208:5211   */\n      dup4\n        /* \"#utility.yul\":5202:5225   */\n      mcopy\n        /* \"#utility.yul\":5259:5260   */\n      0x00\n        /* \"#utility.yul\":5250:5256   */\n      dup4\n        /* \"#utility.yul\":5245:5248   */\n      dup4\n        /* \"#utility.yul\":5241:5257   */\n      add\n        /* \"#utility.yul\":5234:5261   */\n      mstore\n        /* \"#utility.yul\":5129:5268   */\n      pop\n      pop\n      pop\n      jump\t// out\n        /* \"#utility.yul\":5274:5631   */\n    tag_145:\n        /* \"#utility.yul\":5352:5355   */\n      0x00\n        /* \"#utility.yul\":5380:5419   */\n      tag_233\n        /* \"#utility.yul\":5413:5418   */\n      dup3\n        /* \"#utility.yul\":5380:5419   */\n      tag_142\n      jump\t// in\n    tag_233:\n        /* \"#utility.yul\":5435:5496   */\n      tag_234\n        /* \"#utility.yul\":5489:5495   */\n      dup2\n        /* \"#utility.yul\":5484:5487   */\n      dup6\n        /* \"#utility.yul\":5435:5496   */\n      tag_143\n      jump\t// in\n    tag_234:\n        /* \"#utility.yul\":5428:5496   */\n      swap4\n      pop\n        /* \"#utility.yul\":5505:5570   */\n      tag_235\n        /* \"#utility.yul\":5563:5569   */\n      dup2\n        /* \"#utility.yul\":5558:5561   */\n      dup6\n        /* \"#utility.yul\":5551:5555   */\n      0x20\n        /* \"#utility.yul\":5544:5549   */\n      dup7\n        /* \"#utility.yul\":5540:5556   */\n      add\n        /* \"#utility.yul\":5505:5570   */\n      tag_144\n      jump\t// in\n    tag_235:\n        /* \"#utility.yul\":5595:5624   */\n      tag_236\n        /* \"#utility.yul\":5617:5623   */\n      dup2\n        /* \"#utility.yul\":5595:5624   */\n      tag_128\n      jump\t// in\n    tag_236:\n        /* \"#utility.yul\":5590:5593   */\n      dup5\n        /* \"#utility.yul\":5586:5625   */\n      add\n        /* \"#utility.yul\":5579:5625   */\n      swap2\n      pop\n        /* \"#utility.yul\":5356:5631   */\n      pop\n        /* \"#utility.yul\":5274:5631   */\n      swap3\n      swap2\n      pop\n      pop\n      jump\t// out\n        /* \"#utility.yul\":5695:6306   */\n    tag_146:\n        /* \"#utility.yul\":5794:5797   */\n      0x00\n        /* \"#utility.yul\":5830:5834   */\n      0x40\n        /* \"#utility.yul\":5825:5828   */\n      dup4\n        /* \"#utility.yul\":5821:5835   */\n      add\n        /* \"#utility.yul\":5926:5930   */\n      0x00\n        /* \"#utility.yul\":5919:5924   */\n      dup4\n        /* \"#utility.yul\":5915:5931   */\n      add\n        /* \"#utility.yul\":5909:5932   */\n      mload\n        /* \"#utility.yul\":5945:6024   */\n      tag_238\n        /* \"#utility.yul\":6018:6022   */\n      0x00\n        /* \"#utility.yul\":6013:6016   */\n      dup7\n        /* \"#utility.yul\":6009:6023   */\n      add\n        /* \"#utility.yul\":5995:6007   */\n      dup3\n        /* \"#utility.yul\":5945:6024   */\n      tag_141\n      jump\t// in\n    tag_238:\n        /* \"#utility.yul\":5845:6034   */\n      pop\n        /* \"#utility.yul\":6116:6120   */\n      0x20\n        /* \"#utility.yul\":6109:6114   */\n      dup4\n        /* \"#utility.yul\":6105:6121   */\n      add\n        /* \"#utility.yul\":6099:6122   */\n      mload\n        /* \"#utility.yul\":6169:6172   */\n      dup5\n        /* \"#utility.yul\":6163:6167   */\n      dup3\n        /* \"#utility.yul\":6159:6173   */\n      sub\n        /* \"#utility.yul\":6152:6156   */\n      0x20\n        /* \"#utility.yul\":6147:6150   */\n      dup7\n        /* \"#utility.yul\":6143:6157   */\n      add\n        /* \"#utility.yul\":6136:6174   */\n      mstore\n        /* \"#utility.yul\":6195:6268   */\n      tag_239\n        /* \"#utility.yul\":6263:6267   */\n      dup3\n        /* \"#utility.yul\":6249:6261   */\n      dup3\n        /* \"#utility.yul\":6195:6268   */\n      tag_145\n      jump\t// in\n    tag_239:\n        /* \"#utility.yul\":6187:6268   */\n      swap2\n      pop\n        /* \"#utility.yul\":6044:6279   */\n      pop\n        /* \"#utility.yul\":6296:6300   */\n      dup1\n        /* \"#utility.yul\":6289:6300   */\n      swap2\n      pop\n        /* \"#utility.yul\":5799:6306   */\n      pop\n        /* \"#utility.yul\":5695:6306   */\n      swap3\n      swap2\n      pop\n      pop\n      jump\t// out\n        /* \"#utility.yul\":6312:6548   */\n    tag_147:\n        /* \"#utility.yul\":6421:6431   */\n      0x00\n        /* \"#utility.yul\":6456:6542   */\n      tag_241\n        /* \"#utility.yul\":6538:6541   */\n      dup4\n        /* \"#utility.yul\":6530:6536   */\n      dup4\n        /* \"#utility.yul\":6456:6542   */\n      tag_146\n      jump\t// in\n    tag_241:\n        /* \"#utility.yul\":6442:6542   */\n      swap1\n      pop\n        /* \"#utility.yul\":6312:6548   */\n      swap3\n      swap2\n      pop\n      pop\n      jump\t// out\n        /* \"#utility.yul\":6554:6687   */\n    tag_148:\n        /* \"#utility.yul\":6644:6648   */\n      0x00\n        /* \"#utility.yul\":6676:6680   */\n      0x20\n        /* \"#utility.yul\":6671:6674   */\n      dup3\n        /* \"#utility.yul\":6667:6681   */\n      add\n        /* \"#utility.yul\":6659:6681   */\n      swap1\n      pop\n        /* \"#utility.yul\":6554:6687   */\n      swap2\n      swap1\n      pop\n      jump\t// out\n        /* \"#utility.yul\":6755:7826   */\n    tag_149:\n        /* \"#utility.yul\":6914:6917   */\n      0x00\n        /* \"#utility.yul\":6943:7017   */\n      tag_244\n        /* \"#utility.yul\":7011:7016   */\n      dup3\n        /* \"#utility.yul\":6943:7017   */\n      tag_138\n      jump\t// in\n    tag_244:\n        /* \"#utility.yul\":7033:7139   */\n      tag_245\n        /* \"#utility.yul\":7132:7138   */\n      dup2\n        /* \"#utility.yul\":7127:7130   */\n      dup6\n        /* \"#utility.yul\":7033:7139   */\n      tag_139\n      jump\t// in\n    tag_245:\n        /* \"#utility.yul\":7026:7139   */\n      swap4\n      pop\n        /* \"#utility.yul\":7165:7168   */\n      dup4\n        /* \"#utility.yul\":7210:7214   */\n      0x20\n        /* \"#utility.yul\":7202:7208   */\n      dup3\n        /* \"#utility.yul\":7198:7215   */\n      mul\n        /* \"#utility.yul\":7193:7196   */\n      dup6\n        /* \"#utility.yul\":7189:7216   */\n      add\n        /* \"#utility.yul\":7240:7316   */\n      tag_246\n        /* \"#utility.yul\":7310:7315   */\n      dup6\n        /* \"#utility.yul\":7240:7316   */\n      tag_140\n      jump\t// in\n    tag_246:\n        /* \"#utility.yul\":7339:7346   */\n      dup1\n        /* \"#utility.yul\":7370:7371   */\n      0x00\n        /* \"#utility.yul\":7355:7781   */\n    tag_247:\n        /* \"#utility.yul\":7380:7386   */\n      dup6\n        /* \"#utility.yul\":7377:7378   */\n      dup2\n        /* \"#utility.yul\":7374:7387   */\n      lt\n        /* \"#utility.yul\":7355:7781   */\n      iszero\n      tag_249\n      jumpi\n        /* \"#utility.yul\":7451:7460   */\n      dup5\n        /* \"#utility.yul\":7445:7449   */\n      dup5\n        /* \"#utility.yul\":7441:7461   */\n      sub\n        /* \"#utility.yul\":7436:7439   */\n      dup10\n        /* \"#utility.yul\":7429:7462   */\n      mstore\n        /* \"#utility.yul\":7502:7508   */\n      dup2\n        /* \"#utility.yul\":7496:7509   */\n      mload\n        /* \"#utility.yul\":7530:7634   */\n      tag_250\n        /* \"#utility.yul\":7629:7633   */\n      dup6\n        /* \"#utility.yul\":7614:7627   */\n      dup3\n        /* \"#utility.yul\":7530:7634   */\n      tag_147\n      jump\t// in\n    tag_250:\n        /* \"#utility.yul\":7522:7634   */\n      swap5\n      pop\n        /* \"#utility.yul\":7657:7737   */\n      tag_251\n        /* \"#utility.yul\":7730:7736   */\n      dup4\n        /* \"#utility.yul\":7657:7737   */\n      tag_148\n      jump\t// in\n    tag_251:\n        /* \"#utility.yul\":7647:7737   */\n      swap3\n      pop\n        /* \"#utility.yul\":7766:7770   */\n      0x20\n        /* \"#utility.yul\":7761:7764   */\n      dup11\n        /* \"#utility.yul\":7757:7771   */\n      add\n        /* \"#utility.yul\":7750:7771   */\n      swap10\n      pop\n        /* \"#utility.yul\":7415:7781   */\n      pop\n        /* \"#utility.yul\":7402:7403   */\n      0x01\n        /* \"#utility.yul\":7399:7400   */\n      dup2\n        /* \"#utility.yul\":7395:7404   */\n      add\n        /* \"#utility.yul\":7390:7404   */\n      swap1\n      pop\n        /* \"#utility.yul\":7355:7781   */\n      jump(tag_247)\n    tag_249:\n        /* \"#utility.yul\":7359:7373   */\n      pop\n        /* \"#utility.yul\":7797:7801   */\n      dup3\n        /* \"#utility.yul\":7790:7801   */\n      swap8\n      pop\n        /* \"#utility.yul\":7817:7820   */\n      dup8\n        /* \"#utility.yul\":7810:7820   */\n      swap6\n      pop\n        /* \"#utility.yul\":6919:7826   */\n      pop\n      pop\n      pop\n      pop\n      pop\n        /* \"#utility.yul\":6755:7826   */\n      swap3\n      swap2\n      pop\n      pop\n      jump\t// out\n        /* \"#utility.yul\":7832:8285   */\n    tag_27:\n        /* \"#utility.yul\":8015:8019   */\n      0x00\n        /* \"#utility.yul\":8053:8055   */\n      0x20\n        /* \"#utility.yul\":8042:8051   */\n      dup3\n        /* \"#utility.yul\":8038:8056   */\n      add\n        /* \"#utility.yul\":8030:8056   */\n      swap1\n      pop\n        /* \"#utility.yul\":8102:8111   */\n      dup2\n        /* \"#utility.yul\":8096:8100   */\n      dup2\n        /* \"#utility.yul\":8092:8112   */\n      sub\n        /* \"#utility.yul\":8088:8089   */\n      0x00\n        /* \"#utility.yul\":8077:8086   */\n      dup4\n        /* \"#utility.yul\":8073:8090   */\n      add\n        /* \"#utility.yul\":8066:8113   */\n      mstore\n        /* \"#utility.yul\":8130:8278   */\n      tag_253\n        /* \"#utility.yul\":8273:8277   */\n      dup2\n        /* \"#utility.yul\":8264:8270   */\n      dup5\n        /* \"#utility.yul\":8130:8278   */\n      tag_149\n      jump\t// in\n    tag_253:\n        /* \"#utility.yul\":8122:8278   */\n      swap1\n      pop\n        /* \"#utility.yul\":7832:8285   */\n      swap3\n      swap2\n      pop\n      pop\n      jump\t// out\n        /* \"#utility.yul\":8291:8636   */\n    tag_31:\n        /* \"#utility.yul\":8358:8364   */\n      0x00\n        /* \"#utility.yul\":8407:8409   */\n      0x20\n        /* \"#utility.yul\":8395:8404   */\n      dup3\n        /* \"#utility.yul\":8386:8393   */\n      dup5\n        /* \"#utility.yul\":8382:8405   */\n      sub\n        /* \"#utility.yul\":8378:8410   */\n      slt\n        /* \"#utility.yul\":8375:8494   */\n      iszero\n      tag_255\n      jumpi\n        /* \"#utility.yul\":8413:8492   */\n      tag_256\n      tag_120\n      jump\t// in\n    tag_256:\n        /* \"#utility.yul\":8375:8494   */\n    tag_255:\n        /* \"#utility.yul\":8533:8534   */\n      0x00\n        /* \"#utility.yul\":8558:8619   */\n      tag_257\n        /* \"#utility.yul\":8611:8618   */\n      dup5\n        /* \"#utility.yul\":8602:8608   */\n      dup3\n        /* \"#utility.yul\":8591:8600   */\n      dup6\n        /* \"#utility.yul\":8587:8609   */\n      add\n        /* \"#utility.yul\":8558:8619   */\n      tag_125\n      jump\t// in\n    tag_257:\n        /* \"#utility.yul\":8548:8619   */\n      swap2\n      pop\n        /* \"#utility.yul\":8504:8629   */\n      pop\n        /* \"#utility.yul\":8291:8636   */\n      swap3\n      swap2\n      pop\n      pop\n      jump\t// out\n        /* \"#utility.yul\":8642:8811   */\n    tag_150:\n        /* \"#utility.yul\":8726:8737   */\n      0x00\n        /* \"#utility.yul\":8760:8766   */\n      dup3\n        /* \"#utility.yul\":8755:8758   */\n      dup3\n        /* \"#utility.yul\":8748:8767   */\n      mstore\n        /* \"#utility.yul\":8800:8804   */\n      0x20\n        /* \"#utility.yul\":8795:8798   */\n      dup3\n        /* \"#utility.yul\":8791:8805   */\n      add\n        /* \"#utility.yul\":8776:8805   */\n      swap1\n      pop\n        /* \"#utility.yul\":8642:8811   */\n      swap3\n      swap2\n      pop\n      pop\n      jump\t// out\n        /* \"#utility.yul\":8817:9041   */\n    tag_151:\n        /* \"#utility.yul\":8957:8991   */\n      0x4f6e6c7920746865206f776e65722063616e2063616c6c20746869732066756e\n        /* \"#utility.yul\":8953:8954   */\n      0x00\n        /* \"#utility.yul\":8945:8951   */\n      dup3\n        /* \"#utility.yul\":8941:8955   */\n      add\n        /* \"#utility.yul\":8934:8992   */\n      mstore\n        /* \"#utility.yul\":9026:9033   */\n      0x6374696f6e000000000000000000000000000000000000000000000000000000\n        /* \"#utility.yul\":9021:9023   */\n      0x20\n        /* \"#utility.yul\":9013:9019   */\n      dup3\n        /* \"#utility.yul\":9009:9024   */\n      add\n        /* \"#utility.yul\":9002:9034   */\n      mstore\n        /* \"#utility.yul\":8817:9041   */\n      pop\n      jump\t// out\n        /* \"#utility.yul\":9047:9413   */\n    tag_152:\n        /* \"#utility.yul\":9189:9192   */\n      0x00\n        /* \"#utility.yul\":9210:9277   */\n      tag_261\n        /* \"#utility.yul\":9274:9276   */\n      0x25\n        /* \"#utility.yul\":9269:9272   */\n      dup4\n        /* \"#utility.yul\":9210:9277   */\n      tag_150\n      jump\t// in\n    tag_261:\n        /* \"#utility.yul\":9203:9277   */\n      swap2\n      pop\n        /* \"#utility.yul\":9286:9379   */\n      tag_262\n        /* \"#utility.yul\":9375:9378   */\n      dup3\n        /* \"#utility.yul\":9286:9379   */\n      tag_151\n      jump\t// in\n    tag_262:\n        /* \"#utility.yul\":9404:9406   */\n      0x40\n        /* \"#utility.yul\":9399:9402   */\n      dup3\n        /* \"#utility.yul\":9395:9407   */\n      add\n        /* \"#utility.yul\":9388:9407   */\n      swap1\n      pop\n        /* \"#utility.yul\":9047:9413   */\n      swap2\n      swap1\n      pop\n      jump\t// out\n        /* \"#utility.yul\":9419:9838   */\n    tag_36:\n        /* \"#utility.yul\":9585:9589   */\n      0x00\n        /* \"#utility.yul\":9623:9625   */\n      0x20\n        /* \"#utility.yul\":9612:9621   */\n      dup3\n        /* \"#utility.yul\":9608:9626   */\n      add\n        /* \"#utility.yul\":9600:9626   */\n      swap1\n      pop\n        /* \"#utility.yul\":9672:9681   */\n      dup2\n        /* \"#utility.yul\":9666:9670   */\n      dup2\n        /* \"#utility.yul\":9662:9682   */\n      sub\n        /* \"#utility.yul\":9658:9659   */\n      0x00\n        /* \"#utility.yul\":9647:9656   */\n      dup4\n        /* \"#utility.yul\":9643:9660   */\n      add\n        /* \"#utility.yul\":9636:9683   */\n      mstore\n        /* \"#utility.yul\":9700:9831   */\n      tag_264\n        /* \"#utility.yul\":9826:9830   */\n      dup2\n        /* \"#utility.yul\":9700:9831   */\n      tag_152\n      jump\t// in\n    tag_264:\n        /* \"#utility.yul\":9692:9831   */\n      swap1\n      pop\n        /* \"#utility.yul\":9419:9838   */\n      swap2\n      swap1\n      pop\n      jump\t// out\n        /* \"#utility.yul\":9844:10024   */\n    tag_43:\n        /* \"#utility.yul\":9892:9969   */\n      0x4e487b7100000000000000000000000000000000000000000000000000000000\n        /* \"#utility.yul\":9889:9890   */\n      0x00\n        /* \"#utility.yul\":9882:9970   */\n      mstore\n        /* \"#utility.yul\":9989:9993   */\n      0x32\n        /* \"#utility.yul\":9986:9987   */\n      0x04\n        /* \"#utility.yul\":9979:9994   */\n      mstore\n        /* \"#utility.yul\":10013:10017   */\n      0x24\n        /* \"#utility.yul\":10010:10011   */\n      0x00\n        /* \"#utility.yul\":10003:10018   */\n      revert\n        /* \"#utility.yul\":10030:10210   */\n    tag_153:\n        /* \"#utility.yul\":10078:10155   */\n      0x4e487b7100000000000000000000000000000000000000000000000000000000\n        /* \"#utility.yul\":10075:10076   */\n      0x00\n        /* \"#utility.yul\":10068:10156   */\n      mstore\n        /* \"#utility.yul\":10175:10179   */\n      0x22\n        /* \"#utility.yul\":10172:10173   */\n      0x04\n        /* \"#utility.yul\":10165:10180   */\n      mstore\n        /* \"#utility.yul\":10199:10203   */\n      0x24\n        /* \"#utility.yul\":10196:10197   */\n      0x00\n        /* \"#utility.yul\":10189:10204   */\n      revert\n        /* \"#utility.yul\":10216:10536   */\n    tag_72:\n        /* \"#utility.yul\":10260:10266   */\n      0x00\n        /* \"#utility.yul\":10297:10298   */\n      0x02\n        /* \"#utility.yul\":10291:10295   */\n      dup3\n        /* \"#utility.yul\":10287:10299   */\n      div\n        /* \"#utility.yul\":10277:10299   */\n      swap1\n      pop\n        /* \"#utility.yul\":10344:10345   */\n      0x01\n        /* \"#utility.yul\":10338:10342   */\n      dup3\n        /* \"#utility.yul\":10334:10346   */\n      and\n        /* \"#utility.yul\":10365:10383   */\n      dup1\n        /* \"#utility.yul\":10355:10436   */\n      tag_268\n      jumpi\n        /* \"#utility.yul\":10421:10425   */\n      0x7f\n        /* \"#utility.yul\":10413:10419   */\n      dup3\n        /* \"#utility.yul\":10409:10426   */\n      and\n        /* \"#utility.yul\":10399:10426   */\n      swap2\n      pop\n        /* \"#utility.yul\":10355:10436   */\n    tag_268:\n        /* \"#utility.yul\":10483:10485   */\n      0x20\n        /* \"#utility.yul\":10475:10481   */\n      dup3\n        /* \"#utility.yul\":10472:10486   */\n      lt\n        /* \"#utility.yul\":10452:10470   */\n      dup2\n        /* \"#utility.yul\":10449:10487   */\n      sub\n        /* \"#utility.yul\":10446:10530   */\n      tag_269\n      jumpi\n        /* \"#utility.yul\":10502:10520   */\n      tag_270\n      tag_153\n      jump\t// in\n    tag_270:\n        /* \"#utility.yul\":10446:10530   */\n    tag_269:\n        /* \"#utility.yul\":10267:10536   */\n      pop\n        /* \"#utility.yul\":10216:10536   */\n      swap2\n      swap1\n      pop\n      jump\t// out\n        /* \"#utility.yul\":10542:10683   */\n    tag_154:\n        /* \"#utility.yul\":10591:10595   */\n      0x00\n        /* \"#utility.yul\":10614:10617   */\n      dup2\n        /* \"#utility.yul\":10606:10617   */\n      swap1\n      pop\n        /* \"#utility.yul\":10637:10640   */\n      dup2\n        /* \"#utility.yul\":10634:10635   */\n      0x00\n        /* \"#utility.yul\":10627:10641   */\n      mstore\n        /* \"#utility.yul\":10671:10675   */\n      0x20\n        /* \"#utility.yul\":10668:10669   */\n      0x00\n        /* \"#utility.yul\":10658:10676   */\n      keccak256\n        /* \"#utility.yul\":10650:10676   */\n      swap1\n      pop\n        /* \"#utility.yul\":10542:10683   */\n      swap2\n      swap1\n      pop\n      jump\t// out\n        /* \"#utility.yul\":10689:10782   */\n    tag_155:\n        /* \"#utility.yul\":10726:10732   */\n      0x00\n        /* \"#utility.yul\":10773:10775   */\n      0x20\n        /* \"#utility.yul\":10768:10770   */\n      0x1f\n        /* \"#utility.yul\":10761:10766   */\n      dup4\n        /* \"#utility.yul\":10757:10771   */\n      add\n        /* \"#utility.yul\":10753:10776   */\n      div\n        /* \"#utility.yul\":10743:10776   */\n      swap1\n      pop\n        /* \"#utility.yul\":10689:10782   */\n      swap2\n      swap1\n      pop\n      jump\t// out\n        /* \"#utility.yul\":10788:10895   */\n    tag_156:\n        /* \"#utility.yul\":10832:10840   */\n      0x00\n        /* \"#utility.yul\":10882:10887   */\n      dup3\n        /* \"#utility.yul\":10876:10880   */\n      dup3\n        /* \"#utility.yul\":10872:10888   */\n      shl\n        /* \"#utility.yul\":10851:10888   */\n      swap1\n      pop\n        /* \"#utility.yul\":10788:10895   */\n      swap3\n      swap2\n      pop\n      pop\n      jump\t// out\n        /* \"#utility.yul\":10901:11294   */\n    tag_157:\n        /* \"#utility.yul\":10970:10976   */\n      0x00\n        /* \"#utility.yul\":11020:11021   */\n      0x08\n        /* \"#utility.yul\":11008:11018   */\n      dup4\n        /* \"#utility.yul\":11004:11022   */\n      mul\n        /* \"#utility.yul\":11043:11140   */\n      tag_275\n        /* \"#utility.yul\":11073:11139   */\n      0xffffffffffffffffffffffffffffffffffffffffffffffffffffffffffffffff\n        /* \"#utility.yul\":11062:11071   */\n      dup3\n        /* \"#utility.yul\":11043:11140   */\n      tag_156\n      jump\t// in\n    tag_275:\n        /* \"#utility.yul\":11161:11200   */\n      tag_276\n        /* \"#utility.yul\":11191:11199   */\n      dup7\n        /* \"#utility.yul\":11180:11189   */\n      dup4\n        /* \"#utility.yul\":11161:11200   */\n      tag_156\n      jump\t// in\n    tag_276:\n        /* \"#utility.yul\":11149:11200   */\n      swap6\n      pop\n        /* \"#utility.yul\":11233:11237   */\n      dup1\n        /* \"#utility.yul\":11229:11238   */\n      not\n        /* \"#utility.yul\":11222:11227   */\n      dup5\n        /* \"#utility.yul\":11218:11239   */\n      and\n        /* \"#utility.yul\":11209:11239   */\n      swap4\n      pop\n        /* \"#utility.yul\":11282:11286   */\n      dup1\n        /* \"#utility.yul\":11272:11280   */\n      dup7\n        /* \"#utility.yul\":11268:11287   */\n      and\n        /* \"#utility.yul\":11261:11266   */\n      dup5\n        /* \"#utility.yul\":11258:11288   */\n      or\n        /* \"#utility.yul\":11248:11288   */\n      swap3\n      pop\n        /* \"#utility.yul\":10977:11294   */\n      pop\n      pop\n        /* \"#utility.yul\":10901:11294   */\n      swap4\n      swap3\n      pop\n      pop\n      pop\n      jump\t// out\n        /* \"#utility.yul\":11300:11360   */\n    tag_158:\n        /* \"#utility.yul\":11328:11331   */\n      0x00\n        /* \"#utility.yul\":11349:11354   */\n      dup2\n        /* \"#utility.yul\":11342:11354   */\n      swap1\n      pop\n        /* \"#utility.yul\":11300:11360   */\n      swap2\n      swap1\n      pop\n      jump\t// out\n        /* \"#utility.yul\":11366:11508   */\n    tag_159:\n        /* \"#utility.yul\":11416:11425   */\n      0x00\n        /* \"#utility.yul\":11449:11502   */\n      tag_279\n        /* \"#utility.yul\":11467:11501   */\n      tag_280\n        /* \"#utility.yul\":11476:11500   */\n      tag_281\n        /* \"#utility.yul\":11494:11499   */\n      dup5\n        /* \"#utility.yul\":11476:11500   */\n      tag_136\n      jump\t// in\n    tag_281:\n        /* \"#utility.yul\":11467:11501   */\n      tag_158\n      jump\t// in\n    tag_280:\n        /* \"#utility.yul\":11449:11502   */\n      tag_136\n      jump\t// in\n    tag_279:\n        /* \"#utility.yul\":11436:11502   */\n      swap1\n      pop\n        /* \"#utility.yul\":11366:11508   */\n      swap2\n      swap1\n      pop\n      jump\t// out\n        /* \"#utility.yul\":11514:11589   */\n    tag_160:\n        /* \"#utility.yul\":11557:11560   */\n      0x00\n        /* \"#utility.yul\":11578:11583   */\n      dup2\n        /* \"#utility.yul\":11571:11583   */\n      swap1\n      pop\n        /* \"#utility.yul\":11514:11589   */\n      swap2\n      swap1\n      pop\n      jump\t// out\n        /* \"#utility.yul\":11595:11864   */\n    tag_161:\n        /* \"#utility.yul\":11705:11744   */\n      tag_284\n        /* \"#utility.yul\":11736:11743   */\n      dup4\n        /* \"#utility.yul\":11705:11744   */\n      tag_159\n      jump\t// in\n    tag_284:\n        /* \"#utility.yul\":11766:11857   */\n      tag_285\n        /* \"#utility.yul\":11815:11856   */\n      tag_286\n        /* \"#utility.yul\":11839:11855   */\n      dup3\n        /* \"#utility.yul\":11815:11856   */\n      tag_160\n      jump\t// in\n    tag_286:\n        /* \"#utility.yul\":11807:11813   */\n      dup5\n        /* \"#utility.yul\":11800:11804   */\n      dup5\n        /* \"#utility.yul\":11794:11805   */\n      sload\n        /* \"#utility.yul\":11766:11857   */\n      tag_157\n      jump\t// in\n    tag_285:\n        /* \"#utility.yul\":11760:11764   */\n      dup3\n        /* \"#utility.yul\":11753:11858   */\n      sstore\n        /* \"#utility.yul\":11671:11864   */\n      pop\n        /* \"#utility.yul\":11595:11864   */\n      pop\n      pop\n      pop\n      jump\t// out\n        /* \"#utility.yul\":11870:11943   */\n    tag_162:\n        /* \"#utility.yul\":11915:11918   */\n      0x00\n        /* \"#utility.yul\":11870:11943   */\n      swap1\n      jump\t// out\n        /* \"#utility.yul\":11949:12138   */\n    tag_163:\n        /* \"#utility.yul\":12026:12058   */\n      tag_289\n      tag_162\n      jump\t// in\n    tag_289:\n        /* \"#utility.yul\":12067:12132   */\n      tag_290\n        /* \"#utility.yul\":12125:12131   */\n      dup2\n        /* \"#utility.yul\":12117:12123   */\n      dup5\n        /* \"#utility.yul\":12111:12115   */\n      dup5\n        /* \"#utility.yul\":12067:12132   */\n      tag_161\n      jump\t// in\n    tag_290:\n        /* \"#utility.yul\":12002:12138   */\n      pop\n        /* \"#utility.yul\":11949:12138   */\n      pop\n      pop\n      jump\t// out\n        /* \"#utility.yul\":12144:12330   */\n    tag_164:\n        /* \"#utility.yul\":12204:12324   */\n    tag_292:\n        /* \"#utility.yul\":12221:12224   */\n      dup2\n        /* \"#utility.yul\":12214:12219   */\n      dup2\n        /* \"#utility.yul\":12211:12225   */\n      lt\n        /* \"#utility.yul\":12204:12324   */\n      iszero\n      tag_294\n      jumpi\n        /* \"#utility.yul\":12275:12314   */\n      tag_295\n        /* \"#utility.yul\":12312:12313   */\n      0x00\n        /* \"#utility.yul\":12305:12310   */\n      dup3\n        /* \"#utility.yul\":12275:12314   */\n      tag_163\n      jump\t// in\n    tag_295:\n        /* \"#utility.yul\":12248:12249   */\n      0x01\n        /* \"#utility.yul\":12241:12246   */\n      dup2\n        /* \"#utility.yul\":12237:12250   */\n      add\n        /* \"#utility.yul\":12228:12250   */\n      swap1\n      pop\n        /* \"#utility.yul\":12204:12324   */\n      jump(tag_292)\n    tag_294:\n        /* \"#utility.yul\":12144:12330   */\n      pop\n      pop\n      jump\t// out\n        /* \"#utility.yul\":12336:12879   */\n    tag_165:\n        /* \"#utility.yul\":12437:12439   */\n      0x1f\n        /* \"#utility.yul\":12432:12435   */\n      dup3\n        /* \"#utility.yul\":12429:12440   */\n      gt\n        /* \"#utility.yul\":12426:12872   */\n      iszero\n      tag_297\n      jumpi\n        /* \"#utility.yul\":12471:12509   */\n      tag_298\n        /* \"#utility.yul\":12503:12508   */\n      dup2\n        /* \"#utility.yul\":12471:12509   */\n      tag_154\n      jump\t// in\n    tag_298:\n        /* \"#utility.yul\":12555:12584   */\n      tag_299\n        /* \"#utility.yul\":12573:12583   */\n      dup5\n        /* \"#utility.yul\":12555:12584   */\n      tag_155\n      jump\t// in\n    tag_299:\n        /* \"#utility.yul\":12545:12553   */\n      dup2\n        /* \"#utility.yul\":12541:12585   */\n      add\n        /* \"#utility.yul\":12738:12740   */\n      0x20\n        /* \"#utility.yul\":12726:12736   */\n      dup6\n        /* \"#utility.yul\":12723:12741   */\n      lt\n        /* \"#utility.yul\":12720:12769   */\n      iszero\n      tag_300\n      jumpi\n        /* \"#utility.yul\":12759:12767   */\n      dup2\n        /* \"#utility.yul\":12744:12767   */\n      swap1\n      pop\n        /* \"#utility.yul\":12720:12769   */\n    tag_300:\n        /* \"#utility.yul\":12782:12862   */\n      tag_301\n        /* \"#utility.yul\":12838:12860   */\n      tag_302\n        /* \"#utility.yul\":12856:12859   */\n      dup6\n        /* \"#utility.yul\":12838:12860   */\n      tag_155\n      jump\t// in\n    tag_302:\n        /* \"#utility.yul\":12828:12836   */\n      dup4\n        /* \"#utility.yul\":12824:12861   */\n      add\n        /* \"#utility.yul\":12811:12822   */\n      dup3\n        /* \"#utility.yul\":12782:12862   */\n      tag_164\n      jump\t// in\n    tag_301:\n        /* \"#utility.yul\":12441:12872   */\n      pop\n      pop\n        /* \"#utility.yul\":12426:12872   */\n    tag_297:\n        /* \"#utility.yul\":12336:12879   */\n      pop\n      pop\n      pop\n      jump\t// out\n        /* \"#utility.yul\":12885:13002   */\n    tag_166:\n        /* \"#utility.yul\":12939:12947   */\n      0x00\n        /* \"#utility.yul\":12989:12994   */\n      dup3\n        /* \"#utility.yul\":12983:12987   */\n      dup3\n        /* \"#utility.yul\":12979:12995   */\n      shr\n        /* \"#utility.yul\":12958:12995   */\n      swap1\n      pop\n        /* \"#utility.yul\":12885:13002   */\n      swap3\n      swap2\n      pop\n      pop\n      jump\t// out\n        /* \"#utility.yul\":13008:13177   */\n    tag_167:\n        /* \"#utility.yul\":13052:13058   */\n      0x00\n        /* \"#utility.yul\":13085:13136   */\n      tag_305\n        /* \"#utility.yul\":13133:13134   */\n      0x00\n        /* \"#utility.yul\":13129:13135   */\n      not\n        /* \"#utility.yul\":13121:13126   */\n      dup5\n        /* \"#utility.yul\":13118:13119   */\n      0x08\n        /* \"#utility.yul\":13114:13127   */\n      mul\n        /* \"#utility.yul\":13085:13136   */\n      tag_166\n      jump\t// in\n    tag_305:\n        /* \"#utility.yul\":13081:13137   */\n      not\n        /* \"#utility.yul\":13166:13170   */\n      dup1\n        /* \"#utility.yul\":13160:13164   */\n      dup4\n        /* \"#utility.yul\":13156:13171   */\n      and\n        /* \"#utility.yul\":13146:13171   */\n      swap2\n      pop\n        /* \"#utility.yul\":13059:13177   */\n      pop\n        /* \"#utility.yul\":13008:13177   */\n      swap3\n      swap2\n      pop\n      pop\n      jump\t// out\n        /* \"#utility.yul\":13182:13477   */\n    tag_168:\n        /* \"#utility.yul\":13258:13262   */\n      0x00\n        /* \"#utility.yul\":13404:13433   */\n      tag_307\n        /* \"#utility.yul\":13429:13432   */\n      dup4\n        /* \"#utility.yul\":13423:13427   */\n      dup4\n        /* \"#utility.yul\":13404:13433   */\n      tag_167\n      jump\t// in\n    tag_307:\n        /* \"#utility.yul\":13396:13433   */\n      swap2\n      pop\n        /* \"#utility.yul\":13466:13469   */\n      dup3\n        /* \"#utility.yul\":13463:13464   */\n      0x02\n        /* \"#utility.yul\":13459:13470   */\n      mul\n        /* \"#utility.yul\":13453:13457   */\n      dup3\n        /* \"#utility.yul\":13450:13471   */\n      or\n        /* \"#utility.yul\":13442:13471   */\n      swap1\n      pop\n        /* \"#utility.yul\":13182:13477   */\n      swap3\n      swap2\n      pop\n      pop\n      jump\t// out\n        /* \"#utility.yul\":13482:14877   */\n    tag_49:\n        /* \"#utility.yul\":13599:13636   */\n      tag_309\n        /* \"#utility.yul\":13632:13635   */\n      dup3\n        /* \"#utility.yul\":13599:13636   */\n      tag_142\n      jump\t// in\n    tag_309:\n        /* \"#utility.yul\":13701:13719   */\n      0xffffffffffffffff\n        /* \"#utility.yul\":13693:13699   */\n      dup2\n        /* \"#utility.yul\":13690:13720   */\n      gt\n        /* \"#utility.yul\":13687:13743   */\n      iszero\n      tag_310\n      jumpi\n        /* \"#utility.yul\":13723:13741   */\n      tag_311\n      tag_129\n      jump\t// in\n    tag_311:\n        /* \"#utility.yul\":13687:13743   */\n    tag_310:\n        /* \"#utility.yul\":13767:13805   */\n      tag_312\n        /* \"#utility.yul\":13799:13803   */\n      dup3\n        /* \"#utility.yul\":13793:13804   */\n      sload\n        /* \"#utility.yul\":13767:13805   */\n      tag_72\n      jump\t// in\n    tag_312:\n        /* \"#utility.yul\":13852:13919   */\n      tag_313\n        /* \"#utility.yul\":13912:13918   */\n      dup3\n        /* \"#utility.yul\":13904:13910   */\n      dup3\n        /* \"#utility.yul\":13898:13902   */\n      dup6\n        /* \"#utility.yul\":13852:13919   */\n      tag_165\n      jump\t// in\n    tag_313:\n        /* \"#utility.yul\":13946:13947   */\n      0x00\n        /* \"#utility.yul\":13970:13974   */\n      0x20\n        /* \"#utility.yul\":13957:13974   */\n      swap1\n      pop\n        /* \"#utility.yul\":14002:14004   */\n      0x1f\n        /* \"#utility.yul\":13994:14000   */\n      dup4\n        /* \"#utility.yul\":13991:14005   */\n      gt\n        /* \"#utility.yul\":14019:14020   */\n      0x01\n        /* \"#utility.yul\":14014:14632   */\n      dup2\n      eq\n      tag_315\n      jumpi\n        /* \"#utility.yul\":14676:14677   */\n      0x00\n        /* \"#utility.yul\":14693:14699   */\n      dup5\n        /* \"#utility.yul\":14690:14767   */\n      iszero\n      tag_316\n      jumpi\n        /* \"#utility.yul\":14742:14751   */\n      dup3\n        /* \"#utility.yul\":14737:14740   */\n      dup8\n        /* \"#utility.yul\":14733:14752   */\n      add\n        /* \"#utility.yul\":14727:14753   */\n      mload\n        /* \"#utility.yul\":14718:14753   */\n      swap1\n      pop\n        /* \"#utility.yul\":14690:14767   */\n    tag_316:\n        /* \"#utility.yul\":14793:14860   */\n      tag_317\n        /* \"#utility.yul\":14853:14859   */\n      dup6\n        /* \"#utility.yul\":14846:14851   */\n      dup3\n        /* \"#utility.yul\":14793:14860   */\n      tag_168\n      jump\t// in\n    tag_317:\n        /* \"#utility.yul\":14787:14791   */\n      dup7\n        /* \"#utility.yul\":14780:14861   */\n      sstore\n        /* \"#utility.yul\":14649:14871   */\n      pop\n        /* \"#utility.yul\":13984:14871   */\n      jump(tag_314)\n        /* \"#utility.yul\":14014:14632   */\n    tag_315:\n        /* \"#utility.yul\":14066:14070   */\n      0x1f\n        /* \"#utility.yul\":14062:14071   */\n      not\n        /* \"#utility.yul\":14054:14060   */\n      dup5\n        /* \"#utility.yul\":14050:14072   */\n      and\n        /* \"#utility.yul\":14100:14137   */\n      tag_318\n        /* \"#utility.yul\":14132:14136   */\n      dup7\n        /* \"#utility.yul\":14100:14137   */\n      tag_154\n      jump\t// in\n    tag_318:\n        /* \"#utility.yul\":14159:14160   */\n      0x00\n        /* \"#utility.yul\":14173:14381   */\n    tag_319:\n        /* \"#utility.yul\":14187:14194   */\n      dup3\n        /* \"#utility.yul\":14184:14185   */\n      dup2\n        /* \"#utility.yul\":14181:14195   */\n      lt\n        /* \"#utility.yul\":14173:14381   */\n      iszero\n      tag_321\n      jumpi\n        /* \"#utility.yul\":14266:14275   */\n      dup5\n        /* \"#utility.yul\":14261:14264   */\n      dup10\n        /* \"#utility.yul\":14257:14276   */\n      add\n        /* \"#utility.yul\":14251:14277   */\n      mload\n        /* \"#utility.yul\":14243:14249   */\n      dup3\n        /* \"#utility.yul\":14236:14278   */\n      sstore\n        /* \"#utility.yul\":14317:14318   */\n      0x01\n        /* \"#utility.yul\":14309:14315   */\n      dup3\n        /* \"#utility.yul\":14305:14319   */\n      add\n        /* \"#utility.yul\":14295:14319   */\n      swap2\n      pop\n        /* \"#utility.yul\":14364:14366   */\n      0x20\n        /* \"#utility.yul\":14353:14362   */\n      dup6\n        /* \"#utility.yul\":14349:14367   */\n      add\n        /* \"#utility.yul\":14336:14367   */\n      swap5\n      pop\n        /* \"#utility.yul\":14210:14214   */\n      0x20\n        /* \"#utility.yul\":14207:14208   */\n      dup2\n        /* \"#utility.yul\":14203:14215   */\n      add\n        /* \"#utility.yul\":14198:14215   */\n      swap1\n      pop\n        /* \"#utility.yul\":14173:14381   */\n      jump(tag_319)\n    tag_321:\n        /* \"#utility.yul\":14409:14415   */\n      dup7\n        /* \"#utility.yul\":14400:14407   */\n      dup4\n        /* \"#utility.yul\":14397:14416   */\n      lt\n        /* \"#utility.yul\":14394:14573   */\n      iszero\n      tag_322\n      jumpi\n        /* \"#utility.yul\":14467:14476   */\n      dup5\n        /* \"#utility.yul\":14462:14465   */\n      dup10\n        /* \"#utility.yul\":14458:14477   */\n      add\n        /* \"#utility.yul\":14452:14478   */\n      mload\n        /* \"#utility.yul\":14510:14558   */\n      tag_323\n        /* \"#utility.yul\":14552:14556   */\n      0x1f\n        /* \"#utility.yul\":14544:14550   */\n      dup10\n        /* \"#utility.yul\":14540:14557   */\n      and\n        /* \"#utility.yul\":14529:14538   */\n      dup3\n        /* \"#utility.yul\":14510:14558   */\n      tag_167\n      jump\t// in\n    tag_323:\n        /* \"#utility.yul\":14502:14508   */\n      dup4\n        /* \"#utility.yul\":14495:14559   */\n      sstore\n        /* \"#utility.yul\":14417:14573   */\n      pop\n        /* \"#utility.yul\":14394:14573   */\n    tag_322:\n        /* \"#utility.yul\":14619:14620   */\n      0x01\n        /* \"#utility.yul\":14615:14616   */\n      0x02\n        /* \"#utility.yul\":14607:14613   */\n      dup9\n        /* \"#utility.yul\":14603:14617   */\n      mul\n        /* \"#utility.yul\":14599:14621   */\n      add\n        /* \"#utility.yul\":14593:14597   */\n      dup9\n        /* \"#utility.yul\":14586:14622   */\n      sstore\n        /* \"#utility.yul\":14021:14632   */\n      pop\n      pop\n      pop\n        /* \"#utility.yul\":13984:14871   */\n    tag_314:\n      pop\n        /* \"#utility.yul\":13574:14877   */\n      pop\n      pop\n      pop\n        /* \"#utility.yul\":13482:14877   */\n      pop\n      pop\n      jump\t// out\n        /* \"#utility.yul\":14883:15106   */\n    tag_169:\n        /* \"#utility.yul\":15023:15057   */\n      0x496e73756666696369656e742062616c616e636520696e2074686520636f6e74\n        /* \"#utility.yul\":15019:15020   */\n      0x00\n        /* \"#utility.yul\":15011:15017   */\n      dup3\n        /* \"#utility.yul\":15007:15021   */\n      add\n        /* \"#utility.yul\":15000:15058   */\n      mstore\n        /* \"#utility.yul\":15092:15098   */\n      0x7261637400000000000000000000000000000000000000000000000000000000\n        /* \"#utility.yul\":15087:15089   */\n      0x20\n        /* \"#utility.yul\":15079:15085   */\n      dup3\n        /* \"#utility.yul\":15075:15090   */\n      add\n        /* \"#utility.yul\":15068:15099   */\n      mstore\n        /* \"#utility.yul\":14883:15106   */\n      pop\n      jump\t// out\n        /* \"#utility.yul\":15112:15478   */\n    tag_170:\n        /* \"#utility.yul\":15254:15257   */\n      0x00\n        /* \"#utility.yul\":15275:15342   */\n      tag_326\n        /* \"#utility.yul\":15339:15341   */\n      0x24\n        /* \"#utility.yul\":15334:15337   */\n      dup4\n        /* \"#utility.yul\":15275:15342   */\n      tag_150\n      jump\t// in\n    tag_326:\n        /* \"#utility.yul\":15268:15342   */\n      swap2\n      pop\n        /* \"#utility.yul\":15351:15444   */\n      tag_327\n        /* \"#utility.yul\":15440:15443   */\n      dup3\n        /* \"#utility.yul\":15351:15444   */\n      tag_169\n      jump\t// in\n    tag_327:\n        /* \"#utility.yul\":15469:15471   */\n      0x40\n        /* \"#utility.yul\":15464:15467   */\n      dup3\n        /* \"#utility.yul\":15460:15472   */\n      add\n        /* \"#utility.yul\":15453:15472   */\n      swap1\n      pop\n        /* \"#utility.yul\":15112:15478   */\n      swap2\n      swap1\n      pop\n      jump\t// out\n        /* \"#utility.yul\":15484:15903   */\n    tag_54:\n        /* \"#utility.yul\":15650:15654   */\n      0x00\n        /* \"#utility.yul\":15688:15690   */\n      0x20\n        /* \"#utility.yul\":15677:15686   */\n      dup3\n        /* \"#utility.yul\":15673:15691   */\n      add\n        /* \"#utility.yul\":15665:15691   */\n      swap1\n      pop\n        /* \"#utility.yul\":15737:15746   */\n      dup2\n        /* \"#utility.yul\":15731:15735   */\n      dup2\n        /* \"#utility.yul\":15727:15747   */\n      sub\n        /* \"#utility.yul\":15723:15724   */\n      0x00\n        /* \"#utility.yul\":15712:15721   */\n      dup4\n        /* \"#utility.yul\":15708:15725   */\n      add\n        /* \"#utility.yul\":15701:15748   */\n      mstore\n        /* \"#utility.yul\":15765:15896   */\n      tag_329\n        /* \"#utility.yul\":15891:15895   */\n      dup2\n        /* \"#utility.yul\":15765:15896   */\n      tag_170\n      jump\t// in\n    tag_329:\n        /* \"#utility.yul\":15757:15896   */\n      swap1\n      pop\n        /* \"#utility.yul\":15484:15903   */\n      swap2\n      swap1\n      pop\n      jump\t// out\n        /* \"#utility.yul\":15909:16089   */\n    tag_171:\n        /* \"#utility.yul\":15957:16034   */\n      0x4e487b7100000000000000000000000000000000000000000000000000000000\n        /* \"#utility.yul\":15954:15955   */\n      0x00\n        /* \"#utility.yul\":15947:16035   */\n      mstore\n        /* \"#utility.yul\":16054:16058   */\n      0x12\n        /* \"#utility.yul\":16051:16052   */\n      0x04\n        /* \"#utility.yul\":16044:16059   */\n      mstore\n        /* \"#utility.yul\":16078:16082   */\n      0x24\n        /* \"#utility.yul\":16075:16076   */\n      0x00\n        /* \"#utility.yul\":16068:16083   */\n      revert\n        /* \"#utility.yul\":16095:16275   */\n    tag_172:\n        /* \"#utility.yul\":16143:16220   */\n      0x4e487b7100000000000000000000000000000000000000000000000000000000\n        /* \"#utility.yul\":16140:16141   */\n      0x00\n        /* \"#utility.yul\":16133:16221   */\n      mstore\n        /* \"#utility.yul\":16240:16244   */\n      0x11\n        /* \"#utility.yul\":16237:16238   */\n      0x04\n        /* \"#utility.yul\":16230:16245   */\n      mstore\n        /* \"#utility.yul\":16264:16268   */\n      0x24\n        /* \"#utility.yul\":16261:16262   */\n      0x00\n        /* \"#utility.yul\":16254:16269   */\n      revert\n        /* \"#utility.yul\":16281:16466   */\n    tag_57:\n        /* \"#utility.yul\":16321:16322   */\n      0x00\n        /* \"#utility.yul\":16338:16358   */\n      tag_333\n        /* \"#utility.yul\":16356:16357   */\n      dup3\n        /* \"#utility.yul\":16338:16358   */\n      tag_136\n      jump\t// in\n    tag_333:\n        /* \"#utility.yul\":16333:16358   */\n      swap2\n      pop\n        /* \"#utility.yul\":16372:16392   */\n      tag_334\n        /* \"#utility.yul\":16390:16391   */\n      dup4\n        /* \"#utility.yul\":16372:16392   */\n      tag_136\n      jump\t// in\n    tag_334:\n        /* \"#utility.yul\":16367:16392   */\n      swap3\n      pop\n        /* \"#utility.yul\":16411:16412   */\n      dup3\n        /* \"#utility.yul\":16401:16436   */\n      tag_335\n      jumpi\n        /* \"#utility.yul\":16416:16434   */\n      tag_336\n      tag_171\n      jump\t// in\n    tag_336:\n        /* \"#utility.yul\":16401:16436   */\n    tag_335:\n        /* \"#utility.yul\":16458:16459   */\n      dup3\n        /* \"#utility.yul\":16455:16456   */\n      dup3\n        /* \"#utility.yul\":16451:16460   */\n      div\n        /* \"#utility.yul\":16446:16460   */\n      swap1\n      pop\n        /* \"#utility.yul\":16281:16466   */\n      swap3\n      swap2\n      pop\n      pop\n      jump\t// out\n        /* \"#utility.yul\":16472:16666   */\n    tag_92:\n        /* \"#utility.yul\":16512:16516   */\n      0x00\n        /* \"#utility.yul\":16532:16552   */\n      tag_338\n        /* \"#utility.yul\":16550:16551   */\n      dup3\n        /* \"#utility.yul\":16532:16552   */\n      tag_136\n      jump\t// in\n    tag_338:\n        /* \"#utility.yul\":16527:16552   */\n      swap2\n      pop\n        /* \"#utility.yul\":16566:16586   */\n      tag_339\n        /* \"#utility.yul\":16584:16585   */\n      dup4\n        /* \"#utility.yul\":16566:16586   */\n      tag_136\n      jump\t// in\n    tag_339:\n        /* \"#utility.yul\":16561:16586   */\n      swap3\n      pop\n        /* \"#utility.yul\":16610:16611   */\n      dup3\n        /* \"#utility.yul\":16607:16608   */\n      dup3\n        /* \"#utility.yul\":16603:16612   */\n      sub\n        /* \"#utility.yul\":16595:16612   */\n      swap1\n      pop\n        /* \"#utility.yul\":16634:16635   */\n      dup2\n        /* \"#utility.yul\":16628:16632   */\n      dup2\n        /* \"#utility.yul\":16625:16636   */\n      gt\n        /* \"#utility.yul\":16622:16659   */\n      iszero\n      tag_340\n      jumpi\n        /* \"#utility.yul\":16639:16657   */\n      tag_341\n      tag_172\n      jump\t// in\n    tag_341:\n        /* \"#utility.yul\":16622:16659   */\n    tag_340:\n        /* \"#utility.yul\":16472:16666   */\n      swap3\n      swap2\n      pop\n      pop\n      jump\t// out\n        /* \"#utility.yul\":16672:16863   */\n    tag_94:\n        /* \"#utility.yul\":16712:16715   */\n      0x00\n        /* \"#utility.yul\":16731:16751   */\n      tag_343\n        /* \"#utility.yul\":16749:16750   */\n      dup3\n        /* \"#utility.yul\":16731:16751   */\n      tag_136\n      jump\t// in\n    tag_343:\n        /* \"#utility.yul\":16726:16751   */\n      swap2\n      pop\n        /* \"#utility.yul\":16765:16785   */\n      tag_344\n        /* \"#utility.yul\":16783:16784   */\n      dup4\n        /* \"#utility.yul\":16765:16785   */\n      tag_136\n      jump\t// in\n    tag_344:\n        /* \"#utility.yul\":16760:16785   */\n      swap3\n      pop\n        /* \"#utility.yul\":16808:16809   */\n      dup3\n        /* \"#utility.yul\":16805:16806   */\n      dup3\n        /* \"#utility.yul\":16801:16810   */\n      add\n        /* \"#utility.yul\":16794:16810   */\n      swap1\n      pop\n        /* \"#utility.yul\":16829:16832   */\n      dup1\n        /* \"#utility.yul\":16826:16827   */\n      dup3\n        /* \"#utility.yul\":16823:16833   */\n      gt\n        /* \"#utility.yul\":16820:16856   */\n      iszero\n      tag_345\n      jumpi\n        /* \"#utility.yul\":16836:16854   */\n      tag_346\n      tag_172\n      jump\t// in\n    tag_346:\n        /* \"#utility.yul\":16820:16856   */\n    tag_345:\n        /* \"#utility.yul\":16672:16863   */\n      swap3\n      swap2\n      pop\n      pop\n      jump\t// out\n        /* \"#utility.yul\":16869:17018   */\n    tag_173:\n        /* \"#utility.yul\":16918:16924   */\n      0x00\n        /* \"#utility.yul\":16952:16957   */\n      dup2\n        /* \"#utility.yul\":16946:16958   */\n      sload\n        /* \"#utility.yul\":16936:16958   */\n      swap1\n      pop\n        /* \"#utility.yul\":16978:17011   */\n      tag_348\n        /* \"#utility.yul\":17004:17010   */\n      dup2\n        /* \"#utility.yul\":16978:17011   */\n      tag_72\n      jump\t// in\n    tag_348:\n        /* \"#utility.yul\":16968:17011   */\n      swap1\n      pop\n        /* \"#utility.yul\":16869:17018   */\n      swap2\n      swap1\n      pop\n      jump\t// out\n        /* \"#utility.yul\":17024:18475   */\n    tag_102:\n        /* \"#utility.yul\":17135:17138   */\n      dup2\n        /* \"#utility.yul\":17129:17133   */\n      dup2\n        /* \"#utility.yul\":17126:17139   */\n      sub\n        /* \"#utility.yul\":17123:17149   */\n      tag_350\n      jumpi\n        /* \"#utility.yul\":17142:17147   */\n      pop\n      pop\n      jump(tag_349)\n        /* \"#utility.yul\":17123:17149   */\n    tag_350:\n        /* \"#utility.yul\":17173:17207   */\n      tag_351\n        /* \"#utility.yul\":17203:17206   */\n      dup3\n        /* \"#utility.yul\":17173:17207   */\n      tag_173\n      jump\t// in\n    tag_351:\n        /* \"#utility.yul\":17272:17290   */\n      0xffffffffffffffff\n        /* \"#utility.yul\":17264:17270   */\n      dup2\n        /* \"#utility.yul\":17261:17291   */\n      gt\n        /* \"#utility.yul\":17258:17314   */\n      iszero\n      tag_352\n      jumpi\n        /* \"#utility.yul\":17294:17312   */\n      tag_353\n      tag_129\n      jump\t// in\n    tag_353:\n        /* \"#utility.yul\":17258:17314   */\n    tag_352:\n        /* \"#utility.yul\":17338:17376   */\n      tag_354\n        /* \"#utility.yul\":17370:17374   */\n      dup3\n        /* \"#utility.yul\":17364:17375   */\n      sload\n        /* \"#utility.yul\":17338:17376   */\n      tag_72\n      jump\t// in\n    tag_354:\n        /* \"#utility.yul\":17423:17490   */\n      tag_355\n        /* \"#utility.yul\":17483:17489   */\n      dup3\n        /* \"#utility.yul\":17475:17481   */\n      dup3\n        /* \"#utility.yul\":17469:17473   */\n      dup6\n        /* \"#utility.yul\":17423:17490   */\n      tag_165\n      jump\t// in\n    tag_355:\n        /* \"#utility.yul\":17517:17518   */\n      0x00\n        /* \"#utility.yul\":17546:17548   */\n      0x1f\n        /* \"#utility.yul\":17538:17544   */\n      dup4\n        /* \"#utility.yul\":17535:17549   */\n      gt\n        /* \"#utility.yul\":17563:17564   */\n      0x01\n        /* \"#utility.yul\":17558:18230   */\n      dup2\n      eq\n      tag_357\n      jumpi\n        /* \"#utility.yul\":18274:18275   */\n      0x00\n        /* \"#utility.yul\":18291:18297   */\n      dup5\n        /* \"#utility.yul\":18288:18365   */\n      iszero\n      tag_358\n      jumpi\n        /* \"#utility.yul\":18340:18349   */\n      dup3\n        /* \"#utility.yul\":18335:18338   */\n      dup8\n        /* \"#utility.yul\":18331:18350   */\n      add\n        /* \"#utility.yul\":18325:18351   */\n      sload\n        /* \"#utility.yul\":18316:18351   */\n      swap1\n      pop\n        /* \"#utility.yul\":18288:18365   */\n    tag_358:\n        /* \"#utility.yul\":18391:18458   */\n      tag_359\n        /* \"#utility.yul\":18451:18457   */\n      dup6\n        /* \"#utility.yul\":18444:18449   */\n      dup3\n        /* \"#utility.yul\":18391:18458   */\n      tag_168\n      jump\t// in\n    tag_359:\n        /* \"#utility.yul\":18385:18389   */\n      dup7\n        /* \"#utility.yul\":18378:18459   */\n      sstore\n        /* \"#utility.yul\":18247:18469   */\n      pop\n        /* \"#utility.yul\":17528:18469   */\n      jump(tag_356)\n        /* \"#utility.yul\":17558:18230   */\n    tag_357:\n        /* \"#utility.yul\":17610:17614   */\n      0x1f\n        /* \"#utility.yul\":17606:17615   */\n      not\n        /* \"#utility.yul\":17598:17604   */\n      dup5\n        /* \"#utility.yul\":17594:17616   */\n      and\n        /* \"#utility.yul\":17636:17672   */\n      tag_360\n        /* \"#utility.yul\":17668:17671   */\n      dup8\n        /* \"#utility.yul\":17636:17672   */\n      tag_154\n      jump\t// in\n    tag_360:\n        /* \"#utility.yul\":17629:17672   */\n      swap7\n      pop\n        /* \"#utility.yul\":17699:17736   */\n      tag_361\n        /* \"#utility.yul\":17731:17735   */\n      dup7\n        /* \"#utility.yul\":17699:17736   */\n      tag_154\n      jump\t// in\n    tag_361:\n        /* \"#utility.yul\":17758:17759   */\n      0x00\n        /* \"#utility.yul\":17772:17979   */\n    tag_362:\n        /* \"#utility.yul\":17786:17793   */\n      dup3\n        /* \"#utility.yul\":17783:17784   */\n      dup2\n        /* \"#utility.yul\":17780:17794   */\n      lt\n        /* \"#utility.yul\":17772:17979   */\n      iszero\n      tag_364\n      jumpi\n        /* \"#utility.yul\":17865:17874   */\n      dup5\n        /* \"#utility.yul\":17860:17863   */\n      dup10\n        /* \"#utility.yul\":17856:17875   */\n      add\n        /* \"#utility.yul\":17850:17876   */\n      sload\n        /* \"#utility.yul\":17842:17848   */\n      dup3\n        /* \"#utility.yul\":17835:17877   */\n      sstore\n        /* \"#utility.yul\":17916:17917   */\n      0x01\n        /* \"#utility.yul\":17908:17914   */\n      dup3\n        /* \"#utility.yul\":17904:17918   */\n      add\n        /* \"#utility.yul\":17894:17918   */\n      swap2\n      pop\n        /* \"#utility.yul\":17963:17964   */\n      0x01\n        /* \"#utility.yul\":17952:17961   */\n      dup6\n        /* \"#utility.yul\":17948:17965   */\n      add\n        /* \"#utility.yul\":17935:17965   */\n      swap5\n      pop\n        /* \"#utility.yul\":17809:17813   */\n      0x20\n        /* \"#utility.yul\":17806:17807   */\n      dup2\n        /* \"#utility.yul\":17802:17814   */\n      add\n        /* \"#utility.yul\":17797:17814   */\n      swap1\n      pop\n        /* \"#utility.yul\":17772:17979   */\n      jump(tag_362)\n    tag_364:\n        /* \"#utility.yul\":18007:18013   */\n      dup7\n        /* \"#utility.yul\":17998:18005   */\n      dup4\n        /* \"#utility.yul\":17995:18014   */\n      lt\n        /* \"#utility.yul\":17992:18171   */\n      iszero\n      tag_365\n      jumpi\n        /* \"#utility.yul\":18065:18074   */\n      dup5\n        /* \"#utility.yul\":18060:18063   */\n      dup10\n        /* \"#utility.yul\":18056:18075   */\n      add\n        /* \"#utility.yul\":18050:18076   */\n      sload\n        /* \"#utility.yul\":18108:18156   */\n      tag_366\n        /* \"#utility.yul\":18150:18154   */\n      0x1f\n        /* \"#utility.yul\":18142:18148   */\n      dup10\n        /* \"#utility.yul\":18138:18155   */\n      and\n        /* \"#utility.yul\":18127:18136   */\n      dup3\n        /* \"#utility.yul\":18108:18156   */\n      tag_167\n      jump\t// in\n    tag_366:\n        /* \"#utility.yul\":18100:18106   */\n      dup4\n        /* \"#utility.yul\":18093:18157   */\n      sstore\n        /* \"#utility.yul\":18015:18171   */\n      pop\n        /* \"#utility.yul\":17992:18171   */\n    tag_365:\n        /* \"#utility.yul\":18217:18218   */\n      0x01\n        /* \"#utility.yul\":18213:18214   */\n      0x02\n        /* \"#utility.yul\":18205:18211   */\n      dup9\n        /* \"#utility.yul\":18201:18215   */\n      mul\n        /* \"#utility.yul\":18197:18219   */\n      add\n        /* \"#utility.yul\":18191:18195   */\n      dup9\n        /* \"#utility.yul\":18184:18220   */\n      sstore\n        /* \"#utility.yul\":17565:18230   */\n      pop\n      pop\n      pop\n        /* \"#utility.yul\":17528:18469   */\n    tag_356:\n      pop\n        /* \"#utility.yul\":17113:18475   */\n      pop\n      pop\n      pop\n        /* \"#utility.yul\":17024:18475   */\n      pop\n      pop\n    tag_349:\n      jump\t// out\n        /* \"#utility.yul\":18481:18661   */\n    tag_105:\n        /* \"#utility.yul\":18529:18606   */\n      0x4e487b7100000000000000000000000000000000000000000000000000000000\n        /* \"#utility.yul\":18526:18527   */\n      0x00\n        /* \"#utility.yul\":18519:18607   */\n      mstore\n        /* \"#utility.yul\":18626:18630   */\n      0x31\n        /* \"#utility.yul\":18623:18624   */\n      0x04\n        /* \"#utility.yul\":18616:18631   */\n      mstore\n        /* \"#utility.yul\":18650:18654   */\n      0x24\n        /* \"#utility.yul\":18647:18648   */\n      0x00\n        /* \"#utility.yul\":18640:18655   */\n      revert\n\n    auxdata: 0xa26469706673582212201092ec47beb381dd08718397b5eaab2080de4fd1ad5e63668afdc7c7f6ad071064736f6c634300081a0033\n}\n",
				"bytecode": {
					"linkReferences": {},
					"object": "6080604052348015600e575f80fd5b50335f806101000a81548173ffffffffffffffffffffffffffffffffffffffff021916908373ffffffffffffffffffffffffffffffffffffffff1602179055506112908061005b5f395ff3fe608060405260043610610054575f3560e01c80631d93ebdc14610058578063379b24951461008057806353a41b50146100aa578063a26759cb146100c0578063e1a731c3146100ca578063ebb9d2e3146100f4575b5f80fd5b348015610063575f80fd5b5061007e600480360381019061007991906109e7565b61011c565b005b34801561008b575f80fd5b50610094610307565b6040516100a19190610a59565b60405180910390f35b3480156100b5575f80fd5b506100be61030e565b005b6100c86103dc565b005b3480156100d5575f80fd5b506100de6103de565b6040516100eb9190610bd6565b60405180910390f35b3480156100ff575f80fd5b5061011a60048036038101906101159190610bf6565b61051e565b005b5f8054906101000a900473ffffffffffffffffffffffffffffffffffffffff1673ffffffffffffffffffffffffffffffffffffffff163373ffffffffffffffffffffffffffffffffffffffff16146101a9576040517f08c379a00000000000000000000000000000000000000000000000000000000081526004016101a090610ca1565b60405180910390fd5b5f600180805490501061024d575f5b60018054905081101561024b578373ffffffffffffffffffffffffffffffffffffffff16600182815481106101f0576101ef610cbf565b5b905f5260205f2090600202015f015f9054906101000a900473ffffffffffffffffffffffffffffffffffffffff1673ffffffffffffffffffffffffffffffffffffffff160361023e57600191505b80806001019150506101b8565b505b8061030257600160405180604001604052808573ffffffffffffffffffffffffffffffffffffffff16815260200184815250908060018154018082558091505060019003905f5260205f2090600202015f909190919091505f820151815f015f6101000a81548173ffffffffffffffffffffffffffffffffffffffff021916908373ffffffffffffffffffffffffffffffffffffffff16021790555060208201518160010190816102fe9190610ee6565b5050505b505050565b5f47905090565b5f4711610350576040517f08c379a000000000000000000000000000000000000000000000000000000000815260040161034790611025565b60405180910390fd5b60018080549050106103da575f6001805490504761036e919061109d565b90505f5b6001805490508110156103d7576103ca6001828154811061039657610395610cbf565b5b905f5260205f2090600202015f015f9054906101000a900473ffffffffffffffffffffffffffffffffffffffff16836107a0565b8080600101915050610372565b50505b565b565b60606001805480602002602001604051908101604052809291908181526020015f905b82821015610515578382905f5260205f2090600202016040518060400160405290815f82015f9054906101000a900473ffffffffffffffffffffffffffffffffffffffff1673ffffffffffffffffffffffffffffffffffffffff1673ffffffffffffffffffffffffffffffffffffffff16815260200160018201805461048690610d19565b80601f01602080910402602001604051908101604052809291908181526020018280546104b290610d19565b80156104fd5780601f106104d4576101008083540402835291602001916104fd565b820191905f5260205f20905b8154815290600101906020018083116104e057829003601f168201915b50505050508152505081526020019060010190610401565b50505050905090565b5f8054906101000a900473ffffffffffffffffffffffffffffffffffffffff1673ffffffffffffffffffffffffffffffffffffffff163373ffffffffffffffffffffffffffffffffffffffff16146105ab576040517f08c379a00000000000000000000000000000000000000000000000000000000081526004016105a290610ca1565b60405180910390fd5b5f600180549050111561079d575f5b60018054905081101561079b578173ffffffffffffffffffffffffffffffffffffffff16600182815481106105f2576105f1610cbf565b5b905f5260205f2090600202015f015f9054906101000a900473ffffffffffffffffffffffffffffffffffffffff1673ffffffffffffffffffffffffffffffffffffffff160361078e575f8190505b6001808054905061065191906110cd565b81101561072b57600180826106669190611100565b8154811061067757610676610cbf565b5b905f5260205f2090600202016001828154811061069757610696610cbf565b5b905f5260205f2090600202015f82015f9054906101000a900473ffffffffffffffffffffffffffffffffffffffff16815f015f6101000a81548173ffffffffffffffffffffffffffffffffffffffff021916908373ffffffffffffffffffffffffffffffffffffffff1602179055506001820181600101908161071a9190611148565b509050508080600101915050610640565b50600180548061073e5761073d61122d565b5b600190038181905f5260205f2090600202015f8082015f6101000a81549073ffffffffffffffffffffffffffffffffffffffff0219169055600182015f61078591906107e8565b5050905561079b565b80806001019150506105ba565b505b50565b8173ffffffffffffffffffffffffffffffffffffffff166108fc8290811502906040515f60405180830381858888f193505050501580156107e3573d5f803e3d5ffd5b505050565b5080546107f490610d19565b5f825580601f106108055750610822565b601f0160209004905f5260205f20908101906108219190610825565b5b50565b5b8082111561083c575f815f905550600101610826565b5090565b5f604051905090565b5f80fd5b5f80fd5b5f73ffffffffffffffffffffffffffffffffffffffff82169050919050565b5f61087a82610851565b9050919050565b61088a81610870565b8114610894575f80fd5b50565b5f813590506108a581610881565b92915050565b5f80fd5b5f80fd5b5f601f19601f8301169050919050565b7f4e487b71000000000000000000000000000000000000000000000000000000005f52604160045260245ffd5b6108f9826108b3565b810181811067ffffffffffffffff82111715610918576109176108c3565b5b80604052505050565b5f61092a610840565b905061093682826108f0565b919050565b5f67ffffffffffffffff821115610955576109546108c3565b5b61095e826108b3565b9050602081019050919050565b828183375f83830152505050565b5f61098b6109868461093b565b610921565b9050828152602081018484840111156109a7576109a66108af565b5b6109b284828561096b565b509392505050565b5f82601f8301126109ce576109cd6108ab565b5b81356109de848260208601610979565b91505092915050565b5f80604083850312156109fd576109fc610849565b5b5f610a0a85828601610897565b925050602083013567ffffffffffffffff811115610a2b57610a2a61084d565b5b610a37858286016109ba565b9150509250929050565b5f819050919050565b610a5381610a41565b82525050565b5f602082019050610a6c5f830184610a4a565b92915050565b5f81519050919050565b5f82825260208201905092915050565b5f819050602082019050919050565b610aa481610870565b82525050565b5f81519050919050565b5f82825260208201905092915050565b8281835e5f83830152505050565b5f610adc82610aaa565b610ae68185610ab4565b9350610af6818560208601610ac4565b610aff816108b3565b840191505092915050565b5f604083015f830151610b1f5f860182610a9b565b5060208301518482036020860152610b378282610ad2565b9150508091505092915050565b5f610b4f8383610b0a565b905092915050565b5f602082019050919050565b5f610b6d82610a72565b610b778185610a7c565b935083602082028501610b8985610a8c565b805f5b85811015610bc45784840389528151610ba58582610b44565b9450610bb083610b57565b925060208a01995050600181019050610b8c565b50829750879550505050505092915050565b5f6020820190508181035f830152610bee8184610b63565b905092915050565b5f60208284031215610c0b57610c0a610849565b5b5f610c1884828501610897565b91505092915050565b5f82825260208201905092915050565b7f4f6e6c7920746865206f776e65722063616e2063616c6c20746869732066756e5f8201527f6374696f6e000000000000000000000000000000000000000000000000000000602082015250565b5f610c8b602583610c21565b9150610c9682610c31565b604082019050919050565b5f6020820190508181035f830152610cb881610c7f565b9050919050565b7f4e487b71000000000000000000000000000000000000000000000000000000005f52603260045260245ffd5b7f4e487b71000000000000000000000000000000000000000000000000000000005f52602260045260245ffd5b5f6002820490506001821680610d3057607f821691505b602082108103610d4357610d42610cec565b5b50919050565b5f819050815f5260205f209050919050565b5f6020601f8301049050919050565b5f82821b905092915050565b5f60088302610da57fffffffffffffffffffffffffffffffffffffffffffffffffffffffffffffffff82610d6a565b610daf8683610d6a565b95508019841693508086168417925050509392505050565b5f819050919050565b5f610dea610de5610de084610a41565b610dc7565b610a41565b9050919050565b5f819050919050565b610e0383610dd0565b610e17610e0f82610df1565b848454610d76565b825550505050565b5f90565b610e2b610e1f565b610e36818484610dfa565b505050565b5b81811015610e5957610e4e5f82610e23565b600181019050610e3c565b5050565b601f821115610e9e57610e6f81610d49565b610e7884610d5b565b81016020851015610e87578190505b610e9b610e9385610d5b565b830182610e3b565b50505b505050565b5f82821c905092915050565b5f610ebe5f1984600802610ea3565b1980831691505092915050565b5f610ed68383610eaf565b9150826002028217905092915050565b610eef82610aaa565b67ffffffffffffffff811115610f0857610f076108c3565b5b610f128254610d19565b610f1d828285610e5d565b5f60209050601f831160018114610f4e575f8415610f3c578287015190505b610f468582610ecb565b865550610fad565b601f198416610f5c86610d49565b5f5b82811015610f8357848901518255600182019150602085019450602081019050610f5e565b86831015610fa05784890151610f9c601f891682610eaf565b8355505b6001600288020188555050505b505050505050565b7f496e73756666696369656e742062616c616e636520696e2074686520636f6e745f8201527f7261637400000000000000000000000000000000000000000000000000000000602082015250565b5f61100f602483610c21565b915061101a82610fb5565b604082019050919050565b5f6020820190508181035f83015261103c81611003565b9050919050565b7f4e487b71000000000000000000000000000000000000000000000000000000005f52601260045260245ffd5b7f4e487b71000000000000000000000000000000000000000000000000000000005f52601160045260245ffd5b5f6110a782610a41565b91506110b283610a41565b9250826110c2576110c1611043565b5b828204905092915050565b5f6110d782610a41565b91506110e283610a41565b92508282039050818111156110fa576110f9611070565b5b92915050565b5f61110a82610a41565b915061111583610a41565b925082820190508082111561112d5761112c611070565b5b92915050565b5f8154905061114181610d19565b9050919050565b81810361115657505061122b565b61115f82611133565b67ffffffffffffffff811115611178576111776108c3565b5b6111828254610d19565b61118d828285610e5d565b5f601f8311600181146111ba575f84156111a8578287015490505b6111b28582610ecb565b865550611224565b601f1984166111c887610d49565b96506111d386610d49565b5f5b828110156111fa578489015482556001820191506001850194506020810190506111d5565b868310156112175784890154611213601f891682610eaf565b8355505b6001600288020188555050505b5050505050505b565b7f4e487b71000000000000000000000000000000000000000000000000000000005f52603160045260245ffdfea26469706673582212201092ec47beb381dd08718397b5eaab2080de4fd1ad5e63668afdc7c7f6ad071064736f6c634300081a0033",
					"opcodes": "PUSH1 0x80 PUSH1 0x40 MSTORE CALLVALUE DUP1 ISZERO PUSH1 0xE JUMPI PUSH0 DUP1 REVERT JUMPDEST POP CALLER PUSH0 DUP1 PUSH2 0x100 EXP DUP2 SLOAD DUP2 PUSH20 0xFFFFFFFFFFFFFFFFFFFFFFFFFFFFFFFFFFFFFFFF MUL NOT AND SWAP1 DUP4 PUSH20 0xFFFFFFFFFFFFFFFFFFFFFFFFFFFFFFFFFFFFFFFF AND MUL OR SWAP1 SSTORE POP PUSH2 0x1290 DUP1 PUSH2 0x5B PUSH0 CODECOPY PUSH0 RETURN INVALID PUSH1 0x80 PUSH1 0x40 MSTORE PUSH1 0x4 CALLDATASIZE LT PUSH2 0x54 JUMPI PUSH0 CALLDATALOAD PUSH1 0xE0 SHR DUP1 PUSH4 0x1D93EBDC EQ PUSH2 0x58 JUMPI DUP1 PUSH4 0x379B2495 EQ PUSH2 0x80 JUMPI DUP1 PUSH4 0x53A41B50 EQ PUSH2 0xAA JUMPI DUP1 PUSH4 0xA26759CB EQ PUSH2 0xC0 JUMPI DUP1 PUSH4 0xE1A731C3 EQ PUSH2 0xCA JUMPI DUP1 PUSH4 0xEBB9D2E3 EQ PUSH2 0xF4 JUMPI JUMPDEST PUSH0 DUP1 REVERT JUMPDEST CALLVALUE DUP1 ISZERO PUSH2 0x63 JUMPI PUSH0 DUP1 REVERT JUMPDEST POP PUSH2 0x7E PUSH1 0x4 DUP1 CALLDATASIZE SUB DUP2 ADD SWAP1 PUSH2 0x79 SWAP2 SWAP1 PUSH2 0x9E7 JUMP JUMPDEST PUSH2 0x11C JUMP JUMPDEST STOP JUMPDEST CALLVALUE DUP1 ISZERO PUSH2 0x8B JUMPI PUSH0 DUP1 REVERT JUMPDEST POP PUSH2 0x94 PUSH2 0x307 JUMP JUMPDEST PUSH1 0x40 MLOAD PUSH2 0xA1 SWAP2 SWAP1 PUSH2 0xA59 JUMP JUMPDEST PUSH1 0x40 MLOAD DUP1 SWAP2 SUB SWAP1 RETURN JUMPDEST CALLVALUE DUP1 ISZERO PUSH2 0xB5 JUMPI PUSH0 DUP1 REVERT JUMPDEST POP PUSH2 0xBE PUSH2 0x30E JUMP JUMPDEST STOP JUMPDEST PUSH2 0xC8 PUSH2 0x3DC JUMP JUMPDEST STOP JUMPDEST CALLVALUE DUP1 ISZERO PUSH2 0xD5 JUMPI PUSH0 DUP1 REVERT JUMPDEST POP PUSH2 0xDE PUSH2 0x3DE JUMP JUMPDEST PUSH1 0x40 MLOAD PUSH2 0xEB SWAP2 SWAP1 PUSH2 0xBD6 JUMP JUMPDEST PUSH1 0x40 MLOAD DUP1 SWAP2 SUB SWAP1 RETURN JUMPDEST CALLVALUE DUP1 ISZERO PUSH2 0xFF JUMPI PUSH0 DUP1 REVERT JUMPDEST POP PUSH2 0x11A PUSH1 0x4 DUP1 CALLDATASIZE SUB DUP2 ADD SWAP1 PUSH2 0x115 SWAP2 SWAP1 PUSH2 0xBF6 JUMP JUMPDEST PUSH2 0x51E JUMP JUMPDEST STOP JUMPDEST PUSH0 DUP1 SLOAD SWAP1 PUSH2 0x100 EXP SWAP1 DIV PUSH20 0xFFFFFFFFFFFFFFFFFFFFFFFFFFFFFFFFFFFFFFFF AND PUSH20 0xFFFFFFFFFFFFFFFFFFFFFFFFFFFFFFFFFFFFFFFF AND CALLER PUSH20 0xFFFFFFFFFFFFFFFFFFFFFFFFFFFFFFFFFFFFFFFF AND EQ PUSH2 0x1A9 JUMPI PUSH1 0x40 MLOAD PUSH32 0x8C379A000000000000000000000000000000000000000000000000000000000 DUP2 MSTORE PUSH1 0x4 ADD PUSH2 0x1A0 SWAP1 PUSH2 0xCA1 JUMP JUMPDEST PUSH1 0x40 MLOAD DUP1 SWAP2 SUB SWAP1 REVERT JUMPDEST PUSH0 PUSH1 0x1 DUP1 DUP1 SLOAD SWAP1 POP LT PUSH2 0x24D JUMPI PUSH0 JUMPDEST PUSH1 0x1 DUP1 SLOAD SWAP1 POP DUP2 LT ISZERO PUSH2 0x24B JUMPI DUP4 PUSH20 0xFFFFFFFFFFFFFFFFFFFFFFFFFFFFFFFFFFFFFFFF AND PUSH1 0x1 DUP3 DUP2 SLOAD DUP2 LT PUSH2 0x1F0 JUMPI PUSH2 0x1EF PUSH2 0xCBF JUMP JUMPDEST JUMPDEST SWAP1 PUSH0 MSTORE PUSH1 0x20 PUSH0 KECCAK256 SWAP1 PUSH1 0x2 MUL ADD PUSH0 ADD PUSH0 SWAP1 SLOAD SWAP1 PUSH2 0x100 EXP SWAP1 DIV PUSH20 0xFFFFFFFFFFFFFFFFFFFFFFFFFFFFFFFFFFFFFFFF AND PUSH20 0xFFFFFFFFFFFFFFFFFFFFFFFFFFFFFFFFFFFFFFFF AND SUB PUSH2 0x23E JUMPI PUSH1 0x1 SWAP2 POP JUMPDEST DUP1 DUP1 PUSH1 0x1 ADD SWAP2 POP POP PUSH2 0x1B8 JUMP JUMPDEST POP JUMPDEST DUP1 PUSH2 0x302 JUMPI PUSH1 0x1 PUSH1 0x40 MLOAD DUP1 PUSH1 0x40 ADD PUSH1 0x40 MSTORE DUP1 DUP6 PUSH20 0xFFFFFFFFFFFFFFFFFFFFFFFFFFFFFFFFFFFFFFFF AND DUP2 MSTORE PUSH1 0x20 ADD DUP5 DUP2 MSTORE POP SWAP1 DUP1 PUSH1 0x1 DUP2 SLOAD ADD DUP1 DUP3 SSTORE DUP1 SWAP2 POP POP PUSH1 0x1 SWAP1 SUB SWAP1 PUSH0 MSTORE PUSH1 0x20 PUSH0 KECCAK256 SWAP1 PUSH1 0x2 MUL ADD PUSH0 SWAP1 SWAP2 SWAP1 SWAP2 SWAP1 SWAP2 POP PUSH0 DUP3 ADD MLOAD DUP2 PUSH0 ADD PUSH0 PUSH2 0x100 EXP DUP2 SLOAD DUP2 PUSH20 0xFFFFFFFFFFFFFFFFFFFFFFFFFFFFFFFFFFFFFFFF MUL NOT AND SWAP1 DUP4 PUSH20 0xFFFFFFFFFFFFFFFFFFFFFFFFFFFFFFFFFFFFFFFF AND MUL OR SWAP1 SSTORE POP PUSH1 0x20 DUP3 ADD MLOAD DUP2 PUSH1 0x1 ADD SWAP1 DUP2 PUSH2 0x2FE SWAP2 SWAP1 PUSH2 0xEE6 JUMP JUMPDEST POP POP POP JUMPDEST POP POP POP JUMP JUMPDEST PUSH0 SELFBALANCE SWAP1 POP SWAP1 JUMP JUMPDEST PUSH0 SELFBALANCE GT PUSH2 0x350 JUMPI PUSH1 0x40 MLOAD PUSH32 0x8C379A000000000000000000000000000000000000000000000000000000000 DUP2 MSTORE PUSH1 0x4 ADD PUSH2 0x347 SWAP1 PUSH2 0x1025 JUMP JUMPDEST PUSH1 0x40 MLOAD DUP1 SWAP2 SUB SWAP1 REVERT JUMPDEST PUSH1 0x1 DUP1 DUP1 SLOAD SWAP1 POP LT PUSH2 0x3DA JUMPI PUSH0 PUSH1 0x1 DUP1 SLOAD SWAP1 POP SELFBALANCE PUSH2 0x36E SWAP2 SWAP1 PUSH2 0x109D JUMP JUMPDEST SWAP1 POP PUSH0 JUMPDEST PUSH1 0x1 DUP1 SLOAD SWAP1 POP DUP2 LT ISZERO PUSH2 0x3D7 JUMPI PUSH2 0x3CA PUSH1 0x1 DUP3 DUP2 SLOAD DUP2 LT PUSH2 0x396 JUMPI PUSH2 0x395 PUSH2 0xCBF JUMP JUMPDEST JUMPDEST SWAP1 PUSH0 MSTORE PUSH1 0x20 PUSH0 KECCAK256 SWAP1 PUSH1 0x2 MUL ADD PUSH0 ADD PUSH0 SWAP1 SLOAD SWAP1 PUSH2 0x100 EXP SWAP1 DIV PUSH20 0xFFFFFFFFFFFFFFFFFFFFFFFFFFFFFFFFFFFFFFFF AND DUP4 PUSH2 0x7A0 JUMP JUMPDEST DUP1 DUP1 PUSH1 0x1 ADD SWAP2 POP POP PUSH2 0x372 JUMP JUMPDEST POP POP JUMPDEST JUMP JUMPDEST JUMP JUMPDEST PUSH1 0x60 PUSH1 0x1 DUP1 SLOAD DUP1 PUSH1 0x20 MUL PUSH1 0x20 ADD PUSH1 0x40 MLOAD SWAP1 DUP2 ADD PUSH1 0x40 MSTORE DUP1 SWAP3 SWAP2 SWAP1 DUP2 DUP2 MSTORE PUSH1 0x20 ADD PUSH0 SWAP1 JUMPDEST DUP3 DUP3 LT ISZERO PUSH2 0x515 JUMPI DUP4 DUP3 SWAP1 PUSH0 MSTORE PUSH1 0x20 PUSH0 KECCAK256 SWAP1 PUSH1 0x2 MUL ADD PUSH1 0x40 MLOAD DUP1 PUSH1 0x40 ADD PUSH1 0x40 MSTORE SWAP1 DUP2 PUSH0 DUP3 ADD PUSH0 SWAP1 SLOAD SWAP1 PUSH2 0x100 EXP SWAP1 DIV PUSH20 0xFFFFFFFFFFFFFFFFFFFFFFFFFFFFFFFFFFFFFFFF AND PUSH20 0xFFFFFFFFFFFFFFFFFFFFFFFFFFFFFFFFFFFFFFFF AND PUSH20 0xFFFFFFFFFFFFFFFFFFFFFFFFFFFFFFFFFFFFFFFF AND DUP2 MSTORE PUSH1 0x20 ADD PUSH1 0x1 DUP3 ADD DUP1 SLOAD PUSH2 0x486 SWAP1 PUSH2 0xD19 JUMP JUMPDEST DUP1 PUSH1 0x1F ADD PUSH1 0x20 DUP1 SWAP2 DIV MUL PUSH1 0x20 ADD PUSH1 0x40 MLOAD SWAP1 DUP2 ADD PUSH1 0x40 MSTORE DUP1 SWAP3 SWAP2 SWAP1 DUP2 DUP2 MSTORE PUSH1 0x20 ADD DUP3 DUP1 SLOAD PUSH2 0x4B2 SWAP1 PUSH2 0xD19 JUMP JUMPDEST DUP1 ISZERO PUSH2 0x4FD JUMPI DUP1 PUSH1 0x1F LT PUSH2 0x4D4 JUMPI PUSH2 0x100 DUP1 DUP4 SLOAD DIV MUL DUP4 MSTORE SWAP2 PUSH1 0x20 ADD SWAP2 PUSH2 0x4FD JUMP JUMPDEST DUP3 ADD SWAP2 SWAP1 PUSH0 MSTORE PUSH1 0x20 PUSH0 KECCAK256 SWAP1 JUMPDEST DUP2 SLOAD DUP2 MSTORE SWAP1 PUSH1 0x1 ADD SWAP1 PUSH1 0x20 ADD DUP1 DUP4 GT PUSH2 0x4E0 JUMPI DUP3 SWAP1 SUB PUSH1 0x1F AND DUP3 ADD SWAP2 JUMPDEST POP POP POP POP POP DUP2 MSTORE POP POP DUP2 MSTORE PUSH1 0x20 ADD SWAP1 PUSH1 0x1 ADD SWAP1 PUSH2 0x401 JUMP JUMPDEST POP POP POP POP SWAP1 POP SWAP1 JUMP JUMPDEST PUSH0 DUP1 SLOAD SWAP1 PUSH2 0x100 EXP SWAP1 DIV PUSH20 0xFFFFFFFFFFFFFFFFFFFFFFFFFFFFFFFFFFFFFFFF AND PUSH20 0xFFFFFFFFFFFFFFFFFFFFFFFFFFFFFFFFFFFFFFFF AND CALLER PUSH20 0xFFFFFFFFFFFFFFFFFFFFFFFFFFFFFFFFFFFFFFFF AND EQ PUSH2 0x5AB JUMPI PUSH1 0x40 MLOAD PUSH32 0x8C379A000000000000000000000000000000000000000000000000000000000 DUP2 MSTORE PUSH1 0x4 ADD PUSH2 0x5A2 SWAP1 PUSH2 0xCA1 JUMP JUMPDEST PUSH1 0x40 MLOAD DUP1 SWAP2 SUB SWAP1 REVERT JUMPDEST PUSH0 PUSH1 0x1 DUP1 SLOAD SWAP1 POP GT ISZERO PUSH2 0x79D JUMPI PUSH0 JUMPDEST PUSH1 0x1 DUP1 SLOAD SWAP1 POP DUP2 LT ISZERO PUSH2 0x79B JUMPI DUP2 PUSH20 0xFFFFFFFFFFFFFFFFFFFFFFFFFFFFFFFFFFFFFFFF AND PUSH1 0x1 DUP3 DUP2 SLOAD DUP2 LT PUSH2 0x5F2 JUMPI PUSH2 0x5F1 PUSH2 0xCBF JUMP JUMPDEST JUMPDEST SWAP1 PUSH0 MSTORE PUSH1 0x20 PUSH0 KECCAK256 SWAP1 PUSH1 0x2 MUL ADD PUSH0 ADD PUSH0 SWAP1 SLOAD SWAP1 PUSH2 0x100 EXP SWAP1 DIV PUSH20 0xFFFFFFFFFFFFFFFFFFFFFFFFFFFFFFFFFFFFFFFF AND PUSH20 0xFFFFFFFFFFFFFFFFFFFFFFFFFFFFFFFFFFFFFFFF AND SUB PUSH2 0x78E JUMPI PUSH0 DUP2 SWAP1 POP JUMPDEST PUSH1 0x1 DUP1 DUP1 SLOAD SWAP1 POP PUSH2 0x651 SWAP2 SWAP1 PUSH2 0x10CD JUMP JUMPDEST DUP2 LT ISZERO PUSH2 0x72B JUMPI PUSH1 0x1 DUP1 DUP3 PUSH2 0x666 SWAP2 SWAP1 PUSH2 0x1100 JUMP JUMPDEST DUP2 SLOAD DUP2 LT PUSH2 0x677 JUMPI PUSH2 0x676 PUSH2 0xCBF JUMP JUMPDEST JUMPDEST SWAP1 PUSH0 MSTORE PUSH1 0x20 PUSH0 KECCAK256 SWAP1 PUSH1 0x2 MUL ADD PUSH1 0x1 DUP3 DUP2 SLOAD DUP2 LT PUSH2 0x697 JUMPI PUSH2 0x696 PUSH2 0xCBF JUMP JUMPDEST JUMPDEST SWAP1 PUSH0 MSTORE PUSH1 0x20 PUSH0 KECCAK256 SWAP1 PUSH1 0x2 MUL ADD PUSH0 DUP3 ADD PUSH0 SWAP1 SLOAD SWAP1 PUSH2 0x100 EXP SWAP1 DIV PUSH20 0xFFFFFFFFFFFFFFFFFFFFFFFFFFFFFFFFFFFFFFFF AND DUP2 PUSH0 ADD PUSH0 PUSH2 0x100 EXP DUP2 SLOAD DUP2 PUSH20 0xFFFFFFFFFFFFFFFFFFFFFFFFFFFFFFFFFFFFFFFF MUL NOT AND SWAP1 DUP4 PUSH20 0xFFFFFFFFFFFFFFFFFFFFFFFFFFFFFFFFFFFFFFFF AND MUL OR SWAP1 SSTORE POP PUSH1 0x1 DUP3 ADD DUP2 PUSH1 0x1 ADD SWAP1 DUP2 PUSH2 0x71A SWAP2 SWAP1 PUSH2 0x1148 JUMP JUMPDEST POP SWAP1 POP POP DUP1 DUP1 PUSH1 0x1 ADD SWAP2 POP POP PUSH2 0x640 JUMP JUMPDEST POP PUSH1 0x1 DUP1 SLOAD DUP1 PUSH2 0x73E JUMPI PUSH2 0x73D PUSH2 0x122D JUMP JUMPDEST JUMPDEST PUSH1 0x1 SWAP1 SUB DUP2 DUP2 SWAP1 PUSH0 MSTORE PUSH1 0x20 PUSH0 KECCAK256 SWAP1 PUSH1 0x2 MUL ADD PUSH0 DUP1 DUP3 ADD PUSH0 PUSH2 0x100 EXP DUP2 SLOAD SWAP1 PUSH20 0xFFFFFFFFFFFFFFFFFFFFFFFFFFFFFFFFFFFFFFFF MUL NOT AND SWAP1 SSTORE PUSH1 0x1 DUP3 ADD PUSH0 PUSH2 0x785 SWAP2 SWAP1 PUSH2 0x7E8 JUMP JUMPDEST POP POP SWAP1 SSTORE PUSH2 0x79B JUMP JUMPDEST DUP1 DUP1 PUSH1 0x1 ADD SWAP2 POP POP PUSH2 0x5BA JUMP JUMPDEST POP JUMPDEST POP JUMP JUMPDEST DUP2 PUSH20 0xFFFFFFFFFFFFFFFFFFFFFFFFFFFFFFFFFFFFFFFF AND PUSH2 0x8FC DUP3 SWAP1 DUP2 ISZERO MUL SWAP1 PUSH1 0x40 MLOAD PUSH0 PUSH1 0x40 MLOAD DUP1 DUP4 SUB DUP2 DUP6 DUP9 DUP9 CALL SWAP4 POP POP POP POP ISZERO DUP1 ISZERO PUSH2 0x7E3 JUMPI RETURNDATASIZE PUSH0 DUP1 RETURNDATACOPY RETURNDATASIZE PUSH0 REVERT JUMPDEST POP POP POP JUMP JUMPDEST POP DUP1 SLOAD PUSH2 0x7F4 SWAP1 PUSH2 0xD19 JUMP JUMPDEST PUSH0 DUP3 SSTORE DUP1 PUSH1 0x1F LT PUSH2 0x805 JUMPI POP PUSH2 0x822 JUMP JUMPDEST PUSH1 0x1F ADD PUSH1 0x20 SWAP1 DIV SWAP1 PUSH0 MSTORE PUSH1 0x20 PUSH0 KECCAK256 SWAP1 DUP2 ADD SWAP1 PUSH2 0x821 SWAP2 SWAP1 PUSH2 0x825 JUMP JUMPDEST JUMPDEST POP JUMP JUMPDEST JUMPDEST DUP1 DUP3 GT ISZERO PUSH2 0x83C JUMPI PUSH0 DUP2 PUSH0 SWAP1 SSTORE POP PUSH1 0x1 ADD PUSH2 0x826 JUMP JUMPDEST POP SWAP1 JUMP JUMPDEST PUSH0 PUSH1 0x40 MLOAD SWAP1 POP SWAP1 JUMP JUMPDEST PUSH0 DUP1 REVERT JUMPDEST PUSH0 DUP1 REVERT JUMPDEST PUSH0 PUSH20 0xFFFFFFFFFFFFFFFFFFFFFFFFFFFFFFFFFFFFFFFF DUP3 AND SWAP1 POP SWAP2 SWAP1 POP JUMP JUMPDEST PUSH0 PUSH2 0x87A DUP3 PUSH2 0x851 JUMP JUMPDEST SWAP1 POP SWAP2 SWAP1 POP JUMP JUMPDEST PUSH2 0x88A DUP2 PUSH2 0x870 JUMP JUMPDEST DUP2 EQ PUSH2 0x894 JUMPI PUSH0 DUP1 REVERT JUMPDEST POP JUMP JUMPDEST PUSH0 DUP2 CALLDATALOAD SWAP1 POP PUSH2 0x8A5 DUP2 PUSH2 0x881 JUMP JUMPDEST SWAP3 SWAP2 POP POP JUMP JUMPDEST PUSH0 DUP1 REVERT JUMPDEST PUSH0 DUP1 REVERT JUMPDEST PUSH0 PUSH1 0x1F NOT PUSH1 0x1F DUP4 ADD AND SWAP1 POP SWAP2 SWAP1 POP JUMP JUMPDEST PUSH32 0x4E487B7100000000000000000000000000000000000000000000000000000000 PUSH0 MSTORE PUSH1 0x41 PUSH1 0x4 MSTORE PUSH1 0x24 PUSH0 REVERT JUMPDEST PUSH2 0x8F9 DUP3 PUSH2 0x8B3 JUMP JUMPDEST DUP2 ADD DUP2 DUP2 LT PUSH8 0xFFFFFFFFFFFFFFFF DUP3 GT OR ISZERO PUSH2 0x918 JUMPI PUSH2 0x917 PUSH2 0x8C3 JUMP JUMPDEST JUMPDEST DUP1 PUSH1 0x40 MSTORE POP POP POP JUMP JUMPDEST PUSH0 PUSH2 0x92A PUSH2 0x840 JUMP JUMPDEST SWAP1 POP PUSH2 0x936 DUP3 DUP3 PUSH2 0x8F0 JUMP JUMPDEST SWAP2 SWAP1 POP JUMP JUMPDEST PUSH0 PUSH8 0xFFFFFFFFFFFFFFFF DUP3 GT ISZERO PUSH2 0x955 JUMPI PUSH2 0x954 PUSH2 0x8C3 JUMP JUMPDEST JUMPDEST PUSH2 0x95E DUP3 PUSH2 0x8B3 JUMP JUMPDEST SWAP1 POP PUSH1 0x20 DUP2 ADD SWAP1 POP SWAP2 SWAP1 POP JUMP JUMPDEST DUP3 DUP2 DUP4 CALLDATACOPY PUSH0 DUP4 DUP4 ADD MSTORE POP POP POP JUMP JUMPDEST PUSH0 PUSH2 0x98B PUSH2 0x986 DUP5 PUSH2 0x93B JUMP JUMPDEST PUSH2 0x921 JUMP JUMPDEST SWAP1 POP DUP3 DUP2 MSTORE PUSH1 0x20 DUP2 ADD DUP5 DUP5 DUP5 ADD GT ISZERO PUSH2 0x9A7 JUMPI PUSH2 0x9A6 PUSH2 0x8AF JUMP JUMPDEST JUMPDEST PUSH2 0x9B2 DUP5 DUP3 DUP6 PUSH2 0x96B JUMP JUMPDEST POP SWAP4 SWAP3 POP POP POP JUMP JUMPDEST PUSH0 DUP3 PUSH1 0x1F DUP4 ADD SLT PUSH2 0x9CE JUMPI PUSH2 0x9CD PUSH2 0x8AB JUMP JUMPDEST JUMPDEST DUP2 CALLDATALOAD PUSH2 0x9DE DUP5 DUP3 PUSH1 0x20 DUP7 ADD PUSH2 0x979 JUMP JUMPDEST SWAP2 POP POP SWAP3 SWAP2 POP POP JUMP JUMPDEST PUSH0 DUP1 PUSH1 0x40 DUP4 DUP6 SUB SLT ISZERO PUSH2 0x9FD JUMPI PUSH2 0x9FC PUSH2 0x849 JUMP JUMPDEST JUMPDEST PUSH0 PUSH2 0xA0A DUP6 DUP3 DUP7 ADD PUSH2 0x897 JUMP JUMPDEST SWAP3 POP POP PUSH1 0x20 DUP4 ADD CALLDATALOAD PUSH8 0xFFFFFFFFFFFFFFFF DUP2 GT ISZERO PUSH2 0xA2B JUMPI PUSH2 0xA2A PUSH2 0x84D JUMP JUMPDEST JUMPDEST PUSH2 0xA37 DUP6 DUP3 DUP7 ADD PUSH2 0x9BA JUMP JUMPDEST SWAP2 POP POP SWAP3 POP SWAP3 SWAP1 POP JUMP JUMPDEST PUSH0 DUP2 SWAP1 POP SWAP2 SWAP1 POP JUMP JUMPDEST PUSH2 0xA53 DUP2 PUSH2 0xA41 JUMP JUMPDEST DUP3 MSTORE POP POP JUMP JUMPDEST PUSH0 PUSH1 0x20 DUP3 ADD SWAP1 POP PUSH2 0xA6C PUSH0 DUP4 ADD DUP5 PUSH2 0xA4A JUMP JUMPDEST SWAP3 SWAP2 POP POP JUMP JUMPDEST PUSH0 DUP2 MLOAD SWAP1 POP SWAP2 SWAP1 POP JUMP JUMPDEST PUSH0 DUP3 DUP3 MSTORE PUSH1 0x20 DUP3 ADD SWAP1 POP SWAP3 SWAP2 POP POP JUMP JUMPDEST PUSH0 DUP2 SWAP1 POP PUSH1 0x20 DUP3 ADD SWAP1 POP SWAP2 SWAP1 POP JUMP JUMPDEST PUSH2 0xAA4 DUP2 PUSH2 0x870 JUMP JUMPDEST DUP3 MSTORE POP POP JUMP JUMPDEST PUSH0 DUP2 MLOAD SWAP1 POP SWAP2 SWAP1 POP JUMP JUMPDEST PUSH0 DUP3 DUP3 MSTORE PUSH1 0x20 DUP3 ADD SWAP1 POP SWAP3 SWAP2 POP POP JUMP JUMPDEST DUP3 DUP2 DUP4 MCOPY PUSH0 DUP4 DUP4 ADD MSTORE POP POP POP JUMP JUMPDEST PUSH0 PUSH2 0xADC DUP3 PUSH2 0xAAA JUMP JUMPDEST PUSH2 0xAE6 DUP2 DUP6 PUSH2 0xAB4 JUMP JUMPDEST SWAP4 POP PUSH2 0xAF6 DUP2 DUP6 PUSH1 0x20 DUP7 ADD PUSH2 0xAC4 JUMP JUMPDEST PUSH2 0xAFF DUP2 PUSH2 0x8B3 JUMP JUMPDEST DUP5 ADD SWAP2 POP POP SWAP3 SWAP2 POP POP JUMP JUMPDEST PUSH0 PUSH1 0x40 DUP4 ADD PUSH0 DUP4 ADD MLOAD PUSH2 0xB1F PUSH0 DUP7 ADD DUP3 PUSH2 0xA9B JUMP JUMPDEST POP PUSH1 0x20 DUP4 ADD MLOAD DUP5 DUP3 SUB PUSH1 0x20 DUP7 ADD MSTORE PUSH2 0xB37 DUP3 DUP3 PUSH2 0xAD2 JUMP JUMPDEST SWAP2 POP POP DUP1 SWAP2 POP POP SWAP3 SWAP2 POP POP JUMP JUMPDEST PUSH0 PUSH2 0xB4F DUP4 DUP4 PUSH2 0xB0A JUMP JUMPDEST SWAP1 POP SWAP3 SWAP2 POP POP JUMP JUMPDEST PUSH0 PUSH1 0x20 DUP3 ADD SWAP1 POP SWAP2 SWAP1 POP JUMP JUMPDEST PUSH0 PUSH2 0xB6D DUP3 PUSH2 0xA72 JUMP JUMPDEST PUSH2 0xB77 DUP2 DUP6 PUSH2 0xA7C JUMP JUMPDEST SWAP4 POP DUP4 PUSH1 0x20 DUP3 MUL DUP6 ADD PUSH2 0xB89 DUP6 PUSH2 0xA8C JUMP JUMPDEST DUP1 PUSH0 JUMPDEST DUP6 DUP2 LT ISZERO PUSH2 0xBC4 JUMPI DUP5 DUP5 SUB DUP10 MSTORE DUP2 MLOAD PUSH2 0xBA5 DUP6 DUP3 PUSH2 0xB44 JUMP JUMPDEST SWAP5 POP PUSH2 0xBB0 DUP4 PUSH2 0xB57 JUMP JUMPDEST SWAP3 POP PUSH1 0x20 DUP11 ADD SWAP10 POP POP PUSH1 0x1 DUP2 ADD SWAP1 POP PUSH2 0xB8C JUMP JUMPDEST POP DUP3 SWAP8 POP DUP8 SWAP6 POP POP POP POP POP POP SWAP3 SWAP2 POP POP JUMP JUMPDEST PUSH0 PUSH1 0x20 DUP3 ADD SWAP1 POP DUP2 DUP2 SUB PUSH0 DUP4 ADD MSTORE PUSH2 0xBEE DUP2 DUP5 PUSH2 0xB63 JUMP JUMPDEST SWAP1 POP SWAP3 SWAP2 POP POP JUMP JUMPDEST PUSH0 PUSH1 0x20 DUP3 DUP5 SUB SLT ISZERO PUSH2 0xC0B JUMPI PUSH2 0xC0A PUSH2 0x849 JUMP JUMPDEST JUMPDEST PUSH0 PUSH2 0xC18 DUP5 DUP3 DUP6 ADD PUSH2 0x897 JUMP JUMPDEST SWAP2 POP POP SWAP3 SWAP2 POP POP JUMP JUMPDEST PUSH0 DUP3 DUP3 MSTORE PUSH1 0x20 DUP3 ADD SWAP1 POP SWAP3 SWAP2 POP POP JUMP JUMPDEST PUSH32 0x4F6E6C7920746865206F776E65722063616E2063616C6C20746869732066756E PUSH0 DUP3 ADD MSTORE PUSH32 0x6374696F6E000000000000000000000000000000000000000000000000000000 PUSH1 0x20 DUP3 ADD MSTORE POP JUMP JUMPDEST PUSH0 PUSH2 0xC8B PUSH1 0x25 DUP4 PUSH2 0xC21 JUMP JUMPDEST SWAP2 POP PUSH2 0xC96 DUP3 PUSH2 0xC31 JUMP JUMPDEST PUSH1 0x40 DUP3 ADD SWAP1 POP SWAP2 SWAP1 POP JUMP JUMPDEST PUSH0 PUSH1 0x20 DUP3 ADD SWAP1 POP DUP2 DUP2 SUB PUSH0 DUP4 ADD MSTORE PUSH2 0xCB8 DUP2 PUSH2 0xC7F JUMP JUMPDEST SWAP1 POP SWAP2 SWAP1 POP JUMP JUMPDEST PUSH32 0x4E487B7100000000000000000000000000000000000000000000000000000000 PUSH0 MSTORE PUSH1 0x32 PUSH1 0x4 MSTORE PUSH1 0x24 PUSH0 REVERT JUMPDEST PUSH32 0x4E487B7100000000000000000000000000000000000000000000000000000000 PUSH0 MSTORE PUSH1 0x22 PUSH1 0x4 MSTORE PUSH1 0x24 PUSH0 REVERT JUMPDEST PUSH0 PUSH1 0x2 DUP3 DIV SWAP1 POP PUSH1 0x1 DUP3 AND DUP1 PUSH2 0xD30 JUMPI PUSH1 0x7F DUP3 AND SWAP2 POP JUMPDEST PUSH1 0x20 DUP3 LT DUP2 SUB PUSH2 0xD43 JUMPI PUSH2 0xD42 PUSH2 0xCEC JUMP JUMPDEST JUMPDEST POP SWAP2 SWAP1 POP JUMP JUMPDEST PUSH0 DUP2 SWAP1 POP DUP2 PUSH0 MSTORE PUSH1 0x20 PUSH0 KECCAK256 SWAP1 POP SWAP2 SWAP1 POP JUMP JUMPDEST PUSH0 PUSH1 0x20 PUSH1 0x1F DUP4 ADD DIV SWAP1 POP SWAP2 SWAP1 POP JUMP JUMPDEST PUSH0 DUP3 DUP3 SHL SWAP1 POP SWAP3 SWAP2 POP POP JUMP JUMPDEST PUSH0 PUSH1 0x8 DUP4 MUL PUSH2 0xDA5 PUSH32 0xFFFFFFFFFFFFFFFFFFFFFFFFFFFFFFFFFFFFFFFFFFFFFFFFFFFFFFFFFFFFFFFF DUP3 PUSH2 0xD6A JUMP JUMPDEST PUSH2 0xDAF DUP7 DUP4 PUSH2 0xD6A JUMP JUMPDEST SWAP6 POP DUP1 NOT DUP5 AND SWAP4 POP DUP1 DUP7 AND DUP5 OR SWAP3 POP POP POP SWAP4 SWAP3 POP POP POP JUMP JUMPDEST PUSH0 DUP2 SWAP1 POP SWAP2 SWAP1 POP JUMP JUMPDEST PUSH0 PUSH2 0xDEA PUSH2 0xDE5 PUSH2 0xDE0 DUP5 PUSH2 0xA41 JUMP JUMPDEST PUSH2 0xDC7 JUMP JUMPDEST PUSH2 0xA41 JUMP JUMPDEST SWAP1 POP SWAP2 SWAP1 POP JUMP JUMPDEST PUSH0 DUP2 SWAP1 POP SWAP2 SWAP1 POP JUMP JUMPDEST PUSH2 0xE03 DUP4 PUSH2 0xDD0 JUMP JUMPDEST PUSH2 0xE17 PUSH2 0xE0F DUP3 PUSH2 0xDF1 JUMP JUMPDEST DUP5 DUP5 SLOAD PUSH2 0xD76 JUMP JUMPDEST DUP3 SSTORE POP POP POP POP JUMP JUMPDEST PUSH0 SWAP1 JUMP JUMPDEST PUSH2 0xE2B PUSH2 0xE1F JUMP JUMPDEST PUSH2 0xE36 DUP2 DUP5 DUP5 PUSH2 0xDFA JUMP JUMPDEST POP POP POP JUMP JUMPDEST JUMPDEST DUP2 DUP2 LT ISZERO PUSH2 0xE59 JUMPI PUSH2 0xE4E PUSH0 DUP3 PUSH2 0xE23 JUMP JUMPDEST PUSH1 0x1 DUP2 ADD SWAP1 POP PUSH2 0xE3C JUMP JUMPDEST POP POP JUMP JUMPDEST PUSH1 0x1F DUP3 GT ISZERO PUSH2 0xE9E JUMPI PUSH2 0xE6F DUP2 PUSH2 0xD49 JUMP JUMPDEST PUSH2 0xE78 DUP5 PUSH2 0xD5B JUMP JUMPDEST DUP2 ADD PUSH1 0x20 DUP6 LT ISZERO PUSH2 0xE87 JUMPI DUP2 SWAP1 POP JUMPDEST PUSH2 0xE9B PUSH2 0xE93 DUP6 PUSH2 0xD5B JUMP JUMPDEST DUP4 ADD DUP3 PUSH2 0xE3B JUMP JUMPDEST POP POP JUMPDEST POP POP POP JUMP JUMPDEST PUSH0 DUP3 DUP3 SHR SWAP1 POP SWAP3 SWAP2 POP POP JUMP JUMPDEST PUSH0 PUSH2 0xEBE PUSH0 NOT DUP5 PUSH1 0x8 MUL PUSH2 0xEA3 JUMP JUMPDEST NOT DUP1 DUP4 AND SWAP2 POP POP SWAP3 SWAP2 POP POP JUMP JUMPDEST PUSH0 PUSH2 0xED6 DUP4 DUP4 PUSH2 0xEAF JUMP JUMPDEST SWAP2 POP DUP3 PUSH1 0x2 MUL DUP3 OR SWAP1 POP SWAP3 SWAP2 POP POP JUMP JUMPDEST PUSH2 0xEEF DUP3 PUSH2 0xAAA JUMP JUMPDEST PUSH8 0xFFFFFFFFFFFFFFFF DUP2 GT ISZERO PUSH2 0xF08 JUMPI PUSH2 0xF07 PUSH2 0x8C3 JUMP JUMPDEST JUMPDEST PUSH2 0xF12 DUP3 SLOAD PUSH2 0xD19 JUMP JUMPDEST PUSH2 0xF1D DUP3 DUP3 DUP6 PUSH2 0xE5D JUMP JUMPDEST PUSH0 PUSH1 0x20 SWAP1 POP PUSH1 0x1F DUP4 GT PUSH1 0x1 DUP2 EQ PUSH2 0xF4E JUMPI PUSH0 DUP5 ISZERO PUSH2 0xF3C JUMPI DUP3 DUP8 ADD MLOAD SWAP1 POP JUMPDEST PUSH2 0xF46 DUP6 DUP3 PUSH2 0xECB JUMP JUMPDEST DUP7 SSTORE POP PUSH2 0xFAD JUMP JUMPDEST PUSH1 0x1F NOT DUP5 AND PUSH2 0xF5C DUP7 PUSH2 0xD49 JUMP JUMPDEST PUSH0 JUMPDEST DUP3 DUP2 LT ISZERO PUSH2 0xF83 JUMPI DUP5 DUP10 ADD MLOAD DUP3 SSTORE PUSH1 0x1 DUP3 ADD SWAP2 POP PUSH1 0x20 DUP6 ADD SWAP5 POP PUSH1 0x20 DUP2 ADD SWAP1 POP PUSH2 0xF5E JUMP JUMPDEST DUP7 DUP4 LT ISZERO PUSH2 0xFA0 JUMPI DUP5 DUP10 ADD MLOAD PUSH2 0xF9C PUSH1 0x1F DUP10 AND DUP3 PUSH2 0xEAF JUMP JUMPDEST DUP4 SSTORE POP JUMPDEST PUSH1 0x1 PUSH1 0x2 DUP9 MUL ADD DUP9 SSTORE POP POP POP JUMPDEST POP POP POP POP POP POP JUMP JUMPDEST PUSH32 0x496E73756666696369656E742062616C616E636520696E2074686520636F6E74 PUSH0 DUP3 ADD MSTORE PUSH32 0x7261637400000000000000000000000000000000000000000000000000000000 PUSH1 0x20 DUP3 ADD MSTORE POP JUMP JUMPDEST PUSH0 PUSH2 0x100F PUSH1 0x24 DUP4 PUSH2 0xC21 JUMP JUMPDEST SWAP2 POP PUSH2 0x101A DUP3 PUSH2 0xFB5 JUMP JUMPDEST PUSH1 0x40 DUP3 ADD SWAP1 POP SWAP2 SWAP1 POP JUMP JUMPDEST PUSH0 PUSH1 0x20 DUP3 ADD SWAP1 POP DUP2 DUP2 SUB PUSH0 DUP4 ADD MSTORE PUSH2 0x103C DUP2 PUSH2 0x1003 JUMP JUMPDEST SWAP1 POP SWAP2 SWAP1 POP JUMP JUMPDEST PUSH32 0x4E487B7100000000000000000000000000000000000000000000000000000000 PUSH0 MSTORE PUSH1 0x12 PUSH1 0x4 MSTORE PUSH1 0x24 PUSH0 REVERT JUMPDEST PUSH32 0x4E487B7100000000000000000000000000000000000000000000000000000000 PUSH0 MSTORE PUSH1 0x11 PUSH1 0x4 MSTORE PUSH1 0x24 PUSH0 REVERT JUMPDEST PUSH0 PUSH2 0x10A7 DUP3 PUSH2 0xA41 JUMP JUMPDEST SWAP2 POP PUSH2 0x10B2 DUP4 PUSH2 0xA41 JUMP JUMPDEST SWAP3 POP DUP3 PUSH2 0x10C2 JUMPI PUSH2 0x10C1 PUSH2 0x1043 JUMP JUMPDEST JUMPDEST DUP3 DUP3 DIV SWAP1 POP SWAP3 SWAP2 POP POP JUMP JUMPDEST PUSH0 PUSH2 0x10D7 DUP3 PUSH2 0xA41 JUMP JUMPDEST SWAP2 POP PUSH2 0x10E2 DUP4 PUSH2 0xA41 JUMP JUMPDEST SWAP3 POP DUP3 DUP3 SUB SWAP1 POP DUP2 DUP2 GT ISZERO PUSH2 0x10FA JUMPI PUSH2 0x10F9 PUSH2 0x1070 JUMP JUMPDEST JUMPDEST SWAP3 SWAP2 POP POP JUMP JUMPDEST PUSH0 PUSH2 0x110A DUP3 PUSH2 0xA41 JUMP JUMPDEST SWAP2 POP PUSH2 0x1115 DUP4 PUSH2 0xA41 JUMP JUMPDEST SWAP3 POP DUP3 DUP3 ADD SWAP1 POP DUP1 DUP3 GT ISZERO PUSH2 0x112D JUMPI PUSH2 0x112C PUSH2 0x1070 JUMP JUMPDEST JUMPDEST SWAP3 SWAP2 POP POP JUMP JUMPDEST PUSH0 DUP2 SLOAD SWAP1 POP PUSH2 0x1141 DUP2 PUSH2 0xD19 JUMP JUMPDEST SWAP1 POP SWAP2 SWAP1 POP JUMP JUMPDEST DUP2 DUP2 SUB PUSH2 0x1156 JUMPI POP POP PUSH2 0x122B JUMP JUMPDEST PUSH2 0x115F DUP3 PUSH2 0x1133 JUMP JUMPDEST PUSH8 0xFFFFFFFFFFFFFFFF DUP2 GT ISZERO PUSH2 0x1178 JUMPI PUSH2 0x1177 PUSH2 0x8C3 JUMP JUMPDEST JUMPDEST PUSH2 0x1182 DUP3 SLOAD PUSH2 0xD19 JUMP JUMPDEST PUSH2 0x118D DUP3 DUP3 DUP6 PUSH2 0xE5D JUMP JUMPDEST PUSH0 PUSH1 0x1F DUP4 GT PUSH1 0x1 DUP2 EQ PUSH2 0x11BA JUMPI PUSH0 DUP5 ISZERO PUSH2 0x11A8 JUMPI DUP3 DUP8 ADD SLOAD SWAP1 POP JUMPDEST PUSH2 0x11B2 DUP6 DUP3 PUSH2 0xECB JUMP JUMPDEST DUP7 SSTORE POP PUSH2 0x1224 JUMP JUMPDEST PUSH1 0x1F NOT DUP5 AND PUSH2 0x11C8 DUP8 PUSH2 0xD49 JUMP JUMPDEST SWAP7 POP PUSH2 0x11D3 DUP7 PUSH2 0xD49 JUMP JUMPDEST PUSH0 JUMPDEST DUP3 DUP2 LT ISZERO PUSH2 0x11FA JUMPI DUP5 DUP10 ADD SLOAD DUP3 SSTORE PUSH1 0x1 DUP3 ADD SWAP2 POP PUSH1 0x1 DUP6 ADD SWAP5 POP PUSH1 0x20 DUP2 ADD SWAP1 POP PUSH2 0x11D5 JUMP JUMPDEST DUP7 DUP4 LT ISZERO PUSH2 0x1217 JUMPI DUP5 DUP10 ADD SLOAD PUSH2 0x1213 PUSH1 0x1F DUP10 AND DUP3 PUSH2 0xEAF JUMP JUMPDEST DUP4 SSTORE POP JUMPDEST PUSH1 0x1 PUSH1 0x2 DUP9 MUL ADD DUP9 SSTORE POP POP POP JUMPDEST POP POP POP POP POP POP JUMPDEST JUMP JUMPDEST PUSH32 0x4E487B7100000000000000000000000000000000000000000000000000000000 PUSH0 MSTORE PUSH1 0x31 PUSH1 0x4 MSTORE PUSH1 0x24 PUSH0 REVERT INVALID LOG2 PUSH5 0x6970667358 0x22 SLT KECCAK256 LT SWAP3 0xEC SELFBALANCE 0xBE 0xB3 DUP2 0xDD ADDMOD PUSH18 0x8397B5EAAB2080DE4FD1AD5E63668AFDC7C7 0xF6 0xAD SMOD LT PUSH5 0x736F6C6343 STOP ADDMOD BYTE STOP CALLER "
				},
				"gasEstimates": {
					"creation": {
						"codeDepositCost": "950400",
						"executionCost": "25251",
						"totalCost": "975651"
					},
					"external": {
						"addFunds()": "163",
						"addHeir(address,string)": "infinite",
						"distributeInheritance()": "infinite",
						"removeHeir(address)": "infinite",
						"viewFunds()": "334",
						"viewHeirs()": "infinite"
					},
					"internal": {
						"transfer(address payable,uint256)": "infinite"
					}
				},
				"methodIdentifiers": {
					"addFunds()": "a26759cb",
					"addHeir(address,string)": "1d93ebdc",
					"distributeInheritance()": "53a41b50",
					"removeHeir(address)": "ebb9d2e3",
					"viewFunds()": "379b2495",
					"viewHeirs()": "e1a731c3"
				}
			},
			"storageLayout": {
				"storage": [
					{
						"astId": 3,
						"contract": "Project.sol:Inheritance",
						"label": "owner",
						"offset": 0,
						"slot": "0",
						"type": "t_address"
					},
					{
						"astId": 7,
						"contract": "Project.sol:Inheritance",
						"label": "heirs",
						"offset": 0,
						"slot": "1",
						"type": "t_array(t_struct(Heir)37_storage)dyn_storage"
					}
				],
				"types": {
					"t_address": {
						"encoding": "inplace",
						"label": "address",
						"numberOfBytes": "20"
					},
					"t_address_payable": {
						"encoding": "inplace",
						"label": "address payable",
						"numberOfBytes": "20"
					},
					"t_array(t_struct(Heir)37_storage)dyn_storage": {
						"base": "t_struct(Heir)37_storage",
						"encoding": "dynamic_array",
						"label": "struct Inheritance.Heir[]",
						"numberOfBytes": "32"
					},
					"t_string_storage": {
						"encoding": "bytes",
						"label": "string",
						"numberOfBytes": "32"
					},
					"t_struct(Heir)37_storage": {
						"encoding": "inplace",
						"label": "struct Inheritance.Heir",
						"members": [
							{
								"astId": 34,
								"contract": "Project.sol:Inheritance",
								"label": "walletAddress",
								"offset": 0,
								"slot": "0",
								"type": "t_address_payable"
							},
							{
								"astId": 36,
								"contract": "Project.sol:Inheritance",
								"label": "name",
								"offset": 0,
								"slot": "1",
								"type": "t_string_storage"
							}
						],
						"numberOfBytes": "64"
					}
				}
			},
			"userdoc": {
				"kind": "user",
				"methods": {},
				"version": 1
			}
		}
	}
}