{
	"Project1.sol": {
		"InheritanceDistributingSystem": {
			"abi": [
				{
					"inputs": [],
					"stateMutability": "nonpayable",
					"type": "constructor"
				},
				{
					"inputs": [],
					"name": "addFunds",
					"outputs": [],
					"stateMutability": "payable",
					"type": "function"
				},
				{
					"inputs": [
						{
							"internalType": "address",
							"name": "_heirAddress",
							"type": "address"
						},
						{
							"internalType": "uint256",
							"name": "_share",
							"type": "uint256"
						}
					],
					"name": "addHeir",
					"outputs": [],
					"stateMutability": "nonpayable",
					"type": "function"
				},
				{
					"inputs": [],
					"name": "alive",
					"outputs": [
						{
							"internalType": "bool",
							"name": "",
							"type": "bool"
						}
					],
					"stateMutability": "view",
					"type": "function"
				},
				{
					"inputs": [],
					"name": "declareDeceased",
					"outputs": [],
					"stateMutability": "nonpayable",
					"type": "function"
				},
				{
					"inputs": [],
					"name": "distributeInheritance",
					"outputs": [],
					"stateMutability": "nonpayable",
					"type": "function"
				},
				{
					"inputs": [],
					"name": "getOwner",
					"outputs": [
						{
							"internalType": "address",
							"name": "",
							"type": "address"
						}
					],
					"stateMutability": "view",
					"type": "function"
				},
				{
					"inputs": [
						{
							"internalType": "uint256",
							"name": "",
							"type": "uint256"
						}
					],
					"name": "heirAddresses",
					"outputs": [
						{
							"internalType": "address",
							"name": "",
							"type": "address"
						}
					],
					"stateMutability": "view",
					"type": "function"
				},
				{
					"inputs": [
						{
							"internalType": "address",
							"name": "",
							"type": "address"
						}
					],
					"name": "heirs",
					"outputs": [
						{
							"internalType": "address",
							"name": "heirAddress",
							"type": "address"
						},
						{
							"internalType": "uint256",
							"name": "share",
							"type": "uint256"
						},
						{
							"internalType": "bool",
							"name": "exists",
							"type": "bool"
						}
					],
					"stateMutability": "view",
					"type": "function"
				},
				{
					"inputs": [],
					"name": "keepAlive",
					"outputs": [],
					"stateMutability": "nonpayable",
					"type": "function"
				},
				{
					"inputs": [],
					"name": "owner",
					"outputs": [
						{
							"internalType": "address",
							"name": "",
							"type": "address"
						}
					],
					"stateMutability": "view",
					"type": "function"
				},
				{
					"inputs": [],
					"name": "poolBalance",
					"outputs": [
						{
							"internalType": "uint256",
							"name": "",
							"type": "uint256"
						}
					],
					"stateMutability": "view",
					"type": "function"
				}
			],
			"devdoc": {
				"kind": "dev",
				"methods": {},
				"version": 1
			},
			"evm": {
				"assembly": "    /* \"Project1.sol\":60:2891  contract InheritanceDistributingSystem {... */\n  mstore(0x40, 0x80)\n    /* \"Project1.sol\":379:518  constructor() {... */\n  callvalue\n  dup1\n  iszero\n  tag_1\n  jumpi\n  0x00\n  dup1\n  revert\ntag_1:\n  pop\n    /* \"Project1.sol\":412:422  msg.sender */\n  caller\n    /* \"Project1.sol\":404:409  owner */\n  0x00\n  dup1\n    /* \"Project1.sol\":404:422  owner = msg.sender */\n  0x0100\n  exp\n  dup2\n  sload\n  dup2\n  0xffffffffffffffffffffffffffffffffffffffff\n  mul\n  not\n  and\n  swap1\n  dup4\n  0xffffffffffffffffffffffffffffffffffffffff\n  and\n  mul\n  or\n  swap1\n  sstore\n  pop\n    /* \"Project1.sol\":506:510  true */\n  0x01\n    /* \"Project1.sol\":498:503  alive */\n  0x02\n  0x00\n    /* \"Project1.sol\":498:510  alive = true */\n  0x0100\n  exp\n  dup2\n  sload\n  dup2\n  0xff\n  mul\n  not\n  and\n  swap1\n  dup4\n  iszero\n  iszero\n  mul\n  or\n  swap1\n  sstore\n  pop\n    /* \"Project1.sol\":60:2891  contract InheritanceDistributingSystem {... */\n  dataSize(sub_0)\n  dup1\n  dataOffset(sub_0)\n  0x00\n  codecopy\n  0x00\n  return\nstop\n\nsub_0: assembly {\n        /* \"Project1.sol\":60:2891  contract InheritanceDistributingSystem {... */\n      mstore(0x40, 0x80)\n      jumpi(tag_1, lt(calldatasize, 0x04))\n      shr(0xe0, calldataload(0x00))\n      dup1\n      0x893d20e8\n      gt\n      tag_13\n      jumpi\n      dup1\n      0x893d20e8\n      eq\n      tag_7\n      jumpi\n      dup1\n      0x8da5cb5b\n      eq\n      tag_8\n      jumpi\n      dup1\n      0x96365d44\n      eq\n      tag_9\n      jumpi\n      dup1\n      0x9cdd47f2\n      eq\n      tag_10\n      jumpi\n      dup1\n      0xa26759cb\n      eq\n      tag_11\n      jumpi\n      dup1\n      0xf45b587c\n      eq\n      tag_12\n      jumpi\n      jump(tag_1)\n    tag_13:\n      dup1\n      0x4be2bab7\n      eq\n      tag_2\n      jumpi\n      dup1\n      0x53a41b50\n      eq\n      tag_3\n      jumpi\n      dup1\n      0x5e3faa41\n      eq\n      tag_4\n      jumpi\n      dup1\n      0x753899e9\n      eq\n      tag_5\n      jumpi\n      dup1\n      0x87740c0d\n      eq\n      tag_6\n      jumpi\n    tag_1:\n      0x00\n      dup1\n      revert\n        /* \"Project1.sol\":340:370  address[] public heirAddresses */\n    tag_2:\n      callvalue\n      dup1\n      iszero\n      tag_14\n      jumpi\n      0x00\n      dup1\n      revert\n    tag_14:\n      pop\n      tag_15\n      0x04\n      dup1\n      calldatasize\n      sub\n      dup2\n      add\n      swap1\n      tag_16\n      swap2\n      swap1\n      tag_17\n      jump\t// in\n    tag_16:\n      tag_18\n      jump\t// in\n    tag_15:\n      mload(0x40)\n      tag_19\n      swap2\n      swap1\n      tag_20\n      jump\t// in\n    tag_19:\n      mload(0x40)\n      dup1\n      swap2\n      sub\n      swap1\n      return\n        /* \"Project1.sol\":2085:2666  function distributeInheritance() public isDeceased {... */\n    tag_3:\n      callvalue\n      dup1\n      iszero\n      tag_21\n      jumpi\n      0x00\n      dup1\n      revert\n    tag_21:\n      pop\n      tag_22\n      tag_23\n      jump\t// in\n    tag_22:\n      stop\n        /* \"Project1.sol\":1765:1841  function declareDeceased() public onlyOwner {... */\n    tag_4:\n      callvalue\n      dup1\n      iszero\n      tag_24\n      jumpi\n      0x00\n      dup1\n      revert\n    tag_24:\n      pop\n      tag_25\n      tag_26\n      jump\t// in\n    tag_25:\n      stop\n        /* \"Project1.sol\":166:183  bool public alive */\n    tag_5:\n      callvalue\n      dup1\n      iszero\n      tag_27\n      jumpi\n      0x00\n      dup1\n      revert\n    tag_27:\n      pop\n      tag_28\n      tag_29\n      jump\t// in\n    tag_28:\n      mload(0x40)\n      tag_30\n      swap2\n      swap1\n      tag_31\n      jump\t// in\n    tag_30:\n      mload(0x40)\n      dup1\n      swap2\n      sub\n      swap1\n      return\n        /* \"Project1.sol\":1942:2011  function keepAlive() public onlyOwner {... */\n    tag_6:\n      callvalue\n      dup1\n      iszero\n      tag_32\n      jumpi\n      0x00\n      dup1\n      revert\n    tag_32:\n      pop\n      tag_33\n      tag_34\n      jump\t// in\n    tag_33:\n      stop\n        /* \"Project1.sol\":2734:2888  function getOwner() public view returns (address) {... */\n    tag_7:\n      callvalue\n      dup1\n      iszero\n      tag_35\n      jumpi\n      0x00\n      dup1\n      revert\n    tag_35:\n      pop\n      tag_36\n      tag_37\n      jump\t// in\n    tag_36:\n      mload(0x40)\n      tag_38\n      swap2\n      swap1\n      tag_20\n      jump\t// in\n    tag_38:\n      mload(0x40)\n      dup1\n      swap2\n      sub\n      swap1\n      return\n        /* \"Project1.sol\":106:126  address public owner */\n    tag_8:\n      callvalue\n      dup1\n      iszero\n      tag_39\n      jumpi\n      0x00\n      dup1\n      revert\n    tag_39:\n      pop\n      tag_40\n      tag_41\n      jump\t// in\n    tag_40:\n      mload(0x40)\n      tag_42\n      swap2\n      swap1\n      tag_20\n      jump\t// in\n    tag_42:\n      mload(0x40)\n      dup1\n      swap2\n      sub\n      swap1\n      return\n        /* \"Project1.sol\":133:159  uint256 public poolBalance */\n    tag_9:\n      callvalue\n      dup1\n      iszero\n      tag_43\n      jumpi\n      0x00\n      dup1\n      revert\n    tag_43:\n      pop\n      tag_44\n      tag_45\n      jump\t// in\n    tag_44:\n      mload(0x40)\n      tag_46\n      swap2\n      swap1\n      tag_47\n      jump\t// in\n    tag_46:\n      mload(0x40)\n      dup1\n      swap2\n      sub\n      swap1\n      return\n        /* \"Project1.sol\":1126:1658  function addHeir(address _heirAddress, uint256 _share) public onlyOwner {... */\n    tag_10:\n      callvalue\n      dup1\n      iszero\n      tag_48\n      jumpi\n      0x00\n      dup1\n      revert\n    tag_48:\n      pop\n      tag_49\n      0x04\n      dup1\n      calldatasize\n      sub\n      dup2\n      add\n      swap1\n      tag_50\n      swap2\n      swap1\n      tag_51\n      jump\t// in\n    tag_50:\n      tag_52\n      jump\t// in\n    tag_49:\n      stop\n        /* \"Project1.sol\":967:1055  function addFunds() public payable onlyOwner {... */\n    tag_11:\n      tag_53\n      tag_54\n      jump\t// in\n    tag_53:\n      stop\n        /* \"Project1.sol\":296:333  mapping(address => Heir) public heirs */\n    tag_12:\n      callvalue\n      dup1\n      iszero\n      tag_55\n      jumpi\n      0x00\n      dup1\n      revert\n    tag_55:\n      pop\n      tag_56\n      0x04\n      dup1\n      calldatasize\n      sub\n      dup2\n      add\n      swap1\n      tag_57\n      swap2\n      swap1\n      tag_58\n      jump\t// in\n    tag_57:\n      tag_59\n      jump\t// in\n    tag_56:\n      mload(0x40)\n      tag_60\n      swap4\n      swap3\n      swap2\n      swap1\n      tag_61\n      jump\t// in\n    tag_60:\n      mload(0x40)\n      dup1\n      swap2\n      sub\n      swap1\n      return\n        /* \"Project1.sol\":340:370  address[] public heirAddresses */\n    tag_18:\n      0x04\n      dup2\n      dup2\n      sload\n      dup2\n      lt\n      tag_62\n      jumpi\n      0x00\n      dup1\n      revert\n    tag_62:\n      swap1\n      0x00\n      mstore\n      keccak256(0x00, 0x20)\n      add\n      0x00\n      swap2\n      pop\n      sload\n      swap1\n      0x0100\n      exp\n      swap1\n      div\n      0xffffffffffffffffffffffffffffffffffffffff\n      and\n      dup2\n      jump\t// out\n        /* \"Project1.sol\":2085:2666  function distributeInheritance() public isDeceased {... */\n    tag_23:\n        /* \"Project1.sol\":812:817  false */\n      0x00\n        /* \"Project1.sol\":803:817  alive == false */\n      iszero\n      iszero\n        /* \"Project1.sol\":803:808  alive */\n      0x02\n      0x00\n      swap1\n      sload\n      swap1\n      0x0100\n      exp\n      swap1\n      div\n      0xff\n      and\n        /* \"Project1.sol\":803:817  alive == false */\n      iszero\n      iszero\n      eq\n        /* \"Project1.sol\":795:846  require(alive == false, \"The owner is still alive\") */\n      tag_65\n      jumpi\n      mload(0x40)\n      0x08c379a000000000000000000000000000000000000000000000000000000000\n      dup2\n      mstore\n      0x04\n      add\n      tag_66\n      swap1\n      tag_67\n      jump\t// in\n    tag_66:\n      mload(0x40)\n      dup1\n      swap2\n      sub\n      swap1\n      revert\n    tag_65:\n        /* \"Project1.sol\":2169:2170  0 */\n      0x00\n        /* \"Project1.sol\":2155:2166  poolBalance */\n      sload(0x01)\n        /* \"Project1.sol\":2155:2170  poolBalance > 0 */\n      gt\n        /* \"Project1.sol\":2147:2195  require(poolBalance > 0, \"No funds in the pool\") */\n      tag_69\n      jumpi\n      mload(0x40)\n      0x08c379a000000000000000000000000000000000000000000000000000000000\n      dup2\n      mstore\n      0x04\n      add\n      tag_70\n      swap1\n      tag_71\n      jump\t// in\n    tag_70:\n      mload(0x40)\n      dup1\n      swap2\n      sub\n      swap1\n      revert\n    tag_69:\n        /* \"Project1.sol\":2238:2239  2 */\n      0x02\n        /* \"Project1.sol\":2214:2227  heirAddresses */\n      0x04\n        /* \"Project1.sol\":2214:2234  heirAddresses.length */\n      dup1\n      sload\n      swap1\n      pop\n        /* \"Project1.sol\":2214:2239  heirAddresses.length == 2 */\n      eq\n        /* \"Project1.sol\":2206:2272  require(heirAddresses.length == 2, \"Exactly 2 heirs are required\") */\n      tag_72\n      jumpi\n      mload(0x40)\n      0x08c379a000000000000000000000000000000000000000000000000000000000\n      dup2\n      mstore\n      0x04\n      add\n      tag_73\n      swap1\n      tag_74\n      jump\t// in\n    tag_73:\n      mload(0x40)\n      dup1\n      swap2\n      sub\n      swap1\n      revert\n    tag_72:\n        /* \"Project1.sol\":2290:2299  uint256 i */\n      0x00\n        /* \"Project1.sol\":2285:2558  for (uint256 i = 0; i < heirAddresses.length; i++) {... */\n    tag_75:\n        /* \"Project1.sol\":2309:2322  heirAddresses */\n      0x04\n        /* \"Project1.sol\":2309:2329  heirAddresses.length */\n      dup1\n      sload\n      swap1\n      pop\n        /* \"Project1.sol\":2305:2306  i */\n      dup2\n        /* \"Project1.sol\":2305:2329  i < heirAddresses.length */\n      lt\n        /* \"Project1.sol\":2285:2558  for (uint256 i = 0; i < heirAddresses.length; i++) {... */\n      iszero\n      tag_76\n      jumpi\n        /* \"Project1.sol\":2351:2367  address heirAddr */\n      0x00\n        /* \"Project1.sol\":2370:2383  heirAddresses */\n      0x04\n        /* \"Project1.sol\":2384:2385  i */\n      dup3\n        /* \"Project1.sol\":2370:2386  heirAddresses[i] */\n      dup2\n      sload\n      dup2\n      lt\n      tag_78\n      jumpi\n      tag_79\n      tag_80\n      jump\t// in\n    tag_79:\n    tag_78:\n      swap1\n      0x00\n      mstore\n      keccak256(0x00, 0x20)\n      add\n      0x00\n      swap1\n      sload\n      swap1\n      0x0100\n      exp\n      swap1\n      div\n      0xffffffffffffffffffffffffffffffffffffffff\n      and\n        /* \"Project1.sol\":2351:2386  address heirAddr = heirAddresses[i] */\n      swap1\n      pop\n        /* \"Project1.sol\":2401:2414  uint256 share */\n      0x00\n        /* \"Project1.sol\":2417:2422  heirs */\n      0x03\n        /* \"Project1.sol\":2417:2432  heirs[heirAddr] */\n      0x00\n        /* \"Project1.sol\":2423:2431  heirAddr */\n      dup4\n        /* \"Project1.sol\":2417:2432  heirs[heirAddr] */\n      0xffffffffffffffffffffffffffffffffffffffff\n      and\n      0xffffffffffffffffffffffffffffffffffffffff\n      and\n      dup2\n      mstore\n      0x20\n      add\n      swap1\n      dup2\n      mstore\n      0x20\n      add\n      0x00\n      keccak256\n        /* \"Project1.sol\":2417:2438  heirs[heirAddr].share */\n      0x01\n      add\n      sload\n        /* \"Project1.sol\":2401:2438  uint256 share = heirs[heirAddr].share */\n      swap1\n      pop\n        /* \"Project1.sol\":2453:2467  uint256 amount */\n      0x00\n        /* \"Project1.sol\":2494:2497  100 */\n      0x64\n        /* \"Project1.sol\":2485:2490  share */\n      dup3\n        /* \"Project1.sol\":2471:2482  poolBalance */\n      sload(0x01)\n        /* \"Project1.sol\":2471:2490  poolBalance * share */\n      tag_82\n      swap2\n      swap1\n      tag_83\n      jump\t// in\n    tag_82:\n        /* \"Project1.sol\":2470:2497  (poolBalance * share) / 100 */\n      tag_84\n      swap2\n      swap1\n      tag_85\n      jump\t// in\n    tag_84:\n        /* \"Project1.sol\":2453:2497  uint256 amount = (poolBalance * share) / 100 */\n      swap1\n      pop\n        /* \"Project1.sol\":2520:2528  heirAddr */\n      dup3\n        /* \"Project1.sol\":2512:2538  payable(heirAddr).transfer */\n      0xffffffffffffffffffffffffffffffffffffffff\n      and\n        /* \"Project1.sol\":2512:2546  payable(heirAddr).transfer(amount) */\n      0x08fc\n        /* \"Project1.sol\":2539:2545  amount */\n      dup3\n        /* \"Project1.sol\":2512:2546  payable(heirAddr).transfer(amount) */\n      swap1\n      dup2\n      iszero\n      mul\n      swap1\n      mload(0x40)\n      0x00\n      mload(0x40)\n      dup1\n      dup4\n      sub\n      dup2\n      dup6\n      dup9\n      dup9\n      call\n      swap4\n      pop\n      pop\n      pop\n      pop\n      iszero\n      dup1\n      iszero\n      tag_87\n      jumpi\n      returndatasize\n      0x00\n      dup1\n      returndatacopy\n      revert(0x00, returndatasize)\n    tag_87:\n      pop\n        /* \"Project1.sol\":2336:2558  {... */\n      pop\n      pop\n      pop\n        /* \"Project1.sol\":2331:2334  i++ */\n      dup1\n      dup1\n      0x01\n      add\n      swap2\n      pop\n      pop\n        /* \"Project1.sol\":2285:2558  for (uint256 i = 0; i < heirAddresses.length; i++) {... */\n      jump(tag_75)\n    tag_76:\n      pop\n        /* \"Project1.sol\":2584:2585  0 */\n      0x00\n        /* \"Project1.sol\":2570:2581  poolBalance */\n      0x01\n        /* \"Project1.sol\":2570:2585  poolBalance = 0 */\n      dup2\n      swap1\n      sstore\n      pop\n        /* \"Project1.sol\":2085:2666  function distributeInheritance() public isDeceased {... */\n      jump\t// out\n        /* \"Project1.sol\":1765:1841  function declareDeceased() public onlyOwner {... */\n    tag_26:\n        /* \"Project1.sol\":580:585  owner */\n      0x00\n      dup1\n      sload\n      swap1\n      0x0100\n      exp\n      swap1\n      div\n      0xffffffffffffffffffffffffffffffffffffffff\n      and\n        /* \"Project1.sol\":566:585  msg.sender == owner */\n      0xffffffffffffffffffffffffffffffffffffffff\n      and\n        /* \"Project1.sol\":566:576  msg.sender */\n      caller\n        /* \"Project1.sol\":566:585  msg.sender == owner */\n      0xffffffffffffffffffffffffffffffffffffffff\n      and\n      eq\n        /* \"Project1.sol\":558:628  require(msg.sender == owner, \"Only the owner can perform this action\") */\n      tag_89\n      jumpi\n      mload(0x40)\n      0x08c379a000000000000000000000000000000000000000000000000000000000\n      dup2\n      mstore\n      0x04\n      add\n      tag_90\n      swap1\n      tag_91\n      jump\t// in\n    tag_90:\n      mload(0x40)\n      dup1\n      swap2\n      sub\n      swap1\n      revert\n    tag_89:\n        /* \"Project1.sol\":1828:1833  false */\n      0x00\n        /* \"Project1.sol\":1820:1825  alive */\n      0x02\n      0x00\n        /* \"Project1.sol\":1820:1833  alive = false */\n      0x0100\n      exp\n      dup2\n      sload\n      dup2\n      0xff\n      mul\n      not\n      and\n      swap1\n      dup4\n      iszero\n      iszero\n      mul\n      or\n      swap1\n      sstore\n      pop\n        /* \"Project1.sol\":1765:1841  function declareDeceased() public onlyOwner {... */\n      jump\t// out\n        /* \"Project1.sol\":166:183  bool public alive */\n    tag_29:\n      0x02\n      0x00\n      swap1\n      sload\n      swap1\n      0x0100\n      exp\n      swap1\n      div\n      0xff\n      and\n      dup2\n      jump\t// out\n        /* \"Project1.sol\":1942:2011  function keepAlive() public onlyOwner {... */\n    tag_34:\n        /* \"Project1.sol\":580:585  owner */\n      0x00\n      dup1\n      sload\n      swap1\n      0x0100\n      exp\n      swap1\n      div\n      0xffffffffffffffffffffffffffffffffffffffff\n      and\n        /* \"Project1.sol\":566:585  msg.sender == owner */\n      0xffffffffffffffffffffffffffffffffffffffff\n      and\n        /* \"Project1.sol\":566:576  msg.sender */\n      caller\n        /* \"Project1.sol\":566:585  msg.sender == owner */\n      0xffffffffffffffffffffffffffffffffffffffff\n      and\n      eq\n        /* \"Project1.sol\":558:628  require(msg.sender == owner, \"Only the owner can perform this action\") */\n      tag_94\n      jumpi\n      mload(0x40)\n      0x08c379a000000000000000000000000000000000000000000000000000000000\n      dup2\n      mstore\n      0x04\n      add\n      tag_95\n      swap1\n      tag_91\n      jump\t// in\n    tag_95:\n      mload(0x40)\n      dup1\n      swap2\n      sub\n      swap1\n      revert\n    tag_94:\n        /* \"Project1.sol\":1999:2003  true */\n      0x01\n        /* \"Project1.sol\":1991:1996  alive */\n      0x02\n      0x00\n        /* \"Project1.sol\":1991:2003  alive = true */\n      0x0100\n      exp\n      dup2\n      sload\n      dup2\n      0xff\n      mul\n      not\n      and\n      swap1\n      dup4\n      iszero\n      iszero\n      mul\n      or\n      swap1\n      sstore\n      pop\n        /* \"Project1.sol\":1942:2011  function keepAlive() public onlyOwner {... */\n      jump\t// out\n        /* \"Project1.sol\":2734:2888  function getOwner() public view returns (address) {... */\n    tag_37:\n        /* \"Project1.sol\":2775:2782  address */\n      0x00\n        /* \"Project1.sol\":2802:2807  owner */\n      dup1\n      0x00\n      swap1\n      sload\n      swap1\n      0x0100\n      exp\n      swap1\n      div\n      0xffffffffffffffffffffffffffffffffffffffff\n      and\n        /* \"Project1.sol\":2795:2807  return owner */\n      swap1\n      pop\n        /* \"Project1.sol\":2734:2888  function getOwner() public view returns (address) {... */\n      swap1\n      jump\t// out\n        /* \"Project1.sol\":106:126  address public owner */\n    tag_41:\n      0x00\n      dup1\n      sload\n      swap1\n      0x0100\n      exp\n      swap1\n      div\n      0xffffffffffffffffffffffffffffffffffffffff\n      and\n      dup2\n      jump\t// out\n        /* \"Project1.sol\":133:159  uint256 public poolBalance */\n    tag_45:\n      sload(0x01)\n      dup2\n      jump\t// out\n        /* \"Project1.sol\":1126:1658  function addHeir(address _heirAddress, uint256 _share) public onlyOwner {... */\n    tag_52:\n        /* \"Project1.sol\":580:585  owner */\n      0x00\n      dup1\n      sload\n      swap1\n      0x0100\n      exp\n      swap1\n      div\n      0xffffffffffffffffffffffffffffffffffffffff\n      and\n        /* \"Project1.sol\":566:585  msg.sender == owner */\n      0xffffffffffffffffffffffffffffffffffffffff\n      and\n        /* \"Project1.sol\":566:576  msg.sender */\n      caller\n        /* \"Project1.sol\":566:585  msg.sender == owner */\n      0xffffffffffffffffffffffffffffffffffffffff\n      and\n      eq\n        /* \"Project1.sol\":558:628  require(msg.sender == owner, \"Only the owner can perform this action\") */\n      tag_99\n      jumpi\n      mload(0x40)\n      0x08c379a000000000000000000000000000000000000000000000000000000000\n      dup2\n      mstore\n      0x04\n      add\n      tag_100\n      swap1\n      tag_91\n      jump\t// in\n    tag_100:\n      mload(0x40)\n      dup1\n      swap2\n      sub\n      swap1\n      revert\n    tag_99:\n        /* \"Project1.sol\":1226:1227  0 */\n      0x00\n        /* \"Project1.sol\":1217:1223  _share */\n      dup2\n        /* \"Project1.sol\":1217:1227  _share > 0 */\n      gt\n        /* \"Project1.sol\":1217:1244  _share > 0 && _share <= 100 */\n      dup1\n      iszero\n      tag_102\n      jumpi\n      pop\n        /* \"Project1.sol\":1241:1244  100 */\n      0x64\n        /* \"Project1.sol\":1231:1237  _share */\n      dup2\n        /* \"Project1.sol\":1231:1244  _share <= 100 */\n      gt\n      iszero\n        /* \"Project1.sol\":1217:1244  _share > 0 && _share <= 100 */\n    tag_102:\n        /* \"Project1.sol\":1209:1280  require(_share > 0 && _share <= 100, \"Share must be between 1 and 100\") */\n      tag_103\n      jumpi\n      mload(0x40)\n      0x08c379a000000000000000000000000000000000000000000000000000000000\n      dup2\n      mstore\n      0x04\n      add\n      tag_104\n      swap1\n      tag_105\n      jump\t// in\n    tag_104:\n      mload(0x40)\n      dup1\n      swap2\n      sub\n      swap1\n      revert\n    tag_103:\n        /* \"Project1.sol\":1322:1323  2 */\n      0x02\n        /* \"Project1.sol\":1299:1312  heirAddresses */\n      0x04\n        /* \"Project1.sol\":1299:1319  heirAddresses.length */\n      dup1\n      sload\n      swap1\n      pop\n        /* \"Project1.sol\":1299:1323  heirAddresses.length < 2 */\n      lt\n        /* \"Project1.sol\":1291:1348  require(heirAddresses.length < 2, \"Can only add 2 heirs\") */\n      tag_106\n      jumpi\n      mload(0x40)\n      0x08c379a000000000000000000000000000000000000000000000000000000000\n      dup2\n      mstore\n      0x04\n      add\n      tag_107\n      swap1\n      tag_108\n      jump\t// in\n    tag_107:\n      mload(0x40)\n      dup1\n      swap2\n      sub\n      swap1\n      revert\n    tag_106:\n        /* \"Project1.sol\":1368:1373  heirs */\n      0x03\n        /* \"Project1.sol\":1368:1387  heirs[_heirAddress] */\n      0x00\n        /* \"Project1.sol\":1374:1386  _heirAddress */\n      dup4\n        /* \"Project1.sol\":1368:1387  heirs[_heirAddress] */\n      0xffffffffffffffffffffffffffffffffffffffff\n      and\n      0xffffffffffffffffffffffffffffffffffffffff\n      and\n      dup2\n      mstore\n      0x20\n      add\n      swap1\n      dup2\n      mstore\n      0x20\n      add\n      0x00\n      keccak256\n        /* \"Project1.sol\":1368:1394  heirs[_heirAddress].exists */\n      0x02\n      add\n      0x00\n      swap1\n      sload\n      swap1\n      0x0100\n      exp\n      swap1\n      div\n      0xff\n      and\n        /* \"Project1.sol\":1367:1394  !heirs[_heirAddress].exists */\n      iszero\n        /* \"Project1.sol\":1359:1418  require(!heirs[_heirAddress].exists, \"Heir already exists\") */\n      tag_109\n      jumpi\n      mload(0x40)\n      0x08c379a000000000000000000000000000000000000000000000000000000000\n      dup2\n      mstore\n      0x04\n      add\n      tag_110\n      swap1\n      tag_111\n      jump\t// in\n    tag_110:\n      mload(0x40)\n      dup1\n      swap2\n      sub\n      swap1\n      revert\n    tag_109:\n        /* \"Project1.sol\":1431:1450  Heir memory newHeir */\n      0x00\n        /* \"Project1.sol\":1453:1565  Heir({... */\n      mload(0x40)\n      dup1\n      0x60\n      add\n      0x40\n      mstore\n      dup1\n        /* \"Project1.sol\":1486:1498  _heirAddress */\n      dup5\n        /* \"Project1.sol\":1453:1565  Heir({... */\n      0xffffffffffffffffffffffffffffffffffffffff\n      and\n      dup2\n      mstore\n      0x20\n      add\n        /* \"Project1.sol\":1520:1526  _share */\n      dup4\n        /* \"Project1.sol\":1453:1565  Heir({... */\n      dup2\n      mstore\n      0x20\n      add\n        /* \"Project1.sol\":1549:1553  true */\n      0x01\n        /* \"Project1.sol\":1453:1565  Heir({... */\n      iszero\n      iszero\n      dup2\n      mstore\n      pop\n        /* \"Project1.sol\":1431:1565  Heir memory newHeir = Heir({... */\n      swap1\n      pop\n        /* \"Project1.sol\":1600:1607  newHeir */\n      dup1\n        /* \"Project1.sol\":1578:1583  heirs */\n      0x03\n        /* \"Project1.sol\":1578:1597  heirs[_heirAddress] */\n      0x00\n        /* \"Project1.sol\":1584:1596  _heirAddress */\n      dup6\n        /* \"Project1.sol\":1578:1597  heirs[_heirAddress] */\n      0xffffffffffffffffffffffffffffffffffffffff\n      and\n      0xffffffffffffffffffffffffffffffffffffffff\n      and\n      dup2\n      mstore\n      0x20\n      add\n      swap1\n      dup2\n      mstore\n      0x20\n      add\n      0x00\n      keccak256\n        /* \"Project1.sol\":1578:1607  heirs[_heirAddress] = newHeir */\n      0x00\n      dup3\n      add\n      mload\n      dup2\n      0x00\n      add\n      exp(0x0100, 0x00)\n      dup2\n      sload\n      dup2\n      0xffffffffffffffffffffffffffffffffffffffff\n      mul\n      not\n      and\n      swap1\n      dup4\n      0xffffffffffffffffffffffffffffffffffffffff\n      and\n      mul\n      or\n      swap1\n      sstore\n      pop\n      0x20\n      dup3\n      add\n      mload\n      dup2\n      0x01\n      add\n      sstore\n      0x40\n      dup3\n      add\n      mload\n      dup2\n      0x02\n      add\n      exp(0x0100, 0x00)\n      dup2\n      sload\n      dup2\n      0xff\n      mul\n      not\n      and\n      swap1\n      dup4\n      iszero\n      iszero\n      mul\n      or\n      swap1\n      sstore\n      pop\n      swap1\n      pop\n      pop\n        /* \"Project1.sol\":1618:1631  heirAddresses */\n      0x04\n        /* \"Project1.sol\":1637:1649  _heirAddress */\n      dup4\n        /* \"Project1.sol\":1618:1650  heirAddresses.push(_heirAddress) */\n      swap1\n      dup1\n      0x01\n      dup2\n      sload\n      add\n      dup1\n      dup3\n      sstore\n      dup1\n      swap2\n      pop\n      pop\n      0x01\n      swap1\n      sub\n      swap1\n      0x00\n      mstore\n      keccak256(0x00, 0x20)\n      add\n      0x00\n      swap1\n      swap2\n      swap1\n      swap2\n      swap1\n      swap2\n      0x0100\n      exp\n      dup2\n      sload\n      dup2\n      0xffffffffffffffffffffffffffffffffffffffff\n      mul\n      not\n      and\n      swap1\n      dup4\n      0xffffffffffffffffffffffffffffffffffffffff\n      and\n      mul\n      or\n      swap1\n      sstore\n      pop\n        /* \"Project1.sol\":1198:1658  {... */\n      pop\n        /* \"Project1.sol\":1126:1658  function addHeir(address _heirAddress, uint256 _share) public onlyOwner {... */\n      pop\n      pop\n      jump\t// out\n        /* \"Project1.sol\":967:1055  function addFunds() public payable onlyOwner {... */\n    tag_54:\n        /* \"Project1.sol\":580:585  owner */\n      0x00\n      dup1\n      sload\n      swap1\n      0x0100\n      exp\n      swap1\n      div\n      0xffffffffffffffffffffffffffffffffffffffff\n      and\n        /* \"Project1.sol\":566:585  msg.sender == owner */\n      0xffffffffffffffffffffffffffffffffffffffff\n      and\n        /* \"Project1.sol\":566:576  msg.sender */\n      caller\n        /* \"Project1.sol\":566:585  msg.sender == owner */\n      0xffffffffffffffffffffffffffffffffffffffff\n      and\n      eq\n        /* \"Project1.sol\":558:628  require(msg.sender == owner, \"Only the owner can perform this action\") */\n      tag_114\n      jumpi\n      mload(0x40)\n      0x08c379a000000000000000000000000000000000000000000000000000000000\n      dup2\n      mstore\n      0x04\n      add\n      tag_115\n      swap1\n      tag_91\n      jump\t// in\n    tag_115:\n      mload(0x40)\n      dup1\n      swap2\n      sub\n      swap1\n      revert\n    tag_114:\n        /* \"Project1.sol\":1038:1047  msg.value */\n      callvalue\n        /* \"Project1.sol\":1023:1034  poolBalance */\n      0x01\n      0x00\n        /* \"Project1.sol\":1023:1047  poolBalance += msg.value */\n      dup3\n      dup3\n      sload\n      tag_117\n      swap2\n      swap1\n      tag_118\n      jump\t// in\n    tag_117:\n      swap3\n      pop\n      pop\n      dup2\n      swap1\n      sstore\n      pop\n        /* \"Project1.sol\":967:1055  function addFunds() public payable onlyOwner {... */\n      jump\t// out\n        /* \"Project1.sol\":296:333  mapping(address => Heir) public heirs */\n    tag_59:\n      mstore(0x20, 0x03)\n      dup1\n      0x00\n      mstore\n      keccak256(0x00, 0x40)\n      0x00\n      swap2\n      pop\n      swap1\n      pop\n      dup1\n      0x00\n      add\n      0x00\n      swap1\n      sload\n      swap1\n      0x0100\n      exp\n      swap1\n      div\n      0xffffffffffffffffffffffffffffffffffffffff\n      and\n      swap1\n      dup1\n      0x01\n      add\n      sload\n      swap1\n      dup1\n      0x02\n      add\n      0x00\n      swap1\n      sload\n      swap1\n      0x0100\n      exp\n      swap1\n      div\n      0xff\n      and\n      swap1\n      pop\n      dup4\n      jump\t// out\n        /* \"#utility.yul\":88:205   */\n    tag_120:\n        /* \"#utility.yul\":197:198   */\n      0x00\n        /* \"#utility.yul\":194:195   */\n      dup1\n        /* \"#utility.yul\":187:199   */\n      revert\n        /* \"#utility.yul\":334:411   */\n    tag_122:\n        /* \"#utility.yul\":371:378   */\n      0x00\n        /* \"#utility.yul\":400:405   */\n      dup2\n        /* \"#utility.yul\":389:405   */\n      swap1\n      pop\n        /* \"#utility.yul\":334:411   */\n      swap2\n      swap1\n      pop\n      jump\t// out\n        /* \"#utility.yul\":417:539   */\n    tag_123:\n        /* \"#utility.yul\":490:514   */\n      tag_156\n        /* \"#utility.yul\":508:513   */\n      dup2\n        /* \"#utility.yul\":490:514   */\n      tag_122\n      jump\t// in\n    tag_156:\n        /* \"#utility.yul\":483:488   */\n      dup2\n        /* \"#utility.yul\":480:515   */\n      eq\n        /* \"#utility.yul\":470:533   */\n      tag_157\n      jumpi\n        /* \"#utility.yul\":529:530   */\n      0x00\n        /* \"#utility.yul\":526:527   */\n      dup1\n        /* \"#utility.yul\":519:531   */\n      revert\n        /* \"#utility.yul\":470:533   */\n    tag_157:\n        /* \"#utility.yul\":417:539   */\n      pop\n      jump\t// out\n        /* \"#utility.yul\":545:684   */\n    tag_124:\n        /* \"#utility.yul\":591:596   */\n      0x00\n        /* \"#utility.yul\":629:635   */\n      dup2\n        /* \"#utility.yul\":616:636   */\n      calldataload\n        /* \"#utility.yul\":607:636   */\n      swap1\n      pop\n        /* \"#utility.yul\":645:678   */\n      tag_159\n        /* \"#utility.yul\":672:677   */\n      dup2\n        /* \"#utility.yul\":645:678   */\n      tag_123\n      jump\t// in\n    tag_159:\n        /* \"#utility.yul\":545:684   */\n      swap3\n      swap2\n      pop\n      pop\n      jump\t// out\n        /* \"#utility.yul\":690:1019   */\n    tag_17:\n        /* \"#utility.yul\":749:755   */\n      0x00\n        /* \"#utility.yul\":798:800   */\n      0x20\n        /* \"#utility.yul\":786:795   */\n      dup3\n        /* \"#utility.yul\":777:784   */\n      dup5\n        /* \"#utility.yul\":773:796   */\n      sub\n        /* \"#utility.yul\":769:801   */\n      slt\n        /* \"#utility.yul\":766:885   */\n      iszero\n      tag_161\n      jumpi\n        /* \"#utility.yul\":804:883   */\n      tag_162\n      tag_120\n      jump\t// in\n    tag_162:\n        /* \"#utility.yul\":766:885   */\n    tag_161:\n        /* \"#utility.yul\":924:925   */\n      0x00\n        /* \"#utility.yul\":949:1002   */\n      tag_163\n        /* \"#utility.yul\":994:1001   */\n      dup5\n        /* \"#utility.yul\":985:991   */\n      dup3\n        /* \"#utility.yul\":974:983   */\n      dup6\n        /* \"#utility.yul\":970:992   */\n      add\n        /* \"#utility.yul\":949:1002   */\n      tag_124\n      jump\t// in\n    tag_163:\n        /* \"#utility.yul\":939:1002   */\n      swap2\n      pop\n        /* \"#utility.yul\":895:1012   */\n      pop\n        /* \"#utility.yul\":690:1019   */\n      swap3\n      swap2\n      pop\n      pop\n      jump\t// out\n        /* \"#utility.yul\":1025:1151   */\n    tag_125:\n        /* \"#utility.yul\":1062:1069   */\n      0x00\n        /* \"#utility.yul\":1102:1144   */\n      0xffffffffffffffffffffffffffffffffffffffff\n        /* \"#utility.yul\":1095:1100   */\n      dup3\n        /* \"#utility.yul\":1091:1145   */\n      and\n        /* \"#utility.yul\":1080:1145   */\n      swap1\n      pop\n        /* \"#utility.yul\":1025:1151   */\n      swap2\n      swap1\n      pop\n      jump\t// out\n        /* \"#utility.yul\":1157:1253   */\n    tag_126:\n        /* \"#utility.yul\":1194:1201   */\n      0x00\n        /* \"#utility.yul\":1223:1247   */\n      tag_166\n        /* \"#utility.yul\":1241:1246   */\n      dup3\n        /* \"#utility.yul\":1223:1247   */\n      tag_125\n      jump\t// in\n    tag_166:\n        /* \"#utility.yul\":1212:1247   */\n      swap1\n      pop\n        /* \"#utility.yul\":1157:1253   */\n      swap2\n      swap1\n      pop\n      jump\t// out\n        /* \"#utility.yul\":1259:1377   */\n    tag_127:\n        /* \"#utility.yul\":1346:1370   */\n      tag_168\n        /* \"#utility.yul\":1364:1369   */\n      dup2\n        /* \"#utility.yul\":1346:1370   */\n      tag_126\n      jump\t// in\n    tag_168:\n        /* \"#utility.yul\":1341:1344   */\n      dup3\n        /* \"#utility.yul\":1334:1371   */\n      mstore\n        /* \"#utility.yul\":1259:1377   */\n      pop\n      pop\n      jump\t// out\n        /* \"#utility.yul\":1383:1605   */\n    tag_20:\n        /* \"#utility.yul\":1476:1480   */\n      0x00\n        /* \"#utility.yul\":1514:1516   */\n      0x20\n        /* \"#utility.yul\":1503:1512   */\n      dup3\n        /* \"#utility.yul\":1499:1517   */\n      add\n        /* \"#utility.yul\":1491:1517   */\n      swap1\n      pop\n        /* \"#utility.yul\":1527:1598   */\n      tag_170\n        /* \"#utility.yul\":1595:1596   */\n      0x00\n        /* \"#utility.yul\":1584:1593   */\n      dup4\n        /* \"#utility.yul\":1580:1597   */\n      add\n        /* \"#utility.yul\":1571:1577   */\n      dup5\n        /* \"#utility.yul\":1527:1598   */\n      tag_127\n      jump\t// in\n    tag_170:\n        /* \"#utility.yul\":1383:1605   */\n      swap3\n      swap2\n      pop\n      pop\n      jump\t// out\n        /* \"#utility.yul\":1611:1701   */\n    tag_128:\n        /* \"#utility.yul\":1645:1652   */\n      0x00\n        /* \"#utility.yul\":1688:1693   */\n      dup2\n        /* \"#utility.yul\":1681:1694   */\n      iszero\n        /* \"#utility.yul\":1674:1695   */\n      iszero\n        /* \"#utility.yul\":1663:1695   */\n      swap1\n      pop\n        /* \"#utility.yul\":1611:1701   */\n      swap2\n      swap1\n      pop\n      jump\t// out\n        /* \"#utility.yul\":1707:1816   */\n    tag_129:\n        /* \"#utility.yul\":1788:1809   */\n      tag_173\n        /* \"#utility.yul\":1803:1808   */\n      dup2\n        /* \"#utility.yul\":1788:1809   */\n      tag_128\n      jump\t// in\n    tag_173:\n        /* \"#utility.yul\":1783:1786   */\n      dup3\n        /* \"#utility.yul\":1776:1810   */\n      mstore\n        /* \"#utility.yul\":1707:1816   */\n      pop\n      pop\n      jump\t// out\n        /* \"#utility.yul\":1822:2032   */\n    tag_31:\n        /* \"#utility.yul\":1909:1913   */\n      0x00\n        /* \"#utility.yul\":1947:1949   */\n      0x20\n        /* \"#utility.yul\":1936:1945   */\n      dup3\n        /* \"#utility.yul\":1932:1950   */\n      add\n        /* \"#utility.yul\":1924:1950   */\n      swap1\n      pop\n        /* \"#utility.yul\":1960:2025   */\n      tag_175\n        /* \"#utility.yul\":2022:2023   */\n      0x00\n        /* \"#utility.yul\":2011:2020   */\n      dup4\n        /* \"#utility.yul\":2007:2024   */\n      add\n        /* \"#utility.yul\":1998:2004   */\n      dup5\n        /* \"#utility.yul\":1960:2025   */\n      tag_129\n      jump\t// in\n    tag_175:\n        /* \"#utility.yul\":1822:2032   */\n      swap3\n      swap2\n      pop\n      pop\n      jump\t// out\n        /* \"#utility.yul\":2038:2156   */\n    tag_130:\n        /* \"#utility.yul\":2125:2149   */\n      tag_177\n        /* \"#utility.yul\":2143:2148   */\n      dup2\n        /* \"#utility.yul\":2125:2149   */\n      tag_122\n      jump\t// in\n    tag_177:\n        /* \"#utility.yul\":2120:2123   */\n      dup3\n        /* \"#utility.yul\":2113:2150   */\n      mstore\n        /* \"#utility.yul\":2038:2156   */\n      pop\n      pop\n      jump\t// out\n        /* \"#utility.yul\":2162:2384   */\n    tag_47:\n        /* \"#utility.yul\":2255:2259   */\n      0x00\n        /* \"#utility.yul\":2293:2295   */\n      0x20\n        /* \"#utility.yul\":2282:2291   */\n      dup3\n        /* \"#utility.yul\":2278:2296   */\n      add\n        /* \"#utility.yul\":2270:2296   */\n      swap1\n      pop\n        /* \"#utility.yul\":2306:2377   */\n      tag_179\n        /* \"#utility.yul\":2374:2375   */\n      0x00\n        /* \"#utility.yul\":2363:2372   */\n      dup4\n        /* \"#utility.yul\":2359:2376   */\n      add\n        /* \"#utility.yul\":2350:2356   */\n      dup5\n        /* \"#utility.yul\":2306:2377   */\n      tag_130\n      jump\t// in\n    tag_179:\n        /* \"#utility.yul\":2162:2384   */\n      swap3\n      swap2\n      pop\n      pop\n      jump\t// out\n        /* \"#utility.yul\":2390:2512   */\n    tag_131:\n        /* \"#utility.yul\":2463:2487   */\n      tag_181\n        /* \"#utility.yul\":2481:2486   */\n      dup2\n        /* \"#utility.yul\":2463:2487   */\n      tag_126\n      jump\t// in\n    tag_181:\n        /* \"#utility.yul\":2456:2461   */\n      dup2\n        /* \"#utility.yul\":2453:2488   */\n      eq\n        /* \"#utility.yul\":2443:2506   */\n      tag_182\n      jumpi\n        /* \"#utility.yul\":2502:2503   */\n      0x00\n        /* \"#utility.yul\":2499:2500   */\n      dup1\n        /* \"#utility.yul\":2492:2504   */\n      revert\n        /* \"#utility.yul\":2443:2506   */\n    tag_182:\n        /* \"#utility.yul\":2390:2512   */\n      pop\n      jump\t// out\n        /* \"#utility.yul\":2518:2657   */\n    tag_132:\n        /* \"#utility.yul\":2564:2569   */\n      0x00\n        /* \"#utility.yul\":2602:2608   */\n      dup2\n        /* \"#utility.yul\":2589:2609   */\n      calldataload\n        /* \"#utility.yul\":2580:2609   */\n      swap1\n      pop\n        /* \"#utility.yul\":2618:2651   */\n      tag_184\n        /* \"#utility.yul\":2645:2650   */\n      dup2\n        /* \"#utility.yul\":2618:2651   */\n      tag_131\n      jump\t// in\n    tag_184:\n        /* \"#utility.yul\":2518:2657   */\n      swap3\n      swap2\n      pop\n      pop\n      jump\t// out\n        /* \"#utility.yul\":2663:3137   */\n    tag_51:\n        /* \"#utility.yul\":2731:2737   */\n      0x00\n        /* \"#utility.yul\":2739:2745   */\n      dup1\n        /* \"#utility.yul\":2788:2790   */\n      0x40\n        /* \"#utility.yul\":2776:2785   */\n      dup4\n        /* \"#utility.yul\":2767:2774   */\n      dup6\n        /* \"#utility.yul\":2763:2786   */\n      sub\n        /* \"#utility.yul\":2759:2791   */\n      slt\n        /* \"#utility.yul\":2756:2875   */\n      iszero\n      tag_186\n      jumpi\n        /* \"#utility.yul\":2794:2873   */\n      tag_187\n      tag_120\n      jump\t// in\n    tag_187:\n        /* \"#utility.yul\":2756:2875   */\n    tag_186:\n        /* \"#utility.yul\":2914:2915   */\n      0x00\n        /* \"#utility.yul\":2939:2992   */\n      tag_188\n        /* \"#utility.yul\":2984:2991   */\n      dup6\n        /* \"#utility.yul\":2975:2981   */\n      dup3\n        /* \"#utility.yul\":2964:2973   */\n      dup7\n        /* \"#utility.yul\":2960:2982   */\n      add\n        /* \"#utility.yul\":2939:2992   */\n      tag_132\n      jump\t// in\n    tag_188:\n        /* \"#utility.yul\":2929:2992   */\n      swap3\n      pop\n        /* \"#utility.yul\":2885:3002   */\n      pop\n        /* \"#utility.yul\":3041:3043   */\n      0x20\n        /* \"#utility.yul\":3067:3120   */\n      tag_189\n        /* \"#utility.yul\":3112:3119   */\n      dup6\n        /* \"#utility.yul\":3103:3109   */\n      dup3\n        /* \"#utility.yul\":3092:3101   */\n      dup7\n        /* \"#utility.yul\":3088:3110   */\n      add\n        /* \"#utility.yul\":3067:3120   */\n      tag_124\n      jump\t// in\n    tag_189:\n        /* \"#utility.yul\":3057:3120   */\n      swap2\n      pop\n        /* \"#utility.yul\":3012:3130   */\n      pop\n        /* \"#utility.yul\":2663:3137   */\n      swap3\n      pop\n      swap3\n      swap1\n      pop\n      jump\t// out\n        /* \"#utility.yul\":3143:3472   */\n    tag_58:\n        /* \"#utility.yul\":3202:3208   */\n      0x00\n        /* \"#utility.yul\":3251:3253   */\n      0x20\n        /* \"#utility.yul\":3239:3248   */\n      dup3\n        /* \"#utility.yul\":3230:3237   */\n      dup5\n        /* \"#utility.yul\":3226:3249   */\n      sub\n        /* \"#utility.yul\":3222:3254   */\n      slt\n        /* \"#utility.yul\":3219:3338   */\n      iszero\n      tag_191\n      jumpi\n        /* \"#utility.yul\":3257:3336   */\n      tag_192\n      tag_120\n      jump\t// in\n    tag_192:\n        /* \"#utility.yul\":3219:3338   */\n    tag_191:\n        /* \"#utility.yul\":3377:3378   */\n      0x00\n        /* \"#utility.yul\":3402:3455   */\n      tag_193\n        /* \"#utility.yul\":3447:3454   */\n      dup5\n        /* \"#utility.yul\":3438:3444   */\n      dup3\n        /* \"#utility.yul\":3427:3436   */\n      dup6\n        /* \"#utility.yul\":3423:3445   */\n      add\n        /* \"#utility.yul\":3402:3455   */\n      tag_132\n      jump\t// in\n    tag_193:\n        /* \"#utility.yul\":3392:3455   */\n      swap2\n      pop\n        /* \"#utility.yul\":3348:3465   */\n      pop\n        /* \"#utility.yul\":3143:3472   */\n      swap3\n      swap2\n      pop\n      pop\n      jump\t// out\n        /* \"#utility.yul\":3478:3908   */\n    tag_61:\n        /* \"#utility.yul\":3621:3625   */\n      0x00\n        /* \"#utility.yul\":3659:3661   */\n      0x60\n        /* \"#utility.yul\":3648:3657   */\n      dup3\n        /* \"#utility.yul\":3644:3662   */\n      add\n        /* \"#utility.yul\":3636:3662   */\n      swap1\n      pop\n        /* \"#utility.yul\":3672:3743   */\n      tag_195\n        /* \"#utility.yul\":3740:3741   */\n      0x00\n        /* \"#utility.yul\":3729:3738   */\n      dup4\n        /* \"#utility.yul\":3725:3742   */\n      add\n        /* \"#utility.yul\":3716:3722   */\n      dup7\n        /* \"#utility.yul\":3672:3743   */\n      tag_127\n      jump\t// in\n    tag_195:\n        /* \"#utility.yul\":3753:3825   */\n      tag_196\n        /* \"#utility.yul\":3821:3823   */\n      0x20\n        /* \"#utility.yul\":3810:3819   */\n      dup4\n        /* \"#utility.yul\":3806:3824   */\n      add\n        /* \"#utility.yul\":3797:3803   */\n      dup6\n        /* \"#utility.yul\":3753:3825   */\n      tag_130\n      jump\t// in\n    tag_196:\n        /* \"#utility.yul\":3835:3901   */\n      tag_197\n        /* \"#utility.yul\":3897:3899   */\n      0x40\n        /* \"#utility.yul\":3886:3895   */\n      dup4\n        /* \"#utility.yul\":3882:3900   */\n      add\n        /* \"#utility.yul\":3873:3879   */\n      dup5\n        /* \"#utility.yul\":3835:3901   */\n      tag_129\n      jump\t// in\n    tag_197:\n        /* \"#utility.yul\":3478:3908   */\n      swap5\n      swap4\n      pop\n      pop\n      pop\n      pop\n      jump\t// out\n        /* \"#utility.yul\":3914:4083   */\n    tag_133:\n        /* \"#utility.yul\":3998:4009   */\n      0x00\n        /* \"#utility.yul\":4032:4038   */\n      dup3\n        /* \"#utility.yul\":4027:4030   */\n      dup3\n        /* \"#utility.yul\":4020:4039   */\n      mstore\n        /* \"#utility.yul\":4072:4076   */\n      0x20\n        /* \"#utility.yul\":4067:4070   */\n      dup3\n        /* \"#utility.yul\":4063:4077   */\n      add\n        /* \"#utility.yul\":4048:4077   */\n      swap1\n      pop\n        /* \"#utility.yul\":3914:4083   */\n      swap3\n      swap2\n      pop\n      pop\n      jump\t// out\n        /* \"#utility.yul\":4089:4263   */\n    tag_134:\n        /* \"#utility.yul\":4229:4255   */\n      0x546865206f776e6572206973207374696c6c20616c6976650000000000000000\n        /* \"#utility.yul\":4225:4226   */\n      0x00\n        /* \"#utility.yul\":4217:4223   */\n      dup3\n        /* \"#utility.yul\":4213:4227   */\n      add\n        /* \"#utility.yul\":4206:4256   */\n      mstore\n        /* \"#utility.yul\":4089:4263   */\n      pop\n      jump\t// out\n        /* \"#utility.yul\":4269:4635   */\n    tag_135:\n        /* \"#utility.yul\":4411:4414   */\n      0x00\n        /* \"#utility.yul\":4432:4499   */\n      tag_201\n        /* \"#utility.yul\":4496:4498   */\n      0x18\n        /* \"#utility.yul\":4491:4494   */\n      dup4\n        /* \"#utility.yul\":4432:4499   */\n      tag_133\n      jump\t// in\n    tag_201:\n        /* \"#utility.yul\":4425:4499   */\n      swap2\n      pop\n        /* \"#utility.yul\":4508:4601   */\n      tag_202\n        /* \"#utility.yul\":4597:4600   */\n      dup3\n        /* \"#utility.yul\":4508:4601   */\n      tag_134\n      jump\t// in\n    tag_202:\n        /* \"#utility.yul\":4626:4628   */\n      0x20\n        /* \"#utility.yul\":4621:4624   */\n      dup3\n        /* \"#utility.yul\":4617:4629   */\n      add\n        /* \"#utility.yul\":4610:4629   */\n      swap1\n      pop\n        /* \"#utility.yul\":4269:4635   */\n      swap2\n      swap1\n      pop\n      jump\t// out\n        /* \"#utility.yul\":4641:5060   */\n    tag_67:\n        /* \"#utility.yul\":4807:4811   */\n      0x00\n        /* \"#utility.yul\":4845:4847   */\n      0x20\n        /* \"#utility.yul\":4834:4843   */\n      dup3\n        /* \"#utility.yul\":4830:4848   */\n      add\n        /* \"#utility.yul\":4822:4848   */\n      swap1\n      pop\n        /* \"#utility.yul\":4894:4903   */\n      dup2\n        /* \"#utility.yul\":4888:4892   */\n      dup2\n        /* \"#utility.yul\":4884:4904   */\n      sub\n        /* \"#utility.yul\":4880:4881   */\n      0x00\n        /* \"#utility.yul\":4869:4878   */\n      dup4\n        /* \"#utility.yul\":4865:4882   */\n      add\n        /* \"#utility.yul\":4858:4905   */\n      mstore\n        /* \"#utility.yul\":4922:5053   */\n      tag_204\n        /* \"#utility.yul\":5048:5052   */\n      dup2\n        /* \"#utility.yul\":4922:5053   */\n      tag_135\n      jump\t// in\n    tag_204:\n        /* \"#utility.yul\":4914:5053   */\n      swap1\n      pop\n        /* \"#utility.yul\":4641:5060   */\n      swap2\n      swap1\n      pop\n      jump\t// out\n        /* \"#utility.yul\":5066:5236   */\n    tag_136:\n        /* \"#utility.yul\":5206:5228   */\n      0x4e6f2066756e647320696e2074686520706f6f6c000000000000000000000000\n        /* \"#utility.yul\":5202:5203   */\n      0x00\n        /* \"#utility.yul\":5194:5200   */\n      dup3\n        /* \"#utility.yul\":5190:5204   */\n      add\n        /* \"#utility.yul\":5183:5229   */\n      mstore\n        /* \"#utility.yul\":5066:5236   */\n      pop\n      jump\t// out\n        /* \"#utility.yul\":5242:5608   */\n    tag_137:\n        /* \"#utility.yul\":5384:5387   */\n      0x00\n        /* \"#utility.yul\":5405:5472   */\n      tag_207\n        /* \"#utility.yul\":5469:5471   */\n      0x14\n        /* \"#utility.yul\":5464:5467   */\n      dup4\n        /* \"#utility.yul\":5405:5472   */\n      tag_133\n      jump\t// in\n    tag_207:\n        /* \"#utility.yul\":5398:5472   */\n      swap2\n      pop\n        /* \"#utility.yul\":5481:5574   */\n      tag_208\n        /* \"#utility.yul\":5570:5573   */\n      dup3\n        /* \"#utility.yul\":5481:5574   */\n      tag_136\n      jump\t// in\n    tag_208:\n        /* \"#utility.yul\":5599:5601   */\n      0x20\n        /* \"#utility.yul\":5594:5597   */\n      dup3\n        /* \"#utility.yul\":5590:5602   */\n      add\n        /* \"#utility.yul\":5583:5602   */\n      swap1\n      pop\n        /* \"#utility.yul\":5242:5608   */\n      swap2\n      swap1\n      pop\n      jump\t// out\n        /* \"#utility.yul\":5614:6033   */\n    tag_71:\n        /* \"#utility.yul\":5780:5784   */\n      0x00\n        /* \"#utility.yul\":5818:5820   */\n      0x20\n        /* \"#utility.yul\":5807:5816   */\n      dup3\n        /* \"#utility.yul\":5803:5821   */\n      add\n        /* \"#utility.yul\":5795:5821   */\n      swap1\n      pop\n        /* \"#utility.yul\":5867:5876   */\n      dup2\n        /* \"#utility.yul\":5861:5865   */\n      dup2\n        /* \"#utility.yul\":5857:5877   */\n      sub\n        /* \"#utility.yul\":5853:5854   */\n      0x00\n        /* \"#utility.yul\":5842:5851   */\n      dup4\n        /* \"#utility.yul\":5838:5855   */\n      add\n        /* \"#utility.yul\":5831:5878   */\n      mstore\n        /* \"#utility.yul\":5895:6026   */\n      tag_210\n        /* \"#utility.yul\":6021:6025   */\n      dup2\n        /* \"#utility.yul\":5895:6026   */\n      tag_137\n      jump\t// in\n    tag_210:\n        /* \"#utility.yul\":5887:6026   */\n      swap1\n      pop\n        /* \"#utility.yul\":5614:6033   */\n      swap2\n      swap1\n      pop\n      jump\t// out\n        /* \"#utility.yul\":6039:6217   */\n    tag_138:\n        /* \"#utility.yul\":6179:6209   */\n      0x45786163746c7920322068656972732061726520726571756972656400000000\n        /* \"#utility.yul\":6175:6176   */\n      0x00\n        /* \"#utility.yul\":6167:6173   */\n      dup3\n        /* \"#utility.yul\":6163:6177   */\n      add\n        /* \"#utility.yul\":6156:6210   */\n      mstore\n        /* \"#utility.yul\":6039:6217   */\n      pop\n      jump\t// out\n        /* \"#utility.yul\":6223:6589   */\n    tag_139:\n        /* \"#utility.yul\":6365:6368   */\n      0x00\n        /* \"#utility.yul\":6386:6453   */\n      tag_213\n        /* \"#utility.yul\":6450:6452   */\n      0x1c\n        /* \"#utility.yul\":6445:6448   */\n      dup4\n        /* \"#utility.yul\":6386:6453   */\n      tag_133\n      jump\t// in\n    tag_213:\n        /* \"#utility.yul\":6379:6453   */\n      swap2\n      pop\n        /* \"#utility.yul\":6462:6555   */\n      tag_214\n        /* \"#utility.yul\":6551:6554   */\n      dup3\n        /* \"#utility.yul\":6462:6555   */\n      tag_138\n      jump\t// in\n    tag_214:\n        /* \"#utility.yul\":6580:6582   */\n      0x20\n        /* \"#utility.yul\":6575:6578   */\n      dup3\n        /* \"#utility.yul\":6571:6583   */\n      add\n        /* \"#utility.yul\":6564:6583   */\n      swap1\n      pop\n        /* \"#utility.yul\":6223:6589   */\n      swap2\n      swap1\n      pop\n      jump\t// out\n        /* \"#utility.yul\":6595:7014   */\n    tag_74:\n        /* \"#utility.yul\":6761:6765   */\n      0x00\n        /* \"#utility.yul\":6799:6801   */\n      0x20\n        /* \"#utility.yul\":6788:6797   */\n      dup3\n        /* \"#utility.yul\":6784:6802   */\n      add\n        /* \"#utility.yul\":6776:6802   */\n      swap1\n      pop\n        /* \"#utility.yul\":6848:6857   */\n      dup2\n        /* \"#utility.yul\":6842:6846   */\n      dup2\n        /* \"#utility.yul\":6838:6858   */\n      sub\n        /* \"#utility.yul\":6834:6835   */\n      0x00\n        /* \"#utility.yul\":6823:6832   */\n      dup4\n        /* \"#utility.yul\":6819:6836   */\n      add\n        /* \"#utility.yul\":6812:6859   */\n      mstore\n        /* \"#utility.yul\":6876:7007   */\n      tag_216\n        /* \"#utility.yul\":7002:7006   */\n      dup2\n        /* \"#utility.yul\":6876:7007   */\n      tag_139\n      jump\t// in\n    tag_216:\n        /* \"#utility.yul\":6868:7007   */\n      swap1\n      pop\n        /* \"#utility.yul\":6595:7014   */\n      swap2\n      swap1\n      pop\n      jump\t// out\n        /* \"#utility.yul\":7020:7200   */\n    tag_80:\n        /* \"#utility.yul\":7068:7145   */\n      0x4e487b7100000000000000000000000000000000000000000000000000000000\n        /* \"#utility.yul\":7065:7066   */\n      0x00\n        /* \"#utility.yul\":7058:7146   */\n      mstore\n        /* \"#utility.yul\":7165:7169   */\n      0x32\n        /* \"#utility.yul\":7162:7163   */\n      0x04\n        /* \"#utility.yul\":7155:7170   */\n      mstore\n        /* \"#utility.yul\":7189:7193   */\n      0x24\n        /* \"#utility.yul\":7186:7187   */\n      0x00\n        /* \"#utility.yul\":7179:7194   */\n      revert\n        /* \"#utility.yul\":7206:7386   */\n    tag_140:\n        /* \"#utility.yul\":7254:7331   */\n      0x4e487b7100000000000000000000000000000000000000000000000000000000\n        /* \"#utility.yul\":7251:7252   */\n      0x00\n        /* \"#utility.yul\":7244:7332   */\n      mstore\n        /* \"#utility.yul\":7351:7355   */\n      0x11\n        /* \"#utility.yul\":7348:7349   */\n      0x04\n        /* \"#utility.yul\":7341:7356   */\n      mstore\n        /* \"#utility.yul\":7375:7379   */\n      0x24\n        /* \"#utility.yul\":7372:7373   */\n      0x00\n        /* \"#utility.yul\":7365:7380   */\n      revert\n        /* \"#utility.yul\":7392:7802   */\n    tag_83:\n        /* \"#utility.yul\":7432:7439   */\n      0x00\n        /* \"#utility.yul\":7455:7475   */\n      tag_220\n        /* \"#utility.yul\":7473:7474   */\n      dup3\n        /* \"#utility.yul\":7455:7475   */\n      tag_122\n      jump\t// in\n    tag_220:\n        /* \"#utility.yul\":7450:7475   */\n      swap2\n      pop\n        /* \"#utility.yul\":7489:7509   */\n      tag_221\n        /* \"#utility.yul\":7507:7508   */\n      dup4\n        /* \"#utility.yul\":7489:7509   */\n      tag_122\n      jump\t// in\n    tag_221:\n        /* \"#utility.yul\":7484:7509   */\n      swap3\n      pop\n        /* \"#utility.yul\":7544:7545   */\n      dup3\n        /* \"#utility.yul\":7541:7542   */\n      dup3\n        /* \"#utility.yul\":7537:7546   */\n      mul\n        /* \"#utility.yul\":7566:7596   */\n      tag_222\n        /* \"#utility.yul\":7584:7595   */\n      dup2\n        /* \"#utility.yul\":7566:7596   */\n      tag_122\n      jump\t// in\n    tag_222:\n        /* \"#utility.yul\":7555:7596   */\n      swap2\n      pop\n        /* \"#utility.yul\":7745:7746   */\n      dup3\n        /* \"#utility.yul\":7736:7743   */\n      dup3\n        /* \"#utility.yul\":7732:7747   */\n      div\n        /* \"#utility.yul\":7729:7730   */\n      dup5\n        /* \"#utility.yul\":7726:7748   */\n      eq\n        /* \"#utility.yul\":7706:7707   */\n      dup4\n        /* \"#utility.yul\":7699:7708   */\n      iszero\n        /* \"#utility.yul\":7679:7762   */\n      or\n        /* \"#utility.yul\":7656:7795   */\n      tag_223\n      jumpi\n        /* \"#utility.yul\":7775:7793   */\n      tag_224\n      tag_140\n      jump\t// in\n    tag_224:\n        /* \"#utility.yul\":7656:7795   */\n    tag_223:\n        /* \"#utility.yul\":7440:7802   */\n      pop\n        /* \"#utility.yul\":7392:7802   */\n      swap3\n      swap2\n      pop\n      pop\n      jump\t// out\n        /* \"#utility.yul\":7808:7988   */\n    tag_141:\n        /* \"#utility.yul\":7856:7933   */\n      0x4e487b7100000000000000000000000000000000000000000000000000000000\n        /* \"#utility.yul\":7853:7854   */\n      0x00\n        /* \"#utility.yul\":7846:7934   */\n      mstore\n        /* \"#utility.yul\":7953:7957   */\n      0x12\n        /* \"#utility.yul\":7950:7951   */\n      0x04\n        /* \"#utility.yul\":7943:7958   */\n      mstore\n        /* \"#utility.yul\":7977:7981   */\n      0x24\n        /* \"#utility.yul\":7974:7975   */\n      0x00\n        /* \"#utility.yul\":7967:7982   */\n      revert\n        /* \"#utility.yul\":7994:8179   */\n    tag_85:\n        /* \"#utility.yul\":8034:8035   */\n      0x00\n        /* \"#utility.yul\":8051:8071   */\n      tag_227\n        /* \"#utility.yul\":8069:8070   */\n      dup3\n        /* \"#utility.yul\":8051:8071   */\n      tag_122\n      jump\t// in\n    tag_227:\n        /* \"#utility.yul\":8046:8071   */\n      swap2\n      pop\n        /* \"#utility.yul\":8085:8105   */\n      tag_228\n        /* \"#utility.yul\":8103:8104   */\n      dup4\n        /* \"#utility.yul\":8085:8105   */\n      tag_122\n      jump\t// in\n    tag_228:\n        /* \"#utility.yul\":8080:8105   */\n      swap3\n      pop\n        /* \"#utility.yul\":8124:8125   */\n      dup3\n        /* \"#utility.yul\":8114:8149   */\n      tag_229\n      jumpi\n        /* \"#utility.yul\":8129:8147   */\n      tag_230\n      tag_141\n      jump\t// in\n    tag_230:\n        /* \"#utility.yul\":8114:8149   */\n    tag_229:\n        /* \"#utility.yul\":8171:8172   */\n      dup3\n        /* \"#utility.yul\":8168:8169   */\n      dup3\n        /* \"#utility.yul\":8164:8173   */\n      div\n        /* \"#utility.yul\":8159:8173   */\n      swap1\n      pop\n        /* \"#utility.yul\":7994:8179   */\n      swap3\n      swap2\n      pop\n      pop\n      jump\t// out\n        /* \"#utility.yul\":8185:8410   */\n    tag_142:\n        /* \"#utility.yul\":8325:8359   */\n      0x4f6e6c7920746865206f776e65722063616e20706572666f726d207468697320\n        /* \"#utility.yul\":8321:8322   */\n      0x00\n        /* \"#utility.yul\":8313:8319   */\n      dup3\n        /* \"#utility.yul\":8309:8323   */\n      add\n        /* \"#utility.yul\":8302:8360   */\n      mstore\n        /* \"#utility.yul\":8394:8402   */\n      0x616374696f6e0000000000000000000000000000000000000000000000000000\n        /* \"#utility.yul\":8389:8391   */\n      0x20\n        /* \"#utility.yul\":8381:8387   */\n      dup3\n        /* \"#utility.yul\":8377:8392   */\n      add\n        /* \"#utility.yul\":8370:8403   */\n      mstore\n        /* \"#utility.yul\":8185:8410   */\n      pop\n      jump\t// out\n        /* \"#utility.yul\":8416:8782   */\n    tag_143:\n        /* \"#utility.yul\":8558:8561   */\n      0x00\n        /* \"#utility.yul\":8579:8646   */\n      tag_233\n        /* \"#utility.yul\":8643:8645   */\n      0x26\n        /* \"#utility.yul\":8638:8641   */\n      dup4\n        /* \"#utility.yul\":8579:8646   */\n      tag_133\n      jump\t// in\n    tag_233:\n        /* \"#utility.yul\":8572:8646   */\n      swap2\n      pop\n        /* \"#utility.yul\":8655:8748   */\n      tag_234\n        /* \"#utility.yul\":8744:8747   */\n      dup3\n        /* \"#utility.yul\":8655:8748   */\n      tag_142\n      jump\t// in\n    tag_234:\n        /* \"#utility.yul\":8773:8775   */\n      0x40\n        /* \"#utility.yul\":8768:8771   */\n      dup3\n        /* \"#utility.yul\":8764:8776   */\n      add\n        /* \"#utility.yul\":8757:8776   */\n      swap1\n      pop\n        /* \"#utility.yul\":8416:8782   */\n      swap2\n      swap1\n      pop\n      jump\t// out\n        /* \"#utility.yul\":8788:9207   */\n    tag_91:\n        /* \"#utility.yul\":8954:8958   */\n      0x00\n        /* \"#utility.yul\":8992:8994   */\n      0x20\n        /* \"#utility.yul\":8981:8990   */\n      dup3\n        /* \"#utility.yul\":8977:8995   */\n      add\n        /* \"#utility.yul\":8969:8995   */\n      swap1\n      pop\n        /* \"#utility.yul\":9041:9050   */\n      dup2\n        /* \"#utility.yul\":9035:9039   */\n      dup2\n        /* \"#utility.yul\":9031:9051   */\n      sub\n        /* \"#utility.yul\":9027:9028   */\n      0x00\n        /* \"#utility.yul\":9016:9025   */\n      dup4\n        /* \"#utility.yul\":9012:9029   */\n      add\n        /* \"#utility.yul\":9005:9052   */\n      mstore\n        /* \"#utility.yul\":9069:9200   */\n      tag_236\n        /* \"#utility.yul\":9195:9199   */\n      dup2\n        /* \"#utility.yul\":9069:9200   */\n      tag_143\n      jump\t// in\n    tag_236:\n        /* \"#utility.yul\":9061:9200   */\n      swap1\n      pop\n        /* \"#utility.yul\":8788:9207   */\n      swap2\n      swap1\n      pop\n      jump\t// out\n        /* \"#utility.yul\":9213:9394   */\n    tag_144:\n        /* \"#utility.yul\":9353:9386   */\n      0x5368617265206d757374206265206265747765656e203120616e642031303000\n        /* \"#utility.yul\":9349:9350   */\n      0x00\n        /* \"#utility.yul\":9341:9347   */\n      dup3\n        /* \"#utility.yul\":9337:9351   */\n      add\n        /* \"#utility.yul\":9330:9387   */\n      mstore\n        /* \"#utility.yul\":9213:9394   */\n      pop\n      jump\t// out\n        /* \"#utility.yul\":9400:9766   */\n    tag_145:\n        /* \"#utility.yul\":9542:9545   */\n      0x00\n        /* \"#utility.yul\":9563:9630   */\n      tag_239\n        /* \"#utility.yul\":9627:9629   */\n      0x1f\n        /* \"#utility.yul\":9622:9625   */\n      dup4\n        /* \"#utility.yul\":9563:9630   */\n      tag_133\n      jump\t// in\n    tag_239:\n        /* \"#utility.yul\":9556:9630   */\n      swap2\n      pop\n        /* \"#utility.yul\":9639:9732   */\n      tag_240\n        /* \"#utility.yul\":9728:9731   */\n      dup3\n        /* \"#utility.yul\":9639:9732   */\n      tag_144\n      jump\t// in\n    tag_240:\n        /* \"#utility.yul\":9757:9759   */\n      0x20\n        /* \"#utility.yul\":9752:9755   */\n      dup3\n        /* \"#utility.yul\":9748:9760   */\n      add\n        /* \"#utility.yul\":9741:9760   */\n      swap1\n      pop\n        /* \"#utility.yul\":9400:9766   */\n      swap2\n      swap1\n      pop\n      jump\t// out\n        /* \"#utility.yul\":9772:10191   */\n    tag_105:\n        /* \"#utility.yul\":9938:9942   */\n      0x00\n        /* \"#utility.yul\":9976:9978   */\n      0x20\n        /* \"#utility.yul\":9965:9974   */\n      dup3\n        /* \"#utility.yul\":9961:9979   */\n      add\n        /* \"#utility.yul\":9953:9979   */\n      swap1\n      pop\n        /* \"#utility.yul\":10025:10034   */\n      dup2\n        /* \"#utility.yul\":10019:10023   */\n      dup2\n        /* \"#utility.yul\":10015:10035   */\n      sub\n        /* \"#utility.yul\":10011:10012   */\n      0x00\n        /* \"#utility.yul\":10000:10009   */\n      dup4\n        /* \"#utility.yul\":9996:10013   */\n      add\n        /* \"#utility.yul\":9989:10036   */\n      mstore\n        /* \"#utility.yul\":10053:10184   */\n      tag_242\n        /* \"#utility.yul\":10179:10183   */\n      dup2\n        /* \"#utility.yul\":10053:10184   */\n      tag_145\n      jump\t// in\n    tag_242:\n        /* \"#utility.yul\":10045:10184   */\n      swap1\n      pop\n        /* \"#utility.yul\":9772:10191   */\n      swap2\n      swap1\n      pop\n      jump\t// out\n        /* \"#utility.yul\":10197:10367   */\n    tag_146:\n        /* \"#utility.yul\":10337:10359   */\n      0x43616e206f6e6c79206164642032206865697273000000000000000000000000\n        /* \"#utility.yul\":10333:10334   */\n      0x00\n        /* \"#utility.yul\":10325:10331   */\n      dup3\n        /* \"#utility.yul\":10321:10335   */\n      add\n        /* \"#utility.yul\":10314:10360   */\n      mstore\n        /* \"#utility.yul\":10197:10367   */\n      pop\n      jump\t// out\n        /* \"#utility.yul\":10373:10739   */\n    tag_147:\n        /* \"#utility.yul\":10515:10518   */\n      0x00\n        /* \"#utility.yul\":10536:10603   */\n      tag_245\n        /* \"#utility.yul\":10600:10602   */\n      0x14\n        /* \"#utility.yul\":10595:10598   */\n      dup4\n        /* \"#utility.yul\":10536:10603   */\n      tag_133\n      jump\t// in\n    tag_245:\n        /* \"#utility.yul\":10529:10603   */\n      swap2\n      pop\n        /* \"#utility.yul\":10612:10705   */\n      tag_246\n        /* \"#utility.yul\":10701:10704   */\n      dup3\n        /* \"#utility.yul\":10612:10705   */\n      tag_146\n      jump\t// in\n    tag_246:\n        /* \"#utility.yul\":10730:10732   */\n      0x20\n        /* \"#utility.yul\":10725:10728   */\n      dup3\n        /* \"#utility.yul\":10721:10733   */\n      add\n        /* \"#utility.yul\":10714:10733   */\n      swap1\n      pop\n        /* \"#utility.yul\":10373:10739   */\n      swap2\n      swap1\n      pop\n      jump\t// out\n        /* \"#utility.yul\":10745:11164   */\n    tag_108:\n        /* \"#utility.yul\":10911:10915   */\n      0x00\n        /* \"#utility.yul\":10949:10951   */\n      0x20\n        /* \"#utility.yul\":10938:10947   */\n      dup3\n        /* \"#utility.yul\":10934:10952   */\n      add\n        /* \"#utility.yul\":10926:10952   */\n      swap1\n      pop\n        /* \"#utility.yul\":10998:11007   */\n      dup2\n        /* \"#utility.yul\":10992:10996   */\n      dup2\n        /* \"#utility.yul\":10988:11008   */\n      sub\n        /* \"#utility.yul\":10984:10985   */\n      0x00\n        /* \"#utility.yul\":10973:10982   */\n      dup4\n        /* \"#utility.yul\":10969:10986   */\n      add\n        /* \"#utility.yul\":10962:11009   */\n      mstore\n        /* \"#utility.yul\":11026:11157   */\n      tag_248\n        /* \"#utility.yul\":11152:11156   */\n      dup2\n        /* \"#utility.yul\":11026:11157   */\n      tag_147\n      jump\t// in\n    tag_248:\n        /* \"#utility.yul\":11018:11157   */\n      swap1\n      pop\n        /* \"#utility.yul\":10745:11164   */\n      swap2\n      swap1\n      pop\n      jump\t// out\n        /* \"#utility.yul\":11170:11339   */\n    tag_148:\n        /* \"#utility.yul\":11310:11331   */\n      0x4865697220616c72656164792065786973747300000000000000000000000000\n        /* \"#utility.yul\":11306:11307   */\n      0x00\n        /* \"#utility.yul\":11298:11304   */\n      dup3\n        /* \"#utility.yul\":11294:11308   */\n      add\n        /* \"#utility.yul\":11287:11332   */\n      mstore\n        /* \"#utility.yul\":11170:11339   */\n      pop\n      jump\t// out\n        /* \"#utility.yul\":11345:11711   */\n    tag_149:\n        /* \"#utility.yul\":11487:11490   */\n      0x00\n        /* \"#utility.yul\":11508:11575   */\n      tag_251\n        /* \"#utility.yul\":11572:11574   */\n      0x13\n        /* \"#utility.yul\":11567:11570   */\n      dup4\n        /* \"#utility.yul\":11508:11575   */\n      tag_133\n      jump\t// in\n    tag_251:\n        /* \"#utility.yul\":11501:11575   */\n      swap2\n      pop\n        /* \"#utility.yul\":11584:11677   */\n      tag_252\n        /* \"#utility.yul\":11673:11676   */\n      dup3\n        /* \"#utility.yul\":11584:11677   */\n      tag_148\n      jump\t// in\n    tag_252:\n        /* \"#utility.yul\":11702:11704   */\n      0x20\n        /* \"#utility.yul\":11697:11700   */\n      dup3\n        /* \"#utility.yul\":11693:11705   */\n      add\n        /* \"#utility.yul\":11686:11705   */\n      swap1\n      pop\n        /* \"#utility.yul\":11345:11711   */\n      swap2\n      swap1\n      pop\n      jump\t// out\n        /* \"#utility.yul\":11717:12136   */\n    tag_111:\n        /* \"#utility.yul\":11883:11887   */\n      0x00\n        /* \"#utility.yul\":11921:11923   */\n      0x20\n        /* \"#utility.yul\":11910:11919   */\n      dup3\n        /* \"#utility.yul\":11906:11924   */\n      add\n        /* \"#utility.yul\":11898:11924   */\n      swap1\n      pop\n        /* \"#utility.yul\":11970:11979   */\n      dup2\n        /* \"#utility.yul\":11964:11968   */\n      dup2\n        /* \"#utility.yul\":11960:11980   */\n      sub\n        /* \"#utility.yul\":11956:11957   */\n      0x00\n        /* \"#utility.yul\":11945:11954   */\n      dup4\n        /* \"#utility.yul\":11941:11958   */\n      add\n        /* \"#utility.yul\":11934:11981   */\n      mstore\n        /* \"#utility.yul\":11998:12129   */\n      tag_254\n        /* \"#utility.yul\":12124:12128   */\n      dup2\n        /* \"#utility.yul\":11998:12129   */\n      tag_149\n      jump\t// in\n    tag_254:\n        /* \"#utility.yul\":11990:12129   */\n      swap1\n      pop\n        /* \"#utility.yul\":11717:12136   */\n      swap2\n      swap1\n      pop\n      jump\t// out\n        /* \"#utility.yul\":12142:12333   */\n    tag_118:\n        /* \"#utility.yul\":12182:12185   */\n      0x00\n        /* \"#utility.yul\":12201:12221   */\n      tag_256\n        /* \"#utility.yul\":12219:12220   */\n      dup3\n        /* \"#utility.yul\":12201:12221   */\n      tag_122\n      jump\t// in\n    tag_256:\n        /* \"#utility.yul\":12196:12221   */\n      swap2\n      pop\n        /* \"#utility.yul\":12235:12255   */\n      tag_257\n        /* \"#utility.yul\":12253:12254   */\n      dup4\n        /* \"#utility.yul\":12235:12255   */\n      tag_122\n      jump\t// in\n    tag_257:\n        /* \"#utility.yul\":12230:12255   */\n      swap3\n      pop\n        /* \"#utility.yul\":12278:12279   */\n      dup3\n        /* \"#utility.yul\":12275:12276   */\n      dup3\n        /* \"#utility.yul\":12271:12280   */\n      add\n        /* \"#utility.yul\":12264:12280   */\n      swap1\n      pop\n        /* \"#utility.yul\":12299:12302   */\n      dup1\n        /* \"#utility.yul\":12296:12297   */\n      dup3\n        /* \"#utility.yul\":12293:12303   */\n      gt\n        /* \"#utility.yul\":12290:12326   */\n      iszero\n      tag_258\n      jumpi\n        /* \"#utility.yul\":12306:12324   */\n      tag_259\n      tag_140\n      jump\t// in\n    tag_259:\n        /* \"#utility.yul\":12290:12326   */\n    tag_258:\n        /* \"#utility.yul\":12142:12333   */\n      swap3\n      swap2\n      pop\n      pop\n      jump\t// out\n\n    auxdata: 0xa2646970667358221220ad6cd5599ecae09d06c68dfcc5f7332b28eb3862fe0909f54cbdbcd34a5cd4bb64736f6c634300081a0033\n}\n",
				"bytecode": {
					"linkReferences": {},
					"object": "6080604052348015600e575f80fd5b50335f806101000a81548173ffffffffffffffffffffffffffffffffffffffff021916908373ffffffffffffffffffffffffffffffffffffffff160217905550600160025f6101000a81548160ff02191690831515021790555061104f806100755f395ff3fe60806040526004361061009b575f3560e01c8063893d20e811610063578063893d20e8146101475780638da5cb5b1461017157806396365d441461019b5780639cdd47f2146101c5578063a26759cb146101ed578063f45b587c146101f75761009b565b80634be2bab71461009f57806353a41b50146100db5780635e3faa41146100f1578063753899e91461010757806387740c0d14610131575b5f80fd5b3480156100aa575f80fd5b506100c560048036038101906100c09190610a3a565b610235565b6040516100d29190610aa4565b60405180910390f35b3480156100e6575f80fd5b506100ef610270565b005b3480156100fc575f80fd5b5061010561045d565b005b348015610112575f80fd5b5061011b610505565b6040516101289190610ad7565b60405180910390f35b34801561013c575f80fd5b50610145610517565b005b348015610152575f80fd5b5061015b6105c0565b6040516101689190610aa4565b60405180910390f35b34801561017c575f80fd5b506101856105e7565b6040516101929190610aa4565b60405180910390f35b3480156101a6575f80fd5b506101af61060a565b6040516101bc9190610aff565b60405180910390f35b3480156101d0575f80fd5b506101eb60048036038101906101e69190610b42565b610610565b005b6101f561090b565b005b348015610202575f80fd5b5061021d60048036038101906102189190610b80565b6109b2565b60405161022c93929190610bab565b60405180910390f35b60048181548110610244575f80fd5b905f5260205f20015f915054906101000a900473ffffffffffffffffffffffffffffffffffffffff1681565b5f151560025f9054906101000a900460ff161515146102c4576040517f08c379a00000000000000000000000000000000000000000000000000000000081526004016102bb90610c3a565b60405180910390fd5b5f60015411610308576040517f08c379a00000000000000000000000000000000000000000000000000000000081526004016102ff90610ca2565b60405180910390fd5b600260048054905014610350576040517f08c379a000000000000000000000000000000000000000000000000000000000815260040161034790610d0a565b60405180910390fd5b5f5b600480549050811015610453575f6004828154811061037457610373610d28565b5b905f5260205f20015f9054906101000a900473ffffffffffffffffffffffffffffffffffffffff1690505f60035f8373ffffffffffffffffffffffffffffffffffffffff1673ffffffffffffffffffffffffffffffffffffffff1681526020019081526020015f206001015490505f6064826001546103f39190610d82565b6103fd9190610df0565b90508273ffffffffffffffffffffffffffffffffffffffff166108fc8290811502906040515f60405180830381858888f19350505050158015610442573d5f803e3d5ffd5b505050508080600101915050610352565b505f600181905550565b5f8054906101000a900473ffffffffffffffffffffffffffffffffffffffff1673ffffffffffffffffffffffffffffffffffffffff163373ffffffffffffffffffffffffffffffffffffffff16146104ea576040517f08c379a00000000000000000000000000000000000000000000000000000000081526004016104e190610e90565b60405180910390fd5b5f60025f6101000a81548160ff021916908315150217905550565b60025f9054906101000a900460ff1681565b5f8054906101000a900473ffffffffffffffffffffffffffffffffffffffff1673ffffffffffffffffffffffffffffffffffffffff163373ffffffffffffffffffffffffffffffffffffffff16146105a4576040517f08c379a000000000000000000000000000000000000000000000000000000000815260040161059b90610e90565b60405180910390fd5b600160025f6101000a81548160ff021916908315150217905550565b5f805f9054906101000a900473ffffffffffffffffffffffffffffffffffffffff16905090565b5f8054906101000a900473ffffffffffffffffffffffffffffffffffffffff1681565b60015481565b5f8054906101000a900473ffffffffffffffffffffffffffffffffffffffff1673ffffffffffffffffffffffffffffffffffffffff163373ffffffffffffffffffffffffffffffffffffffff161461069d576040517f08c379a000000000000000000000000000000000000000000000000000000000815260040161069490610e90565b60405180910390fd5b5f811180156106ad575060648111155b6106ec576040517f08c379a00000000000000000000000000000000000000000000000000000000081526004016106e390610ef8565b60405180910390fd5b600260048054905010610734576040517f08c379a000000000000000000000000000000000000000000000000000000000815260040161072b90610f60565b60405180910390fd5b60035f8373ffffffffffffffffffffffffffffffffffffffff1673ffffffffffffffffffffffffffffffffffffffff1681526020019081526020015f206002015f9054906101000a900460ff16156107c1576040517f08c379a00000000000000000000000000000000000000000000000000000000081526004016107b890610fc8565b60405180910390fd5b5f60405180606001604052808473ffffffffffffffffffffffffffffffffffffffff1681526020018381526020016001151581525090508060035f8573ffffffffffffffffffffffffffffffffffffffff1673ffffffffffffffffffffffffffffffffffffffff1681526020019081526020015f205f820151815f015f6101000a81548173ffffffffffffffffffffffffffffffffffffffff021916908373ffffffffffffffffffffffffffffffffffffffff160217905550602082015181600101556040820151816002015f6101000a81548160ff021916908315150217905550905050600483908060018154018082558091505060019003905f5260205f20015f9091909190916101000a81548173ffffffffffffffffffffffffffffffffffffffff021916908373ffffffffffffffffffffffffffffffffffffffff160217905550505050565b5f8054906101000a900473ffffffffffffffffffffffffffffffffffffffff1673ffffffffffffffffffffffffffffffffffffffff163373ffffffffffffffffffffffffffffffffffffffff1614610998576040517f08c379a000000000000000000000000000000000000000000000000000000000815260040161098f90610e90565b60405180910390fd5b3460015f8282546109a99190610fe6565b92505081905550565b6003602052805f5260405f205f91509050805f015f9054906101000a900473ffffffffffffffffffffffffffffffffffffffff1690806001015490806002015f9054906101000a900460ff16905083565b5f80fd5b5f819050919050565b610a1981610a07565b8114610a23575f80fd5b50565b5f81359050610a3481610a10565b92915050565b5f60208284031215610a4f57610a4e610a03565b5b5f610a5c84828501610a26565b91505092915050565b5f73ffffffffffffffffffffffffffffffffffffffff82169050919050565b5f610a8e82610a65565b9050919050565b610a9e81610a84565b82525050565b5f602082019050610ab75f830184610a95565b92915050565b5f8115159050919050565b610ad181610abd565b82525050565b5f602082019050610aea5f830184610ac8565b92915050565b610af981610a07565b82525050565b5f602082019050610b125f830184610af0565b92915050565b610b2181610a84565b8114610b2b575f80fd5b50565b5f81359050610b3c81610b18565b92915050565b5f8060408385031215610b5857610b57610a03565b5b5f610b6585828601610b2e565b9250506020610b7685828601610a26565b9150509250929050565b5f60208284031215610b9557610b94610a03565b5b5f610ba284828501610b2e565b91505092915050565b5f606082019050610bbe5f830186610a95565b610bcb6020830185610af0565b610bd86040830184610ac8565b949350505050565b5f82825260208201905092915050565b7f546865206f776e6572206973207374696c6c20616c69766500000000000000005f82015250565b5f610c24601883610be0565b9150610c2f82610bf0565b602082019050919050565b5f6020820190508181035f830152610c5181610c18565b9050919050565b7f4e6f2066756e647320696e2074686520706f6f6c0000000000000000000000005f82015250565b5f610c8c601483610be0565b9150610c9782610c58565b602082019050919050565b5f6020820190508181035f830152610cb981610c80565b9050919050565b7f45786163746c79203220686569727320617265207265717569726564000000005f82015250565b5f610cf4601c83610be0565b9150610cff82610cc0565b602082019050919050565b5f6020820190508181035f830152610d2181610ce8565b9050919050565b7f4e487b71000000000000000000000000000000000000000000000000000000005f52603260045260245ffd5b7f4e487b71000000000000000000000000000000000000000000000000000000005f52601160045260245ffd5b5f610d8c82610a07565b9150610d9783610a07565b9250828202610da581610a07565b91508282048414831517610dbc57610dbb610d55565b5b5092915050565b7f4e487b71000000000000000000000000000000000000000000000000000000005f52601260045260245ffd5b5f610dfa82610a07565b9150610e0583610a07565b925082610e1557610e14610dc3565b5b828204905092915050565b7f4f6e6c7920746865206f776e65722063616e20706572666f726d2074686973205f8201527f616374696f6e0000000000000000000000000000000000000000000000000000602082015250565b5f610e7a602683610be0565b9150610e8582610e20565b604082019050919050565b5f6020820190508181035f830152610ea781610e6e565b9050919050565b7f5368617265206d757374206265206265747765656e203120616e6420313030005f82015250565b5f610ee2601f83610be0565b9150610eed82610eae565b602082019050919050565b5f6020820190508181035f830152610f0f81610ed6565b9050919050565b7f43616e206f6e6c792061646420322068656972730000000000000000000000005f82015250565b5f610f4a601483610be0565b9150610f5582610f16565b602082019050919050565b5f6020820190508181035f830152610f7781610f3e565b9050919050565b7f4865697220616c726561647920657869737473000000000000000000000000005f82015250565b5f610fb2601383610be0565b9150610fbd82610f7e565b602082019050919050565b5f6020820190508181035f830152610fdf81610fa6565b9050919050565b5f610ff082610a07565b9150610ffb83610a07565b925082820190508082111561101357611012610d55565b5b9291505056fea2646970667358221220ad6cd5599ecae09d06c68dfcc5f7332b28eb3862fe0909f54cbdbcd34a5cd4bb64736f6c634300081a0033",
					"opcodes": "PUSH1 0x80 PUSH1 0x40 MSTORE CALLVALUE DUP1 ISZERO PUSH1 0xE JUMPI PUSH0 DUP1 REVERT JUMPDEST POP CALLER PUSH0 DUP1 PUSH2 0x100 EXP DUP2 SLOAD DUP2 PUSH20 0xFFFFFFFFFFFFFFFFFFFFFFFFFFFFFFFFFFFFFFFF MUL NOT AND SWAP1 DUP4 PUSH20 0xFFFFFFFFFFFFFFFFFFFFFFFFFFFFFFFFFFFFFFFF AND MUL OR SWAP1 SSTORE POP PUSH1 0x1 PUSH1 0x2 PUSH0 PUSH2 0x100 EXP DUP2 SLOAD DUP2 PUSH1 0xFF MUL NOT AND SWAP1 DUP4 ISZERO ISZERO MUL OR SWAP1 SSTORE POP PUSH2 0x104F DUP1 PUSH2 0x75 PUSH0 CODECOPY PUSH0 RETURN INVALID PUSH1 0x80 PUSH1 0x40 MSTORE PUSH1 0x4 CALLDATASIZE LT PUSH2 0x9B JUMPI PUSH0 CALLDATALOAD PUSH1 0xE0 SHR DUP1 PUSH4 0x893D20E8 GT PUSH2 0x63 JUMPI DUP1 PUSH4 0x893D20E8 EQ PUSH2 0x147 JUMPI DUP1 PUSH4 0x8DA5CB5B EQ PUSH2 0x171 JUMPI DUP1 PUSH4 0x96365D44 EQ PUSH2 0x19B JUMPI DUP1 PUSH4 0x9CDD47F2 EQ PUSH2 0x1C5 JUMPI DUP1 PUSH4 0xA26759CB EQ PUSH2 0x1ED JUMPI DUP1 PUSH4 0xF45B587C EQ PUSH2 0x1F7 JUMPI PUSH2 0x9B JUMP JUMPDEST DUP1 PUSH4 0x4BE2BAB7 EQ PUSH2 0x9F JUMPI DUP1 PUSH4 0x53A41B50 EQ PUSH2 0xDB JUMPI DUP1 PUSH4 0x5E3FAA41 EQ PUSH2 0xF1 JUMPI DUP1 PUSH4 0x753899E9 EQ PUSH2 0x107 JUMPI DUP1 PUSH4 0x87740C0D EQ PUSH2 0x131 JUMPI JUMPDEST PUSH0 DUP1 REVERT JUMPDEST CALLVALUE DUP1 ISZERO PUSH2 0xAA JUMPI PUSH0 DUP1 REVERT JUMPDEST POP PUSH2 0xC5 PUSH1 0x4 DUP1 CALLDATASIZE SUB DUP2 ADD SWAP1 PUSH2 0xC0 SWAP2 SWAP1 PUSH2 0xA3A JUMP JUMPDEST PUSH2 0x235 JUMP JUMPDEST PUSH1 0x40 MLOAD PUSH2 0xD2 SWAP2 SWAP1 PUSH2 0xAA4 JUMP JUMPDEST PUSH1 0x40 MLOAD DUP1 SWAP2 SUB SWAP1 RETURN JUMPDEST CALLVALUE DUP1 ISZERO PUSH2 0xE6 JUMPI PUSH0 DUP1 REVERT JUMPDEST POP PUSH2 0xEF PUSH2 0x270 JUMP JUMPDEST STOP JUMPDEST CALLVALUE DUP1 ISZERO PUSH2 0xFC JUMPI PUSH0 DUP1 REVERT JUMPDEST POP PUSH2 0x105 PUSH2 0x45D JUMP JUMPDEST STOP JUMPDEST CALLVALUE DUP1 ISZERO PUSH2 0x112 JUMPI PUSH0 DUP1 REVERT JUMPDEST POP PUSH2 0x11B PUSH2 0x505 JUMP JUMPDEST PUSH1 0x40 MLOAD PUSH2 0x128 SWAP2 SWAP1 PUSH2 0xAD7 JUMP JUMPDEST PUSH1 0x40 MLOAD DUP1 SWAP2 SUB SWAP1 RETURN JUMPDEST CALLVALUE DUP1 ISZERO PUSH2 0x13C JUMPI PUSH0 DUP1 REVERT JUMPDEST POP PUSH2 0x145 PUSH2 0x517 JUMP JUMPDEST STOP JUMPDEST CALLVALUE DUP1 ISZERO PUSH2 0x152 JUMPI PUSH0 DUP1 REVERT JUMPDEST POP PUSH2 0x15B PUSH2 0x5C0 JUMP JUMPDEST PUSH1 0x40 MLOAD PUSH2 0x168 SWAP2 SWAP1 PUSH2 0xAA4 JUMP JUMPDEST PUSH1 0x40 MLOAD DUP1 SWAP2 SUB SWAP1 RETURN JUMPDEST CALLVALUE DUP1 ISZERO PUSH2 0x17C JUMPI PUSH0 DUP1 REVERT JUMPDEST POP PUSH2 0x185 PUSH2 0x5E7 JUMP JUMPDEST PUSH1 0x40 MLOAD PUSH2 0x192 SWAP2 SWAP1 PUSH2 0xAA4 JUMP JUMPDEST PUSH1 0x40 MLOAD DUP1 SWAP2 SUB SWAP1 RETURN JUMPDEST CALLVALUE DUP1 ISZERO PUSH2 0x1A6 JUMPI PUSH0 DUP1 REVERT JUMPDEST POP PUSH2 0x1AF PUSH2 0x60A JUMP JUMPDEST PUSH1 0x40 MLOAD PUSH2 0x1BC SWAP2 SWAP1 PUSH2 0xAFF JUMP JUMPDEST PUSH1 0x40 MLOAD DUP1 SWAP2 SUB SWAP1 RETURN JUMPDEST CALLVALUE DUP1 ISZERO PUSH2 0x1D0 JUMPI PUSH0 DUP1 REVERT JUMPDEST POP PUSH2 0x1EB PUSH1 0x4 DUP1 CALLDATASIZE SUB DUP2 ADD SWAP1 PUSH2 0x1E6 SWAP2 SWAP1 PUSH2 0xB42 JUMP JUMPDEST PUSH2 0x610 JUMP JUMPDEST STOP JUMPDEST PUSH2 0x1F5 PUSH2 0x90B JUMP JUMPDEST STOP JUMPDEST CALLVALUE DUP1 ISZERO PUSH2 0x202 JUMPI PUSH0 DUP1 REVERT JUMPDEST POP PUSH2 0x21D PUSH1 0x4 DUP1 CALLDATASIZE SUB DUP2 ADD SWAP1 PUSH2 0x218 SWAP2 SWAP1 PUSH2 0xB80 JUMP JUMPDEST PUSH2 0x9B2 JUMP JUMPDEST PUSH1 0x40 MLOAD PUSH2 0x22C SWAP4 SWAP3 SWAP2 SWAP1 PUSH2 0xBAB JUMP JUMPDEST PUSH1 0x40 MLOAD DUP1 SWAP2 SUB SWAP1 RETURN JUMPDEST PUSH1 0x4 DUP2 DUP2 SLOAD DUP2 LT PUSH2 0x244 JUMPI PUSH0 DUP1 REVERT JUMPDEST SWAP1 PUSH0 MSTORE PUSH1 0x20 PUSH0 KECCAK256 ADD PUSH0 SWAP2 POP SLOAD SWAP1 PUSH2 0x100 EXP SWAP1 DIV PUSH20 0xFFFFFFFFFFFFFFFFFFFFFFFFFFFFFFFFFFFFFFFF AND DUP2 JUMP JUMPDEST PUSH0 ISZERO ISZERO PUSH1 0x2 PUSH0 SWAP1 SLOAD SWAP1 PUSH2 0x100 EXP SWAP1 DIV PUSH1 0xFF AND ISZERO ISZERO EQ PUSH2 0x2C4 JUMPI PUSH1 0x40 MLOAD PUSH32 0x8C379A000000000000000000000000000000000000000000000000000000000 DUP2 MSTORE PUSH1 0x4 ADD PUSH2 0x2BB SWAP1 PUSH2 0xC3A JUMP JUMPDEST PUSH1 0x40 MLOAD DUP1 SWAP2 SUB SWAP1 REVERT JUMPDEST PUSH0 PUSH1 0x1 SLOAD GT PUSH2 0x308 JUMPI PUSH1 0x40 MLOAD PUSH32 0x8C379A000000000000000000000000000000000000000000000000000000000 DUP2 MSTORE PUSH1 0x4 ADD PUSH2 0x2FF SWAP1 PUSH2 0xCA2 JUMP JUMPDEST PUSH1 0x40 MLOAD DUP1 SWAP2 SUB SWAP1 REVERT JUMPDEST PUSH1 0x2 PUSH1 0x4 DUP1 SLOAD SWAP1 POP EQ PUSH2 0x350 JUMPI PUSH1 0x40 MLOAD PUSH32 0x8C379A000000000000000000000000000000000000000000000000000000000 DUP2 MSTORE PUSH1 0x4 ADD PUSH2 0x347 SWAP1 PUSH2 0xD0A JUMP JUMPDEST PUSH1 0x40 MLOAD DUP1 SWAP2 SUB SWAP1 REVERT JUMPDEST PUSH0 JUMPDEST PUSH1 0x4 DUP1 SLOAD SWAP1 POP DUP2 LT ISZERO PUSH2 0x453 JUMPI PUSH0 PUSH1 0x4 DUP3 DUP2 SLOAD DUP2 LT PUSH2 0x374 JUMPI PUSH2 0x373 PUSH2 0xD28 JUMP JUMPDEST JUMPDEST SWAP1 PUSH0 MSTORE PUSH1 0x20 PUSH0 KECCAK256 ADD PUSH0 SWAP1 SLOAD SWAP1 PUSH2 0x100 EXP SWAP1 DIV PUSH20 0xFFFFFFFFFFFFFFFFFFFFFFFFFFFFFFFFFFFFFFFF AND SWAP1 POP PUSH0 PUSH1 0x3 PUSH0 DUP4 PUSH20 0xFFFFFFFFFFFFFFFFFFFFFFFFFFFFFFFFFFFFFFFF AND PUSH20 0xFFFFFFFFFFFFFFFFFFFFFFFFFFFFFFFFFFFFFFFF AND DUP2 MSTORE PUSH1 0x20 ADD SWAP1 DUP2 MSTORE PUSH1 0x20 ADD PUSH0 KECCAK256 PUSH1 0x1 ADD SLOAD SWAP1 POP PUSH0 PUSH1 0x64 DUP3 PUSH1 0x1 SLOAD PUSH2 0x3F3 SWAP2 SWAP1 PUSH2 0xD82 JUMP JUMPDEST PUSH2 0x3FD SWAP2 SWAP1 PUSH2 0xDF0 JUMP JUMPDEST SWAP1 POP DUP3 PUSH20 0xFFFFFFFFFFFFFFFFFFFFFFFFFFFFFFFFFFFFFFFF AND PUSH2 0x8FC DUP3 SWAP1 DUP2 ISZERO MUL SWAP1 PUSH1 0x40 MLOAD PUSH0 PUSH1 0x40 MLOAD DUP1 DUP4 SUB DUP2 DUP6 DUP9 DUP9 CALL SWAP4 POP POP POP POP ISZERO DUP1 ISZERO PUSH2 0x442 JUMPI RETURNDATASIZE PUSH0 DUP1 RETURNDATACOPY RETURNDATASIZE PUSH0 REVERT JUMPDEST POP POP POP POP DUP1 DUP1 PUSH1 0x1 ADD SWAP2 POP POP PUSH2 0x352 JUMP JUMPDEST POP PUSH0 PUSH1 0x1 DUP2 SWAP1 SSTORE POP JUMP JUMPDEST PUSH0 DUP1 SLOAD SWAP1 PUSH2 0x100 EXP SWAP1 DIV PUSH20 0xFFFFFFFFFFFFFFFFFFFFFFFFFFFFFFFFFFFFFFFF AND PUSH20 0xFFFFFFFFFFFFFFFFFFFFFFFFFFFFFFFFFFFFFFFF AND CALLER PUSH20 0xFFFFFFFFFFFFFFFFFFFFFFFFFFFFFFFFFFFFFFFF AND EQ PUSH2 0x4EA JUMPI PUSH1 0x40 MLOAD PUSH32 0x8C379A000000000000000000000000000000000000000000000000000000000 DUP2 MSTORE PUSH1 0x4 ADD PUSH2 0x4E1 SWAP1 PUSH2 0xE90 JUMP JUMPDEST PUSH1 0x40 MLOAD DUP1 SWAP2 SUB SWAP1 REVERT JUMPDEST PUSH0 PUSH1 0x2 PUSH0 PUSH2 0x100 EXP DUP2 SLOAD DUP2 PUSH1 0xFF MUL NOT AND SWAP1 DUP4 ISZERO ISZERO MUL OR SWAP1 SSTORE POP JUMP JUMPDEST PUSH1 0x2 PUSH0 SWAP1 SLOAD SWAP1 PUSH2 0x100 EXP SWAP1 DIV PUSH1 0xFF AND DUP2 JUMP JUMPDEST PUSH0 DUP1 SLOAD SWAP1 PUSH2 0x100 EXP SWAP1 DIV PUSH20 0xFFFFFFFFFFFFFFFFFFFFFFFFFFFFFFFFFFFFFFFF AND PUSH20 0xFFFFFFFFFFFFFFFFFFFFFFFFFFFFFFFFFFFFFFFF AND CALLER PUSH20 0xFFFFFFFFFFFFFFFFFFFFFFFFFFFFFFFFFFFFFFFF AND EQ PUSH2 0x5A4 JUMPI PUSH1 0x40 MLOAD PUSH32 0x8C379A000000000000000000000000000000000000000000000000000000000 DUP2 MSTORE PUSH1 0x4 ADD PUSH2 0x59B SWAP1 PUSH2 0xE90 JUMP JUMPDEST PUSH1 0x40 MLOAD DUP1 SWAP2 SUB SWAP1 REVERT JUMPDEST PUSH1 0x1 PUSH1 0x2 PUSH0 PUSH2 0x100 EXP DUP2 SLOAD DUP2 PUSH1 0xFF MUL NOT AND SWAP1 DUP4 ISZERO ISZERO MUL OR SWAP1 SSTORE POP JUMP JUMPDEST PUSH0 DUP1 PUSH0 SWAP1 SLOAD SWAP1 PUSH2 0x100 EXP SWAP1 DIV PUSH20 0xFFFFFFFFFFFFFFFFFFFFFFFFFFFFFFFFFFFFFFFF AND SWAP1 POP SWAP1 JUMP JUMPDEST PUSH0 DUP1 SLOAD SWAP1 PUSH2 0x100 EXP SWAP1 DIV PUSH20 0xFFFFFFFFFFFFFFFFFFFFFFFFFFFFFFFFFFFFFFFF AND DUP2 JUMP JUMPDEST PUSH1 0x1 SLOAD DUP2 JUMP JUMPDEST PUSH0 DUP1 SLOAD SWAP1 PUSH2 0x100 EXP SWAP1 DIV PUSH20 0xFFFFFFFFFFFFFFFFFFFFFFFFFFFFFFFFFFFFFFFF AND PUSH20 0xFFFFFFFFFFFFFFFFFFFFFFFFFFFFFFFFFFFFFFFF AND CALLER PUSH20 0xFFFFFFFFFFFFFFFFFFFFFFFFFFFFFFFFFFFFFFFF AND EQ PUSH2 0x69D JUMPI PUSH1 0x40 MLOAD PUSH32 0x8C379A000000000000000000000000000000000000000000000000000000000 DUP2 MSTORE PUSH1 0x4 ADD PUSH2 0x694 SWAP1 PUSH2 0xE90 JUMP JUMPDEST PUSH1 0x40 MLOAD DUP1 SWAP2 SUB SWAP1 REVERT JUMPDEST PUSH0 DUP2 GT DUP1 ISZERO PUSH2 0x6AD JUMPI POP PUSH1 0x64 DUP2 GT ISZERO JUMPDEST PUSH2 0x6EC JUMPI PUSH1 0x40 MLOAD PUSH32 0x8C379A000000000000000000000000000000000000000000000000000000000 DUP2 MSTORE PUSH1 0x4 ADD PUSH2 0x6E3 SWAP1 PUSH2 0xEF8 JUMP JUMPDEST PUSH1 0x40 MLOAD DUP1 SWAP2 SUB SWAP1 REVERT JUMPDEST PUSH1 0x2 PUSH1 0x4 DUP1 SLOAD SWAP1 POP LT PUSH2 0x734 JUMPI PUSH1 0x40 MLOAD PUSH32 0x8C379A000000000000000000000000000000000000000000000000000000000 DUP2 MSTORE PUSH1 0x4 ADD PUSH2 0x72B SWAP1 PUSH2 0xF60 JUMP JUMPDEST PUSH1 0x40 MLOAD DUP1 SWAP2 SUB SWAP1 REVERT JUMPDEST PUSH1 0x3 PUSH0 DUP4 PUSH20 0xFFFFFFFFFFFFFFFFFFFFFFFFFFFFFFFFFFFFFFFF AND PUSH20 0xFFFFFFFFFFFFFFFFFFFFFFFFFFFFFFFFFFFFFFFF AND DUP2 MSTORE PUSH1 0x20 ADD SWAP1 DUP2 MSTORE PUSH1 0x20 ADD PUSH0 KECCAK256 PUSH1 0x2 ADD PUSH0 SWAP1 SLOAD SWAP1 PUSH2 0x100 EXP SWAP1 DIV PUSH1 0xFF AND ISZERO PUSH2 0x7C1 JUMPI PUSH1 0x40 MLOAD PUSH32 0x8C379A000000000000000000000000000000000000000000000000000000000 DUP2 MSTORE PUSH1 0x4 ADD PUSH2 0x7B8 SWAP1 PUSH2 0xFC8 JUMP JUMPDEST PUSH1 0x40 MLOAD DUP1 SWAP2 SUB SWAP1 REVERT JUMPDEST PUSH0 PUSH1 0x40 MLOAD DUP1 PUSH1 0x60 ADD PUSH1 0x40 MSTORE DUP1 DUP5 PUSH20 0xFFFFFFFFFFFFFFFFFFFFFFFFFFFFFFFFFFFFFFFF AND DUP2 MSTORE PUSH1 0x20 ADD DUP4 DUP2 MSTORE PUSH1 0x20 ADD PUSH1 0x1 ISZERO ISZERO DUP2 MSTORE POP SWAP1 POP DUP1 PUSH1 0x3 PUSH0 DUP6 PUSH20 0xFFFFFFFFFFFFFFFFFFFFFFFFFFFFFFFFFFFFFFFF AND PUSH20 0xFFFFFFFFFFFFFFFFFFFFFFFFFFFFFFFFFFFFFFFF AND DUP2 MSTORE PUSH1 0x20 ADD SWAP1 DUP2 MSTORE PUSH1 0x20 ADD PUSH0 KECCAK256 PUSH0 DUP3 ADD MLOAD DUP2 PUSH0 ADD PUSH0 PUSH2 0x100 EXP DUP2 SLOAD DUP2 PUSH20 0xFFFFFFFFFFFFFFFFFFFFFFFFFFFFFFFFFFFFFFFF MUL NOT AND SWAP1 DUP4 PUSH20 0xFFFFFFFFFFFFFFFFFFFFFFFFFFFFFFFFFFFFFFFF AND MUL OR SWAP1 SSTORE POP PUSH1 0x20 DUP3 ADD MLOAD DUP2 PUSH1 0x1 ADD SSTORE PUSH1 0x40 DUP3 ADD MLOAD DUP2 PUSH1 0x2 ADD PUSH0 PUSH2 0x100 EXP DUP2 SLOAD DUP2 PUSH1 0xFF MUL NOT AND SWAP1 DUP4 ISZERO ISZERO MUL OR SWAP1 SSTORE POP SWAP1 POP POP PUSH1 0x4 DUP4 SWAP1 DUP1 PUSH1 0x1 DUP2 SLOAD ADD DUP1 DUP3 SSTORE DUP1 SWAP2 POP POP PUSH1 0x1 SWAP1 SUB SWAP1 PUSH0 MSTORE PUSH1 0x20 PUSH0 KECCAK256 ADD PUSH0 SWAP1 SWAP2 SWAP1 SWAP2 SWAP1 SWAP2 PUSH2 0x100 EXP DUP2 SLOAD DUP2 PUSH20 0xFFFFFFFFFFFFFFFFFFFFFFFFFFFFFFFFFFFFFFFF MUL NOT AND SWAP1 DUP4 PUSH20 0xFFFFFFFFFFFFFFFFFFFFFFFFFFFFFFFFFFFFFFFF AND MUL OR SWAP1 SSTORE POP POP POP POP JUMP JUMPDEST PUSH0 DUP1 SLOAD SWAP1 PUSH2 0x100 EXP SWAP1 DIV PUSH20 0xFFFFFFFFFFFFFFFFFFFFFFFFFFFFFFFFFFFFFFFF AND PUSH20 0xFFFFFFFFFFFFFFFFFFFFFFFFFFFFFFFFFFFFFFFF AND CALLER PUSH20 0xFFFFFFFFFFFFFFFFFFFFFFFFFFFFFFFFFFFFFFFF AND EQ PUSH2 0x998 JUMPI PUSH1 0x40 MLOAD PUSH32 0x8C379A000000000000000000000000000000000000000000000000000000000 DUP2 MSTORE PUSH1 0x4 ADD PUSH2 0x98F SWAP1 PUSH2 0xE90 JUMP JUMPDEST PUSH1 0x40 MLOAD DUP1 SWAP2 SUB SWAP1 REVERT JUMPDEST CALLVALUE PUSH1 0x1 PUSH0 DUP3 DUP3 SLOAD PUSH2 0x9A9 SWAP2 SWAP1 PUSH2 0xFE6 JUMP JUMPDEST SWAP3 POP POP DUP2 SWAP1 SSTORE POP JUMP JUMPDEST PUSH1 0x3 PUSH1 0x20 MSTORE DUP1 PUSH0 MSTORE PUSH1 0x40 PUSH0 KECCAK256 PUSH0 SWAP2 POP SWAP1 POP DUP1 PUSH0 ADD PUSH0 SWAP1 SLOAD SWAP1 PUSH2 0x100 EXP SWAP1 DIV PUSH20 0xFFFFFFFFFFFFFFFFFFFFFFFFFFFFFFFFFFFFFFFF AND SWAP1 DUP1 PUSH1 0x1 ADD SLOAD SWAP1 DUP1 PUSH1 0x2 ADD PUSH0 SWAP1 SLOAD SWAP1 PUSH2 0x100 EXP SWAP1 DIV PUSH1 0xFF AND SWAP1 POP DUP4 JUMP JUMPDEST PUSH0 DUP1 REVERT JUMPDEST PUSH0 DUP2 SWAP1 POP SWAP2 SWAP1 POP JUMP JUMPDEST PUSH2 0xA19 DUP2 PUSH2 0xA07 JUMP JUMPDEST DUP2 EQ PUSH2 0xA23 JUMPI PUSH0 DUP1 REVERT JUMPDEST POP JUMP JUMPDEST PUSH0 DUP2 CALLDATALOAD SWAP1 POP PUSH2 0xA34 DUP2 PUSH2 0xA10 JUMP JUMPDEST SWAP3 SWAP2 POP POP JUMP JUMPDEST PUSH0 PUSH1 0x20 DUP3 DUP5 SUB SLT ISZERO PUSH2 0xA4F JUMPI PUSH2 0xA4E PUSH2 0xA03 JUMP JUMPDEST JUMPDEST PUSH0 PUSH2 0xA5C DUP5 DUP3 DUP6 ADD PUSH2 0xA26 JUMP JUMPDEST SWAP2 POP POP SWAP3 SWAP2 POP POP JUMP JUMPDEST PUSH0 PUSH20 0xFFFFFFFFFFFFFFFFFFFFFFFFFFFFFFFFFFFFFFFF DUP3 AND SWAP1 POP SWAP2 SWAP1 POP JUMP JUMPDEST PUSH0 PUSH2 0xA8E DUP3 PUSH2 0xA65 JUMP JUMPDEST SWAP1 POP SWAP2 SWAP1 POP JUMP JUMPDEST PUSH2 0xA9E DUP2 PUSH2 0xA84 JUMP JUMPDEST DUP3 MSTORE POP POP JUMP JUMPDEST PUSH0 PUSH1 0x20 DUP3 ADD SWAP1 POP PUSH2 0xAB7 PUSH0 DUP4 ADD DUP5 PUSH2 0xA95 JUMP JUMPDEST SWAP3 SWAP2 POP POP JUMP JUMPDEST PUSH0 DUP2 ISZERO ISZERO SWAP1 POP SWAP2 SWAP1 POP JUMP JUMPDEST PUSH2 0xAD1 DUP2 PUSH2 0xABD JUMP JUMPDEST DUP3 MSTORE POP POP JUMP JUMPDEST PUSH0 PUSH1 0x20 DUP3 ADD SWAP1 POP PUSH2 0xAEA PUSH0 DUP4 ADD DUP5 PUSH2 0xAC8 JUMP JUMPDEST SWAP3 SWAP2 POP POP JUMP JUMPDEST PUSH2 0xAF9 DUP2 PUSH2 0xA07 JUMP JUMPDEST DUP3 MSTORE POP POP JUMP JUMPDEST PUSH0 PUSH1 0x20 DUP3 ADD SWAP1 POP PUSH2 0xB12 PUSH0 DUP4 ADD DUP5 PUSH2 0xAF0 JUMP JUMPDEST SWAP3 SWAP2 POP POP JUMP JUMPDEST PUSH2 0xB21 DUP2 PUSH2 0xA84 JUMP JUMPDEST DUP2 EQ PUSH2 0xB2B JUMPI PUSH0 DUP1 REVERT JUMPDEST POP JUMP JUMPDEST PUSH0 DUP2 CALLDATALOAD SWAP1 POP PUSH2 0xB3C DUP2 PUSH2 0xB18 JUMP JUMPDEST SWAP3 SWAP2 POP POP JUMP JUMPDEST PUSH0 DUP1 PUSH1 0x40 DUP4 DUP6 SUB SLT ISZERO PUSH2 0xB58 JUMPI PUSH2 0xB57 PUSH2 0xA03 JUMP JUMPDEST JUMPDEST PUSH0 PUSH2 0xB65 DUP6 DUP3 DUP7 ADD PUSH2 0xB2E JUMP JUMPDEST SWAP3 POP POP PUSH1 0x20 PUSH2 0xB76 DUP6 DUP3 DUP7 ADD PUSH2 0xA26 JUMP JUMPDEST SWAP2 POP POP SWAP3 POP SWAP3 SWAP1 POP JUMP JUMPDEST PUSH0 PUSH1 0x20 DUP3 DUP5 SUB SLT ISZERO PUSH2 0xB95 JUMPI PUSH2 0xB94 PUSH2 0xA03 JUMP JUMPDEST JUMPDEST PUSH0 PUSH2 0xBA2 DUP5 DUP3 DUP6 ADD PUSH2 0xB2E JUMP JUMPDEST SWAP2 POP POP SWAP3 SWAP2 POP POP JUMP JUMPDEST PUSH0 PUSH1 0x60 DUP3 ADD SWAP1 POP PUSH2 0xBBE PUSH0 DUP4 ADD DUP7 PUSH2 0xA95 JUMP JUMPDEST PUSH2 0xBCB PUSH1 0x20 DUP4 ADD DUP6 PUSH2 0xAF0 JUMP JUMPDEST PUSH2 0xBD8 PUSH1 0x40 DUP4 ADD DUP5 PUSH2 0xAC8 JUMP JUMPDEST SWAP5 SWAP4 POP POP POP POP JUMP JUMPDEST PUSH0 DUP3 DUP3 MSTORE PUSH1 0x20 DUP3 ADD SWAP1 POP SWAP3 SWAP2 POP POP JUMP JUMPDEST PUSH32 0x546865206F776E6572206973207374696C6C20616C6976650000000000000000 PUSH0 DUP3 ADD MSTORE POP JUMP JUMPDEST PUSH0 PUSH2 0xC24 PUSH1 0x18 DUP4 PUSH2 0xBE0 JUMP JUMPDEST SWAP2 POP PUSH2 0xC2F DUP3 PUSH2 0xBF0 JUMP JUMPDEST PUSH1 0x20 DUP3 ADD SWAP1 POP SWAP2 SWAP1 POP JUMP JUMPDEST PUSH0 PUSH1 0x20 DUP3 ADD SWAP1 POP DUP2 DUP2 SUB PUSH0 DUP4 ADD MSTORE PUSH2 0xC51 DUP2 PUSH2 0xC18 JUMP JUMPDEST SWAP1 POP SWAP2 SWAP1 POP JUMP JUMPDEST PUSH32 0x4E6F2066756E647320696E2074686520706F6F6C000000000000000000000000 PUSH0 DUP3 ADD MSTORE POP JUMP JUMPDEST PUSH0 PUSH2 0xC8C PUSH1 0x14 DUP4 PUSH2 0xBE0 JUMP JUMPDEST SWAP2 POP PUSH2 0xC97 DUP3 PUSH2 0xC58 JUMP JUMPDEST PUSH1 0x20 DUP3 ADD SWAP1 POP SWAP2 SWAP1 POP JUMP JUMPDEST PUSH0 PUSH1 0x20 DUP3 ADD SWAP1 POP DUP2 DUP2 SUB PUSH0 DUP4 ADD MSTORE PUSH2 0xCB9 DUP2 PUSH2 0xC80 JUMP JUMPDEST SWAP1 POP SWAP2 SWAP1 POP JUMP JUMPDEST PUSH32 0x45786163746C7920322068656972732061726520726571756972656400000000 PUSH0 DUP3 ADD MSTORE POP JUMP JUMPDEST PUSH0 PUSH2 0xCF4 PUSH1 0x1C DUP4 PUSH2 0xBE0 JUMP JUMPDEST SWAP2 POP PUSH2 0xCFF DUP3 PUSH2 0xCC0 JUMP JUMPDEST PUSH1 0x20 DUP3 ADD SWAP1 POP SWAP2 SWAP1 POP JUMP JUMPDEST PUSH0 PUSH1 0x20 DUP3 ADD SWAP1 POP DUP2 DUP2 SUB PUSH0 DUP4 ADD MSTORE PUSH2 0xD21 DUP2 PUSH2 0xCE8 JUMP JUMPDEST SWAP1 POP SWAP2 SWAP1 POP JUMP JUMPDEST PUSH32 0x4E487B7100000000000000000000000000000000000000000000000000000000 PUSH0 MSTORE PUSH1 0x32 PUSH1 0x4 MSTORE PUSH1 0x24 PUSH0 REVERT JUMPDEST PUSH32 0x4E487B7100000000000000000000000000000000000000000000000000000000 PUSH0 MSTORE PUSH1 0x11 PUSH1 0x4 MSTORE PUSH1 0x24 PUSH0 REVERT JUMPDEST PUSH0 PUSH2 0xD8C DUP3 PUSH2 0xA07 JUMP JUMPDEST SWAP2 POP PUSH2 0xD97 DUP4 PUSH2 0xA07 JUMP JUMPDEST SWAP3 POP DUP3 DUP3 MUL PUSH2 0xDA5 DUP2 PUSH2 0xA07 JUMP JUMPDEST SWAP2 POP DUP3 DUP3 DIV DUP5 EQ DUP4 ISZERO OR PUSH2 0xDBC JUMPI PUSH2 0xDBB PUSH2 0xD55 JUMP JUMPDEST JUMPDEST POP SWAP3 SWAP2 POP POP JUMP JUMPDEST PUSH32 0x4E487B7100000000000000000000000000000000000000000000000000000000 PUSH0 MSTORE PUSH1 0x12 PUSH1 0x4 MSTORE PUSH1 0x24 PUSH0 REVERT JUMPDEST PUSH0 PUSH2 0xDFA DUP3 PUSH2 0xA07 JUMP JUMPDEST SWAP2 POP PUSH2 0xE05 DUP4 PUSH2 0xA07 JUMP JUMPDEST SWAP3 POP DUP3 PUSH2 0xE15 JUMPI PUSH2 0xE14 PUSH2 0xDC3 JUMP JUMPDEST JUMPDEST DUP3 DUP3 DIV SWAP1 POP SWAP3 SWAP2 POP POP JUMP JUMPDEST PUSH32 0x4F6E6C7920746865206F776E65722063616E20706572666F726D207468697320 PUSH0 DUP3 ADD MSTORE PUSH32 0x616374696F6E0000000000000000000000000000000000000000000000000000 PUSH1 0x20 DUP3 ADD MSTORE POP JUMP JUMPDEST PUSH0 PUSH2 0xE7A PUSH1 0x26 DUP4 PUSH2 0xBE0 JUMP JUMPDEST SWAP2 POP PUSH2 0xE85 DUP3 PUSH2 0xE20 JUMP JUMPDEST PUSH1 0x40 DUP3 ADD SWAP1 POP SWAP2 SWAP1 POP JUMP JUMPDEST PUSH0 PUSH1 0x20 DUP3 ADD SWAP1 POP DUP2 DUP2 SUB PUSH0 DUP4 ADD MSTORE PUSH2 0xEA7 DUP2 PUSH2 0xE6E JUMP JUMPDEST SWAP1 POP SWAP2 SWAP1 POP JUMP JUMPDEST PUSH32 0x5368617265206D757374206265206265747765656E203120616E642031303000 PUSH0 DUP3 ADD MSTORE POP JUMP JUMPDEST PUSH0 PUSH2 0xEE2 PUSH1 0x1F DUP4 PUSH2 0xBE0 JUMP JUMPDEST SWAP2 POP PUSH2 0xEED DUP3 PUSH2 0xEAE JUMP JUMPDEST PUSH1 0x20 DUP3 ADD SWAP1 POP SWAP2 SWAP1 POP JUMP JUMPDEST PUSH0 PUSH1 0x20 DUP3 ADD SWAP1 POP DUP2 DUP2 SUB PUSH0 DUP4 ADD MSTORE PUSH2 0xF0F DUP2 PUSH2 0xED6 JUMP JUMPDEST SWAP1 POP SWAP2 SWAP1 POP JUMP JUMPDEST PUSH32 0x43616E206F6E6C79206164642032206865697273000000000000000000000000 PUSH0 DUP3 ADD MSTORE POP JUMP JUMPDEST PUSH0 PUSH2 0xF4A PUSH1 0x14 DUP4 PUSH2 0xBE0 JUMP JUMPDEST SWAP2 POP PUSH2 0xF55 DUP3 PUSH2 0xF16 JUMP JUMPDEST PUSH1 0x20 DUP3 ADD SWAP1 POP SWAP2 SWAP1 POP JUMP JUMPDEST PUSH0 PUSH1 0x20 DUP3 ADD SWAP1 POP DUP2 DUP2 SUB PUSH0 DUP4 ADD MSTORE PUSH2 0xF77 DUP2 PUSH2 0xF3E JUMP JUMPDEST SWAP1 POP SWAP2 SWAP1 POP JUMP JUMPDEST PUSH32 0x4865697220616C72656164792065786973747300000000000000000000000000 PUSH0 DUP3 ADD MSTORE POP JUMP JUMPDEST PUSH0 PUSH2 0xFB2 PUSH1 0x13 DUP4 PUSH2 0xBE0 JUMP JUMPDEST SWAP2 POP PUSH2 0xFBD DUP3 PUSH2 0xF7E JUMP JUMPDEST PUSH1 0x20 DUP3 ADD SWAP1 POP SWAP2 SWAP1 POP JUMP JUMPDEST PUSH0 PUSH1 0x20 DUP3 ADD SWAP1 POP DUP2 DUP2 SUB PUSH0 DUP4 ADD MSTORE PUSH2 0xFDF DUP2 PUSH2 0xFA6 JUMP JUMPDEST SWAP1 POP SWAP2 SWAP1 POP JUMP JUMPDEST PUSH0 PUSH2 0xFF0 DUP3 PUSH2 0xA07 JUMP JUMPDEST SWAP2 POP PUSH2 0xFFB DUP4 PUSH2 0xA07 JUMP JUMPDEST SWAP3 POP DUP3 DUP3 ADD SWAP1 POP DUP1 DUP3 GT ISZERO PUSH2 0x1013 JUMPI PUSH2 0x1012 PUSH2 0xD55 JUMP JUMPDEST JUMPDEST SWAP3 SWAP2 POP POP JUMP INVALID LOG2 PUSH5 0x6970667358 0x22 SLT KECCAK256 0xAD PUSH13 0xD5599ECAE09D06C68DFCC5F733 0x2B 0x28 0xEB CODESIZE PUSH3 0xFE0909 CREATE2 0x4C 0xBD 0xBC 0xD3 BLOBBASEFEE TLOAD 0xD4 0xBB PUSH5 0x736F6C6343 STOP ADDMOD BYTE STOP CALLER "
				},
				"gasEstimates": {
					"creation": {
						"codeDepositCost": "835000",
						"executionCost": "49399",
						"totalCost": "884399"
					},
					"external": {
						"addFunds()": "infinite",
						"addHeir(address,uint256)": "126744",
						"alive()": "2533",
						"declareDeceased()": "26619",
						"distributeInheritance()": "infinite",
						"getOwner()": "2515",
						"heirAddresses(uint256)": "4945",
						"heirs(address)": "infinite",
						"keepAlive()": "26664",
						"owner()": "2527",
						"poolBalance()": "2469"
					}
				},
				"methodIdentifiers": {
					"addFunds()": "a26759cb",
					"addHeir(address,uint256)": "9cdd47f2",
					"alive()": "753899e9",
					"declareDeceased()": "5e3faa41",
					"distributeInheritance()": "53a41b50",
					"getOwner()": "893d20e8",
					"heirAddresses(uint256)": "4be2bab7",
					"heirs(address)": "f45b587c",
					"keepAlive()": "87740c0d",
					"owner()": "8da5cb5b",
					"poolBalance()": "96365d44"
				}
			},
			"storageLayout": {
				"storage": [
					{
						"astId": 3,
						"contract": "Project1.sol:InheritanceDistributingSystem",
						"label": "owner",
						"offset": 0,
						"slot": "0",
						"type": "t_address"
					},
					{
						"astId": 5,
						"contract": "Project1.sol:InheritanceDistributingSystem",
						"label": "poolBalance",
						"offset": 0,
						"slot": "1",
						"type": "t_uint256"
					},
					{
						"astId": 7,
						"contract": "Project1.sol:InheritanceDistributingSystem",
						"label": "alive",
						"offset": 0,
						"slot": "2",
						"type": "t_bool"
					},
					{
						"astId": 19,
						"contract": "Project1.sol:InheritanceDistributingSystem",
						"label": "heirs",
						"offset": 0,
						"slot": "3",
						"type": "t_mapping(t_address,t_struct(Heir)14_storage)"
					},
					{
						"astId": 22,
						"contract": "Project1.sol:InheritanceDistributingSystem",
						"label": "heirAddresses",
						"offset": 0,
						"slot": "4",
						"type": "t_array(t_address)dyn_storage"
					}
				],
				"types": {
					"t_address": {
						"encoding": "inplace",
						"label": "address",
						"numberOfBytes": "20"
					},
					"t_array(t_address)dyn_storage": {
						"base": "t_address",
						"encoding": "dynamic_array",
						"label": "address[]",
						"numberOfBytes": "32"
					},
					"t_bool": {
						"encoding": "inplace",
						"label": "bool",
						"numberOfBytes": "1"
					},
					"t_mapping(t_address,t_struct(Heir)14_storage)": {
						"encoding": "mapping",
						"key": "t_address",
						"label": "mapping(address => struct InheritanceDistributingSystem.Heir)",
						"numberOfBytes": "32",
						"value": "t_struct(Heir)14_storage"
					},
					"t_struct(Heir)14_storage": {
						"encoding": "inplace",
						"label": "struct InheritanceDistributingSystem.Heir",
						"members": [
							{
								"astId": 9,
								"contract": "Project1.sol:InheritanceDistributingSystem",
								"label": "heirAddress",
								"offset": 0,
								"slot": "0",
								"type": "t_address"
							},
							{
								"astId": 11,
								"contract": "Project1.sol:InheritanceDistributingSystem",
								"label": "share",
								"offset": 0,
								"slot": "1",
								"type": "t_uint256"
							},
							{
								"astId": 13,
								"contract": "Project1.sol:InheritanceDistributingSystem",
								"label": "exists",
								"offset": 0,
								"slot": "2",
								"type": "t_bool"
							}
						],
						"numberOfBytes": "96"
					},
					"t_uint256": {
						"encoding": "inplace",
						"label": "uint256",
						"numberOfBytes": "32"
					}
				}
			},
			"userdoc": {
				"kind": "user",
				"methods": {},
				"version": 1
			}
		}
	}
}