{
	"Project.sol": {
		"tips": {
			"abi": [
				{
					"inputs": [],
					"stateMutability": "nonpayable",
					"type": "constructor"
				},
				{
					"inputs": [
						{
							"internalType": "address payable",
							"name": "walletAddress",
							"type": "address"
						},
						{
							"internalType": "string",
							"name": "name",
							"type": "string"
						}
					],
					"name": "addWaitress",
					"outputs": [],
					"stateMutability": "nonpayable",
					"type": "function"
				},
				{
					"inputs": [],
					"name": "addtips",
					"outputs": [],
					"stateMutability": "payable",
					"type": "function"
				},
				{
					"inputs": [],
					"name": "distrubiteTips",
					"outputs": [],
					"stateMutability": "nonpayable",
					"type": "function"
				},
				{
					"inputs": [
						{
							"internalType": "address payable",
							"name": "walletAddress",
							"type": "address"
						}
					],
					"name": "removeWaitree",
					"outputs": [],
					"stateMutability": "nonpayable",
					"type": "function"
				},
				{
					"inputs": [],
					"name": "viewWaitrass",
					"outputs": [
						{
							"components": [
								{
									"internalType": "address payable",
									"name": "walletAddress",
									"type": "address"
								},
								{
									"internalType": "string",
									"name": "name",
									"type": "string"
								}
							],
							"internalType": "struct tips.Waiteress[]",
							"name": "",
							"type": "tuple[]"
						}
					],
					"stateMutability": "view",
					"type": "function"
				},
				{
					"inputs": [],
					"name": "viewtips",
					"outputs": [
						{
							"internalType": "uint256",
							"name": "",
							"type": "uint256"
						}
					],
					"stateMutability": "view",
					"type": "function"
				}
			],
			"devdoc": {
				"kind": "dev",
				"methods": {},
				"version": 1
			},
			"evm": {
				"assembly": "    /* \"Project.sol\":60:2286  contract tips {... */\n  mstore(0x40, 0x80)\n    /* \"Project.sol\":136:188  constructor(){... */\n  callvalue\n  dup1\n  iszero\n  tag_1\n  jumpi\n  0x00\n  dup1\n  revert\ntag_1:\n  pop\n    /* \"Project.sol\":168:178  msg.sender */\n  caller\n    /* \"Project.sol\":160:165  owner */\n  0x00\n  dup1\n    /* \"Project.sol\":160:178  owner = msg.sender */\n  0x0100\n  exp\n  dup2\n  sload\n  dup2\n  0xffffffffffffffffffffffffffffffffffffffff\n  mul\n  not\n  and\n  swap1\n  dup4\n  0xffffffffffffffffffffffffffffffffffffffff\n  and\n  mul\n  or\n  swap1\n  sstore\n  pop\n    /* \"Project.sol\":60:2286  contract tips {... */\n  dataSize(sub_0)\n  dup1\n  dataOffset(sub_0)\n  0x00\n  codecopy\n  0x00\n  return\nstop\n\nsub_0: assembly {\n        /* \"Project.sol\":60:2286  contract tips {... */\n      mstore(0x40, 0x80)\n      jumpi(tag_1, lt(calldatasize, 0x04))\n      shr(0xe0, calldataload(0x00))\n      dup1\n      0x2a08deda\n      eq\n      tag_2\n      jumpi\n      dup1\n      0x421eb959\n      eq\n      tag_3\n      jumpi\n      dup1\n      0x5495befd\n      eq\n      tag_4\n      jumpi\n      dup1\n      0x6e7301fd\n      eq\n      tag_5\n      jumpi\n      dup1\n      0x8acd3103\n      eq\n      tag_6\n      jumpi\n      dup1\n      0xece39670\n      eq\n      tag_7\n      jumpi\n    tag_1:\n      0x00\n      dup1\n      revert\n        /* \"Project.sol\":312:404  function viewtips() public view returns(uint){... */\n    tag_2:\n      callvalue\n      dup1\n      iszero\n      tag_8\n      jumpi\n      0x00\n      dup1\n      revert\n    tag_8:\n      pop\n      tag_9\n      tag_10\n      jump\t// in\n    tag_9:\n      mload(0x40)\n      tag_11\n      swap2\n      swap1\n      tag_12\n      jump\t// in\n    tag_11:\n      mload(0x40)\n      dup1\n      swap2\n      sub\n      swap1\n      return\n        /* \"Project.sol\":1768:2134  function distrubiteTips() public {... */\n    tag_3:\n      callvalue\n      dup1\n      iszero\n      tag_13\n      jumpi\n      0x00\n      dup1\n      revert\n    tag_13:\n      pop\n      tag_14\n      tag_15\n      jump\t// in\n    tag_14:\n      stop\n        /* \"Project.sol\":566:1116  function addWaitress(address payable walletAddress,string memory name) public {... */\n    tag_4:\n      callvalue\n      dup1\n      iszero\n      tag_16\n      jumpi\n      0x00\n      dup1\n      revert\n    tag_16:\n      pop\n      tag_17\n      0x04\n      dup1\n      calldatasize\n      sub\n      dup2\n      add\n      swap1\n      tag_18\n      swap2\n      swap1\n      tag_19\n      jump\t// in\n    tag_18:\n      tag_20\n      jump\t// in\n    tag_17:\n      stop\n        /* \"Project.sol\":235:279  function addtips() payable public {... */\n    tag_5:\n      tag_21\n      tag_22\n      jump\t// in\n    tag_21:\n      stop\n        /* \"Project.sol\":1636:1734  function viewWaitrass() public view returns (Waiteress[] memory){... */\n    tag_6:\n      callvalue\n      dup1\n      iszero\n      tag_23\n      jumpi\n      0x00\n      dup1\n      revert\n    tag_23:\n      pop\n      tag_24\n      tag_25\n      jump\t// in\n    tag_24:\n      mload(0x40)\n      tag_26\n      swap2\n      swap1\n      tag_27\n      jump\t// in\n    tag_26:\n      mload(0x40)\n      dup1\n      swap2\n      sub\n      swap1\n      return\n        /* \"Project.sol\":1146:1608  function removeWaitree(address payable walletAddress) public{... */\n    tag_7:\n      callvalue\n      dup1\n      iszero\n      tag_28\n      jumpi\n      0x00\n      dup1\n      revert\n    tag_28:\n      pop\n      tag_29\n      0x04\n      dup1\n      calldatasize\n      sub\n      dup2\n      add\n      swap1\n      tag_30\n      swap2\n      swap1\n      tag_31\n      jump\t// in\n    tag_30:\n      tag_32\n      jump\t// in\n    tag_29:\n      stop\n        /* \"Project.sol\":312:404  function viewtips() public view returns(uint){... */\n    tag_10:\n        /* \"Project.sol\":352:356  uint */\n      0x00\n        /* \"Project.sol\":375:396  address(this).balance */\n      selfbalance\n        /* \"Project.sol\":368:396  return address(this).balance */\n      swap1\n      pop\n        /* \"Project.sol\":312:404  function viewtips() public view returns(uint){... */\n      swap1\n      jump\t// out\n        /* \"Project.sol\":1768:2134  function distrubiteTips() public {... */\n    tag_15:\n        /* \"Project.sol\":1844:1845  0 */\n      0x00\n        /* \"Project.sol\":1820:1841  address(this).balance */\n      selfbalance\n        /* \"Project.sol\":1820:1845  address(this).balance > 0 */\n      gt\n        /* \"Project.sol\":1812:1886  require(address(this).balance > 0, \"Insufficient balance in the contract\") */\n      tag_35\n      jumpi\n      mload(0x40)\n      0x08c379a000000000000000000000000000000000000000000000000000000000\n      dup2\n      mstore\n      0x04\n      add\n      tag_36\n      swap1\n      tag_37\n      jump\t// in\n    tag_36:\n      mload(0x40)\n      dup1\n      swap2\n      sub\n      swap1\n      revert\n    tag_35:\n        /* \"Project.sol\":1917:1918  1 */\n      0x01\n        /* \"Project.sol\":1900:1908  waitress */\n      dup1\n        /* \"Project.sol\":1900:1915  waitress.length */\n      dup1\n      sload\n      swap1\n      pop\n        /* \"Project.sol\":1900:1918  waitress.length>=1 */\n      lt\n        /* \"Project.sol\":1897:2127  if(waitress.length>=1){... */\n      tag_38\n      jumpi\n        /* \"Project.sol\":1934:1945  uint amount */\n      0x00\n        /* \"Project.sol\":1972:1980  waitress */\n      0x01\n        /* \"Project.sol\":1972:1987  waitress.length */\n      dup1\n      sload\n      swap1\n      pop\n        /* \"Project.sol\":1948:1969  address(this).balance */\n      selfbalance\n        /* \"Project.sol\":1948:1987  address(this).balance / waitress.length */\n      tag_39\n      swap2\n      swap1\n      tag_40\n      jump\t// in\n    tag_39:\n        /* \"Project.sol\":1934:1987  uint amount = address(this).balance / waitress.length */\n      swap1\n      pop\n        /* \"Project.sol\":2006:2012  uint i */\n      0x00\n        /* \"Project.sol\":2002:2116  for(uint i=0; i<waitress.length; i++){... */\n    tag_41:\n        /* \"Project.sol\":2018:2026  waitress */\n      0x01\n        /* \"Project.sol\":2018:2033  waitress.length */\n      dup1\n      sload\n      swap1\n      pop\n        /* \"Project.sol\":2016:2017  i */\n      dup2\n        /* \"Project.sol\":2016:2033  i<waitress.length */\n      lt\n        /* \"Project.sol\":2002:2116  for(uint i=0; i<waitress.length; i++){... */\n      iszero\n      tag_42\n      jumpi\n        /* \"Project.sol\":2058:2100  transfer(waitress[i].walletAddress,amount) */\n      tag_44\n        /* \"Project.sol\":2067:2075  waitress */\n      0x01\n        /* \"Project.sol\":2076:2077  i */\n      dup3\n        /* \"Project.sol\":2067:2078  waitress[i] */\n      dup2\n      sload\n      dup2\n      lt\n      tag_45\n      jumpi\n      tag_46\n      tag_47\n      jump\t// in\n    tag_46:\n    tag_45:\n      swap1\n      0x00\n      mstore\n      keccak256(0x00, 0x20)\n      swap1\n      0x02\n      mul\n      add\n        /* \"Project.sol\":2067:2092  waitress[i].walletAddress */\n      0x00\n      add\n      0x00\n      swap1\n      sload\n      swap1\n      0x0100\n      exp\n      swap1\n      div\n      0xffffffffffffffffffffffffffffffffffffffff\n      and\n        /* \"Project.sol\":2093:2099  amount */\n      dup4\n        /* \"Project.sol\":2058:2066  transfer */\n      tag_49\n        /* \"Project.sol\":2058:2100  transfer(waitress[i].walletAddress,amount) */\n      jump\t// in\n    tag_44:\n        /* \"Project.sol\":2035:2038  i++ */\n      dup1\n      dup1\n      0x01\n      add\n      swap2\n      pop\n      pop\n        /* \"Project.sol\":2002:2116  for(uint i=0; i<waitress.length; i++){... */\n      jump(tag_41)\n    tag_42:\n      pop\n        /* \"Project.sol\":1919:2127  {... */\n      pop\n        /* \"Project.sol\":1897:2127  if(waitress.length>=1){... */\n    tag_38:\n        /* \"Project.sol\":1768:2134  function distrubiteTips() public {... */\n      jump\t// out\n        /* \"Project.sol\":566:1116  function addWaitress(address payable walletAddress,string memory name) public {... */\n    tag_20:\n        /* \"Project.sol\":677:682  owner */\n      0x00\n      dup1\n      sload\n      swap1\n      0x0100\n      exp\n      swap1\n      div\n      0xffffffffffffffffffffffffffffffffffffffff\n      and\n        /* \"Project.sol\":663:682  msg.sender == owner */\n      0xffffffffffffffffffffffffffffffffffffffff\n      and\n        /* \"Project.sol\":663:673  msg.sender */\n      caller\n        /* \"Project.sol\":663:682  msg.sender == owner */\n      0xffffffffffffffffffffffffffffffffffffffff\n      and\n      eq\n        /* \"Project.sol\":655:724  require(msg.sender == owner, \"Only the owner can call this function\") */\n      tag_51\n      jumpi\n      mload(0x40)\n      0x08c379a000000000000000000000000000000000000000000000000000000000\n      dup2\n      mstore\n      0x04\n      add\n      tag_52\n      swap1\n      tag_53\n      jump\t// in\n    tag_52:\n      mload(0x40)\n      dup1\n      swap2\n      sub\n      swap1\n      revert\n    tag_51:\n        /* \"Project.sol\":735:753  bool waitressExist */\n      0x00\n        /* \"Project.sol\":795:796  1 */\n      0x01\n        /* \"Project.sol\":777:785  waitress */\n      dup1\n        /* \"Project.sol\":777:792  waitress.length */\n      dup1\n      sload\n      swap1\n      pop\n        /* \"Project.sol\":777:796  waitress.length >=1 */\n      lt\n        /* \"Project.sol\":774:990  if(waitress.length >=1){... */\n      tag_54\n      jumpi\n        /* \"Project.sol\":816:822  uint i */\n      0x00\n        /* \"Project.sol\":812:973  for(uint i=0; i<waitress.length; i++)... */\n    tag_55:\n        /* \"Project.sol\":828:836  waitress */\n      0x01\n        /* \"Project.sol\":828:843  waitress.length */\n      dup1\n      sload\n      swap1\n      pop\n        /* \"Project.sol\":826:827  i */\n      dup2\n        /* \"Project.sol\":826:843  i<waitress.length */\n      lt\n        /* \"Project.sol\":812:973  for(uint i=0; i<waitress.length; i++)... */\n      iszero\n      tag_56\n      jumpi\n        /* \"Project.sol\":899:912  walletAddress */\n      dup4\n        /* \"Project.sol\":870:912  waitress[i].walletAddress == walletAddress */\n      0xffffffffffffffffffffffffffffffffffffffff\n      and\n        /* \"Project.sol\":870:878  waitress */\n      0x01\n        /* \"Project.sol\":879:880  i */\n      dup3\n        /* \"Project.sol\":870:881  waitress[i] */\n      dup2\n      sload\n      dup2\n      lt\n      tag_58\n      jumpi\n      tag_59\n      tag_47\n      jump\t// in\n    tag_59:\n    tag_58:\n      swap1\n      0x00\n      mstore\n      keccak256(0x00, 0x20)\n      swap1\n      0x02\n      mul\n      add\n        /* \"Project.sol\":870:895  waitress[i].walletAddress */\n      0x00\n      add\n      0x00\n      swap1\n      sload\n      swap1\n      0x0100\n      exp\n      swap1\n      div\n      0xffffffffffffffffffffffffffffffffffffffff\n      and\n        /* \"Project.sol\":870:912  waitress[i].walletAddress == walletAddress */\n      0xffffffffffffffffffffffffffffffffffffffff\n      and\n      sub\n        /* \"Project.sol\":867:973  if(waitress[i].walletAddress == walletAddress){... */\n      tag_61\n      jumpi\n        /* \"Project.sol\":949:953  true */\n      0x01\n        /* \"Project.sol\":933:953  waitressExist = true */\n      swap2\n      pop\n        /* \"Project.sol\":867:973  if(waitress[i].walletAddress == walletAddress){... */\n    tag_61:\n        /* \"Project.sol\":845:848  i++ */\n      dup1\n      dup1\n      0x01\n      add\n      swap2\n      pop\n      pop\n        /* \"Project.sol\":812:973  for(uint i=0; i<waitress.length; i++)... */\n      jump(tag_55)\n    tag_56:\n      pop\n        /* \"Project.sol\":774:990  if(waitress.length >=1){... */\n    tag_54:\n        /* \"Project.sol\":1022:1027  false */\n      0x00\n        /* \"Project.sol\":1007:1027  waitressExist==false */\n      iszero\n      iszero\n        /* \"Project.sol\":1007:1020  waitressExist */\n      dup2\n        /* \"Project.sol\":1007:1027  waitressExist==false */\n      iszero\n      iszero\n      sub\n        /* \"Project.sol\":1004:1107  if(waitressExist==false){... */\n      tag_62\n      jumpi\n        /* \"Project.sol\":1047:1055  waitress */\n      0x01\n        /* \"Project.sol\":1061:1090  Waiteress(walletAddress,name) */\n      mload(0x40)\n      dup1\n      0x40\n      add\n      0x40\n      mstore\n      dup1\n        /* \"Project.sol\":1071:1084  walletAddress */\n      dup6\n        /* \"Project.sol\":1061:1090  Waiteress(walletAddress,name) */\n      0xffffffffffffffffffffffffffffffffffffffff\n      and\n      dup2\n      mstore\n      0x20\n      add\n        /* \"Project.sol\":1085:1089  name */\n      dup5\n        /* \"Project.sol\":1061:1090  Waiteress(walletAddress,name) */\n      dup2\n      mstore\n      pop\n        /* \"Project.sol\":1047:1091  waitress.push(Waiteress(walletAddress,name)) */\n      swap1\n      dup1\n      0x01\n      dup2\n      sload\n      add\n      dup1\n      dup3\n      sstore\n      dup1\n      swap2\n      pop\n      pop\n      0x01\n      swap1\n      sub\n      swap1\n      0x00\n      mstore\n      keccak256(0x00, 0x20)\n      swap1\n      0x02\n      mul\n      add\n      0x00\n      swap1\n      swap2\n      swap1\n      swap2\n      swap1\n      swap2\n      pop\n      0x00\n      dup3\n      add\n      mload\n      dup2\n      0x00\n      add\n      exp(0x0100, 0x00)\n      dup2\n      sload\n      dup2\n      0xffffffffffffffffffffffffffffffffffffffff\n      mul\n      not\n      and\n      swap1\n      dup4\n      0xffffffffffffffffffffffffffffffffffffffff\n      and\n      mul\n      or\n      swap1\n      sstore\n      pop\n      0x20\n      dup3\n      add\n      mload\n      dup2\n      0x01\n      add\n      swap1\n      dup2\n      tag_64\n      swap2\n      swap1\n      tag_65\n      jump\t// in\n    tag_64:\n      pop\n      pop\n      pop\n        /* \"Project.sol\":1004:1107  if(waitressExist==false){... */\n    tag_62:\n        /* \"Project.sol\":644:1116  {... */\n      pop\n        /* \"Project.sol\":566:1116  function addWaitress(address payable walletAddress,string memory name) public {... */\n      pop\n      pop\n      jump\t// out\n        /* \"Project.sol\":235:279  function addtips() payable public {... */\n    tag_22:\n      jump\t// out\n        /* \"Project.sol\":1636:1734  function viewWaitrass() public view returns (Waiteress[] memory){... */\n    tag_25:\n        /* \"Project.sol\":1681:1699  Waiteress[] memory */\n      0x60\n        /* \"Project.sol\":1718:1726  waitress */\n      0x01\n        /* \"Project.sol\":1711:1726  return waitress */\n      dup1\n      sload\n      dup1\n      0x20\n      mul\n      0x20\n      add\n      mload(0x40)\n      swap1\n      dup2\n      add\n      0x40\n      mstore\n      dup1\n      swap3\n      swap2\n      swap1\n      dup2\n      dup2\n      mstore\n      0x20\n      add\n      0x00\n      swap1\n    tag_68:\n      dup3\n      dup3\n      lt\n      iszero\n      tag_69\n      jumpi\n      dup4\n      dup3\n      swap1\n      0x00\n      mstore\n      keccak256(0x00, 0x20)\n      swap1\n      0x02\n      mul\n      add\n      mload(0x40)\n      dup1\n      0x40\n      add\n      0x40\n      mstore\n      swap1\n      dup2\n      0x00\n      dup3\n      add\n      0x00\n      swap1\n      sload\n      swap1\n      0x0100\n      exp\n      swap1\n      div\n      0xffffffffffffffffffffffffffffffffffffffff\n      and\n      0xffffffffffffffffffffffffffffffffffffffff\n      and\n      0xffffffffffffffffffffffffffffffffffffffff\n      and\n      dup2\n      mstore\n      0x20\n      add\n      0x01\n      dup3\n      add\n      dup1\n      sload\n      tag_71\n      swap1\n      tag_72\n      jump\t// in\n    tag_71:\n      dup1\n      0x1f\n      add\n      0x20\n      dup1\n      swap2\n      div\n      mul\n      0x20\n      add\n      mload(0x40)\n      swap1\n      dup2\n      add\n      0x40\n      mstore\n      dup1\n      swap3\n      swap2\n      swap1\n      dup2\n      dup2\n      mstore\n      0x20\n      add\n      dup3\n      dup1\n      sload\n      tag_73\n      swap1\n      tag_72\n      jump\t// in\n    tag_73:\n      dup1\n      iszero\n      tag_74\n      jumpi\n      dup1\n      0x1f\n      lt\n      tag_75\n      jumpi\n      0x0100\n      dup1\n      dup4\n      sload\n      div\n      mul\n      dup4\n      mstore\n      swap2\n      0x20\n      add\n      swap2\n      jump(tag_74)\n    tag_75:\n      dup3\n      add\n      swap2\n      swap1\n      0x00\n      mstore\n      keccak256(0x00, 0x20)\n      swap1\n    tag_76:\n      dup2\n      sload\n      dup2\n      mstore\n      swap1\n      0x01\n      add\n      swap1\n      0x20\n      add\n      dup1\n      dup4\n      gt\n      tag_76\n      jumpi\n      dup3\n      swap1\n      sub\n      0x1f\n      and\n      dup3\n      add\n      swap2\n    tag_74:\n      pop\n      pop\n      pop\n      pop\n      pop\n      dup2\n      mstore\n      pop\n      pop\n      dup2\n      mstore\n      0x20\n      add\n      swap1\n      0x01\n      add\n      swap1\n      jump(tag_68)\n    tag_69:\n      pop\n      pop\n      pop\n      pop\n      swap1\n      pop\n        /* \"Project.sol\":1636:1734  function viewWaitrass() public view returns (Waiteress[] memory){... */\n      swap1\n      jump\t// out\n        /* \"Project.sol\":1146:1608  function removeWaitree(address payable walletAddress) public{... */\n    tag_32:\n        /* \"Project.sol\":1236:1237  0 */\n      0x00\n        /* \"Project.sol\":1220:1228  waitress */\n      0x01\n        /* \"Project.sol\":1220:1235  waitress.length */\n      dup1\n      sload\n      swap1\n      pop\n        /* \"Project.sol\":1220:1237  waitress.length>0 */\n      gt\n        /* \"Project.sol\":1217:1601  if(waitress.length>0){... */\n      iszero\n      tag_78\n      jumpi\n        /* \"Project.sol\":1257:1263  uint i */\n      0x00\n        /* \"Project.sol\":1253:1590  for(uint i=0; i<waitress.length; i++){... */\n    tag_79:\n        /* \"Project.sol\":1269:1277  waitress */\n      0x01\n        /* \"Project.sol\":1269:1284  waitress.length */\n      dup1\n      sload\n      swap1\n      pop\n        /* \"Project.sol\":1267:1268  i */\n      dup2\n        /* \"Project.sol\":1267:1284  i<waitress.length */\n      lt\n        /* \"Project.sol\":1253:1590  for(uint i=0; i<waitress.length; i++){... */\n      iszero\n      tag_80\n      jumpi\n        /* \"Project.sol\":1339:1352  walletAddress */\n      dup2\n        /* \"Project.sol\":1312:1352  waitress[i].walletAddress==walletAddress */\n      0xffffffffffffffffffffffffffffffffffffffff\n      and\n        /* \"Project.sol\":1312:1320  waitress */\n      0x01\n        /* \"Project.sol\":1321:1322  i */\n      dup3\n        /* \"Project.sol\":1312:1323  waitress[i] */\n      dup2\n      sload\n      dup2\n      lt\n      tag_82\n      jumpi\n      tag_83\n      tag_47\n      jump\t// in\n    tag_83:\n    tag_82:\n      swap1\n      0x00\n      mstore\n      keccak256(0x00, 0x20)\n      swap1\n      0x02\n      mul\n      add\n        /* \"Project.sol\":1312:1337  waitress[i].walletAddress */\n      0x00\n      add\n      0x00\n      swap1\n      sload\n      swap1\n      0x0100\n      exp\n      swap1\n      div\n      0xffffffffffffffffffffffffffffffffffffffff\n      and\n        /* \"Project.sol\":1312:1352  waitress[i].walletAddress==walletAddress */\n      0xffffffffffffffffffffffffffffffffffffffff\n      and\n      sub\n        /* \"Project.sol\":1309:1575  if(waitress[i].walletAddress==walletAddress){... */\n      tag_85\n      jumpi\n        /* \"Project.sol\":1380:1386  uint j */\n      0x00\n        /* \"Project.sol\":1387:1388  i */\n      dup2\n        /* \"Project.sol\":1380:1388  uint j=i */\n      swap1\n      pop\n        /* \"Project.sol\":1376:1491  for(uint j=i; j<waitress.length-1; j++){... */\n    tag_86:\n        /* \"Project.sol\":1408:1409  1 */\n      0x01\n        /* \"Project.sol\":1392:1400  waitress */\n      dup1\n        /* \"Project.sol\":1392:1407  waitress.length */\n      dup1\n      sload\n      swap1\n      pop\n        /* \"Project.sol\":1392:1409  waitress.length-1 */\n      tag_89\n      swap2\n      swap1\n      tag_90\n      jump\t// in\n    tag_89:\n        /* \"Project.sol\":1390:1391  j */\n      dup2\n        /* \"Project.sol\":1390:1409  j<waitress.length-1 */\n      lt\n        /* \"Project.sol\":1376:1491  for(uint j=i; j<waitress.length-1; j++){... */\n      iszero\n      tag_87\n      jumpi\n        /* \"Project.sol\":1454:1462  waitress */\n      0x01\n        /* \"Project.sol\":1465:1466  1 */\n      dup1\n        /* \"Project.sol\":1463:1464  j */\n      dup3\n        /* \"Project.sol\":1463:1466  j+1 */\n      tag_91\n      swap2\n      swap1\n      tag_92\n      jump\t// in\n    tag_91:\n        /* \"Project.sol\":1454:1467  waitress[j+1] */\n      dup2\n      sload\n      dup2\n      lt\n      tag_93\n      jumpi\n      tag_94\n      tag_47\n      jump\t// in\n    tag_94:\n    tag_93:\n      swap1\n      0x00\n      mstore\n      keccak256(0x00, 0x20)\n      swap1\n      0x02\n      mul\n      add\n        /* \"Project.sol\":1442:1450  waitress */\n      0x01\n        /* \"Project.sol\":1451:1452  j */\n      dup3\n        /* \"Project.sol\":1442:1453  waitress[j] */\n      dup2\n      sload\n      dup2\n      lt\n      tag_96\n      jumpi\n      tag_97\n      tag_47\n      jump\t// in\n    tag_97:\n    tag_96:\n      swap1\n      0x00\n      mstore\n      keccak256(0x00, 0x20)\n      swap1\n      0x02\n      mul\n      add\n        /* \"Project.sol\":1442:1467  waitress[j]=waitress[j+1] */\n      0x00\n      dup3\n      add\n      0x00\n      swap1\n      sload\n      swap1\n      0x0100\n      exp\n      swap1\n      div\n      0xffffffffffffffffffffffffffffffffffffffff\n      and\n      dup2\n      0x00\n      add\n      exp(0x0100, 0x00)\n      dup2\n      sload\n      dup2\n      0xffffffffffffffffffffffffffffffffffffffff\n      mul\n      not\n      and\n      swap1\n      dup4\n      0xffffffffffffffffffffffffffffffffffffffff\n      and\n      mul\n      or\n      swap1\n      sstore\n      pop\n      0x01\n      dup3\n      add\n      dup2\n      0x01\n      add\n      swap1\n      dup2\n      tag_99\n      swap2\n      swap1\n      tag_100\n      jump\t// in\n    tag_99:\n      pop\n      swap1\n      pop\n      pop\n        /* \"Project.sol\":1411:1414  j++ */\n      dup1\n      dup1\n      0x01\n      add\n      swap2\n      pop\n      pop\n        /* \"Project.sol\":1376:1491  for(uint j=i; j<waitress.length-1; j++){... */\n      jump(tag_86)\n    tag_87:\n      pop\n        /* \"Project.sol\":1513:1521  waitress */\n      0x01\n        /* \"Project.sol\":1513:1527  waitress.pop() */\n      dup1\n      sload\n      dup1\n      tag_101\n      jumpi\n      tag_102\n      tag_103\n      jump\t// in\n    tag_102:\n    tag_101:\n      0x01\n      swap1\n      sub\n      dup2\n      dup2\n      swap1\n      0x00\n      mstore\n      keccak256(0x00, 0x20)\n      swap1\n      0x02\n      mul\n      add\n      0x00\n      dup1\n      dup3\n      add\n      exp(0x0100, 0x00)\n      dup2\n      sload\n      swap1\n      0xffffffffffffffffffffffffffffffffffffffff\n      mul\n      not\n      and\n      swap1\n      sstore\n      0x01\n      dup3\n      add\n      0x00\n      tag_105\n      swap2\n      swap1\n      tag_106\n      jump\t// in\n    tag_105:\n      pop\n      pop\n      swap1\n      sstore\n        /* \"Project.sol\":1550:1555  break */\n      jump(tag_80)\n        /* \"Project.sol\":1309:1575  if(waitress[i].walletAddress==walletAddress){... */\n    tag_85:\n        /* \"Project.sol\":1286:1289  i++ */\n      dup1\n      dup1\n      0x01\n      add\n      swap2\n      pop\n      pop\n        /* \"Project.sol\":1253:1590  for(uint i=0; i<waitress.length; i++){... */\n      jump(tag_79)\n    tag_80:\n      pop\n        /* \"Project.sol\":1217:1601  if(waitress.length>0){... */\n    tag_78:\n        /* \"Project.sol\":1146:1608  function removeWaitree(address payable walletAddress) public{... */\n      pop\n      jump\t// out\n        /* \"Project.sol\":2163:2283  function transfer(address payable walletAddress, uint amount) internal {... */\n    tag_49:\n        /* \"Project.sol\":2245:2258  walletAddress */\n      dup2\n        /* \"Project.sol\":2245:2267  walletAddress.transfer */\n      0xffffffffffffffffffffffffffffffffffffffff\n      and\n        /* \"Project.sol\":2245:2275  walletAddress.transfer(amount) */\n      0x08fc\n        /* \"Project.sol\":2268:2274  amount */\n      dup3\n        /* \"Project.sol\":2245:2275  walletAddress.transfer(amount) */\n      swap1\n      dup2\n      iszero\n      mul\n      swap1\n      mload(0x40)\n      0x00\n      mload(0x40)\n      dup1\n      dup4\n      sub\n      dup2\n      dup6\n      dup9\n      dup9\n      call\n      swap4\n      pop\n      pop\n      pop\n      pop\n      iszero\n      dup1\n      iszero\n      tag_109\n      jumpi\n      returndatasize\n      0x00\n      dup1\n      returndatacopy\n      revert(0x00, returndatasize)\n    tag_109:\n      pop\n        /* \"Project.sol\":2163:2283  function transfer(address payable walletAddress, uint amount) internal {... */\n      pop\n      pop\n      jump\t// out\n    tag_106:\n      pop\n      dup1\n      sload\n      tag_110\n      swap1\n      tag_72\n      jump\t// in\n    tag_110:\n      0x00\n      dup3\n      sstore\n      dup1\n      0x1f\n      lt\n      tag_112\n      jumpi\n      pop\n      jump(tag_111)\n    tag_112:\n      0x1f\n      add\n      0x20\n      swap1\n      div\n      swap1\n      0x00\n      mstore\n      keccak256(0x00, 0x20)\n      swap1\n      dup2\n      add\n      swap1\n      tag_113\n      swap2\n      swap1\n      tag_114\n      jump\t// in\n    tag_113:\n    tag_111:\n      pop\n      jump\t// out\n    tag_114:\n    tag_115:\n      dup1\n      dup3\n      gt\n      iszero\n      tag_116\n      jumpi\n      0x00\n      dup2\n      0x00\n      swap1\n      sstore\n      pop\n      0x01\n      add\n      jump(tag_115)\n    tag_116:\n      pop\n      swap1\n      jump\t// out\n        /* \"#utility.yul\":7:84   */\n    tag_117:\n        /* \"#utility.yul\":44:51   */\n      0x00\n        /* \"#utility.yul\":73:78   */\n      dup2\n        /* \"#utility.yul\":62:78   */\n      swap1\n      pop\n        /* \"#utility.yul\":7:84   */\n      swap2\n      swap1\n      pop\n      jump\t// out\n        /* \"#utility.yul\":90:208   */\n    tag_118:\n        /* \"#utility.yul\":177:201   */\n      tag_175\n        /* \"#utility.yul\":195:200   */\n      dup2\n        /* \"#utility.yul\":177:201   */\n      tag_117\n      jump\t// in\n    tag_175:\n        /* \"#utility.yul\":172:175   */\n      dup3\n        /* \"#utility.yul\":165:202   */\n      mstore\n        /* \"#utility.yul\":90:208   */\n      pop\n      pop\n      jump\t// out\n        /* \"#utility.yul\":214:436   */\n    tag_12:\n        /* \"#utility.yul\":307:311   */\n      0x00\n        /* \"#utility.yul\":345:347   */\n      0x20\n        /* \"#utility.yul\":334:343   */\n      dup3\n        /* \"#utility.yul\":330:348   */\n      add\n        /* \"#utility.yul\":322:348   */\n      swap1\n      pop\n        /* \"#utility.yul\":358:429   */\n      tag_177\n        /* \"#utility.yul\":426:427   */\n      0x00\n        /* \"#utility.yul\":415:424   */\n      dup4\n        /* \"#utility.yul\":411:428   */\n      add\n        /* \"#utility.yul\":402:408   */\n      dup5\n        /* \"#utility.yul\":358:429   */\n      tag_118\n      jump\t// in\n    tag_177:\n        /* \"#utility.yul\":214:436   */\n      swap3\n      swap2\n      pop\n      pop\n      jump\t// out\n        /* \"#utility.yul\":442:517   */\n    tag_119:\n        /* \"#utility.yul\":475:481   */\n      0x00\n        /* \"#utility.yul\":508:510   */\n      0x40\n        /* \"#utility.yul\":502:511   */\n      mload\n        /* \"#utility.yul\":492:511   */\n      swap1\n      pop\n        /* \"#utility.yul\":442:517   */\n      swap1\n      jump\t// out\n        /* \"#utility.yul\":523:640   */\n    tag_120:\n        /* \"#utility.yul\":632:633   */\n      0x00\n        /* \"#utility.yul\":629:630   */\n      dup1\n        /* \"#utility.yul\":622:634   */\n      revert\n        /* \"#utility.yul\":646:763   */\n    tag_121:\n        /* \"#utility.yul\":755:756   */\n      0x00\n        /* \"#utility.yul\":752:753   */\n      dup1\n        /* \"#utility.yul\":745:757   */\n      revert\n        /* \"#utility.yul\":769:895   */\n    tag_122:\n        /* \"#utility.yul\":806:813   */\n      0x00\n        /* \"#utility.yul\":846:888   */\n      0xffffffffffffffffffffffffffffffffffffffff\n        /* \"#utility.yul\":839:844   */\n      dup3\n        /* \"#utility.yul\":835:889   */\n      and\n        /* \"#utility.yul\":824:889   */\n      swap1\n      pop\n        /* \"#utility.yul\":769:895   */\n      swap2\n      swap1\n      pop\n      jump\t// out\n        /* \"#utility.yul\":901:1005   */\n    tag_123:\n        /* \"#utility.yul\":946:953   */\n      0x00\n        /* \"#utility.yul\":975:999   */\n      tag_183\n        /* \"#utility.yul\":993:998   */\n      dup3\n        /* \"#utility.yul\":975:999   */\n      tag_122\n      jump\t// in\n    tag_183:\n        /* \"#utility.yul\":964:999   */\n      swap1\n      pop\n        /* \"#utility.yul\":901:1005   */\n      swap2\n      swap1\n      pop\n      jump\t// out\n        /* \"#utility.yul\":1011:1149   */\n    tag_124:\n        /* \"#utility.yul\":1092:1124   */\n      tag_185\n        /* \"#utility.yul\":1118:1123   */\n      dup2\n        /* \"#utility.yul\":1092:1124   */\n      tag_123\n      jump\t// in\n    tag_185:\n        /* \"#utility.yul\":1085:1090   */\n      dup2\n        /* \"#utility.yul\":1082:1125   */\n      eq\n        /* \"#utility.yul\":1072:1143   */\n      tag_186\n      jumpi\n        /* \"#utility.yul\":1139:1140   */\n      0x00\n        /* \"#utility.yul\":1136:1137   */\n      dup1\n        /* \"#utility.yul\":1129:1141   */\n      revert\n        /* \"#utility.yul\":1072:1143   */\n    tag_186:\n        /* \"#utility.yul\":1011:1149   */\n      pop\n      jump\t// out\n        /* \"#utility.yul\":1155:1310   */\n    tag_125:\n        /* \"#utility.yul\":1209:1214   */\n      0x00\n        /* \"#utility.yul\":1247:1253   */\n      dup2\n        /* \"#utility.yul\":1234:1254   */\n      calldataload\n        /* \"#utility.yul\":1225:1254   */\n      swap1\n      pop\n        /* \"#utility.yul\":1263:1304   */\n      tag_188\n        /* \"#utility.yul\":1298:1303   */\n      dup2\n        /* \"#utility.yul\":1263:1304   */\n      tag_124\n      jump\t// in\n    tag_188:\n        /* \"#utility.yul\":1155:1310   */\n      swap3\n      swap2\n      pop\n      pop\n      jump\t// out\n        /* \"#utility.yul\":1316:1433   */\n    tag_126:\n        /* \"#utility.yul\":1425:1426   */\n      0x00\n        /* \"#utility.yul\":1422:1423   */\n      dup1\n        /* \"#utility.yul\":1415:1427   */\n      revert\n        /* \"#utility.yul\":1439:1556   */\n    tag_127:\n        /* \"#utility.yul\":1548:1549   */\n      0x00\n        /* \"#utility.yul\":1545:1546   */\n      dup1\n        /* \"#utility.yul\":1538:1550   */\n      revert\n        /* \"#utility.yul\":1562:1664   */\n    tag_128:\n        /* \"#utility.yul\":1603:1609   */\n      0x00\n        /* \"#utility.yul\":1654:1656   */\n      0x1f\n        /* \"#utility.yul\":1650:1657   */\n      not\n        /* \"#utility.yul\":1645:1647   */\n      0x1f\n        /* \"#utility.yul\":1638:1643   */\n      dup4\n        /* \"#utility.yul\":1634:1648   */\n      add\n        /* \"#utility.yul\":1630:1658   */\n      and\n        /* \"#utility.yul\":1620:1658   */\n      swap1\n      pop\n        /* \"#utility.yul\":1562:1664   */\n      swap2\n      swap1\n      pop\n      jump\t// out\n        /* \"#utility.yul\":1670:1850   */\n    tag_129:\n        /* \"#utility.yul\":1718:1795   */\n      0x4e487b7100000000000000000000000000000000000000000000000000000000\n        /* \"#utility.yul\":1715:1716   */\n      0x00\n        /* \"#utility.yul\":1708:1796   */\n      mstore\n        /* \"#utility.yul\":1815:1819   */\n      0x41\n        /* \"#utility.yul\":1812:1813   */\n      0x04\n        /* \"#utility.yul\":1805:1820   */\n      mstore\n        /* \"#utility.yul\":1839:1843   */\n      0x24\n        /* \"#utility.yul\":1836:1837   */\n      0x00\n        /* \"#utility.yul\":1829:1844   */\n      revert\n        /* \"#utility.yul\":1856:2137   */\n    tag_130:\n        /* \"#utility.yul\":1939:1966   */\n      tag_194\n        /* \"#utility.yul\":1961:1965   */\n      dup3\n        /* \"#utility.yul\":1939:1966   */\n      tag_128\n      jump\t// in\n    tag_194:\n        /* \"#utility.yul\":1931:1937   */\n      dup2\n        /* \"#utility.yul\":1927:1967   */\n      add\n        /* \"#utility.yul\":2069:2075   */\n      dup2\n        /* \"#utility.yul\":2057:2067   */\n      dup2\n        /* \"#utility.yul\":2054:2076   */\n      lt\n        /* \"#utility.yul\":2033:2051   */\n      0xffffffffffffffff\n        /* \"#utility.yul\":2021:2031   */\n      dup3\n        /* \"#utility.yul\":2018:2052   */\n      gt\n        /* \"#utility.yul\":2015:2077   */\n      or\n        /* \"#utility.yul\":2012:2100   */\n      iszero\n      tag_195\n      jumpi\n        /* \"#utility.yul\":2080:2098   */\n      tag_196\n      tag_129\n      jump\t// in\n    tag_196:\n        /* \"#utility.yul\":2012:2100   */\n    tag_195:\n        /* \"#utility.yul\":2120:2130   */\n      dup1\n        /* \"#utility.yul\":2116:2118   */\n      0x40\n        /* \"#utility.yul\":2109:2131   */\n      mstore\n        /* \"#utility.yul\":1899:2137   */\n      pop\n        /* \"#utility.yul\":1856:2137   */\n      pop\n      pop\n      jump\t// out\n        /* \"#utility.yul\":2143:2272   */\n    tag_131:\n        /* \"#utility.yul\":2177:2183   */\n      0x00\n        /* \"#utility.yul\":2204:2224   */\n      tag_198\n      tag_119\n      jump\t// in\n    tag_198:\n        /* \"#utility.yul\":2194:2224   */\n      swap1\n      pop\n        /* \"#utility.yul\":2233:2266   */\n      tag_199\n        /* \"#utility.yul\":2261:2265   */\n      dup3\n        /* \"#utility.yul\":2253:2259   */\n      dup3\n        /* \"#utility.yul\":2233:2266   */\n      tag_130\n      jump\t// in\n    tag_199:\n        /* \"#utility.yul\":2143:2272   */\n      swap2\n      swap1\n      pop\n      jump\t// out\n        /* \"#utility.yul\":2278:2586   */\n    tag_132:\n        /* \"#utility.yul\":2340:2344   */\n      0x00\n        /* \"#utility.yul\":2430:2448   */\n      0xffffffffffffffff\n        /* \"#utility.yul\":2422:2428   */\n      dup3\n        /* \"#utility.yul\":2419:2449   */\n      gt\n        /* \"#utility.yul\":2416:2472   */\n      iszero\n      tag_201\n      jumpi\n        /* \"#utility.yul\":2452:2470   */\n      tag_202\n      tag_129\n      jump\t// in\n    tag_202:\n        /* \"#utility.yul\":2416:2472   */\n    tag_201:\n        /* \"#utility.yul\":2490:2519   */\n      tag_203\n        /* \"#utility.yul\":2512:2518   */\n      dup3\n        /* \"#utility.yul\":2490:2519   */\n      tag_128\n      jump\t// in\n    tag_203:\n        /* \"#utility.yul\":2482:2519   */\n      swap1\n      pop\n        /* \"#utility.yul\":2574:2578   */\n      0x20\n        /* \"#utility.yul\":2568:2572   */\n      dup2\n        /* \"#utility.yul\":2564:2579   */\n      add\n        /* \"#utility.yul\":2556:2579   */\n      swap1\n      pop\n        /* \"#utility.yul\":2278:2586   */\n      swap2\n      swap1\n      pop\n      jump\t// out\n        /* \"#utility.yul\":2592:2740   */\n    tag_133:\n        /* \"#utility.yul\":2690:2696   */\n      dup3\n        /* \"#utility.yul\":2685:2688   */\n      dup2\n        /* \"#utility.yul\":2680:2683   */\n      dup4\n        /* \"#utility.yul\":2667:2697   */\n      calldatacopy\n        /* \"#utility.yul\":2731:2732   */\n      0x00\n        /* \"#utility.yul\":2722:2728   */\n      dup4\n        /* \"#utility.yul\":2717:2720   */\n      dup4\n        /* \"#utility.yul\":2713:2729   */\n      add\n        /* \"#utility.yul\":2706:2733   */\n      mstore\n        /* \"#utility.yul\":2592:2740   */\n      pop\n      pop\n      pop\n      jump\t// out\n        /* \"#utility.yul\":2746:3171   */\n    tag_134:\n        /* \"#utility.yul\":2824:2829   */\n      0x00\n        /* \"#utility.yul\":2849:2915   */\n      tag_206\n        /* \"#utility.yul\":2865:2914   */\n      tag_207\n        /* \"#utility.yul\":2907:2913   */\n      dup5\n        /* \"#utility.yul\":2865:2914   */\n      tag_132\n      jump\t// in\n    tag_207:\n        /* \"#utility.yul\":2849:2915   */\n      tag_131\n      jump\t// in\n    tag_206:\n        /* \"#utility.yul\":2840:2915   */\n      swap1\n      pop\n        /* \"#utility.yul\":2938:2944   */\n      dup3\n        /* \"#utility.yul\":2931:2936   */\n      dup2\n        /* \"#utility.yul\":2924:2945   */\n      mstore\n        /* \"#utility.yul\":2976:2980   */\n      0x20\n        /* \"#utility.yul\":2969:2974   */\n      dup2\n        /* \"#utility.yul\":2965:2981   */\n      add\n        /* \"#utility.yul\":3014:3017   */\n      dup5\n        /* \"#utility.yul\":3005:3011   */\n      dup5\n        /* \"#utility.yul\":3000:3003   */\n      dup5\n        /* \"#utility.yul\":2996:3012   */\n      add\n        /* \"#utility.yul\":2993:3018   */\n      gt\n        /* \"#utility.yul\":2990:3102   */\n      iszero\n      tag_208\n      jumpi\n        /* \"#utility.yul\":3021:3100   */\n      tag_209\n      tag_127\n      jump\t// in\n    tag_209:\n        /* \"#utility.yul\":2990:3102   */\n    tag_208:\n        /* \"#utility.yul\":3111:3165   */\n      tag_210\n        /* \"#utility.yul\":3158:3164   */\n      dup5\n        /* \"#utility.yul\":3153:3156   */\n      dup3\n        /* \"#utility.yul\":3148:3151   */\n      dup6\n        /* \"#utility.yul\":3111:3165   */\n      tag_133\n      jump\t// in\n    tag_210:\n        /* \"#utility.yul\":2830:3171   */\n      pop\n        /* \"#utility.yul\":2746:3171   */\n      swap4\n      swap3\n      pop\n      pop\n      pop\n      jump\t// out\n        /* \"#utility.yul\":3191:3531   */\n    tag_135:\n        /* \"#utility.yul\":3247:3252   */\n      0x00\n        /* \"#utility.yul\":3296:3299   */\n      dup3\n        /* \"#utility.yul\":3289:3293   */\n      0x1f\n        /* \"#utility.yul\":3281:3287   */\n      dup4\n        /* \"#utility.yul\":3277:3294   */\n      add\n        /* \"#utility.yul\":3273:3300   */\n      slt\n        /* \"#utility.yul\":3263:3385   */\n      tag_212\n      jumpi\n        /* \"#utility.yul\":3304:3383   */\n      tag_213\n      tag_126\n      jump\t// in\n    tag_213:\n        /* \"#utility.yul\":3263:3385   */\n    tag_212:\n        /* \"#utility.yul\":3421:3427   */\n      dup2\n        /* \"#utility.yul\":3408:3428   */\n      calldataload\n        /* \"#utility.yul\":3446:3525   */\n      tag_214\n        /* \"#utility.yul\":3521:3524   */\n      dup5\n        /* \"#utility.yul\":3513:3519   */\n      dup3\n        /* \"#utility.yul\":3506:3510   */\n      0x20\n        /* \"#utility.yul\":3498:3504   */\n      dup7\n        /* \"#utility.yul\":3494:3511   */\n      add\n        /* \"#utility.yul\":3446:3525   */\n      tag_134\n      jump\t// in\n    tag_214:\n        /* \"#utility.yul\":3437:3525   */\n      swap2\n      pop\n        /* \"#utility.yul\":3253:3531   */\n      pop\n        /* \"#utility.yul\":3191:3531   */\n      swap3\n      swap2\n      pop\n      pop\n      jump\t// out\n        /* \"#utility.yul\":3537:4207   */\n    tag_19:\n        /* \"#utility.yul\":3623:3629   */\n      0x00\n        /* \"#utility.yul\":3631:3637   */\n      dup1\n        /* \"#utility.yul\":3680:3682   */\n      0x40\n        /* \"#utility.yul\":3668:3677   */\n      dup4\n        /* \"#utility.yul\":3659:3666   */\n      dup6\n        /* \"#utility.yul\":3655:3678   */\n      sub\n        /* \"#utility.yul\":3651:3683   */\n      slt\n        /* \"#utility.yul\":3648:3767   */\n      iszero\n      tag_216\n      jumpi\n        /* \"#utility.yul\":3686:3765   */\n      tag_217\n      tag_120\n      jump\t// in\n    tag_217:\n        /* \"#utility.yul\":3648:3767   */\n    tag_216:\n        /* \"#utility.yul\":3806:3807   */\n      0x00\n        /* \"#utility.yul\":3831:3892   */\n      tag_218\n        /* \"#utility.yul\":3884:3891   */\n      dup6\n        /* \"#utility.yul\":3875:3881   */\n      dup3\n        /* \"#utility.yul\":3864:3873   */\n      dup7\n        /* \"#utility.yul\":3860:3882   */\n      add\n        /* \"#utility.yul\":3831:3892   */\n      tag_125\n      jump\t// in\n    tag_218:\n        /* \"#utility.yul\":3821:3892   */\n      swap3\n      pop\n        /* \"#utility.yul\":3777:3902   */\n      pop\n        /* \"#utility.yul\":3969:3971   */\n      0x20\n        /* \"#utility.yul\":3958:3967   */\n      dup4\n        /* \"#utility.yul\":3954:3972   */\n      add\n        /* \"#utility.yul\":3941:3973   */\n      calldataload\n        /* \"#utility.yul\":4000:4018   */\n      0xffffffffffffffff\n        /* \"#utility.yul\":3992:3998   */\n      dup2\n        /* \"#utility.yul\":3989:4019   */\n      gt\n        /* \"#utility.yul\":3986:4103   */\n      iszero\n      tag_219\n      jumpi\n        /* \"#utility.yul\":4022:4101   */\n      tag_220\n      tag_121\n      jump\t// in\n    tag_220:\n        /* \"#utility.yul\":3986:4103   */\n    tag_219:\n        /* \"#utility.yul\":4127:4190   */\n      tag_221\n        /* \"#utility.yul\":4182:4189   */\n      dup6\n        /* \"#utility.yul\":4173:4179   */\n      dup3\n        /* \"#utility.yul\":4162:4171   */\n      dup7\n        /* \"#utility.yul\":4158:4180   */\n      add\n        /* \"#utility.yul\":4127:4190   */\n      tag_135\n      jump\t// in\n    tag_221:\n        /* \"#utility.yul\":4117:4190   */\n      swap2\n      pop\n        /* \"#utility.yul\":3912:4200   */\n      pop\n        /* \"#utility.yul\":3537:4207   */\n      swap3\n      pop\n      swap3\n      swap1\n      pop\n      jump\t// out\n        /* \"#utility.yul\":4213:4352   */\n    tag_136:\n        /* \"#utility.yul\":4305:4311   */\n      0x00\n        /* \"#utility.yul\":4339:4344   */\n      dup2\n        /* \"#utility.yul\":4333:4345   */\n      mload\n        /* \"#utility.yul\":4323:4345   */\n      swap1\n      pop\n        /* \"#utility.yul\":4213:4352   */\n      swap2\n      swap1\n      pop\n      jump\t// out\n        /* \"#utility.yul\":4358:4567   */\n    tag_137:\n        /* \"#utility.yul\":4482:4493   */\n      0x00\n        /* \"#utility.yul\":4516:4522   */\n      dup3\n        /* \"#utility.yul\":4511:4514   */\n      dup3\n        /* \"#utility.yul\":4504:4523   */\n      mstore\n        /* \"#utility.yul\":4556:4560   */\n      0x20\n        /* \"#utility.yul\":4551:4554   */\n      dup3\n        /* \"#utility.yul\":4547:4561   */\n      add\n        /* \"#utility.yul\":4532:4561   */\n      swap1\n      pop\n        /* \"#utility.yul\":4358:4567   */\n      swap3\n      swap2\n      pop\n      pop\n      jump\t// out\n        /* \"#utility.yul\":4573:4730   */\n    tag_138:\n        /* \"#utility.yul\":4665:4669   */\n      0x00\n        /* \"#utility.yul\":4688:4691   */\n      dup2\n        /* \"#utility.yul\":4680:4691   */\n      swap1\n      pop\n        /* \"#utility.yul\":4718:4722   */\n      0x20\n        /* \"#utility.yul\":4713:4716   */\n      dup3\n        /* \"#utility.yul\":4709:4723   */\n      add\n        /* \"#utility.yul\":4701:4723   */\n      swap1\n      pop\n        /* \"#utility.yul\":4573:4730   */\n      swap2\n      swap1\n      pop\n      jump\t// out\n        /* \"#utility.yul\":4736:4868   */\n    tag_139:\n        /* \"#utility.yul\":4829:4861   */\n      tag_226\n        /* \"#utility.yul\":4855:4860   */\n      dup2\n        /* \"#utility.yul\":4829:4861   */\n      tag_123\n      jump\t// in\n    tag_226:\n        /* \"#utility.yul\":4824:4827   */\n      dup3\n        /* \"#utility.yul\":4817:4862   */\n      mstore\n        /* \"#utility.yul\":4736:4868   */\n      pop\n      pop\n      jump\t// out\n        /* \"#utility.yul\":4874:4973   */\n    tag_140:\n        /* \"#utility.yul\":4926:4932   */\n      0x00\n        /* \"#utility.yul\":4960:4965   */\n      dup2\n        /* \"#utility.yul\":4954:4966   */\n      mload\n        /* \"#utility.yul\":4944:4966   */\n      swap1\n      pop\n        /* \"#utility.yul\":4874:4973   */\n      swap2\n      swap1\n      pop\n      jump\t// out\n        /* \"#utility.yul\":4979:5138   */\n    tag_141:\n        /* \"#utility.yul\":5053:5064   */\n      0x00\n        /* \"#utility.yul\":5087:5093   */\n      dup3\n        /* \"#utility.yul\":5082:5085   */\n      dup3\n        /* \"#utility.yul\":5075:5094   */\n      mstore\n        /* \"#utility.yul\":5127:5131   */\n      0x20\n        /* \"#utility.yul\":5122:5125   */\n      dup3\n        /* \"#utility.yul\":5118:5132   */\n      add\n        /* \"#utility.yul\":5103:5132   */\n      swap1\n      pop\n        /* \"#utility.yul\":4979:5138   */\n      swap3\n      swap2\n      pop\n      pop\n      jump\t// out\n        /* \"#utility.yul\":5144:5283   */\n    tag_142:\n        /* \"#utility.yul\":5233:5239   */\n      dup3\n        /* \"#utility.yul\":5228:5231   */\n      dup2\n        /* \"#utility.yul\":5223:5226   */\n      dup4\n        /* \"#utility.yul\":5217:5240   */\n      mcopy\n        /* \"#utility.yul\":5274:5275   */\n      0x00\n        /* \"#utility.yul\":5265:5271   */\n      dup4\n        /* \"#utility.yul\":5260:5263   */\n      dup4\n        /* \"#utility.yul\":5256:5272   */\n      add\n        /* \"#utility.yul\":5249:5276   */\n      mstore\n        /* \"#utility.yul\":5144:5283   */\n      pop\n      pop\n      pop\n      jump\t// out\n        /* \"#utility.yul\":5289:5646   */\n    tag_143:\n        /* \"#utility.yul\":5367:5370   */\n      0x00\n        /* \"#utility.yul\":5395:5434   */\n      tag_231\n        /* \"#utility.yul\":5428:5433   */\n      dup3\n        /* \"#utility.yul\":5395:5434   */\n      tag_140\n      jump\t// in\n    tag_231:\n        /* \"#utility.yul\":5450:5511   */\n      tag_232\n        /* \"#utility.yul\":5504:5510   */\n      dup2\n        /* \"#utility.yul\":5499:5502   */\n      dup6\n        /* \"#utility.yul\":5450:5511   */\n      tag_141\n      jump\t// in\n    tag_232:\n        /* \"#utility.yul\":5443:5511   */\n      swap4\n      pop\n        /* \"#utility.yul\":5520:5585   */\n      tag_233\n        /* \"#utility.yul\":5578:5584   */\n      dup2\n        /* \"#utility.yul\":5573:5576   */\n      dup6\n        /* \"#utility.yul\":5566:5570   */\n      0x20\n        /* \"#utility.yul\":5559:5564   */\n      dup7\n        /* \"#utility.yul\":5555:5571   */\n      add\n        /* \"#utility.yul\":5520:5585   */\n      tag_142\n      jump\t// in\n    tag_233:\n        /* \"#utility.yul\":5610:5639   */\n      tag_234\n        /* \"#utility.yul\":5632:5638   */\n      dup2\n        /* \"#utility.yul\":5610:5639   */\n      tag_128\n      jump\t// in\n    tag_234:\n        /* \"#utility.yul\":5605:5608   */\n      dup5\n        /* \"#utility.yul\":5601:5640   */\n      add\n        /* \"#utility.yul\":5594:5640   */\n      swap2\n      pop\n        /* \"#utility.yul\":5371:5646   */\n      pop\n        /* \"#utility.yul\":5289:5646   */\n      swap3\n      swap2\n      pop\n      pop\n      jump\t// out\n        /* \"#utility.yul\":5706:6327   */\n    tag_144:\n        /* \"#utility.yul\":5815:5818   */\n      0x00\n        /* \"#utility.yul\":5851:5855   */\n      0x40\n        /* \"#utility.yul\":5846:5849   */\n      dup4\n        /* \"#utility.yul\":5842:5856   */\n      add\n        /* \"#utility.yul\":5947:5951   */\n      0x00\n        /* \"#utility.yul\":5940:5945   */\n      dup4\n        /* \"#utility.yul\":5936:5952   */\n      add\n        /* \"#utility.yul\":5930:5953   */\n      mload\n        /* \"#utility.yul\":5966:6045   */\n      tag_236\n        /* \"#utility.yul\":6039:6043   */\n      0x00\n        /* \"#utility.yul\":6034:6037   */\n      dup7\n        /* \"#utility.yul\":6030:6044   */\n      add\n        /* \"#utility.yul\":6016:6028   */\n      dup3\n        /* \"#utility.yul\":5966:6045   */\n      tag_139\n      jump\t// in\n    tag_236:\n        /* \"#utility.yul\":5866:6055   */\n      pop\n        /* \"#utility.yul\":6137:6141   */\n      0x20\n        /* \"#utility.yul\":6130:6135   */\n      dup4\n        /* \"#utility.yul\":6126:6142   */\n      add\n        /* \"#utility.yul\":6120:6143   */\n      mload\n        /* \"#utility.yul\":6190:6193   */\n      dup5\n        /* \"#utility.yul\":6184:6188   */\n      dup3\n        /* \"#utility.yul\":6180:6194   */\n      sub\n        /* \"#utility.yul\":6173:6177   */\n      0x20\n        /* \"#utility.yul\":6168:6171   */\n      dup7\n        /* \"#utility.yul\":6164:6178   */\n      add\n        /* \"#utility.yul\":6157:6195   */\n      mstore\n        /* \"#utility.yul\":6216:6289   */\n      tag_237\n        /* \"#utility.yul\":6284:6288   */\n      dup3\n        /* \"#utility.yul\":6270:6282   */\n      dup3\n        /* \"#utility.yul\":6216:6289   */\n      tag_143\n      jump\t// in\n    tag_237:\n        /* \"#utility.yul\":6208:6289   */\n      swap2\n      pop\n        /* \"#utility.yul\":6065:6300   */\n      pop\n        /* \"#utility.yul\":6317:6321   */\n      dup1\n        /* \"#utility.yul\":6310:6321   */\n      swap2\n      pop\n        /* \"#utility.yul\":5820:6327   */\n      pop\n        /* \"#utility.yul\":5706:6327   */\n      swap3\n      swap2\n      pop\n      pop\n      jump\t// out\n        /* \"#utility.yul\":6333:6589   */\n    tag_145:\n        /* \"#utility.yul\":6452:6462   */\n      0x00\n        /* \"#utility.yul\":6487:6583   */\n      tag_239\n        /* \"#utility.yul\":6579:6582   */\n      dup4\n        /* \"#utility.yul\":6571:6577   */\n      dup4\n        /* \"#utility.yul\":6487:6583   */\n      tag_144\n      jump\t// in\n    tag_239:\n        /* \"#utility.yul\":6473:6583   */\n      swap1\n      pop\n        /* \"#utility.yul\":6333:6589   */\n      swap3\n      swap2\n      pop\n      pop\n      jump\t// out\n        /* \"#utility.yul\":6595:6733   */\n    tag_146:\n        /* \"#utility.yul\":6690:6694   */\n      0x00\n        /* \"#utility.yul\":6722:6726   */\n      0x20\n        /* \"#utility.yul\":6717:6720   */\n      dup3\n        /* \"#utility.yul\":6713:6727   */\n      add\n        /* \"#utility.yul\":6705:6727   */\n      swap1\n      pop\n        /* \"#utility.yul\":6595:6733   */\n      swap2\n      swap1\n      pop\n      jump\t// out\n        /* \"#utility.yul\":6797:7908   */\n    tag_147:\n        /* \"#utility.yul\":6966:6969   */\n      0x00\n        /* \"#utility.yul\":6995:7074   */\n      tag_242\n        /* \"#utility.yul\":7068:7073   */\n      dup3\n        /* \"#utility.yul\":6995:7074   */\n      tag_136\n      jump\t// in\n    tag_242:\n        /* \"#utility.yul\":7090:7201   */\n      tag_243\n        /* \"#utility.yul\":7194:7200   */\n      dup2\n        /* \"#utility.yul\":7189:7192   */\n      dup6\n        /* \"#utility.yul\":7090:7201   */\n      tag_137\n      jump\t// in\n    tag_243:\n        /* \"#utility.yul\":7083:7201   */\n      swap4\n      pop\n        /* \"#utility.yul\":7227:7230   */\n      dup4\n        /* \"#utility.yul\":7272:7276   */\n      0x20\n        /* \"#utility.yul\":7264:7270   */\n      dup3\n        /* \"#utility.yul\":7260:7277   */\n      mul\n        /* \"#utility.yul\":7255:7258   */\n      dup6\n        /* \"#utility.yul\":7251:7278   */\n      add\n        /* \"#utility.yul\":7302:7383   */\n      tag_244\n        /* \"#utility.yul\":7377:7382   */\n      dup6\n        /* \"#utility.yul\":7302:7383   */\n      tag_138\n      jump\t// in\n    tag_244:\n        /* \"#utility.yul\":7406:7413   */\n      dup1\n        /* \"#utility.yul\":7437:7438   */\n      0x00\n        /* \"#utility.yul\":7422:7863   */\n    tag_245:\n        /* \"#utility.yul\":7447:7453   */\n      dup6\n        /* \"#utility.yul\":7444:7445   */\n      dup2\n        /* \"#utility.yul\":7441:7454   */\n      lt\n        /* \"#utility.yul\":7422:7863   */\n      iszero\n      tag_247\n      jumpi\n        /* \"#utility.yul\":7518:7527   */\n      dup5\n        /* \"#utility.yul\":7512:7516   */\n      dup5\n        /* \"#utility.yul\":7508:7528   */\n      sub\n        /* \"#utility.yul\":7503:7506   */\n      dup10\n        /* \"#utility.yul\":7496:7529   */\n      mstore\n        /* \"#utility.yul\":7569:7575   */\n      dup2\n        /* \"#utility.yul\":7563:7576   */\n      mload\n        /* \"#utility.yul\":7597:7711   */\n      tag_248\n        /* \"#utility.yul\":7706:7710   */\n      dup6\n        /* \"#utility.yul\":7691:7704   */\n      dup3\n        /* \"#utility.yul\":7597:7711   */\n      tag_145\n      jump\t// in\n    tag_248:\n        /* \"#utility.yul\":7589:7711   */\n      swap5\n      pop\n        /* \"#utility.yul\":7734:7819   */\n      tag_249\n        /* \"#utility.yul\":7812:7818   */\n      dup4\n        /* \"#utility.yul\":7734:7819   */\n      tag_146\n      jump\t// in\n    tag_249:\n        /* \"#utility.yul\":7724:7819   */\n      swap3\n      pop\n        /* \"#utility.yul\":7848:7852   */\n      0x20\n        /* \"#utility.yul\":7843:7846   */\n      dup11\n        /* \"#utility.yul\":7839:7853   */\n      add\n        /* \"#utility.yul\":7832:7853   */\n      swap10\n      pop\n        /* \"#utility.yul\":7482:7863   */\n      pop\n        /* \"#utility.yul\":7469:7470   */\n      0x01\n        /* \"#utility.yul\":7466:7467   */\n      dup2\n        /* \"#utility.yul\":7462:7471   */\n      add\n        /* \"#utility.yul\":7457:7471   */\n      swap1\n      pop\n        /* \"#utility.yul\":7422:7863   */\n      jump(tag_245)\n    tag_247:\n        /* \"#utility.yul\":7426:7440   */\n      pop\n        /* \"#utility.yul\":7879:7883   */\n      dup3\n        /* \"#utility.yul\":7872:7883   */\n      swap8\n      pop\n        /* \"#utility.yul\":7899:7902   */\n      dup8\n        /* \"#utility.yul\":7892:7902   */\n      swap6\n      pop\n        /* \"#utility.yul\":6971:7908   */\n      pop\n      pop\n      pop\n      pop\n      pop\n        /* \"#utility.yul\":6797:7908   */\n      swap3\n      swap2\n      pop\n      pop\n      jump\t// out\n        /* \"#utility.yul\":7914:8387   */\n    tag_27:\n        /* \"#utility.yul\":8107:8111   */\n      0x00\n        /* \"#utility.yul\":8145:8147   */\n      0x20\n        /* \"#utility.yul\":8134:8143   */\n      dup3\n        /* \"#utility.yul\":8130:8148   */\n      add\n        /* \"#utility.yul\":8122:8148   */\n      swap1\n      pop\n        /* \"#utility.yul\":8194:8203   */\n      dup2\n        /* \"#utility.yul\":8188:8192   */\n      dup2\n        /* \"#utility.yul\":8184:8204   */\n      sub\n        /* \"#utility.yul\":8180:8181   */\n      0x00\n        /* \"#utility.yul\":8169:8178   */\n      dup4\n        /* \"#utility.yul\":8165:8182   */\n      add\n        /* \"#utility.yul\":8158:8205   */\n      mstore\n        /* \"#utility.yul\":8222:8380   */\n      tag_251\n        /* \"#utility.yul\":8375:8379   */\n      dup2\n        /* \"#utility.yul\":8366:8372   */\n      dup5\n        /* \"#utility.yul\":8222:8380   */\n      tag_147\n      jump\t// in\n    tag_251:\n        /* \"#utility.yul\":8214:8380   */\n      swap1\n      pop\n        /* \"#utility.yul\":7914:8387   */\n      swap3\n      swap2\n      pop\n      pop\n      jump\t// out\n        /* \"#utility.yul\":8393:8738   */\n    tag_31:\n        /* \"#utility.yul\":8460:8466   */\n      0x00\n        /* \"#utility.yul\":8509:8511   */\n      0x20\n        /* \"#utility.yul\":8497:8506   */\n      dup3\n        /* \"#utility.yul\":8488:8495   */\n      dup5\n        /* \"#utility.yul\":8484:8507   */\n      sub\n        /* \"#utility.yul\":8480:8512   */\n      slt\n        /* \"#utility.yul\":8477:8596   */\n      iszero\n      tag_253\n      jumpi\n        /* \"#utility.yul\":8515:8594   */\n      tag_254\n      tag_120\n      jump\t// in\n    tag_254:\n        /* \"#utility.yul\":8477:8596   */\n    tag_253:\n        /* \"#utility.yul\":8635:8636   */\n      0x00\n        /* \"#utility.yul\":8660:8721   */\n      tag_255\n        /* \"#utility.yul\":8713:8720   */\n      dup5\n        /* \"#utility.yul\":8704:8710   */\n      dup3\n        /* \"#utility.yul\":8693:8702   */\n      dup6\n        /* \"#utility.yul\":8689:8711   */\n      add\n        /* \"#utility.yul\":8660:8721   */\n      tag_125\n      jump\t// in\n    tag_255:\n        /* \"#utility.yul\":8650:8721   */\n      swap2\n      pop\n        /* \"#utility.yul\":8606:8731   */\n      pop\n        /* \"#utility.yul\":8393:8738   */\n      swap3\n      swap2\n      pop\n      pop\n      jump\t// out\n        /* \"#utility.yul\":8744:8913   */\n    tag_148:\n        /* \"#utility.yul\":8828:8839   */\n      0x00\n        /* \"#utility.yul\":8862:8868   */\n      dup3\n        /* \"#utility.yul\":8857:8860   */\n      dup3\n        /* \"#utility.yul\":8850:8869   */\n      mstore\n        /* \"#utility.yul\":8902:8906   */\n      0x20\n        /* \"#utility.yul\":8897:8900   */\n      dup3\n        /* \"#utility.yul\":8893:8907   */\n      add\n        /* \"#utility.yul\":8878:8907   */\n      swap1\n      pop\n        /* \"#utility.yul\":8744:8913   */\n      swap3\n      swap2\n      pop\n      pop\n      jump\t// out\n        /* \"#utility.yul\":8919:9142   */\n    tag_149:\n        /* \"#utility.yul\":9059:9093   */\n      0x496e73756666696369656e742062616c616e636520696e2074686520636f6e74\n        /* \"#utility.yul\":9055:9056   */\n      0x00\n        /* \"#utility.yul\":9047:9053   */\n      dup3\n        /* \"#utility.yul\":9043:9057   */\n      add\n        /* \"#utility.yul\":9036:9094   */\n      mstore\n        /* \"#utility.yul\":9128:9134   */\n      0x7261637400000000000000000000000000000000000000000000000000000000\n        /* \"#utility.yul\":9123:9125   */\n      0x20\n        /* \"#utility.yul\":9115:9121   */\n      dup3\n        /* \"#utility.yul\":9111:9126   */\n      add\n        /* \"#utility.yul\":9104:9135   */\n      mstore\n        /* \"#utility.yul\":8919:9142   */\n      pop\n      jump\t// out\n        /* \"#utility.yul\":9148:9514   */\n    tag_150:\n        /* \"#utility.yul\":9290:9293   */\n      0x00\n        /* \"#utility.yul\":9311:9378   */\n      tag_259\n        /* \"#utility.yul\":9375:9377   */\n      0x24\n        /* \"#utility.yul\":9370:9373   */\n      dup4\n        /* \"#utility.yul\":9311:9378   */\n      tag_148\n      jump\t// in\n    tag_259:\n        /* \"#utility.yul\":9304:9378   */\n      swap2\n      pop\n        /* \"#utility.yul\":9387:9480   */\n      tag_260\n        /* \"#utility.yul\":9476:9479   */\n      dup3\n        /* \"#utility.yul\":9387:9480   */\n      tag_149\n      jump\t// in\n    tag_260:\n        /* \"#utility.yul\":9505:9507   */\n      0x40\n        /* \"#utility.yul\":9500:9503   */\n      dup3\n        /* \"#utility.yul\":9496:9508   */\n      add\n        /* \"#utility.yul\":9489:9508   */\n      swap1\n      pop\n        /* \"#utility.yul\":9148:9514   */\n      swap2\n      swap1\n      pop\n      jump\t// out\n        /* \"#utility.yul\":9520:9939   */\n    tag_37:\n        /* \"#utility.yul\":9686:9690   */\n      0x00\n        /* \"#utility.yul\":9724:9726   */\n      0x20\n        /* \"#utility.yul\":9713:9722   */\n      dup3\n        /* \"#utility.yul\":9709:9727   */\n      add\n        /* \"#utility.yul\":9701:9727   */\n      swap1\n      pop\n        /* \"#utility.yul\":9773:9782   */\n      dup2\n        /* \"#utility.yul\":9767:9771   */\n      dup2\n        /* \"#utility.yul\":9763:9783   */\n      sub\n        /* \"#utility.yul\":9759:9760   */\n      0x00\n        /* \"#utility.yul\":9748:9757   */\n      dup4\n        /* \"#utility.yul\":9744:9761   */\n      add\n        /* \"#utility.yul\":9737:9784   */\n      mstore\n        /* \"#utility.yul\":9801:9932   */\n      tag_262\n        /* \"#utility.yul\":9927:9931   */\n      dup2\n        /* \"#utility.yul\":9801:9932   */\n      tag_150\n      jump\t// in\n    tag_262:\n        /* \"#utility.yul\":9793:9932   */\n      swap1\n      pop\n        /* \"#utility.yul\":9520:9939   */\n      swap2\n      swap1\n      pop\n      jump\t// out\n        /* \"#utility.yul\":9945:10125   */\n    tag_151:\n        /* \"#utility.yul\":9993:10070   */\n      0x4e487b7100000000000000000000000000000000000000000000000000000000\n        /* \"#utility.yul\":9990:9991   */\n      0x00\n        /* \"#utility.yul\":9983:10071   */\n      mstore\n        /* \"#utility.yul\":10090:10094   */\n      0x12\n        /* \"#utility.yul\":10087:10088   */\n      0x04\n        /* \"#utility.yul\":10080:10095   */\n      mstore\n        /* \"#utility.yul\":10114:10118   */\n      0x24\n        /* \"#utility.yul\":10111:10112   */\n      0x00\n        /* \"#utility.yul\":10104:10119   */\n      revert\n        /* \"#utility.yul\":10131:10311   */\n    tag_152:\n        /* \"#utility.yul\":10179:10256   */\n      0x4e487b7100000000000000000000000000000000000000000000000000000000\n        /* \"#utility.yul\":10176:10177   */\n      0x00\n        /* \"#utility.yul\":10169:10257   */\n      mstore\n        /* \"#utility.yul\":10276:10280   */\n      0x11\n        /* \"#utility.yul\":10273:10274   */\n      0x04\n        /* \"#utility.yul\":10266:10281   */\n      mstore\n        /* \"#utility.yul\":10300:10304   */\n      0x24\n        /* \"#utility.yul\":10297:10298   */\n      0x00\n        /* \"#utility.yul\":10290:10305   */\n      revert\n        /* \"#utility.yul\":10317:10502   */\n    tag_40:\n        /* \"#utility.yul\":10357:10358   */\n      0x00\n        /* \"#utility.yul\":10374:10394   */\n      tag_266\n        /* \"#utility.yul\":10392:10393   */\n      dup3\n        /* \"#utility.yul\":10374:10394   */\n      tag_117\n      jump\t// in\n    tag_266:\n        /* \"#utility.yul\":10369:10394   */\n      swap2\n      pop\n        /* \"#utility.yul\":10408:10428   */\n      tag_267\n        /* \"#utility.yul\":10426:10427   */\n      dup4\n        /* \"#utility.yul\":10408:10428   */\n      tag_117\n      jump\t// in\n    tag_267:\n        /* \"#utility.yul\":10403:10428   */\n      swap3\n      pop\n        /* \"#utility.yul\":10447:10448   */\n      dup3\n        /* \"#utility.yul\":10437:10472   */\n      tag_268\n      jumpi\n        /* \"#utility.yul\":10452:10470   */\n      tag_269\n      tag_151\n      jump\t// in\n    tag_269:\n        /* \"#utility.yul\":10437:10472   */\n    tag_268:\n        /* \"#utility.yul\":10494:10495   */\n      dup3\n        /* \"#utility.yul\":10491:10492   */\n      dup3\n        /* \"#utility.yul\":10487:10496   */\n      div\n        /* \"#utility.yul\":10482:10496   */\n      swap1\n      pop\n        /* \"#utility.yul\":10317:10502   */\n      swap3\n      swap2\n      pop\n      pop\n      jump\t// out\n        /* \"#utility.yul\":10508:10688   */\n    tag_47:\n        /* \"#utility.yul\":10556:10633   */\n      0x4e487b7100000000000000000000000000000000000000000000000000000000\n        /* \"#utility.yul\":10553:10554   */\n      0x00\n        /* \"#utility.yul\":10546:10634   */\n      mstore\n        /* \"#utility.yul\":10653:10657   */\n      0x32\n        /* \"#utility.yul\":10650:10651   */\n      0x04\n        /* \"#utility.yul\":10643:10658   */\n      mstore\n        /* \"#utility.yul\":10677:10681   */\n      0x24\n        /* \"#utility.yul\":10674:10675   */\n      0x00\n        /* \"#utility.yul\":10667:10682   */\n      revert\n        /* \"#utility.yul\":10694:10918   */\n    tag_153:\n        /* \"#utility.yul\":10834:10868   */\n      0x4f6e6c7920746865206f776e65722063616e2063616c6c20746869732066756e\n        /* \"#utility.yul\":10830:10831   */\n      0x00\n        /* \"#utility.yul\":10822:10828   */\n      dup3\n        /* \"#utility.yul\":10818:10832   */\n      add\n        /* \"#utility.yul\":10811:10869   */\n      mstore\n        /* \"#utility.yul\":10903:10910   */\n      0x6374696f6e000000000000000000000000000000000000000000000000000000\n        /* \"#utility.yul\":10898:10900   */\n      0x20\n        /* \"#utility.yul\":10890:10896   */\n      dup3\n        /* \"#utility.yul\":10886:10901   */\n      add\n        /* \"#utility.yul\":10879:10911   */\n      mstore\n        /* \"#utility.yul\":10694:10918   */\n      pop\n      jump\t// out\n        /* \"#utility.yul\":10924:11290   */\n    tag_154:\n        /* \"#utility.yul\":11066:11069   */\n      0x00\n        /* \"#utility.yul\":11087:11154   */\n      tag_273\n        /* \"#utility.yul\":11151:11153   */\n      0x25\n        /* \"#utility.yul\":11146:11149   */\n      dup4\n        /* \"#utility.yul\":11087:11154   */\n      tag_148\n      jump\t// in\n    tag_273:\n        /* \"#utility.yul\":11080:11154   */\n      swap2\n      pop\n        /* \"#utility.yul\":11163:11256   */\n      tag_274\n        /* \"#utility.yul\":11252:11255   */\n      dup3\n        /* \"#utility.yul\":11163:11256   */\n      tag_153\n      jump\t// in\n    tag_274:\n        /* \"#utility.yul\":11281:11283   */\n      0x40\n        /* \"#utility.yul\":11276:11279   */\n      dup3\n        /* \"#utility.yul\":11272:11284   */\n      add\n        /* \"#utility.yul\":11265:11284   */\n      swap1\n      pop\n        /* \"#utility.yul\":10924:11290   */\n      swap2\n      swap1\n      pop\n      jump\t// out\n        /* \"#utility.yul\":11296:11715   */\n    tag_53:\n        /* \"#utility.yul\":11462:11466   */\n      0x00\n        /* \"#utility.yul\":11500:11502   */\n      0x20\n        /* \"#utility.yul\":11489:11498   */\n      dup3\n        /* \"#utility.yul\":11485:11503   */\n      add\n        /* \"#utility.yul\":11477:11503   */\n      swap1\n      pop\n        /* \"#utility.yul\":11549:11558   */\n      dup2\n        /* \"#utility.yul\":11543:11547   */\n      dup2\n        /* \"#utility.yul\":11539:11559   */\n      sub\n        /* \"#utility.yul\":11535:11536   */\n      0x00\n        /* \"#utility.yul\":11524:11533   */\n      dup4\n        /* \"#utility.yul\":11520:11537   */\n      add\n        /* \"#utility.yul\":11513:11560   */\n      mstore\n        /* \"#utility.yul\":11577:11708   */\n      tag_276\n        /* \"#utility.yul\":11703:11707   */\n      dup2\n        /* \"#utility.yul\":11577:11708   */\n      tag_154\n      jump\t// in\n    tag_276:\n        /* \"#utility.yul\":11569:11708   */\n      swap1\n      pop\n        /* \"#utility.yul\":11296:11715   */\n      swap2\n      swap1\n      pop\n      jump\t// out\n        /* \"#utility.yul\":11721:11901   */\n    tag_155:\n        /* \"#utility.yul\":11769:11846   */\n      0x4e487b7100000000000000000000000000000000000000000000000000000000\n        /* \"#utility.yul\":11766:11767   */\n      0x00\n        /* \"#utility.yul\":11759:11847   */\n      mstore\n        /* \"#utility.yul\":11866:11870   */\n      0x22\n        /* \"#utility.yul\":11863:11864   */\n      0x04\n        /* \"#utility.yul\":11856:11871   */\n      mstore\n        /* \"#utility.yul\":11890:11894   */\n      0x24\n        /* \"#utility.yul\":11887:11888   */\n      0x00\n        /* \"#utility.yul\":11880:11895   */\n      revert\n        /* \"#utility.yul\":11907:12227   */\n    tag_72:\n        /* \"#utility.yul\":11951:11957   */\n      0x00\n        /* \"#utility.yul\":11988:11989   */\n      0x02\n        /* \"#utility.yul\":11982:11986   */\n      dup3\n        /* \"#utility.yul\":11978:11990   */\n      div\n        /* \"#utility.yul\":11968:11990   */\n      swap1\n      pop\n        /* \"#utility.yul\":12035:12036   */\n      0x01\n        /* \"#utility.yul\":12029:12033   */\n      dup3\n        /* \"#utility.yul\":12025:12037   */\n      and\n        /* \"#utility.yul\":12056:12074   */\n      dup1\n        /* \"#utility.yul\":12046:12127   */\n      tag_279\n      jumpi\n        /* \"#utility.yul\":12112:12116   */\n      0x7f\n        /* \"#utility.yul\":12104:12110   */\n      dup3\n        /* \"#utility.yul\":12100:12117   */\n      and\n        /* \"#utility.yul\":12090:12117   */\n      swap2\n      pop\n        /* \"#utility.yul\":12046:12127   */\n    tag_279:\n        /* \"#utility.yul\":12174:12176   */\n      0x20\n        /* \"#utility.yul\":12166:12172   */\n      dup3\n        /* \"#utility.yul\":12163:12177   */\n      lt\n        /* \"#utility.yul\":12143:12161   */\n      dup2\n        /* \"#utility.yul\":12140:12178   */\n      sub\n        /* \"#utility.yul\":12137:12221   */\n      tag_280\n      jumpi\n        /* \"#utility.yul\":12193:12211   */\n      tag_281\n      tag_155\n      jump\t// in\n    tag_281:\n        /* \"#utility.yul\":12137:12221   */\n    tag_280:\n        /* \"#utility.yul\":11958:12227   */\n      pop\n        /* \"#utility.yul\":11907:12227   */\n      swap2\n      swap1\n      pop\n      jump\t// out\n        /* \"#utility.yul\":12233:12374   */\n    tag_156:\n        /* \"#utility.yul\":12282:12286   */\n      0x00\n        /* \"#utility.yul\":12305:12308   */\n      dup2\n        /* \"#utility.yul\":12297:12308   */\n      swap1\n      pop\n        /* \"#utility.yul\":12328:12331   */\n      dup2\n        /* \"#utility.yul\":12325:12326   */\n      0x00\n        /* \"#utility.yul\":12318:12332   */\n      mstore\n        /* \"#utility.yul\":12362:12366   */\n      0x20\n        /* \"#utility.yul\":12359:12360   */\n      0x00\n        /* \"#utility.yul\":12349:12367   */\n      keccak256\n        /* \"#utility.yul\":12341:12367   */\n      swap1\n      pop\n        /* \"#utility.yul\":12233:12374   */\n      swap2\n      swap1\n      pop\n      jump\t// out\n        /* \"#utility.yul\":12380:12473   */\n    tag_157:\n        /* \"#utility.yul\":12417:12423   */\n      0x00\n        /* \"#utility.yul\":12464:12466   */\n      0x20\n        /* \"#utility.yul\":12459:12461   */\n      0x1f\n        /* \"#utility.yul\":12452:12457   */\n      dup4\n        /* \"#utility.yul\":12448:12462   */\n      add\n        /* \"#utility.yul\":12444:12467   */\n      div\n        /* \"#utility.yul\":12434:12467   */\n      swap1\n      pop\n        /* \"#utility.yul\":12380:12473   */\n      swap2\n      swap1\n      pop\n      jump\t// out\n        /* \"#utility.yul\":12479:12586   */\n    tag_158:\n        /* \"#utility.yul\":12523:12531   */\n      0x00\n        /* \"#utility.yul\":12573:12578   */\n      dup3\n        /* \"#utility.yul\":12567:12571   */\n      dup3\n        /* \"#utility.yul\":12563:12579   */\n      shl\n        /* \"#utility.yul\":12542:12579   */\n      swap1\n      pop\n        /* \"#utility.yul\":12479:12586   */\n      swap3\n      swap2\n      pop\n      pop\n      jump\t// out\n        /* \"#utility.yul\":12592:12985   */\n    tag_159:\n        /* \"#utility.yul\":12661:12667   */\n      0x00\n        /* \"#utility.yul\":12711:12712   */\n      0x08\n        /* \"#utility.yul\":12699:12709   */\n      dup4\n        /* \"#utility.yul\":12695:12713   */\n      mul\n        /* \"#utility.yul\":12734:12831   */\n      tag_286\n        /* \"#utility.yul\":12764:12830   */\n      0xffffffffffffffffffffffffffffffffffffffffffffffffffffffffffffffff\n        /* \"#utility.yul\":12753:12762   */\n      dup3\n        /* \"#utility.yul\":12734:12831   */\n      tag_158\n      jump\t// in\n    tag_286:\n        /* \"#utility.yul\":12852:12891   */\n      tag_287\n        /* \"#utility.yul\":12882:12890   */\n      dup7\n        /* \"#utility.yul\":12871:12880   */\n      dup4\n        /* \"#utility.yul\":12852:12891   */\n      tag_158\n      jump\t// in\n    tag_287:\n        /* \"#utility.yul\":12840:12891   */\n      swap6\n      pop\n        /* \"#utility.yul\":12924:12928   */\n      dup1\n        /* \"#utility.yul\":12920:12929   */\n      not\n        /* \"#utility.yul\":12913:12918   */\n      dup5\n        /* \"#utility.yul\":12909:12930   */\n      and\n        /* \"#utility.yul\":12900:12930   */\n      swap4\n      pop\n        /* \"#utility.yul\":12973:12977   */\n      dup1\n        /* \"#utility.yul\":12963:12971   */\n      dup7\n        /* \"#utility.yul\":12959:12978   */\n      and\n        /* \"#utility.yul\":12952:12957   */\n      dup5\n        /* \"#utility.yul\":12949:12979   */\n      or\n        /* \"#utility.yul\":12939:12979   */\n      swap3\n      pop\n        /* \"#utility.yul\":12668:12985   */\n      pop\n      pop\n        /* \"#utility.yul\":12592:12985   */\n      swap4\n      swap3\n      pop\n      pop\n      pop\n      jump\t// out\n        /* \"#utility.yul\":12991:13051   */\n    tag_160:\n        /* \"#utility.yul\":13019:13022   */\n      0x00\n        /* \"#utility.yul\":13040:13045   */\n      dup2\n        /* \"#utility.yul\":13033:13045   */\n      swap1\n      pop\n        /* \"#utility.yul\":12991:13051   */\n      swap2\n      swap1\n      pop\n      jump\t// out\n        /* \"#utility.yul\":13057:13199   */\n    tag_161:\n        /* \"#utility.yul\":13107:13116   */\n      0x00\n        /* \"#utility.yul\":13140:13193   */\n      tag_290\n        /* \"#utility.yul\":13158:13192   */\n      tag_291\n        /* \"#utility.yul\":13167:13191   */\n      tag_292\n        /* \"#utility.yul\":13185:13190   */\n      dup5\n        /* \"#utility.yul\":13167:13191   */\n      tag_117\n      jump\t// in\n    tag_292:\n        /* \"#utility.yul\":13158:13192   */\n      tag_160\n      jump\t// in\n    tag_291:\n        /* \"#utility.yul\":13140:13193   */\n      tag_117\n      jump\t// in\n    tag_290:\n        /* \"#utility.yul\":13127:13193   */\n      swap1\n      pop\n        /* \"#utility.yul\":13057:13199   */\n      swap2\n      swap1\n      pop\n      jump\t// out\n        /* \"#utility.yul\":13205:13280   */\n    tag_162:\n        /* \"#utility.yul\":13248:13251   */\n      0x00\n        /* \"#utility.yul\":13269:13274   */\n      dup2\n        /* \"#utility.yul\":13262:13274   */\n      swap1\n      pop\n        /* \"#utility.yul\":13205:13280   */\n      swap2\n      swap1\n      pop\n      jump\t// out\n        /* \"#utility.yul\":13286:13555   */\n    tag_163:\n        /* \"#utility.yul\":13396:13435   */\n      tag_295\n        /* \"#utility.yul\":13427:13434   */\n      dup4\n        /* \"#utility.yul\":13396:13435   */\n      tag_161\n      jump\t// in\n    tag_295:\n        /* \"#utility.yul\":13457:13548   */\n      tag_296\n        /* \"#utility.yul\":13506:13547   */\n      tag_297\n        /* \"#utility.yul\":13530:13546   */\n      dup3\n        /* \"#utility.yul\":13506:13547   */\n      tag_162\n      jump\t// in\n    tag_297:\n        /* \"#utility.yul\":13498:13504   */\n      dup5\n        /* \"#utility.yul\":13491:13495   */\n      dup5\n        /* \"#utility.yul\":13485:13496   */\n      sload\n        /* \"#utility.yul\":13457:13548   */\n      tag_159\n      jump\t// in\n    tag_296:\n        /* \"#utility.yul\":13451:13455   */\n      dup3\n        /* \"#utility.yul\":13444:13549   */\n      sstore\n        /* \"#utility.yul\":13362:13555   */\n      pop\n        /* \"#utility.yul\":13286:13555   */\n      pop\n      pop\n      pop\n      jump\t// out\n        /* \"#utility.yul\":13561:13634   */\n    tag_164:\n        /* \"#utility.yul\":13606:13609   */\n      0x00\n        /* \"#utility.yul\":13561:13634   */\n      swap1\n      jump\t// out\n        /* \"#utility.yul\":13640:13829   */\n    tag_165:\n        /* \"#utility.yul\":13717:13749   */\n      tag_300\n      tag_164\n      jump\t// in\n    tag_300:\n        /* \"#utility.yul\":13758:13823   */\n      tag_301\n        /* \"#utility.yul\":13816:13822   */\n      dup2\n        /* \"#utility.yul\":13808:13814   */\n      dup5\n        /* \"#utility.yul\":13802:13806   */\n      dup5\n        /* \"#utility.yul\":13758:13823   */\n      tag_163\n      jump\t// in\n    tag_301:\n        /* \"#utility.yul\":13693:13829   */\n      pop\n        /* \"#utility.yul\":13640:13829   */\n      pop\n      pop\n      jump\t// out\n        /* \"#utility.yul\":13835:14021   */\n    tag_166:\n        /* \"#utility.yul\":13895:14015   */\n    tag_303:\n        /* \"#utility.yul\":13912:13915   */\n      dup2\n        /* \"#utility.yul\":13905:13910   */\n      dup2\n        /* \"#utility.yul\":13902:13916   */\n      lt\n        /* \"#utility.yul\":13895:14015   */\n      iszero\n      tag_305\n      jumpi\n        /* \"#utility.yul\":13966:14005   */\n      tag_306\n        /* \"#utility.yul\":14003:14004   */\n      0x00\n        /* \"#utility.yul\":13996:14001   */\n      dup3\n        /* \"#utility.yul\":13966:14005   */\n      tag_165\n      jump\t// in\n    tag_306:\n        /* \"#utility.yul\":13939:13940   */\n      0x01\n        /* \"#utility.yul\":13932:13937   */\n      dup2\n        /* \"#utility.yul\":13928:13941   */\n      add\n        /* \"#utility.yul\":13919:13941   */\n      swap1\n      pop\n        /* \"#utility.yul\":13895:14015   */\n      jump(tag_303)\n    tag_305:\n        /* \"#utility.yul\":13835:14021   */\n      pop\n      pop\n      jump\t// out\n        /* \"#utility.yul\":14027:14570   */\n    tag_167:\n        /* \"#utility.yul\":14128:14130   */\n      0x1f\n        /* \"#utility.yul\":14123:14126   */\n      dup3\n        /* \"#utility.yul\":14120:14131   */\n      gt\n        /* \"#utility.yul\":14117:14563   */\n      iszero\n      tag_308\n      jumpi\n        /* \"#utility.yul\":14162:14200   */\n      tag_309\n        /* \"#utility.yul\":14194:14199   */\n      dup2\n        /* \"#utility.yul\":14162:14200   */\n      tag_156\n      jump\t// in\n    tag_309:\n        /* \"#utility.yul\":14246:14275   */\n      tag_310\n        /* \"#utility.yul\":14264:14274   */\n      dup5\n        /* \"#utility.yul\":14246:14275   */\n      tag_157\n      jump\t// in\n    tag_310:\n        /* \"#utility.yul\":14236:14244   */\n      dup2\n        /* \"#utility.yul\":14232:14276   */\n      add\n        /* \"#utility.yul\":14429:14431   */\n      0x20\n        /* \"#utility.yul\":14417:14427   */\n      dup6\n        /* \"#utility.yul\":14414:14432   */\n      lt\n        /* \"#utility.yul\":14411:14460   */\n      iszero\n      tag_311\n      jumpi\n        /* \"#utility.yul\":14450:14458   */\n      dup2\n        /* \"#utility.yul\":14435:14458   */\n      swap1\n      pop\n        /* \"#utility.yul\":14411:14460   */\n    tag_311:\n        /* \"#utility.yul\":14473:14553   */\n      tag_312\n        /* \"#utility.yul\":14529:14551   */\n      tag_313\n        /* \"#utility.yul\":14547:14550   */\n      dup6\n        /* \"#utility.yul\":14529:14551   */\n      tag_157\n      jump\t// in\n    tag_313:\n        /* \"#utility.yul\":14519:14527   */\n      dup4\n        /* \"#utility.yul\":14515:14552   */\n      add\n        /* \"#utility.yul\":14502:14513   */\n      dup3\n        /* \"#utility.yul\":14473:14553   */\n      tag_166\n      jump\t// in\n    tag_312:\n        /* \"#utility.yul\":14132:14563   */\n      pop\n      pop\n        /* \"#utility.yul\":14117:14563   */\n    tag_308:\n        /* \"#utility.yul\":14027:14570   */\n      pop\n      pop\n      pop\n      jump\t// out\n        /* \"#utility.yul\":14576:14693   */\n    tag_168:\n        /* \"#utility.yul\":14630:14638   */\n      0x00\n        /* \"#utility.yul\":14680:14685   */\n      dup3\n        /* \"#utility.yul\":14674:14678   */\n      dup3\n        /* \"#utility.yul\":14670:14686   */\n      shr\n        /* \"#utility.yul\":14649:14686   */\n      swap1\n      pop\n        /* \"#utility.yul\":14576:14693   */\n      swap3\n      swap2\n      pop\n      pop\n      jump\t// out\n        /* \"#utility.yul\":14699:14868   */\n    tag_169:\n        /* \"#utility.yul\":14743:14749   */\n      0x00\n        /* \"#utility.yul\":14776:14827   */\n      tag_316\n        /* \"#utility.yul\":14824:14825   */\n      0x00\n        /* \"#utility.yul\":14820:14826   */\n      not\n        /* \"#utility.yul\":14812:14817   */\n      dup5\n        /* \"#utility.yul\":14809:14810   */\n      0x08\n        /* \"#utility.yul\":14805:14818   */\n      mul\n        /* \"#utility.yul\":14776:14827   */\n      tag_168\n      jump\t// in\n    tag_316:\n        /* \"#utility.yul\":14772:14828   */\n      not\n        /* \"#utility.yul\":14857:14861   */\n      dup1\n        /* \"#utility.yul\":14851:14855   */\n      dup4\n        /* \"#utility.yul\":14847:14862   */\n      and\n        /* \"#utility.yul\":14837:14862   */\n      swap2\n      pop\n        /* \"#utility.yul\":14750:14868   */\n      pop\n        /* \"#utility.yul\":14699:14868   */\n      swap3\n      swap2\n      pop\n      pop\n      jump\t// out\n        /* \"#utility.yul\":14873:15168   */\n    tag_170:\n        /* \"#utility.yul\":14949:14953   */\n      0x00\n        /* \"#utility.yul\":15095:15124   */\n      tag_318\n        /* \"#utility.yul\":15120:15123   */\n      dup4\n        /* \"#utility.yul\":15114:15118   */\n      dup4\n        /* \"#utility.yul\":15095:15124   */\n      tag_169\n      jump\t// in\n    tag_318:\n        /* \"#utility.yul\":15087:15124   */\n      swap2\n      pop\n        /* \"#utility.yul\":15157:15160   */\n      dup3\n        /* \"#utility.yul\":15154:15155   */\n      0x02\n        /* \"#utility.yul\":15150:15161   */\n      mul\n        /* \"#utility.yul\":15144:15148   */\n      dup3\n        /* \"#utility.yul\":15141:15162   */\n      or\n        /* \"#utility.yul\":15133:15162   */\n      swap1\n      pop\n        /* \"#utility.yul\":14873:15168   */\n      swap3\n      swap2\n      pop\n      pop\n      jump\t// out\n        /* \"#utility.yul\":15173:16568   */\n    tag_65:\n        /* \"#utility.yul\":15290:15327   */\n      tag_320\n        /* \"#utility.yul\":15323:15326   */\n      dup3\n        /* \"#utility.yul\":15290:15327   */\n      tag_140\n      jump\t// in\n    tag_320:\n        /* \"#utility.yul\":15392:15410   */\n      0xffffffffffffffff\n        /* \"#utility.yul\":15384:15390   */\n      dup2\n        /* \"#utility.yul\":15381:15411   */\n      gt\n        /* \"#utility.yul\":15378:15434   */\n      iszero\n      tag_321\n      jumpi\n        /* \"#utility.yul\":15414:15432   */\n      tag_322\n      tag_129\n      jump\t// in\n    tag_322:\n        /* \"#utility.yul\":15378:15434   */\n    tag_321:\n        /* \"#utility.yul\":15458:15496   */\n      tag_323\n        /* \"#utility.yul\":15490:15494   */\n      dup3\n        /* \"#utility.yul\":15484:15495   */\n      sload\n        /* \"#utility.yul\":15458:15496   */\n      tag_72\n      jump\t// in\n    tag_323:\n        /* \"#utility.yul\":15543:15610   */\n      tag_324\n        /* \"#utility.yul\":15603:15609   */\n      dup3\n        /* \"#utility.yul\":15595:15601   */\n      dup3\n        /* \"#utility.yul\":15589:15593   */\n      dup6\n        /* \"#utility.yul\":15543:15610   */\n      tag_167\n      jump\t// in\n    tag_324:\n        /* \"#utility.yul\":15637:15638   */\n      0x00\n        /* \"#utility.yul\":15661:15665   */\n      0x20\n        /* \"#utility.yul\":15648:15665   */\n      swap1\n      pop\n        /* \"#utility.yul\":15693:15695   */\n      0x1f\n        /* \"#utility.yul\":15685:15691   */\n      dup4\n        /* \"#utility.yul\":15682:15696   */\n      gt\n        /* \"#utility.yul\":15710:15711   */\n      0x01\n        /* \"#utility.yul\":15705:16323   */\n      dup2\n      eq\n      tag_326\n      jumpi\n        /* \"#utility.yul\":16367:16368   */\n      0x00\n        /* \"#utility.yul\":16384:16390   */\n      dup5\n        /* \"#utility.yul\":16381:16458   */\n      iszero\n      tag_327\n      jumpi\n        /* \"#utility.yul\":16433:16442   */\n      dup3\n        /* \"#utility.yul\":16428:16431   */\n      dup8\n        /* \"#utility.yul\":16424:16443   */\n      add\n        /* \"#utility.yul\":16418:16444   */\n      mload\n        /* \"#utility.yul\":16409:16444   */\n      swap1\n      pop\n        /* \"#utility.yul\":16381:16458   */\n    tag_327:\n        /* \"#utility.yul\":16484:16551   */\n      tag_328\n        /* \"#utility.yul\":16544:16550   */\n      dup6\n        /* \"#utility.yul\":16537:16542   */\n      dup3\n        /* \"#utility.yul\":16484:16551   */\n      tag_170\n      jump\t// in\n    tag_328:\n        /* \"#utility.yul\":16478:16482   */\n      dup7\n        /* \"#utility.yul\":16471:16552   */\n      sstore\n        /* \"#utility.yul\":16340:16562   */\n      pop\n        /* \"#utility.yul\":15675:16562   */\n      jump(tag_325)\n        /* \"#utility.yul\":15705:16323   */\n    tag_326:\n        /* \"#utility.yul\":15757:15761   */\n      0x1f\n        /* \"#utility.yul\":15753:15762   */\n      not\n        /* \"#utility.yul\":15745:15751   */\n      dup5\n        /* \"#utility.yul\":15741:15763   */\n      and\n        /* \"#utility.yul\":15791:15828   */\n      tag_329\n        /* \"#utility.yul\":15823:15827   */\n      dup7\n        /* \"#utility.yul\":15791:15828   */\n      tag_156\n      jump\t// in\n    tag_329:\n        /* \"#utility.yul\":15850:15851   */\n      0x00\n        /* \"#utility.yul\":15864:16072   */\n    tag_330:\n        /* \"#utility.yul\":15878:15885   */\n      dup3\n        /* \"#utility.yul\":15875:15876   */\n      dup2\n        /* \"#utility.yul\":15872:15886   */\n      lt\n        /* \"#utility.yul\":15864:16072   */\n      iszero\n      tag_332\n      jumpi\n        /* \"#utility.yul\":15957:15966   */\n      dup5\n        /* \"#utility.yul\":15952:15955   */\n      dup10\n        /* \"#utility.yul\":15948:15967   */\n      add\n        /* \"#utility.yul\":15942:15968   */\n      mload\n        /* \"#utility.yul\":15934:15940   */\n      dup3\n        /* \"#utility.yul\":15927:15969   */\n      sstore\n        /* \"#utility.yul\":16008:16009   */\n      0x01\n        /* \"#utility.yul\":16000:16006   */\n      dup3\n        /* \"#utility.yul\":15996:16010   */\n      add\n        /* \"#utility.yul\":15986:16010   */\n      swap2\n      pop\n        /* \"#utility.yul\":16055:16057   */\n      0x20\n        /* \"#utility.yul\":16044:16053   */\n      dup6\n        /* \"#utility.yul\":16040:16058   */\n      add\n        /* \"#utility.yul\":16027:16058   */\n      swap5\n      pop\n        /* \"#utility.yul\":15901:15905   */\n      0x20\n        /* \"#utility.yul\":15898:15899   */\n      dup2\n        /* \"#utility.yul\":15894:15906   */\n      add\n        /* \"#utility.yul\":15889:15906   */\n      swap1\n      pop\n        /* \"#utility.yul\":15864:16072   */\n      jump(tag_330)\n    tag_332:\n        /* \"#utility.yul\":16100:16106   */\n      dup7\n        /* \"#utility.yul\":16091:16098   */\n      dup4\n        /* \"#utility.yul\":16088:16107   */\n      lt\n        /* \"#utility.yul\":16085:16264   */\n      iszero\n      tag_333\n      jumpi\n        /* \"#utility.yul\":16158:16167   */\n      dup5\n        /* \"#utility.yul\":16153:16156   */\n      dup10\n        /* \"#utility.yul\":16149:16168   */\n      add\n        /* \"#utility.yul\":16143:16169   */\n      mload\n        /* \"#utility.yul\":16201:16249   */\n      tag_334\n        /* \"#utility.yul\":16243:16247   */\n      0x1f\n        /* \"#utility.yul\":16235:16241   */\n      dup10\n        /* \"#utility.yul\":16231:16248   */\n      and\n        /* \"#utility.yul\":16220:16229   */\n      dup3\n        /* \"#utility.yul\":16201:16249   */\n      tag_169\n      jump\t// in\n    tag_334:\n        /* \"#utility.yul\":16193:16199   */\n      dup4\n        /* \"#utility.yul\":16186:16250   */\n      sstore\n        /* \"#utility.yul\":16108:16264   */\n      pop\n        /* \"#utility.yul\":16085:16264   */\n    tag_333:\n        /* \"#utility.yul\":16310:16311   */\n      0x01\n        /* \"#utility.yul\":16306:16307   */\n      0x02\n        /* \"#utility.yul\":16298:16304   */\n      dup9\n        /* \"#utility.yul\":16294:16308   */\n      mul\n        /* \"#utility.yul\":16290:16312   */\n      add\n        /* \"#utility.yul\":16284:16288   */\n      dup9\n        /* \"#utility.yul\":16277:16313   */\n      sstore\n        /* \"#utility.yul\":15712:16323   */\n      pop\n      pop\n      pop\n        /* \"#utility.yul\":15675:16562   */\n    tag_325:\n      pop\n        /* \"#utility.yul\":15265:16568   */\n      pop\n      pop\n      pop\n        /* \"#utility.yul\":15173:16568   */\n      pop\n      pop\n      jump\t// out\n        /* \"#utility.yul\":16574:16768   */\n    tag_90:\n        /* \"#utility.yul\":16614:16618   */\n      0x00\n        /* \"#utility.yul\":16634:16654   */\n      tag_336\n        /* \"#utility.yul\":16652:16653   */\n      dup3\n        /* \"#utility.yul\":16634:16654   */\n      tag_117\n      jump\t// in\n    tag_336:\n        /* \"#utility.yul\":16629:16654   */\n      swap2\n      pop\n        /* \"#utility.yul\":16668:16688   */\n      tag_337\n        /* \"#utility.yul\":16686:16687   */\n      dup4\n        /* \"#utility.yul\":16668:16688   */\n      tag_117\n      jump\t// in\n    tag_337:\n        /* \"#utility.yul\":16663:16688   */\n      swap3\n      pop\n        /* \"#utility.yul\":16712:16713   */\n      dup3\n        /* \"#utility.yul\":16709:16710   */\n      dup3\n        /* \"#utility.yul\":16705:16714   */\n      sub\n        /* \"#utility.yul\":16697:16714   */\n      swap1\n      pop\n        /* \"#utility.yul\":16736:16737   */\n      dup2\n        /* \"#utility.yul\":16730:16734   */\n      dup2\n        /* \"#utility.yul\":16727:16738   */\n      gt\n        /* \"#utility.yul\":16724:16761   */\n      iszero\n      tag_338\n      jumpi\n        /* \"#utility.yul\":16741:16759   */\n      tag_339\n      tag_152\n      jump\t// in\n    tag_339:\n        /* \"#utility.yul\":16724:16761   */\n    tag_338:\n        /* \"#utility.yul\":16574:16768   */\n      swap3\n      swap2\n      pop\n      pop\n      jump\t// out\n        /* \"#utility.yul\":16774:16965   */\n    tag_92:\n        /* \"#utility.yul\":16814:16817   */\n      0x00\n        /* \"#utility.yul\":16833:16853   */\n      tag_341\n        /* \"#utility.yul\":16851:16852   */\n      dup3\n        /* \"#utility.yul\":16833:16853   */\n      tag_117\n      jump\t// in\n    tag_341:\n        /* \"#utility.yul\":16828:16853   */\n      swap2\n      pop\n        /* \"#utility.yul\":16867:16887   */\n      tag_342\n        /* \"#utility.yul\":16885:16886   */\n      dup4\n        /* \"#utility.yul\":16867:16887   */\n      tag_117\n      jump\t// in\n    tag_342:\n        /* \"#utility.yul\":16862:16887   */\n      swap3\n      pop\n        /* \"#utility.yul\":16910:16911   */\n      dup3\n        /* \"#utility.yul\":16907:16908   */\n      dup3\n        /* \"#utility.yul\":16903:16912   */\n      add\n        /* \"#utility.yul\":16896:16912   */\n      swap1\n      pop\n        /* \"#utility.yul\":16931:16934   */\n      dup1\n        /* \"#utility.yul\":16928:16929   */\n      dup3\n        /* \"#utility.yul\":16925:16935   */\n      gt\n        /* \"#utility.yul\":16922:16958   */\n      iszero\n      tag_343\n      jumpi\n        /* \"#utility.yul\":16938:16956   */\n      tag_344\n      tag_152\n      jump\t// in\n    tag_344:\n        /* \"#utility.yul\":16922:16958   */\n    tag_343:\n        /* \"#utility.yul\":16774:16965   */\n      swap3\n      swap2\n      pop\n      pop\n      jump\t// out\n        /* \"#utility.yul\":16971:17120   */\n    tag_171:\n        /* \"#utility.yul\":17020:17026   */\n      0x00\n        /* \"#utility.yul\":17054:17059   */\n      dup2\n        /* \"#utility.yul\":17048:17060   */\n      sload\n        /* \"#utility.yul\":17038:17060   */\n      swap1\n      pop\n        /* \"#utility.yul\":17080:17113   */\n      tag_346\n        /* \"#utility.yul\":17106:17112   */\n      dup2\n        /* \"#utility.yul\":17080:17113   */\n      tag_72\n      jump\t// in\n    tag_346:\n        /* \"#utility.yul\":17070:17113   */\n      swap1\n      pop\n        /* \"#utility.yul\":16971:17120   */\n      swap2\n      swap1\n      pop\n      jump\t// out\n        /* \"#utility.yul\":17126:18577   */\n    tag_100:\n        /* \"#utility.yul\":17237:17240   */\n      dup2\n        /* \"#utility.yul\":17231:17235   */\n      dup2\n        /* \"#utility.yul\":17228:17241   */\n      sub\n        /* \"#utility.yul\":17225:17251   */\n      tag_348\n      jumpi\n        /* \"#utility.yul\":17244:17249   */\n      pop\n      pop\n      jump(tag_347)\n        /* \"#utility.yul\":17225:17251   */\n    tag_348:\n        /* \"#utility.yul\":17275:17309   */\n      tag_349\n        /* \"#utility.yul\":17305:17308   */\n      dup3\n        /* \"#utility.yul\":17275:17309   */\n      tag_171\n      jump\t// in\n    tag_349:\n        /* \"#utility.yul\":17374:17392   */\n      0xffffffffffffffff\n        /* \"#utility.yul\":17366:17372   */\n      dup2\n        /* \"#utility.yul\":17363:17393   */\n      gt\n        /* \"#utility.yul\":17360:17416   */\n      iszero\n      tag_350\n      jumpi\n        /* \"#utility.yul\":17396:17414   */\n      tag_351\n      tag_129\n      jump\t// in\n    tag_351:\n        /* \"#utility.yul\":17360:17416   */\n    tag_350:\n        /* \"#utility.yul\":17440:17478   */\n      tag_352\n        /* \"#utility.yul\":17472:17476   */\n      dup3\n        /* \"#utility.yul\":17466:17477   */\n      sload\n        /* \"#utility.yul\":17440:17478   */\n      tag_72\n      jump\t// in\n    tag_352:\n        /* \"#utility.yul\":17525:17592   */\n      tag_353\n        /* \"#utility.yul\":17585:17591   */\n      dup3\n        /* \"#utility.yul\":17577:17583   */\n      dup3\n        /* \"#utility.yul\":17571:17575   */\n      dup6\n        /* \"#utility.yul\":17525:17592   */\n      tag_167\n      jump\t// in\n    tag_353:\n        /* \"#utility.yul\":17619:17620   */\n      0x00\n        /* \"#utility.yul\":17648:17650   */\n      0x1f\n        /* \"#utility.yul\":17640:17646   */\n      dup4\n        /* \"#utility.yul\":17637:17651   */\n      gt\n        /* \"#utility.yul\":17665:17666   */\n      0x01\n        /* \"#utility.yul\":17660:18332   */\n      dup2\n      eq\n      tag_355\n      jumpi\n        /* \"#utility.yul\":18376:18377   */\n      0x00\n        /* \"#utility.yul\":18393:18399   */\n      dup5\n        /* \"#utility.yul\":18390:18467   */\n      iszero\n      tag_356\n      jumpi\n        /* \"#utility.yul\":18442:18451   */\n      dup3\n        /* \"#utility.yul\":18437:18440   */\n      dup8\n        /* \"#utility.yul\":18433:18452   */\n      add\n        /* \"#utility.yul\":18427:18453   */\n      sload\n        /* \"#utility.yul\":18418:18453   */\n      swap1\n      pop\n        /* \"#utility.yul\":18390:18467   */\n    tag_356:\n        /* \"#utility.yul\":18493:18560   */\n      tag_357\n        /* \"#utility.yul\":18553:18559   */\n      dup6\n        /* \"#utility.yul\":18546:18551   */\n      dup3\n        /* \"#utility.yul\":18493:18560   */\n      tag_170\n      jump\t// in\n    tag_357:\n        /* \"#utility.yul\":18487:18491   */\n      dup7\n        /* \"#utility.yul\":18480:18561   */\n      sstore\n        /* \"#utility.yul\":18349:18571   */\n      pop\n        /* \"#utility.yul\":17630:18571   */\n      jump(tag_354)\n        /* \"#utility.yul\":17660:18332   */\n    tag_355:\n        /* \"#utility.yul\":17712:17716   */\n      0x1f\n        /* \"#utility.yul\":17708:17717   */\n      not\n        /* \"#utility.yul\":17700:17706   */\n      dup5\n        /* \"#utility.yul\":17696:17718   */\n      and\n        /* \"#utility.yul\":17738:17774   */\n      tag_358\n        /* \"#utility.yul\":17770:17773   */\n      dup8\n        /* \"#utility.yul\":17738:17774   */\n      tag_156\n      jump\t// in\n    tag_358:\n        /* \"#utility.yul\":17731:17774   */\n      swap7\n      pop\n        /* \"#utility.yul\":17801:17838   */\n      tag_359\n        /* \"#utility.yul\":17833:17837   */\n      dup7\n        /* \"#utility.yul\":17801:17838   */\n      tag_156\n      jump\t// in\n    tag_359:\n        /* \"#utility.yul\":17860:17861   */\n      0x00\n        /* \"#utility.yul\":17874:18081   */\n    tag_360:\n        /* \"#utility.yul\":17888:17895   */\n      dup3\n        /* \"#utility.yul\":17885:17886   */\n      dup2\n        /* \"#utility.yul\":17882:17896   */\n      lt\n        /* \"#utility.yul\":17874:18081   */\n      iszero\n      tag_362\n      jumpi\n        /* \"#utility.yul\":17967:17976   */\n      dup5\n        /* \"#utility.yul\":17962:17965   */\n      dup10\n        /* \"#utility.yul\":17958:17977   */\n      add\n        /* \"#utility.yul\":17952:17978   */\n      sload\n        /* \"#utility.yul\":17944:17950   */\n      dup3\n        /* \"#utility.yul\":17937:17979   */\n      sstore\n        /* \"#utility.yul\":18018:18019   */\n      0x01\n        /* \"#utility.yul\":18010:18016   */\n      dup3\n        /* \"#utility.yul\":18006:18020   */\n      add\n        /* \"#utility.yul\":17996:18020   */\n      swap2\n      pop\n        /* \"#utility.yul\":18065:18066   */\n      0x01\n        /* \"#utility.yul\":18054:18063   */\n      dup6\n        /* \"#utility.yul\":18050:18067   */\n      add\n        /* \"#utility.yul\":18037:18067   */\n      swap5\n      pop\n        /* \"#utility.yul\":17911:17915   */\n      0x20\n        /* \"#utility.yul\":17908:17909   */\n      dup2\n        /* \"#utility.yul\":17904:17916   */\n      add\n        /* \"#utility.yul\":17899:17916   */\n      swap1\n      pop\n        /* \"#utility.yul\":17874:18081   */\n      jump(tag_360)\n    tag_362:\n        /* \"#utility.yul\":18109:18115   */\n      dup7\n        /* \"#utility.yul\":18100:18107   */\n      dup4\n        /* \"#utility.yul\":18097:18116   */\n      lt\n        /* \"#utility.yul\":18094:18273   */\n      iszero\n      tag_363\n      jumpi\n        /* \"#utility.yul\":18167:18176   */\n      dup5\n        /* \"#utility.yul\":18162:18165   */\n      dup10\n        /* \"#utility.yul\":18158:18177   */\n      add\n        /* \"#utility.yul\":18152:18178   */\n      sload\n        /* \"#utility.yul\":18210:18258   */\n      tag_364\n        /* \"#utility.yul\":18252:18256   */\n      0x1f\n        /* \"#utility.yul\":18244:18250   */\n      dup10\n        /* \"#utility.yul\":18240:18257   */\n      and\n        /* \"#utility.yul\":18229:18238   */\n      dup3\n        /* \"#utility.yul\":18210:18258   */\n      tag_169\n      jump\t// in\n    tag_364:\n        /* \"#utility.yul\":18202:18208   */\n      dup4\n        /* \"#utility.yul\":18195:18259   */\n      sstore\n        /* \"#utility.yul\":18117:18273   */\n      pop\n        /* \"#utility.yul\":18094:18273   */\n    tag_363:\n        /* \"#utility.yul\":18319:18320   */\n      0x01\n        /* \"#utility.yul\":18315:18316   */\n      0x02\n        /* \"#utility.yul\":18307:18313   */\n      dup9\n        /* \"#utility.yul\":18303:18317   */\n      mul\n        /* \"#utility.yul\":18299:18321   */\n      add\n        /* \"#utility.yul\":18293:18297   */\n      dup9\n        /* \"#utility.yul\":18286:18322   */\n      sstore\n        /* \"#utility.yul\":17667:18332   */\n      pop\n      pop\n      pop\n        /* \"#utility.yul\":17630:18571   */\n    tag_354:\n      pop\n        /* \"#utility.yul\":17215:18577   */\n      pop\n      pop\n      pop\n        /* \"#utility.yul\":17126:18577   */\n      pop\n      pop\n    tag_347:\n      jump\t// out\n        /* \"#utility.yul\":18583:18763   */\n    tag_103:\n        /* \"#utility.yul\":18631:18708   */\n      0x4e487b7100000000000000000000000000000000000000000000000000000000\n        /* \"#utility.yul\":18628:18629   */\n      0x00\n        /* \"#utility.yul\":18621:18709   */\n      mstore\n        /* \"#utility.yul\":18728:18732   */\n      0x31\n        /* \"#utility.yul\":18725:18726   */\n      0x04\n        /* \"#utility.yul\":18718:18733   */\n      mstore\n        /* \"#utility.yul\":18752:18756   */\n      0x24\n        /* \"#utility.yul\":18749:18750   */\n      0x00\n        /* \"#utility.yul\":18742:18757   */\n      revert\n\n    auxdata: 0xa26469706673582212206639f45bf623cf97d023c5dae72d5171045ac871f921d4a2561d2ea0033381cd64736f6c634300081a0033\n}\n",
				"bytecode": {
					"linkReferences": {},
					"object": "6080604052348015600e575f80fd5b50335f806101000a81548173ffffffffffffffffffffffffffffffffffffffff021916908373ffffffffffffffffffffffffffffffffffffffff1602179055506112098061005b5f395ff3fe608060405260043610610054575f3560e01c80632a08deda14610058578063421eb959146100825780635495befd146100985780636e7301fd146100c05780638acd3103146100ca578063ece39670146100f4575b5f80fd5b348015610063575f80fd5b5061006c61011c565b60405161007991906107d1565b60405180910390f35b34801561008d575f80fd5b50610096610123565b005b3480156100a3575f80fd5b506100be60048036038101906100b99190610991565b6101f1565b005b6100c86103e2565b005b3480156100d5575f80fd5b506100de6103e4565b6040516100eb9190610b4f565b60405180910390f35b3480156100ff575f80fd5b5061011a60048036038101906101159190610b6f565b610524565b005b5f47905090565b5f4711610165576040517f08c379a000000000000000000000000000000000000000000000000000000000815260040161015c90610c1a565b60405180910390fd5b60018080549050106101ef575f600180549050476101839190610c92565b90505f5b6001805490508110156101ec576101df600182815481106101ab576101aa610cc2565b5b905f5260205f2090600202015f015f9054906101000a900473ffffffffffffffffffffffffffffffffffffffff1683610719565b8080600101915050610187565b50505b565b5f8054906101000a900473ffffffffffffffffffffffffffffffffffffffff1673ffffffffffffffffffffffffffffffffffffffff163373ffffffffffffffffffffffffffffffffffffffff161461027e576040517f08c379a000000000000000000000000000000000000000000000000000000000815260040161027590610d5f565b60405180910390fd5b5f6001808054905010610322575f5b600180549050811015610320578373ffffffffffffffffffffffffffffffffffffffff16600182815481106102c5576102c4610cc2565b5b905f5260205f2090600202015f015f9054906101000a900473ffffffffffffffffffffffffffffffffffffffff1673ffffffffffffffffffffffffffffffffffffffff160361031357600191505b808060010191505061028d565b505b5f1515811515036103dd57600160405180604001604052808573ffffffffffffffffffffffffffffffffffffffff16815260200184815250908060018154018082558091505060019003905f5260205f2090600202015f909190919091505f820151815f015f6101000a81548173ffffffffffffffffffffffffffffffffffffffff021916908373ffffffffffffffffffffffffffffffffffffffff16021790555060208201518160010190816103d99190610f77565b5050505b505050565b565b60606001805480602002602001604051908101604052809291908181526020015f905b8282101561051b578382905f5260205f2090600202016040518060400160405290815f82015f9054906101000a900473ffffffffffffffffffffffffffffffffffffffff1673ffffffffffffffffffffffffffffffffffffffff1673ffffffffffffffffffffffffffffffffffffffff16815260200160018201805461048c90610daa565b80601f01602080910402602001604051908101604052809291908181526020018280546104b890610daa565b80156105035780601f106104da57610100808354040283529160200191610503565b820191905f5260205f20905b8154815290600101906020018083116104e657829003601f168201915b50505050508152505081526020019060010190610407565b50505050905090565b5f6001805490501115610716575f5b600180549050811015610714578173ffffffffffffffffffffffffffffffffffffffff166001828154811061056b5761056a610cc2565b5b905f5260205f2090600202015f015f9054906101000a900473ffffffffffffffffffffffffffffffffffffffff1673ffffffffffffffffffffffffffffffffffffffff1603610707575f8190505b600180805490506105ca9190611046565b8110156106a457600180826105df9190611079565b815481106105f0576105ef610cc2565b5b905f5260205f209060020201600182815481106106105761060f610cc2565b5b905f5260205f2090600202015f82015f9054906101000a900473ffffffffffffffffffffffffffffffffffffffff16815f015f6101000a81548173ffffffffffffffffffffffffffffffffffffffff021916908373ffffffffffffffffffffffffffffffffffffffff1602179055506001820181600101908161069391906110c1565b5090505080806001019150506105b9565b5060018054806106b7576106b66111a6565b5b600190038181905f5260205f2090600202015f8082015f6101000a81549073ffffffffffffffffffffffffffffffffffffffff0219169055600182015f6106fe9190610761565b50509055610714565b8080600101915050610533565b505b50565b8173ffffffffffffffffffffffffffffffffffffffff166108fc8290811502906040515f60405180830381858888f1935050505015801561075c573d5f803e3d5ffd5b505050565b50805461076d90610daa565b5f825580601f1061077e575061079b565b601f0160209004905f5260205f209081019061079a919061079e565b5b50565b5b808211156107b5575f815f90555060010161079f565b5090565b5f819050919050565b6107cb816107b9565b82525050565b5f6020820190506107e45f8301846107c2565b92915050565b5f604051905090565b5f80fd5b5f80fd5b5f73ffffffffffffffffffffffffffffffffffffffff82169050919050565b5f610824826107fb565b9050919050565b6108348161081a565b811461083e575f80fd5b50565b5f8135905061084f8161082b565b92915050565b5f80fd5b5f80fd5b5f601f19601f8301169050919050565b7f4e487b71000000000000000000000000000000000000000000000000000000005f52604160045260245ffd5b6108a38261085d565b810181811067ffffffffffffffff821117156108c2576108c161086d565b5b80604052505050565b5f6108d46107ea565b90506108e0828261089a565b919050565b5f67ffffffffffffffff8211156108ff576108fe61086d565b5b6109088261085d565b9050602081019050919050565b828183375f83830152505050565b5f610935610930846108e5565b6108cb565b90508281526020810184848401111561095157610950610859565b5b61095c848285610915565b509392505050565b5f82601f83011261097857610977610855565b5b8135610988848260208601610923565b91505092915050565b5f80604083850312156109a7576109a66107f3565b5b5f6109b485828601610841565b925050602083013567ffffffffffffffff8111156109d5576109d46107f7565b5b6109e185828601610964565b9150509250929050565b5f81519050919050565b5f82825260208201905092915050565b5f819050602082019050919050565b610a1d8161081a565b82525050565b5f81519050919050565b5f82825260208201905092915050565b8281835e5f83830152505050565b5f610a5582610a23565b610a5f8185610a2d565b9350610a6f818560208601610a3d565b610a788161085d565b840191505092915050565b5f604083015f830151610a985f860182610a14565b5060208301518482036020860152610ab08282610a4b565b9150508091505092915050565b5f610ac88383610a83565b905092915050565b5f602082019050919050565b5f610ae6826109eb565b610af081856109f5565b935083602082028501610b0285610a05565b805f5b85811015610b3d5784840389528151610b1e8582610abd565b9450610b2983610ad0565b925060208a01995050600181019050610b05565b50829750879550505050505092915050565b5f6020820190508181035f830152610b678184610adc565b905092915050565b5f60208284031215610b8457610b836107f3565b5b5f610b9184828501610841565b91505092915050565b5f82825260208201905092915050565b7f496e73756666696369656e742062616c616e636520696e2074686520636f6e745f8201527f7261637400000000000000000000000000000000000000000000000000000000602082015250565b5f610c04602483610b9a565b9150610c0f82610baa565b604082019050919050565b5f6020820190508181035f830152610c3181610bf8565b9050919050565b7f4e487b71000000000000000000000000000000000000000000000000000000005f52601260045260245ffd5b7f4e487b71000000000000000000000000000000000000000000000000000000005f52601160045260245ffd5b5f610c9c826107b9565b9150610ca7836107b9565b925082610cb757610cb6610c38565b5b828204905092915050565b7f4e487b71000000000000000000000000000000000000000000000000000000005f52603260045260245ffd5b7f4f6e6c7920746865206f776e65722063616e2063616c6c20746869732066756e5f8201527f6374696f6e000000000000000000000000000000000000000000000000000000602082015250565b5f610d49602583610b9a565b9150610d5482610cef565b604082019050919050565b5f6020820190508181035f830152610d7681610d3d565b9050919050565b7f4e487b71000000000000000000000000000000000000000000000000000000005f52602260045260245ffd5b5f6002820490506001821680610dc157607f821691505b602082108103610dd457610dd3610d7d565b5b50919050565b5f819050815f5260205f209050919050565b5f6020601f8301049050919050565b5f82821b905092915050565b5f60088302610e367fffffffffffffffffffffffffffffffffffffffffffffffffffffffffffffffff82610dfb565b610e408683610dfb565b95508019841693508086168417925050509392505050565b5f819050919050565b5f610e7b610e76610e71846107b9565b610e58565b6107b9565b9050919050565b5f819050919050565b610e9483610e61565b610ea8610ea082610e82565b848454610e07565b825550505050565b5f90565b610ebc610eb0565b610ec7818484610e8b565b505050565b5b81811015610eea57610edf5f82610eb4565b600181019050610ecd565b5050565b601f821115610f2f57610f0081610dda565b610f0984610dec565b81016020851015610f18578190505b610f2c610f2485610dec565b830182610ecc565b50505b505050565b5f82821c905092915050565b5f610f4f5f1984600802610f34565b1980831691505092915050565b5f610f678383610f40565b9150826002028217905092915050565b610f8082610a23565b67ffffffffffffffff811115610f9957610f9861086d565b5b610fa38254610daa565b610fae828285610eee565b5f60209050601f831160018114610fdf575f8415610fcd578287015190505b610fd78582610f5c565b86555061103e565b601f198416610fed86610dda565b5f5b8281101561101457848901518255600182019150602085019450602081019050610fef565b86831015611031578489015161102d601f891682610f40565b8355505b6001600288020188555050505b505050505050565b5f611050826107b9565b915061105b836107b9565b925082820390508181111561107357611072610c65565b5b92915050565b5f611083826107b9565b915061108e836107b9565b92508282019050808211156110a6576110a5610c65565b5b92915050565b5f815490506110ba81610daa565b9050919050565b8181036110cf5750506111a4565b6110d8826110ac565b67ffffffffffffffff8111156110f1576110f061086d565b5b6110fb8254610daa565b611106828285610eee565b5f601f831160018114611133575f8415611121578287015490505b61112b8582610f5c565b86555061119d565b601f19841661114187610dda565b965061114c86610dda565b5f5b828110156111735784890154825560018201915060018501945060208101905061114e565b86831015611190578489015461118c601f891682610f40565b8355505b6001600288020188555050505b5050505050505b565b7f4e487b71000000000000000000000000000000000000000000000000000000005f52603160045260245ffdfea26469706673582212206639f45bf623cf97d023c5dae72d5171045ac871f921d4a2561d2ea0033381cd64736f6c634300081a0033",
					"opcodes": "PUSH1 0x80 PUSH1 0x40 MSTORE CALLVALUE DUP1 ISZERO PUSH1 0xE JUMPI PUSH0 DUP1 REVERT JUMPDEST POP CALLER PUSH0 DUP1 PUSH2 0x100 EXP DUP2 SLOAD DUP2 PUSH20 0xFFFFFFFFFFFFFFFFFFFFFFFFFFFFFFFFFFFFFFFF MUL NOT AND SWAP1 DUP4 PUSH20 0xFFFFFFFFFFFFFFFFFFFFFFFFFFFFFFFFFFFFFFFF AND MUL OR SWAP1 SSTORE POP PUSH2 0x1209 DUP1 PUSH2 0x5B PUSH0 CODECOPY PUSH0 RETURN INVALID PUSH1 0x80 PUSH1 0x40 MSTORE PUSH1 0x4 CALLDATASIZE LT PUSH2 0x54 JUMPI PUSH0 CALLDATALOAD PUSH1 0xE0 SHR DUP1 PUSH4 0x2A08DEDA EQ PUSH2 0x58 JUMPI DUP1 PUSH4 0x421EB959 EQ PUSH2 0x82 JUMPI DUP1 PUSH4 0x5495BEFD EQ PUSH2 0x98 JUMPI DUP1 PUSH4 0x6E7301FD EQ PUSH2 0xC0 JUMPI DUP1 PUSH4 0x8ACD3103 EQ PUSH2 0xCA JUMPI DUP1 PUSH4 0xECE39670 EQ PUSH2 0xF4 JUMPI JUMPDEST PUSH0 DUP1 REVERT JUMPDEST CALLVALUE DUP1 ISZERO PUSH2 0x63 JUMPI PUSH0 DUP1 REVERT JUMPDEST POP PUSH2 0x6C PUSH2 0x11C JUMP JUMPDEST PUSH1 0x40 MLOAD PUSH2 0x79 SWAP2 SWAP1 PUSH2 0x7D1 JUMP JUMPDEST PUSH1 0x40 MLOAD DUP1 SWAP2 SUB SWAP1 RETURN JUMPDEST CALLVALUE DUP1 ISZERO PUSH2 0x8D JUMPI PUSH0 DUP1 REVERT JUMPDEST POP PUSH2 0x96 PUSH2 0x123 JUMP JUMPDEST STOP JUMPDEST CALLVALUE DUP1 ISZERO PUSH2 0xA3 JUMPI PUSH0 DUP1 REVERT JUMPDEST POP PUSH2 0xBE PUSH1 0x4 DUP1 CALLDATASIZE SUB DUP2 ADD SWAP1 PUSH2 0xB9 SWAP2 SWAP1 PUSH2 0x991 JUMP JUMPDEST PUSH2 0x1F1 JUMP JUMPDEST STOP JUMPDEST PUSH2 0xC8 PUSH2 0x3E2 JUMP JUMPDEST STOP JUMPDEST CALLVALUE DUP1 ISZERO PUSH2 0xD5 JUMPI PUSH0 DUP1 REVERT JUMPDEST POP PUSH2 0xDE PUSH2 0x3E4 JUMP JUMPDEST PUSH1 0x40 MLOAD PUSH2 0xEB SWAP2 SWAP1 PUSH2 0xB4F JUMP JUMPDEST PUSH1 0x40 MLOAD DUP1 SWAP2 SUB SWAP1 RETURN JUMPDEST CALLVALUE DUP1 ISZERO PUSH2 0xFF JUMPI PUSH0 DUP1 REVERT JUMPDEST POP PUSH2 0x11A PUSH1 0x4 DUP1 CALLDATASIZE SUB DUP2 ADD SWAP1 PUSH2 0x115 SWAP2 SWAP1 PUSH2 0xB6F JUMP JUMPDEST PUSH2 0x524 JUMP JUMPDEST STOP JUMPDEST PUSH0 SELFBALANCE SWAP1 POP SWAP1 JUMP JUMPDEST PUSH0 SELFBALANCE GT PUSH2 0x165 JUMPI PUSH1 0x40 MLOAD PUSH32 0x8C379A000000000000000000000000000000000000000000000000000000000 DUP2 MSTORE PUSH1 0x4 ADD PUSH2 0x15C SWAP1 PUSH2 0xC1A JUMP JUMPDEST PUSH1 0x40 MLOAD DUP1 SWAP2 SUB SWAP1 REVERT JUMPDEST PUSH1 0x1 DUP1 DUP1 SLOAD SWAP1 POP LT PUSH2 0x1EF JUMPI PUSH0 PUSH1 0x1 DUP1 SLOAD SWAP1 POP SELFBALANCE PUSH2 0x183 SWAP2 SWAP1 PUSH2 0xC92 JUMP JUMPDEST SWAP1 POP PUSH0 JUMPDEST PUSH1 0x1 DUP1 SLOAD SWAP1 POP DUP2 LT ISZERO PUSH2 0x1EC JUMPI PUSH2 0x1DF PUSH1 0x1 DUP3 DUP2 SLOAD DUP2 LT PUSH2 0x1AB JUMPI PUSH2 0x1AA PUSH2 0xCC2 JUMP JUMPDEST JUMPDEST SWAP1 PUSH0 MSTORE PUSH1 0x20 PUSH0 KECCAK256 SWAP1 PUSH1 0x2 MUL ADD PUSH0 ADD PUSH0 SWAP1 SLOAD SWAP1 PUSH2 0x100 EXP SWAP1 DIV PUSH20 0xFFFFFFFFFFFFFFFFFFFFFFFFFFFFFFFFFFFFFFFF AND DUP4 PUSH2 0x719 JUMP JUMPDEST DUP1 DUP1 PUSH1 0x1 ADD SWAP2 POP POP PUSH2 0x187 JUMP JUMPDEST POP POP JUMPDEST JUMP JUMPDEST PUSH0 DUP1 SLOAD SWAP1 PUSH2 0x100 EXP SWAP1 DIV PUSH20 0xFFFFFFFFFFFFFFFFFFFFFFFFFFFFFFFFFFFFFFFF AND PUSH20 0xFFFFFFFFFFFFFFFFFFFFFFFFFFFFFFFFFFFFFFFF AND CALLER PUSH20 0xFFFFFFFFFFFFFFFFFFFFFFFFFFFFFFFFFFFFFFFF AND EQ PUSH2 0x27E JUMPI PUSH1 0x40 MLOAD PUSH32 0x8C379A000000000000000000000000000000000000000000000000000000000 DUP2 MSTORE PUSH1 0x4 ADD PUSH2 0x275 SWAP1 PUSH2 0xD5F JUMP JUMPDEST PUSH1 0x40 MLOAD DUP1 SWAP2 SUB SWAP1 REVERT JUMPDEST PUSH0 PUSH1 0x1 DUP1 DUP1 SLOAD SWAP1 POP LT PUSH2 0x322 JUMPI PUSH0 JUMPDEST PUSH1 0x1 DUP1 SLOAD SWAP1 POP DUP2 LT ISZERO PUSH2 0x320 JUMPI DUP4 PUSH20 0xFFFFFFFFFFFFFFFFFFFFFFFFFFFFFFFFFFFFFFFF AND PUSH1 0x1 DUP3 DUP2 SLOAD DUP2 LT PUSH2 0x2C5 JUMPI PUSH2 0x2C4 PUSH2 0xCC2 JUMP JUMPDEST JUMPDEST SWAP1 PUSH0 MSTORE PUSH1 0x20 PUSH0 KECCAK256 SWAP1 PUSH1 0x2 MUL ADD PUSH0 ADD PUSH0 SWAP1 SLOAD SWAP1 PUSH2 0x100 EXP SWAP1 DIV PUSH20 0xFFFFFFFFFFFFFFFFFFFFFFFFFFFFFFFFFFFFFFFF AND PUSH20 0xFFFFFFFFFFFFFFFFFFFFFFFFFFFFFFFFFFFFFFFF AND SUB PUSH2 0x313 JUMPI PUSH1 0x1 SWAP2 POP JUMPDEST DUP1 DUP1 PUSH1 0x1 ADD SWAP2 POP POP PUSH2 0x28D JUMP JUMPDEST POP JUMPDEST PUSH0 ISZERO ISZERO DUP2 ISZERO ISZERO SUB PUSH2 0x3DD JUMPI PUSH1 0x1 PUSH1 0x40 MLOAD DUP1 PUSH1 0x40 ADD PUSH1 0x40 MSTORE DUP1 DUP6 PUSH20 0xFFFFFFFFFFFFFFFFFFFFFFFFFFFFFFFFFFFFFFFF AND DUP2 MSTORE PUSH1 0x20 ADD DUP5 DUP2 MSTORE POP SWAP1 DUP1 PUSH1 0x1 DUP2 SLOAD ADD DUP1 DUP3 SSTORE DUP1 SWAP2 POP POP PUSH1 0x1 SWAP1 SUB SWAP1 PUSH0 MSTORE PUSH1 0x20 PUSH0 KECCAK256 SWAP1 PUSH1 0x2 MUL ADD PUSH0 SWAP1 SWAP2 SWAP1 SWAP2 SWAP1 SWAP2 POP PUSH0 DUP3 ADD MLOAD DUP2 PUSH0 ADD PUSH0 PUSH2 0x100 EXP DUP2 SLOAD DUP2 PUSH20 0xFFFFFFFFFFFFFFFFFFFFFFFFFFFFFFFFFFFFFFFF MUL NOT AND SWAP1 DUP4 PUSH20 0xFFFFFFFFFFFFFFFFFFFFFFFFFFFFFFFFFFFFFFFF AND MUL OR SWAP1 SSTORE POP PUSH1 0x20 DUP3 ADD MLOAD DUP2 PUSH1 0x1 ADD SWAP1 DUP2 PUSH2 0x3D9 SWAP2 SWAP1 PUSH2 0xF77 JUMP JUMPDEST POP POP POP JUMPDEST POP POP POP JUMP JUMPDEST JUMP JUMPDEST PUSH1 0x60 PUSH1 0x1 DUP1 SLOAD DUP1 PUSH1 0x20 MUL PUSH1 0x20 ADD PUSH1 0x40 MLOAD SWAP1 DUP2 ADD PUSH1 0x40 MSTORE DUP1 SWAP3 SWAP2 SWAP1 DUP2 DUP2 MSTORE PUSH1 0x20 ADD PUSH0 SWAP1 JUMPDEST DUP3 DUP3 LT ISZERO PUSH2 0x51B JUMPI DUP4 DUP3 SWAP1 PUSH0 MSTORE PUSH1 0x20 PUSH0 KECCAK256 SWAP1 PUSH1 0x2 MUL ADD PUSH1 0x40 MLOAD DUP1 PUSH1 0x40 ADD PUSH1 0x40 MSTORE SWAP1 DUP2 PUSH0 DUP3 ADD PUSH0 SWAP1 SLOAD SWAP1 PUSH2 0x100 EXP SWAP1 DIV PUSH20 0xFFFFFFFFFFFFFFFFFFFFFFFFFFFFFFFFFFFFFFFF AND PUSH20 0xFFFFFFFFFFFFFFFFFFFFFFFFFFFFFFFFFFFFFFFF AND PUSH20 0xFFFFFFFFFFFFFFFFFFFFFFFFFFFFFFFFFFFFFFFF AND DUP2 MSTORE PUSH1 0x20 ADD PUSH1 0x1 DUP3 ADD DUP1 SLOAD PUSH2 0x48C SWAP1 PUSH2 0xDAA JUMP JUMPDEST DUP1 PUSH1 0x1F ADD PUSH1 0x20 DUP1 SWAP2 DIV MUL PUSH1 0x20 ADD PUSH1 0x40 MLOAD SWAP1 DUP2 ADD PUSH1 0x40 MSTORE DUP1 SWAP3 SWAP2 SWAP1 DUP2 DUP2 MSTORE PUSH1 0x20 ADD DUP3 DUP1 SLOAD PUSH2 0x4B8 SWAP1 PUSH2 0xDAA JUMP JUMPDEST DUP1 ISZERO PUSH2 0x503 JUMPI DUP1 PUSH1 0x1F LT PUSH2 0x4DA JUMPI PUSH2 0x100 DUP1 DUP4 SLOAD DIV MUL DUP4 MSTORE SWAP2 PUSH1 0x20 ADD SWAP2 PUSH2 0x503 JUMP JUMPDEST DUP3 ADD SWAP2 SWAP1 PUSH0 MSTORE PUSH1 0x20 PUSH0 KECCAK256 SWAP1 JUMPDEST DUP2 SLOAD DUP2 MSTORE SWAP1 PUSH1 0x1 ADD SWAP1 PUSH1 0x20 ADD DUP1 DUP4 GT PUSH2 0x4E6 JUMPI DUP3 SWAP1 SUB PUSH1 0x1F AND DUP3 ADD SWAP2 JUMPDEST POP POP POP POP POP DUP2 MSTORE POP POP DUP2 MSTORE PUSH1 0x20 ADD SWAP1 PUSH1 0x1 ADD SWAP1 PUSH2 0x407 JUMP JUMPDEST POP POP POP POP SWAP1 POP SWAP1 JUMP JUMPDEST PUSH0 PUSH1 0x1 DUP1 SLOAD SWAP1 POP GT ISZERO PUSH2 0x716 JUMPI PUSH0 JUMPDEST PUSH1 0x1 DUP1 SLOAD SWAP1 POP DUP2 LT ISZERO PUSH2 0x714 JUMPI DUP2 PUSH20 0xFFFFFFFFFFFFFFFFFFFFFFFFFFFFFFFFFFFFFFFF AND PUSH1 0x1 DUP3 DUP2 SLOAD DUP2 LT PUSH2 0x56B JUMPI PUSH2 0x56A PUSH2 0xCC2 JUMP JUMPDEST JUMPDEST SWAP1 PUSH0 MSTORE PUSH1 0x20 PUSH0 KECCAK256 SWAP1 PUSH1 0x2 MUL ADD PUSH0 ADD PUSH0 SWAP1 SLOAD SWAP1 PUSH2 0x100 EXP SWAP1 DIV PUSH20 0xFFFFFFFFFFFFFFFFFFFFFFFFFFFFFFFFFFFFFFFF AND PUSH20 0xFFFFFFFFFFFFFFFFFFFFFFFFFFFFFFFFFFFFFFFF AND SUB PUSH2 0x707 JUMPI PUSH0 DUP2 SWAP1 POP JUMPDEST PUSH1 0x1 DUP1 DUP1 SLOAD SWAP1 POP PUSH2 0x5CA SWAP2 SWAP1 PUSH2 0x1046 JUMP JUMPDEST DUP2 LT ISZERO PUSH2 0x6A4 JUMPI PUSH1 0x1 DUP1 DUP3 PUSH2 0x5DF SWAP2 SWAP1 PUSH2 0x1079 JUMP JUMPDEST DUP2 SLOAD DUP2 LT PUSH2 0x5F0 JUMPI PUSH2 0x5EF PUSH2 0xCC2 JUMP JUMPDEST JUMPDEST SWAP1 PUSH0 MSTORE PUSH1 0x20 PUSH0 KECCAK256 SWAP1 PUSH1 0x2 MUL ADD PUSH1 0x1 DUP3 DUP2 SLOAD DUP2 LT PUSH2 0x610 JUMPI PUSH2 0x60F PUSH2 0xCC2 JUMP JUMPDEST JUMPDEST SWAP1 PUSH0 MSTORE PUSH1 0x20 PUSH0 KECCAK256 SWAP1 PUSH1 0x2 MUL ADD PUSH0 DUP3 ADD PUSH0 SWAP1 SLOAD SWAP1 PUSH2 0x100 EXP SWAP1 DIV PUSH20 0xFFFFFFFFFFFFFFFFFFFFFFFFFFFFFFFFFFFFFFFF AND DUP2 PUSH0 ADD PUSH0 PUSH2 0x100 EXP DUP2 SLOAD DUP2 PUSH20 0xFFFFFFFFFFFFFFFFFFFFFFFFFFFFFFFFFFFFFFFF MUL NOT AND SWAP1 DUP4 PUSH20 0xFFFFFFFFFFFFFFFFFFFFFFFFFFFFFFFFFFFFFFFF AND MUL OR SWAP1 SSTORE POP PUSH1 0x1 DUP3 ADD DUP2 PUSH1 0x1 ADD SWAP1 DUP2 PUSH2 0x693 SWAP2 SWAP1 PUSH2 0x10C1 JUMP JUMPDEST POP SWAP1 POP POP DUP1 DUP1 PUSH1 0x1 ADD SWAP2 POP POP PUSH2 0x5B9 JUMP JUMPDEST POP PUSH1 0x1 DUP1 SLOAD DUP1 PUSH2 0x6B7 JUMPI PUSH2 0x6B6 PUSH2 0x11A6 JUMP JUMPDEST JUMPDEST PUSH1 0x1 SWAP1 SUB DUP2 DUP2 SWAP1 PUSH0 MSTORE PUSH1 0x20 PUSH0 KECCAK256 SWAP1 PUSH1 0x2 MUL ADD PUSH0 DUP1 DUP3 ADD PUSH0 PUSH2 0x100 EXP DUP2 SLOAD SWAP1 PUSH20 0xFFFFFFFFFFFFFFFFFFFFFFFFFFFFFFFFFFFFFFFF MUL NOT AND SWAP1 SSTORE PUSH1 0x1 DUP3 ADD PUSH0 PUSH2 0x6FE SWAP2 SWAP1 PUSH2 0x761 JUMP JUMPDEST POP POP SWAP1 SSTORE PUSH2 0x714 JUMP JUMPDEST DUP1 DUP1 PUSH1 0x1 ADD SWAP2 POP POP PUSH2 0x533 JUMP JUMPDEST POP JUMPDEST POP JUMP JUMPDEST DUP2 PUSH20 0xFFFFFFFFFFFFFFFFFFFFFFFFFFFFFFFFFFFFFFFF AND PUSH2 0x8FC DUP3 SWAP1 DUP2 ISZERO MUL SWAP1 PUSH1 0x40 MLOAD PUSH0 PUSH1 0x40 MLOAD DUP1 DUP4 SUB DUP2 DUP6 DUP9 DUP9 CALL SWAP4 POP POP POP POP ISZERO DUP1 ISZERO PUSH2 0x75C JUMPI RETURNDATASIZE PUSH0 DUP1 RETURNDATACOPY RETURNDATASIZE PUSH0 REVERT JUMPDEST POP POP POP JUMP JUMPDEST POP DUP1 SLOAD PUSH2 0x76D SWAP1 PUSH2 0xDAA JUMP JUMPDEST PUSH0 DUP3 SSTORE DUP1 PUSH1 0x1F LT PUSH2 0x77E JUMPI POP PUSH2 0x79B JUMP JUMPDEST PUSH1 0x1F ADD PUSH1 0x20 SWAP1 DIV SWAP1 PUSH0 MSTORE PUSH1 0x20 PUSH0 KECCAK256 SWAP1 DUP2 ADD SWAP1 PUSH2 0x79A SWAP2 SWAP1 PUSH2 0x79E JUMP JUMPDEST JUMPDEST POP JUMP JUMPDEST JUMPDEST DUP1 DUP3 GT ISZERO PUSH2 0x7B5 JUMPI PUSH0 DUP2 PUSH0 SWAP1 SSTORE POP PUSH1 0x1 ADD PUSH2 0x79F JUMP JUMPDEST POP SWAP1 JUMP JUMPDEST PUSH0 DUP2 SWAP1 POP SWAP2 SWAP1 POP JUMP JUMPDEST PUSH2 0x7CB DUP2 PUSH2 0x7B9 JUMP JUMPDEST DUP3 MSTORE POP POP JUMP JUMPDEST PUSH0 PUSH1 0x20 DUP3 ADD SWAP1 POP PUSH2 0x7E4 PUSH0 DUP4 ADD DUP5 PUSH2 0x7C2 JUMP JUMPDEST SWAP3 SWAP2 POP POP JUMP JUMPDEST PUSH0 PUSH1 0x40 MLOAD SWAP1 POP SWAP1 JUMP JUMPDEST PUSH0 DUP1 REVERT JUMPDEST PUSH0 DUP1 REVERT JUMPDEST PUSH0 PUSH20 0xFFFFFFFFFFFFFFFFFFFFFFFFFFFFFFFFFFFFFFFF DUP3 AND SWAP1 POP SWAP2 SWAP1 POP JUMP JUMPDEST PUSH0 PUSH2 0x824 DUP3 PUSH2 0x7FB JUMP JUMPDEST SWAP1 POP SWAP2 SWAP1 POP JUMP JUMPDEST PUSH2 0x834 DUP2 PUSH2 0x81A JUMP JUMPDEST DUP2 EQ PUSH2 0x83E JUMPI PUSH0 DUP1 REVERT JUMPDEST POP JUMP JUMPDEST PUSH0 DUP2 CALLDATALOAD SWAP1 POP PUSH2 0x84F DUP2 PUSH2 0x82B JUMP JUMPDEST SWAP3 SWAP2 POP POP JUMP JUMPDEST PUSH0 DUP1 REVERT JUMPDEST PUSH0 DUP1 REVERT JUMPDEST PUSH0 PUSH1 0x1F NOT PUSH1 0x1F DUP4 ADD AND SWAP1 POP SWAP2 SWAP1 POP JUMP JUMPDEST PUSH32 0x4E487B7100000000000000000000000000000000000000000000000000000000 PUSH0 MSTORE PUSH1 0x41 PUSH1 0x4 MSTORE PUSH1 0x24 PUSH0 REVERT JUMPDEST PUSH2 0x8A3 DUP3 PUSH2 0x85D JUMP JUMPDEST DUP2 ADD DUP2 DUP2 LT PUSH8 0xFFFFFFFFFFFFFFFF DUP3 GT OR ISZERO PUSH2 0x8C2 JUMPI PUSH2 0x8C1 PUSH2 0x86D JUMP JUMPDEST JUMPDEST DUP1 PUSH1 0x40 MSTORE POP POP POP JUMP JUMPDEST PUSH0 PUSH2 0x8D4 PUSH2 0x7EA JUMP JUMPDEST SWAP1 POP PUSH2 0x8E0 DUP3 DUP3 PUSH2 0x89A JUMP JUMPDEST SWAP2 SWAP1 POP JUMP JUMPDEST PUSH0 PUSH8 0xFFFFFFFFFFFFFFFF DUP3 GT ISZERO PUSH2 0x8FF JUMPI PUSH2 0x8FE PUSH2 0x86D JUMP JUMPDEST JUMPDEST PUSH2 0x908 DUP3 PUSH2 0x85D JUMP JUMPDEST SWAP1 POP PUSH1 0x20 DUP2 ADD SWAP1 POP SWAP2 SWAP1 POP JUMP JUMPDEST DUP3 DUP2 DUP4 CALLDATACOPY PUSH0 DUP4 DUP4 ADD MSTORE POP POP POP JUMP JUMPDEST PUSH0 PUSH2 0x935 PUSH2 0x930 DUP5 PUSH2 0x8E5 JUMP JUMPDEST PUSH2 0x8CB JUMP JUMPDEST SWAP1 POP DUP3 DUP2 MSTORE PUSH1 0x20 DUP2 ADD DUP5 DUP5 DUP5 ADD GT ISZERO PUSH2 0x951 JUMPI PUSH2 0x950 PUSH2 0x859 JUMP JUMPDEST JUMPDEST PUSH2 0x95C DUP5 DUP3 DUP6 PUSH2 0x915 JUMP JUMPDEST POP SWAP4 SWAP3 POP POP POP JUMP JUMPDEST PUSH0 DUP3 PUSH1 0x1F DUP4 ADD SLT PUSH2 0x978 JUMPI PUSH2 0x977 PUSH2 0x855 JUMP JUMPDEST JUMPDEST DUP2 CALLDATALOAD PUSH2 0x988 DUP5 DUP3 PUSH1 0x20 DUP7 ADD PUSH2 0x923 JUMP JUMPDEST SWAP2 POP POP SWAP3 SWAP2 POP POP JUMP JUMPDEST PUSH0 DUP1 PUSH1 0x40 DUP4 DUP6 SUB SLT ISZERO PUSH2 0x9A7 JUMPI PUSH2 0x9A6 PUSH2 0x7F3 JUMP JUMPDEST JUMPDEST PUSH0 PUSH2 0x9B4 DUP6 DUP3 DUP7 ADD PUSH2 0x841 JUMP JUMPDEST SWAP3 POP POP PUSH1 0x20 DUP4 ADD CALLDATALOAD PUSH8 0xFFFFFFFFFFFFFFFF DUP2 GT ISZERO PUSH2 0x9D5 JUMPI PUSH2 0x9D4 PUSH2 0x7F7 JUMP JUMPDEST JUMPDEST PUSH2 0x9E1 DUP6 DUP3 DUP7 ADD PUSH2 0x964 JUMP JUMPDEST SWAP2 POP POP SWAP3 POP SWAP3 SWAP1 POP JUMP JUMPDEST PUSH0 DUP2 MLOAD SWAP1 POP SWAP2 SWAP1 POP JUMP JUMPDEST PUSH0 DUP3 DUP3 MSTORE PUSH1 0x20 DUP3 ADD SWAP1 POP SWAP3 SWAP2 POP POP JUMP JUMPDEST PUSH0 DUP2 SWAP1 POP PUSH1 0x20 DUP3 ADD SWAP1 POP SWAP2 SWAP1 POP JUMP JUMPDEST PUSH2 0xA1D DUP2 PUSH2 0x81A JUMP JUMPDEST DUP3 MSTORE POP POP JUMP JUMPDEST PUSH0 DUP2 MLOAD SWAP1 POP SWAP2 SWAP1 POP JUMP JUMPDEST PUSH0 DUP3 DUP3 MSTORE PUSH1 0x20 DUP3 ADD SWAP1 POP SWAP3 SWAP2 POP POP JUMP JUMPDEST DUP3 DUP2 DUP4 MCOPY PUSH0 DUP4 DUP4 ADD MSTORE POP POP POP JUMP JUMPDEST PUSH0 PUSH2 0xA55 DUP3 PUSH2 0xA23 JUMP JUMPDEST PUSH2 0xA5F DUP2 DUP6 PUSH2 0xA2D JUMP JUMPDEST SWAP4 POP PUSH2 0xA6F DUP2 DUP6 PUSH1 0x20 DUP7 ADD PUSH2 0xA3D JUMP JUMPDEST PUSH2 0xA78 DUP2 PUSH2 0x85D JUMP JUMPDEST DUP5 ADD SWAP2 POP POP SWAP3 SWAP2 POP POP JUMP JUMPDEST PUSH0 PUSH1 0x40 DUP4 ADD PUSH0 DUP4 ADD MLOAD PUSH2 0xA98 PUSH0 DUP7 ADD DUP3 PUSH2 0xA14 JUMP JUMPDEST POP PUSH1 0x20 DUP4 ADD MLOAD DUP5 DUP3 SUB PUSH1 0x20 DUP7 ADD MSTORE PUSH2 0xAB0 DUP3 DUP3 PUSH2 0xA4B JUMP JUMPDEST SWAP2 POP POP DUP1 SWAP2 POP POP SWAP3 SWAP2 POP POP JUMP JUMPDEST PUSH0 PUSH2 0xAC8 DUP4 DUP4 PUSH2 0xA83 JUMP JUMPDEST SWAP1 POP SWAP3 SWAP2 POP POP JUMP JUMPDEST PUSH0 PUSH1 0x20 DUP3 ADD SWAP1 POP SWAP2 SWAP1 POP JUMP JUMPDEST PUSH0 PUSH2 0xAE6 DUP3 PUSH2 0x9EB JUMP JUMPDEST PUSH2 0xAF0 DUP2 DUP6 PUSH2 0x9F5 JUMP JUMPDEST SWAP4 POP DUP4 PUSH1 0x20 DUP3 MUL DUP6 ADD PUSH2 0xB02 DUP6 PUSH2 0xA05 JUMP JUMPDEST DUP1 PUSH0 JUMPDEST DUP6 DUP2 LT ISZERO PUSH2 0xB3D JUMPI DUP5 DUP5 SUB DUP10 MSTORE DUP2 MLOAD PUSH2 0xB1E DUP6 DUP3 PUSH2 0xABD JUMP JUMPDEST SWAP5 POP PUSH2 0xB29 DUP4 PUSH2 0xAD0 JUMP JUMPDEST SWAP3 POP PUSH1 0x20 DUP11 ADD SWAP10 POP POP PUSH1 0x1 DUP2 ADD SWAP1 POP PUSH2 0xB05 JUMP JUMPDEST POP DUP3 SWAP8 POP DUP8 SWAP6 POP POP POP POP POP POP SWAP3 SWAP2 POP POP JUMP JUMPDEST PUSH0 PUSH1 0x20 DUP3 ADD SWAP1 POP DUP2 DUP2 SUB PUSH0 DUP4 ADD MSTORE PUSH2 0xB67 DUP2 DUP5 PUSH2 0xADC JUMP JUMPDEST SWAP1 POP SWAP3 SWAP2 POP POP JUMP JUMPDEST PUSH0 PUSH1 0x20 DUP3 DUP5 SUB SLT ISZERO PUSH2 0xB84 JUMPI PUSH2 0xB83 PUSH2 0x7F3 JUMP JUMPDEST JUMPDEST PUSH0 PUSH2 0xB91 DUP5 DUP3 DUP6 ADD PUSH2 0x841 JUMP JUMPDEST SWAP2 POP POP SWAP3 SWAP2 POP POP JUMP JUMPDEST PUSH0 DUP3 DUP3 MSTORE PUSH1 0x20 DUP3 ADD SWAP1 POP SWAP3 SWAP2 POP POP JUMP JUMPDEST PUSH32 0x496E73756666696369656E742062616C616E636520696E2074686520636F6E74 PUSH0 DUP3 ADD MSTORE PUSH32 0x7261637400000000000000000000000000000000000000000000000000000000 PUSH1 0x20 DUP3 ADD MSTORE POP JUMP JUMPDEST PUSH0 PUSH2 0xC04 PUSH1 0x24 DUP4 PUSH2 0xB9A JUMP JUMPDEST SWAP2 POP PUSH2 0xC0F DUP3 PUSH2 0xBAA JUMP JUMPDEST PUSH1 0x40 DUP3 ADD SWAP1 POP SWAP2 SWAP1 POP JUMP JUMPDEST PUSH0 PUSH1 0x20 DUP3 ADD SWAP1 POP DUP2 DUP2 SUB PUSH0 DUP4 ADD MSTORE PUSH2 0xC31 DUP2 PUSH2 0xBF8 JUMP JUMPDEST SWAP1 POP SWAP2 SWAP1 POP JUMP JUMPDEST PUSH32 0x4E487B7100000000000000000000000000000000000000000000000000000000 PUSH0 MSTORE PUSH1 0x12 PUSH1 0x4 MSTORE PUSH1 0x24 PUSH0 REVERT JUMPDEST PUSH32 0x4E487B7100000000000000000000000000000000000000000000000000000000 PUSH0 MSTORE PUSH1 0x11 PUSH1 0x4 MSTORE PUSH1 0x24 PUSH0 REVERT JUMPDEST PUSH0 PUSH2 0xC9C DUP3 PUSH2 0x7B9 JUMP JUMPDEST SWAP2 POP PUSH2 0xCA7 DUP4 PUSH2 0x7B9 JUMP JUMPDEST SWAP3 POP DUP3 PUSH2 0xCB7 JUMPI PUSH2 0xCB6 PUSH2 0xC38 JUMP JUMPDEST JUMPDEST DUP3 DUP3 DIV SWAP1 POP SWAP3 SWAP2 POP POP JUMP JUMPDEST PUSH32 0x4E487B7100000000000000000000000000000000000000000000000000000000 PUSH0 MSTORE PUSH1 0x32 PUSH1 0x4 MSTORE PUSH1 0x24 PUSH0 REVERT JUMPDEST PUSH32 0x4F6E6C7920746865206F776E65722063616E2063616C6C20746869732066756E PUSH0 DUP3 ADD MSTORE PUSH32 0x6374696F6E000000000000000000000000000000000000000000000000000000 PUSH1 0x20 DUP3 ADD MSTORE POP JUMP JUMPDEST PUSH0 PUSH2 0xD49 PUSH1 0x25 DUP4 PUSH2 0xB9A JUMP JUMPDEST SWAP2 POP PUSH2 0xD54 DUP3 PUSH2 0xCEF JUMP JUMPDEST PUSH1 0x40 DUP3 ADD SWAP1 POP SWAP2 SWAP1 POP JUMP JUMPDEST PUSH0 PUSH1 0x20 DUP3 ADD SWAP1 POP DUP2 DUP2 SUB PUSH0 DUP4 ADD MSTORE PUSH2 0xD76 DUP2 PUSH2 0xD3D JUMP JUMPDEST SWAP1 POP SWAP2 SWAP1 POP JUMP JUMPDEST PUSH32 0x4E487B7100000000000000000000000000000000000000000000000000000000 PUSH0 MSTORE PUSH1 0x22 PUSH1 0x4 MSTORE PUSH1 0x24 PUSH0 REVERT JUMPDEST PUSH0 PUSH1 0x2 DUP3 DIV SWAP1 POP PUSH1 0x1 DUP3 AND DUP1 PUSH2 0xDC1 JUMPI PUSH1 0x7F DUP3 AND SWAP2 POP JUMPDEST PUSH1 0x20 DUP3 LT DUP2 SUB PUSH2 0xDD4 JUMPI PUSH2 0xDD3 PUSH2 0xD7D JUMP JUMPDEST JUMPDEST POP SWAP2 SWAP1 POP JUMP JUMPDEST PUSH0 DUP2 SWAP1 POP DUP2 PUSH0 MSTORE PUSH1 0x20 PUSH0 KECCAK256 SWAP1 POP SWAP2 SWAP1 POP JUMP JUMPDEST PUSH0 PUSH1 0x20 PUSH1 0x1F DUP4 ADD DIV SWAP1 POP SWAP2 SWAP1 POP JUMP JUMPDEST PUSH0 DUP3 DUP3 SHL SWAP1 POP SWAP3 SWAP2 POP POP JUMP JUMPDEST PUSH0 PUSH1 0x8 DUP4 MUL PUSH2 0xE36 PUSH32 0xFFFFFFFFFFFFFFFFFFFFFFFFFFFFFFFFFFFFFFFFFFFFFFFFFFFFFFFFFFFFFFFF DUP3 PUSH2 0xDFB JUMP JUMPDEST PUSH2 0xE40 DUP7 DUP4 PUSH2 0xDFB JUMP JUMPDEST SWAP6 POP DUP1 NOT DUP5 AND SWAP4 POP DUP1 DUP7 AND DUP5 OR SWAP3 POP POP POP SWAP4 SWAP3 POP POP POP JUMP JUMPDEST PUSH0 DUP2 SWAP1 POP SWAP2 SWAP1 POP JUMP JUMPDEST PUSH0 PUSH2 0xE7B PUSH2 0xE76 PUSH2 0xE71 DUP5 PUSH2 0x7B9 JUMP JUMPDEST PUSH2 0xE58 JUMP JUMPDEST PUSH2 0x7B9 JUMP JUMPDEST SWAP1 POP SWAP2 SWAP1 POP JUMP JUMPDEST PUSH0 DUP2 SWAP1 POP SWAP2 SWAP1 POP JUMP JUMPDEST PUSH2 0xE94 DUP4 PUSH2 0xE61 JUMP JUMPDEST PUSH2 0xEA8 PUSH2 0xEA0 DUP3 PUSH2 0xE82 JUMP JUMPDEST DUP5 DUP5 SLOAD PUSH2 0xE07 JUMP JUMPDEST DUP3 SSTORE POP POP POP POP JUMP JUMPDEST PUSH0 SWAP1 JUMP JUMPDEST PUSH2 0xEBC PUSH2 0xEB0 JUMP JUMPDEST PUSH2 0xEC7 DUP2 DUP5 DUP5 PUSH2 0xE8B JUMP JUMPDEST POP POP POP JUMP JUMPDEST JUMPDEST DUP2 DUP2 LT ISZERO PUSH2 0xEEA JUMPI PUSH2 0xEDF PUSH0 DUP3 PUSH2 0xEB4 JUMP JUMPDEST PUSH1 0x1 DUP2 ADD SWAP1 POP PUSH2 0xECD JUMP JUMPDEST POP POP JUMP JUMPDEST PUSH1 0x1F DUP3 GT ISZERO PUSH2 0xF2F JUMPI PUSH2 0xF00 DUP2 PUSH2 0xDDA JUMP JUMPDEST PUSH2 0xF09 DUP5 PUSH2 0xDEC JUMP JUMPDEST DUP2 ADD PUSH1 0x20 DUP6 LT ISZERO PUSH2 0xF18 JUMPI DUP2 SWAP1 POP JUMPDEST PUSH2 0xF2C PUSH2 0xF24 DUP6 PUSH2 0xDEC JUMP JUMPDEST DUP4 ADD DUP3 PUSH2 0xECC JUMP JUMPDEST POP POP JUMPDEST POP POP POP JUMP JUMPDEST PUSH0 DUP3 DUP3 SHR SWAP1 POP SWAP3 SWAP2 POP POP JUMP JUMPDEST PUSH0 PUSH2 0xF4F PUSH0 NOT DUP5 PUSH1 0x8 MUL PUSH2 0xF34 JUMP JUMPDEST NOT DUP1 DUP4 AND SWAP2 POP POP SWAP3 SWAP2 POP POP JUMP JUMPDEST PUSH0 PUSH2 0xF67 DUP4 DUP4 PUSH2 0xF40 JUMP JUMPDEST SWAP2 POP DUP3 PUSH1 0x2 MUL DUP3 OR SWAP1 POP SWAP3 SWAP2 POP POP JUMP JUMPDEST PUSH2 0xF80 DUP3 PUSH2 0xA23 JUMP JUMPDEST PUSH8 0xFFFFFFFFFFFFFFFF DUP2 GT ISZERO PUSH2 0xF99 JUMPI PUSH2 0xF98 PUSH2 0x86D JUMP JUMPDEST JUMPDEST PUSH2 0xFA3 DUP3 SLOAD PUSH2 0xDAA JUMP JUMPDEST PUSH2 0xFAE DUP3 DUP3 DUP6 PUSH2 0xEEE JUMP JUMPDEST PUSH0 PUSH1 0x20 SWAP1 POP PUSH1 0x1F DUP4 GT PUSH1 0x1 DUP2 EQ PUSH2 0xFDF JUMPI PUSH0 DUP5 ISZERO PUSH2 0xFCD JUMPI DUP3 DUP8 ADD MLOAD SWAP1 POP JUMPDEST PUSH2 0xFD7 DUP6 DUP3 PUSH2 0xF5C JUMP JUMPDEST DUP7 SSTORE POP PUSH2 0x103E JUMP JUMPDEST PUSH1 0x1F NOT DUP5 AND PUSH2 0xFED DUP7 PUSH2 0xDDA JUMP JUMPDEST PUSH0 JUMPDEST DUP3 DUP2 LT ISZERO PUSH2 0x1014 JUMPI DUP5 DUP10 ADD MLOAD DUP3 SSTORE PUSH1 0x1 DUP3 ADD SWAP2 POP PUSH1 0x20 DUP6 ADD SWAP5 POP PUSH1 0x20 DUP2 ADD SWAP1 POP PUSH2 0xFEF JUMP JUMPDEST DUP7 DUP4 LT ISZERO PUSH2 0x1031 JUMPI DUP5 DUP10 ADD MLOAD PUSH2 0x102D PUSH1 0x1F DUP10 AND DUP3 PUSH2 0xF40 JUMP JUMPDEST DUP4 SSTORE POP JUMPDEST PUSH1 0x1 PUSH1 0x2 DUP9 MUL ADD DUP9 SSTORE POP POP POP JUMPDEST POP POP POP POP POP POP JUMP JUMPDEST PUSH0 PUSH2 0x1050 DUP3 PUSH2 0x7B9 JUMP JUMPDEST SWAP2 POP PUSH2 0x105B DUP4 PUSH2 0x7B9 JUMP JUMPDEST SWAP3 POP DUP3 DUP3 SUB SWAP1 POP DUP2 DUP2 GT ISZERO PUSH2 0x1073 JUMPI PUSH2 0x1072 PUSH2 0xC65 JUMP JUMPDEST JUMPDEST SWAP3 SWAP2 POP POP JUMP JUMPDEST PUSH0 PUSH2 0x1083 DUP3 PUSH2 0x7B9 JUMP JUMPDEST SWAP2 POP PUSH2 0x108E DUP4 PUSH2 0x7B9 JUMP JUMPDEST SWAP3 POP DUP3 DUP3 ADD SWAP1 POP DUP1 DUP3 GT ISZERO PUSH2 0x10A6 JUMPI PUSH2 0x10A5 PUSH2 0xC65 JUMP JUMPDEST JUMPDEST SWAP3 SWAP2 POP POP JUMP JUMPDEST PUSH0 DUP2 SLOAD SWAP1 POP PUSH2 0x10BA DUP2 PUSH2 0xDAA JUMP JUMPDEST SWAP1 POP SWAP2 SWAP1 POP JUMP JUMPDEST DUP2 DUP2 SUB PUSH2 0x10CF JUMPI POP POP PUSH2 0x11A4 JUMP JUMPDEST PUSH2 0x10D8 DUP3 PUSH2 0x10AC JUMP JUMPDEST PUSH8 0xFFFFFFFFFFFFFFFF DUP2 GT ISZERO PUSH2 0x10F1 JUMPI PUSH2 0x10F0 PUSH2 0x86D JUMP JUMPDEST JUMPDEST PUSH2 0x10FB DUP3 SLOAD PUSH2 0xDAA JUMP JUMPDEST PUSH2 0x1106 DUP3 DUP3 DUP6 PUSH2 0xEEE JUMP JUMPDEST PUSH0 PUSH1 0x1F DUP4 GT PUSH1 0x1 DUP2 EQ PUSH2 0x1133 JUMPI PUSH0 DUP5 ISZERO PUSH2 0x1121 JUMPI DUP3 DUP8 ADD SLOAD SWAP1 POP JUMPDEST PUSH2 0x112B DUP6 DUP3 PUSH2 0xF5C JUMP JUMPDEST DUP7 SSTORE POP PUSH2 0x119D JUMP JUMPDEST PUSH1 0x1F NOT DUP5 AND PUSH2 0x1141 DUP8 PUSH2 0xDDA JUMP JUMPDEST SWAP7 POP PUSH2 0x114C DUP7 PUSH2 0xDDA JUMP JUMPDEST PUSH0 JUMPDEST DUP3 DUP2 LT ISZERO PUSH2 0x1173 JUMPI DUP5 DUP10 ADD SLOAD DUP3 SSTORE PUSH1 0x1 DUP3 ADD SWAP2 POP PUSH1 0x1 DUP6 ADD SWAP5 POP PUSH1 0x20 DUP2 ADD SWAP1 POP PUSH2 0x114E JUMP JUMPDEST DUP7 DUP4 LT ISZERO PUSH2 0x1190 JUMPI DUP5 DUP10 ADD SLOAD PUSH2 0x118C PUSH1 0x1F DUP10 AND DUP3 PUSH2 0xF40 JUMP JUMPDEST DUP4 SSTORE POP JUMPDEST PUSH1 0x1 PUSH1 0x2 DUP9 MUL ADD DUP9 SSTORE POP POP POP JUMPDEST POP POP POP POP POP POP JUMPDEST JUMP JUMPDEST PUSH32 0x4E487B7100000000000000000000000000000000000000000000000000000000 PUSH0 MSTORE PUSH1 0x31 PUSH1 0x4 MSTORE PUSH1 0x24 PUSH0 REVERT INVALID LOG2 PUSH5 0x6970667358 0x22 SLT KECCAK256 PUSH7 0x39F45BF623CF97 0xD0 0x23 0xC5 0xDA 0xE7 0x2D MLOAD PUSH18 0x45AC871F921D4A2561D2EA0033381CD6473 PUSH16 0x6C634300081A00330000000000000000 "
				},
				"gasEstimates": {
					"creation": {
						"codeDepositCost": "923400",
						"executionCost": "25225",
						"totalCost": "948625"
					},
					"external": {
						"addWaitress(address,string)": "infinite",
						"addtips()": "163",
						"distrubiteTips()": "infinite",
						"removeWaitree(address)": "infinite",
						"viewWaitrass()": "infinite",
						"viewtips()": "312"
					},
					"internal": {
						"transfer(address payable,uint256)": "infinite"
					}
				},
				"methodIdentifiers": {
					"addWaitress(address,string)": "5495befd",
					"addtips()": "6e7301fd",
					"distrubiteTips()": "421eb959",
					"removeWaitree(address)": "ece39670",
					"viewWaitrass()": "8acd3103",
					"viewtips()": "2a08deda"
				}
			},
			"storageLayout": {
				"storage": [
					{
						"astId": 3,
						"contract": "Project.sol:tips",
						"label": "owner",
						"offset": 0,
						"slot": "0",
						"type": "t_address"
					},
					{
						"astId": 7,
						"contract": "Project.sol:tips",
						"label": "waitress",
						"offset": 0,
						"slot": "1",
						"type": "t_array(t_struct(Waiteress)37_storage)dyn_storage"
					}
				],
				"types": {
					"t_address": {
						"encoding": "inplace",
						"label": "address",
						"numberOfBytes": "20"
					},
					"t_address_payable": {
						"encoding": "inplace",
						"label": "address payable",
						"numberOfBytes": "20"
					},
					"t_array(t_struct(Waiteress)37_storage)dyn_storage": {
						"base": "t_struct(Waiteress)37_storage",
						"encoding": "dynamic_array",
						"label": "struct tips.Waiteress[]",
						"numberOfBytes": "32"
					},
					"t_string_storage": {
						"encoding": "bytes",
						"label": "string",
						"numberOfBytes": "32"
					},
					"t_struct(Waiteress)37_storage": {
						"encoding": "inplace",
						"label": "struct tips.Waiteress",
						"members": [
							{
								"astId": 34,
								"contract": "Project.sol:tips",
								"label": "walletAddress",
								"offset": 0,
								"slot": "0",
								"type": "t_address_payable"
							},
							{
								"astId": 36,
								"contract": "Project.sol:tips",
								"label": "name",
								"offset": 0,
								"slot": "1",
								"type": "t_string_storage"
							}
						],
						"numberOfBytes": "64"
					}
				}
			},
			"userdoc": {
				"kind": "user",
				"methods": {},
				"version": 1
			}
		}
	}
}